{
  "address": "0xd0540138c92a94332bEaa1417db8245058e6095B",
  "abi": [
    {
      "inputs": [
        {
          "internalType": "contract IRegistry",
          "name": "_registry",
          "type": "address"
        }
      ],
      "stateMutability": "nonpayable",
      "type": "constructor"
    },
    {
      "inputs": [],
      "name": "EmptyAddress",
      "type": "error"
    },
    {
      "inputs": [],
      "name": "REGISTRY",
      "outputs": [
        {
          "internalType": "contract IRegistry",
          "name": "",
          "type": "address"
        }
      ],
      "stateMutability": "view",
      "type": "function"
    },
    {
      "inputs": [
        {
          "internalType": "string",
          "name": "_key",
          "type": "string"
        }
      ],
      "name": "deploy",
      "outputs": [
        {
          "internalType": "contract UmbrellaFeedsReader",
          "name": "reader",
          "type": "address"
        }
      ],
      "stateMutability": "nonpayable",
      "type": "function"
    },
    {
      "inputs": [
        {
          "internalType": "string",
          "name": "_key",
          "type": "string"
        }
      ],
      "name": "deployed",
      "outputs": [
        {
          "internalType": "contract UmbrellaFeedsReader",
          "name": "",
          "type": "address"
        }
      ],
      "stateMutability": "view",
      "type": "function"
    },
    {
      "inputs": [],
      "name": "getName",
      "outputs": [
        {
          "internalType": "bytes32",
          "name": "",
          "type": "bytes32"
        }
      ],
      "stateMutability": "pure",
      "type": "function"
    },
    {
      "inputs": [
        {
          "internalType": "string",
          "name": "_key",
          "type": "string"
        }
      ],
      "name": "hash",
      "outputs": [
        {
          "internalType": "bytes32",
          "name": "",
          "type": "bytes32"
        }
      ],
      "stateMutability": "pure",
      "type": "function"
    },
    {
      "inputs": [
        {
          "internalType": "bytes32",
          "name": "",
          "type": "bytes32"
        }
      ],
      "name": "readers",
      "outputs": [
        {
          "internalType": "contract UmbrellaFeedsReader",
          "name": "",
          "type": "address"
        }
      ],
      "stateMutability": "view",
      "type": "function"
    }
  ],
  "transactionHash": "0x93258ecb4845628d1720bb9a115c75ed4875a5db5d1996401ef92cefc6cfcfd4",
  "args": [
    "0x92010E763d476A732021191562134c488ca92a1F"
  ],
  "numDeployments": 1,
  "solcInputHash": "fddd9696c3883594e53d8bdef5d80642",
  "bytecode": "0x60a060405234801561001057600080fd5b506040516120c03803806120c083398181016040528101906100329190610147565b600073ffffffffffffffffffffffffffffffffffffffff168173ffffffffffffffffffffffffffffffffffffffff1603610098576040517f7138356f00000000000000000000000000000000000000000000000000000000815260040160405180910390fd5b8073ffffffffffffffffffffffffffffffffffffffff1660808173ffffffffffffffffffffffffffffffffffffffff168152505050610174565b600080fd5b600073ffffffffffffffffffffffffffffffffffffffff82169050919050565b6000610102826100d7565b9050919050565b6000610114826100f7565b9050919050565b61012481610109565b811461012f57600080fd5b50565b6000815190506101418161011b565b92915050565b60006020828403121561015d5761015c6100d2565b5b600061016b84828501610132565b91505092915050565b608051611f2a6101966000396000818161018d01526102620152611f2a6000f3fe60806040523480156200001157600080fd5b50600436106200006a5760003560e01c806306433b1b146200006f5780630d5befc1146200009157806317d7de7c14620000c7578063b411ee9414620000e9578063c7602316146200011f578063c7ee05191462000155575b600080fd5b620000796200018b565b60405162000088919062000551565b60405180910390f35b620000af6004803603810190620000a99190620006e4565b620001af565b604051620000be91906200075a565b60405180910390f35b620000d1620001f5565b604051620000e0919062000792565b60405180910390f35b620001076004803603810190620001019190620006e4565b6200021d565b60405162000116919062000792565b60405180910390f35b6200013d6004803603810190620001379190620006e4565b6200024f565b6040516200014c91906200075a565b60405180910390f35b6200017360048036038101906200016d9190620007e0565b62000485565b6040516200018291906200075a565b60405180910390f35b7f000000000000000000000000000000000000000000000000000000000000000081565b6000806000620001bf846200021d565b815260200190815260200160002060009054906101000a900473ffffffffffffffffffffffffffffffffffffffff169050919050565b60007f556d6272656c6c614665656473526561646572466163746f7279000000000000905090565b60008160405160200162000232919062000895565b604051602081830303815290604052805190602001209050919050565b60006200025c82620001af565b905060007f000000000000000000000000000000000000000000000000000000000000000073ffffffffffffffffffffffffffffffffffffffff1663e8f98f886040518163ffffffff1660e01b8152600401620002b9906200090f565b602060405180830381865afa158015620002d7573d6000803e3d6000fd5b505050506040513d601f19601f82011682018060405250810190620002fd919062000976565b9050600073ffffffffffffffffffffffffffffffffffffffff168273ffffffffffffffffffffffffffffffffffffffff1614158015620003d957508073ffffffffffffffffffffffffffffffffffffffff168273ffffffffffffffffffffffffffffffffffffffff1663bb25b1ea6040518163ffffffff1660e01b8152600401602060405180830381865afa1580156200039b573d6000803e3d6000fd5b505050506040513d601f19601f82011682018060405250810190620003c19190620009ed565b73ffffffffffffffffffffffffffffffffffffffff16145b15620003e6575062000480565b8083604051620003f690620004b8565b6200040392919062000a85565b604051809103906000f08015801562000420573d6000803e3d6000fd5b5091508160008062000432866200021d565b815260200190815260200160002060006101000a81548173ffffffffffffffffffffffffffffffffffffffff021916908373ffffffffffffffffffffffffffffffffffffffff160217905550505b919050565b60006020528060005260406000206000915054906101000a900473ffffffffffffffffffffffffffffffffffffffff1681565b61143b8062000aba83390190565b600073ffffffffffffffffffffffffffffffffffffffff82169050919050565b6000819050919050565b6000620005116200050b6200050584620004c6565b620004e6565b620004c6565b9050919050565b60006200052582620004f0565b9050919050565b6000620005398262000518565b9050919050565b6200054b816200052c565b82525050565b600060208201905062000568600083018462000540565b92915050565b6000604051905090565b600080fd5b600080fd5b600080fd5b600080fd5b6000601f19601f8301169050919050565b7f4e487b7100000000000000000000000000000000000000000000000000000000600052604160045260246000fd5b620005d7826200058c565b810181811067ffffffffffffffff82111715620005f957620005f86200059d565b5b80604052505050565b60006200060e6200056e565b90506200061c8282620005cc565b919050565b600067ffffffffffffffff8211156200063f576200063e6200059d565b5b6200064a826200058c565b9050602081019050919050565b82818337600083830152505050565b60006200067d620006778462000621565b62000602565b9050828152602081018484840111156200069c576200069b62000587565b5b620006a984828562000657565b509392505050565b600082601f830112620006c957620006c862000582565b5b8135620006db84826020860162000666565b91505092915050565b600060208284031215620006fd57620006fc62000578565b5b600082013567ffffffffffffffff8111156200071e576200071d6200057d565b5b6200072c84828501620006b1565b91505092915050565b6000620007428262000518565b9050919050565b620007548162000735565b82525050565b600060208201905062000771600083018462000749565b92915050565b6000819050919050565b6200078c8162000777565b82525050565b6000602082019050620007a9600083018462000781565b92915050565b620007ba8162000777565b8114620007c657600080fd5b50565b600081359050620007da81620007af565b92915050565b600060208284031215620007f957620007f862000578565b5b60006200080984828501620007c9565b91505092915050565b600081519050919050565b600081905092915050565b60005b83811015620008485780820151818401526020810190506200082b565b8381111562000858576000848401525b50505050565b60006200086b8262000812565b6200087781856200081d565b93506200088981856020860162000828565b80840191505092915050565b6000620008a382846200085e565b915081905092915050565b600082825260208201905092915050565b7f556d6272656c6c61466565647300000000000000000000000000000000000000600082015250565b6000620008f7600d83620008ae565b91506200090482620008bf565b602082019050919050565b600060208201905081810360008301526200092a81620008e8565b9050919050565b60006200093e82620004c6565b9050919050565b620009508162000931565b81146200095c57600080fd5b50565b600081519050620009708162000945565b92915050565b6000602082840312156200098f576200098e62000578565b5b60006200099f848285016200095f565b91505092915050565b6000620009b58262000931565b9050919050565b620009c781620009a8565b8114620009d357600080fd5b50565b600081519050620009e781620009bc565b92915050565b60006020828403121562000a065762000a0562000578565b5b600062000a1684828501620009d6565b91505092915050565b600062000a2c8262000518565b9050919050565b62000a3e8162000a1f565b82525050565b600062000a518262000812565b62000a5d8185620008ae565b935062000a6f81856020860162000828565b62000a7a816200058c565b840191505092915050565b600060408201905062000a9c600083018562000a33565b818103602083015262000ab0818462000a44565b9050939250505056fe60e06040523480156200001157600080fd5b506040516200143b3803806200143b833981810160405281019062000037919062000487565b8173ffffffffffffffffffffffffffffffffffffffff1660808173ffffffffffffffffffffffffffffffffffffffff1681525050806000908051906020019062000083929190620001c1565b508173ffffffffffffffffffffffffffffffffffffffff16632e0f26256040518163ffffffff1660e01b8152600401602060405180830381865afa158015620000d0573d6000803e3d6000fd5b505050506040513d601f19601f82011682018060405250810190620000f691906200052b565b60ff1660c08160ff1681525050600081604051602001620001189190620005aa565b6040516020818303038152906040528051906020012090508060a081815250508273ffffffffffffffffffffffffffffffffffffffff166343fa6211826040518263ffffffff1660e01b8152600401620001739190620005de565b608060405180830381865afa15801562000191573d6000803e3d6000fd5b505050506040513d601f19601f82011682018060405250810190620001b7919062000753565b50505050620007e9565b828054620001cf90620007b4565b90600052602060002090601f016020900481019282620001f357600085556200023f565b82601f106200020e57805160ff19168380011785556200023f565b828001600101855582156200023f579182015b828111156200023e57825182559160200191906001019062000221565b5b5090506200024e919062000252565b5090565b5b808211156200026d57600081600090555060010162000253565b5090565b6000604051905090565b600080fd5b600080fd5b600073ffffffffffffffffffffffffffffffffffffffff82169050919050565b6000620002b28262000285565b9050919050565b6000620002c682620002a5565b9050919050565b620002d881620002b9565b8114620002e457600080fd5b50565b600081519050620002f881620002cd565b92915050565b600080fd5b600080fd5b6000601f19601f8301169050919050565b7f4e487b7100000000000000000000000000000000000000000000000000000000600052604160045260246000fd5b620003538262000308565b810181811067ffffffffffffffff8211171562000375576200037462000319565b5b80604052505050565b60006200038a62000271565b905062000398828262000348565b919050565b600067ffffffffffffffff821115620003bb57620003ba62000319565b5b620003c68262000308565b9050602081019050919050565b60005b83811015620003f3578082015181840152602081019050620003d6565b8381111562000403576000848401525b50505050565b6000620004206200041a846200039d565b6200037e565b9050828152602081018484840111156200043f576200043e62000303565b5b6200044c848285620003d3565b509392505050565b600082601f8301126200046c576200046b620002fe565b5b81516200047e84826020860162000409565b91505092915050565b60008060408385031215620004a157620004a06200027b565b5b6000620004b185828601620002e7565b925050602083015167ffffffffffffffff811115620004d557620004d462000280565b5b620004e38582860162000454565b9150509250929050565b600060ff82169050919050565b6200050581620004ed565b81146200051157600080fd5b50565b6000815190506200052581620004fa565b92915050565b6000602082840312156200054457620005436200027b565b5b6000620005548482850162000514565b91505092915050565b600081519050919050565b600081905092915050565b600062000580826200055d565b6200058c818562000568565b93506200059e818560208601620003d3565b80840191505092915050565b6000620005b8828462000573565b915081905092915050565b6000819050919050565b620005d881620005c3565b82525050565b6000602082019050620005f56000830184620005cd565b92915050565b600080fd5b600062ffffff82169050919050565b6200061a8162000600565b81146200062657600080fd5b50565b6000815190506200063a816200060f565b92915050565b600063ffffffff82169050919050565b6200065b8162000640565b81146200066757600080fd5b50565b6000815190506200067b8162000650565b92915050565b60006fffffffffffffffffffffffffffffffff82169050919050565b620006a88162000681565b8114620006b457600080fd5b50565b600081519050620006c8816200069d565b92915050565b600060808284031215620006e757620006e6620005fb565b5b620006f360806200037e565b90506000620007058482850162000514565b60008301525060206200071b8482850162000629565b602083015250604062000731848285016200066a565b60408301525060606200074784828501620006b7565b60608301525092915050565b6000608082840312156200076c576200076b6200027b565b5b60006200077c84828501620006ce565b91505092915050565b7f4e487b7100000000000000000000000000000000000000000000000000000000600052602260045260246000fd5b60006002820490506001821680620007cd57607f821691505b602082108103620007e357620007e262000785565b5b50919050565b60805160a05160c051610bf16200084a600039600081816101c001526101e601526000818161019c015281816102e2015281816103a901526105230152600081816102a60152818161036d0152818161042c01526104e70152610bf16000f3fe608060405234801561001057600080fd5b50600436106100835760003560e01c80632dc387b3146100885780632e0f2625146100a6578063313ce567146100c45780637284e416146100e257806376ded13514610100578063a4a281681461011e578063bb25b1ea1461013c578063f1ae88561461015a578063feaf968c14610178575b600080fd5b61009061019a565b60405161009d919061063f565b60405180910390f35b6100ae6101be565b6040516100bb9190610676565b60405180910390f35b6100cc6101e2565b6040516100d99190610676565b60405180910390f35b6100ea61020a565b6040516100f7919061072a565b60405180910390f35b61010861029c565b6040516101159190610818565b60405180910390f35b610126610363565b6040516101339190610818565b60405180910390f35b61014461042a565b60405161015191906108b2565b60405180910390f35b61016261044e565b60405161016f919061072a565b60405180910390f35b6101806104dc565b604051610191959493929190610924565b60405180910390f35b7f000000000000000000000000000000000000000000000000000000000000000081565b7f000000000000000000000000000000000000000000000000000000000000000081565b60007f0000000000000000000000000000000000000000000000000000000000000000905090565b606060008054610219906109a6565b80601f0160208091040260200160405190810160405280929190818152602001828054610245906109a6565b80156102925780601f1061026757610100808354040283529160200191610292565b820191906000526020600020905b81548152906001019060200180831161027557829003601f168201915b5050505050905090565b6102a46105de565b7f000000000000000000000000000000000000000000000000000000000000000073ffffffffffffffffffffffffffffffffffffffff166317c5d7987f00000000000000000000000000000000000000000000000000000000000000006040518263ffffffff1660e01b815260040161031d919061063f565b608060405180830381865afa15801561033a573d6000803e3d6000fd5b505050506040513d601f19601f8201168201806040525081019061035e9190610b8e565b905090565b61036b6105de565b7f000000000000000000000000000000000000000000000000000000000000000073ffffffffffffffffffffffffffffffffffffffff166343fa62117f00000000000000000000000000000000000000000000000000000000000000006040518263ffffffff1660e01b81526004016103e4919061063f565b608060405180830381865afa158015610401573d6000803e3d6000fd5b505050506040513d601f19601f820116820180604052508101906104259190610b8e565b905090565b7f000000000000000000000000000000000000000000000000000000000000000081565b6000805461045b906109a6565b80601f0160208091040260200160405190810160405280929190818152602001828054610487906109a6565b80156104d45780601f106104a9576101008083540402835291602001916104d4565b820191906000526020600020905b8154815290600101906020018083116104b757829003601f168201915b505050505081565b6000806000806000807f000000000000000000000000000000000000000000000000000000000000000073ffffffffffffffffffffffffffffffffffffffff166343fa62117f00000000000000000000000000000000000000000000000000000000000000006040518263ffffffff1660e01b815260040161055e919061063f565b608060405180830381865afa15801561057b573d6000803e3d6000fd5b505050506040513d601f19601f8201168201806040525081019061059f9190610b8e565b9050600081606001516fffffffffffffffffffffffffffffffff166000836040015160008163ffffffff16915095509550955095509550509091929394565b6040518060800160405280600060ff168152602001600062ffffff168152602001600063ffffffff16815260200160006fffffffffffffffffffffffffffffffff1681525090565b6000819050919050565b61063981610626565b82525050565b60006020820190506106546000830184610630565b92915050565b600060ff82169050919050565b6106708161065a565b82525050565b600060208201905061068b6000830184610667565b92915050565b600081519050919050565b600082825260208201905092915050565b60005b838110156106cb5780820151818401526020810190506106b0565b838111156106da576000848401525b50505050565b6000601f19601f8301169050919050565b60006106fc82610691565b610706818561069c565b93506107168185602086016106ad565b61071f816106e0565b840191505092915050565b6000602082019050818103600083015261074481846106f1565b905092915050565b6107558161065a565b82525050565b600062ffffff82169050919050565b6107738161075b565b82525050565b600063ffffffff82169050919050565b61079281610779565b82525050565b60006fffffffffffffffffffffffffffffffff82169050919050565b6107bd81610798565b82525050565b6080820160008201516107d9600085018261074c565b5060208201516107ec602085018261076a565b5060408201516107ff6040850182610789565b50606082015161081260608501826107b4565b50505050565b600060808201905061082d60008301846107c3565b92915050565b600073ffffffffffffffffffffffffffffffffffffffff82169050919050565b6000819050919050565b600061087861087361086e84610833565b610853565b610833565b9050919050565b600061088a8261085d565b9050919050565b600061089c8261087f565b9050919050565b6108ac81610891565b82525050565b60006020820190506108c760008301846108a3565b92915050565b600069ffffffffffffffffffff82169050919050565b6108ec816108cd565b82525050565b6000819050919050565b610905816108f2565b82525050565b6000819050919050565b61091e8161090b565b82525050565b600060a08201905061093960008301886108e3565b61094660208301876108fc565b6109536040830186610915565b6109606060830185610915565b61096d60808301846108e3565b9695505050505050565b7f4e487b7100000000000000000000000000000000000000000000000000000000600052602260045260246000fd5b600060028204905060018216806109be57607f821691505b6020821081036109d1576109d0610977565b5b50919050565b6000604051905090565b600080fd5b600080fd5b7f4e487b7100000000000000000000000000000000000000000000000000000000600052604160045260246000fd5b610a23826106e0565b810181811067ffffffffffffffff82111715610a4257610a416109eb565b5b80604052505050565b6000610a556109d7565b9050610a618282610a1a565b919050565b610a6f8161065a565b8114610a7a57600080fd5b50565b600081519050610a8c81610a66565b92915050565b610a9b8161075b565b8114610aa657600080fd5b50565b600081519050610ab881610a92565b92915050565b610ac781610779565b8114610ad257600080fd5b50565b600081519050610ae481610abe565b92915050565b610af381610798565b8114610afe57600080fd5b50565b600081519050610b1081610aea565b92915050565b600060808284031215610b2c57610b2b6109e6565b5b610b366080610a4b565b90506000610b4684828501610a7d565b6000830152506020610b5a84828501610aa9565b6020830152506040610b6e84828501610ad5565b6040830152506060610b8284828501610b01565b60608301525092915050565b600060808284031215610ba457610ba36109e1565b5b6000610bb284828501610b16565b9150509291505056fea2646970667358221220a6efce60c9413e34abe91e55ea13bb69dc4254691002ae49ebab69787324655664736f6c634300080d0033a26469706673582212205dd3f6247f283e228a67bf9af0a67f01adec229db7cb84b4c0abacc6b4448b4f64736f6c634300080d0033",
  "devdoc": {
    "details": "Factory to deploy UmbrellaFeedsReader contract",
    "kind": "dev",
    "methods": {
      "deploy(string)": {
        "details": "Method to deploy new UmbrellaFeedsReader for particular key. This deployment is optional and it can be done by anyone who needs it. Reader can be used to simplify migration from Chainlink to Umbrella. Check UmbrellaFeedsReader docs for more details. We not using minimal proxy because it does not allow for immutable variables.",
        "params": {
          "_key": "string Feed key that is registered in UmbrellaFeeds"
        },
        "returns": {
          "reader": "UmbrellaFeedsReader contract address, in case anyone wants to use it from Layer1"
        }
      },
      "getName()": {
        "details": "to follow Registrable interface"
      }
    },
    "version": 1
  },
  "userdoc": {
    "kind": "user",
    "methods": {},
    "version": 1
  },
  "storageLayout": {
    "storage": [
      {
        "astId": 6621,
        "contract": "contracts/onChainFeeds/UmbrellaFeedsReaderFactory.sol:UmbrellaFeedsReaderFactory",
        "label": "readers",
        "offset": 0,
        "slot": "0",
        "type": "t_mapping(t_bytes32,t_contract(UmbrellaFeedsReader)6607)"
      }
    ],
    "types": {
      "t_bytes32": {
        "encoding": "inplace",
        "label": "bytes32",
        "numberOfBytes": "32"
      },
      "t_contract(UmbrellaFeedsReader)6607": {
        "encoding": "inplace",
        "label": "contract UmbrellaFeedsReader",
        "numberOfBytes": "20"
      },
      "t_mapping(t_bytes32,t_contract(UmbrellaFeedsReader)6607)": {
        "encoding": "mapping",
        "key": "t_bytes32",
        "label": "mapping(bytes32 => contract UmbrellaFeedsReader)",
        "numberOfBytes": "32",
        "value": "t_contract(UmbrellaFeedsReader)6607"
      }
    }
  }
}