{
  "address": "0xbC758FCB97e06Ec635DFf698f55e41aCC35e1d2d",
  "abi": [
    {
      "inputs": [
        {
          "internalType": "contract IRegistry",
          "name": "_contractRegistry",
          "type": "address"
        },
        {
          "internalType": "uint16",
          "name": "_requiredSignatures",
          "type": "uint16"
        },
        {
          "internalType": "uint8",
          "name": "_decimals",
          "type": "uint8"
        }
      ],
      "stateMutability": "nonpayable",
      "type": "constructor"
    },
    {
      "inputs": [],
      "name": "ArraysDataDoNotMatch",
      "type": "error"
    },
    {
      "inputs": [],
      "name": "FallbackFeedNotExist",
      "type": "error"
    },
    {
      "inputs": [],
      "name": "FeedNotExist",
      "type": "error"
    },
    {
      "inputs": [],
      "name": "InvalidRequiredSignatures",
      "type": "error"
    },
    {
      "inputs": [],
      "name": "NotEnoughSignatures",
      "type": "error"
    },
    {
      "inputs": [],
      "name": "OldData",
      "type": "error"
    },
    {
      "inputs": [],
      "name": "SignaturesOutOfOrder",
      "type": "error"
    },
    {
      "inputs": [],
      "name": "DECIMALS",
      "outputs": [
        {
          "internalType": "uint8",
          "name": "",
          "type": "uint8"
        }
      ],
      "stateMutability": "view",
      "type": "function"
    },
    {
      "inputs": [],
      "name": "ETH_PREFIX",
      "outputs": [
        {
          "internalType": "bytes",
          "name": "",
          "type": "bytes"
        }
      ],
      "stateMutability": "view",
      "type": "function"
    },
    {
      "inputs": [],
      "name": "NAME",
      "outputs": [
        {
          "internalType": "string",
          "name": "",
          "type": "string"
        }
      ],
      "stateMutability": "view",
      "type": "function"
    },
    {
      "inputs": [],
      "name": "REGISTRY",
      "outputs": [
        {
          "internalType": "contract IRegistry",
          "name": "",
          "type": "address"
        }
      ],
      "stateMutability": "view",
      "type": "function"
    },
    {
      "inputs": [],
      "name": "REQUIRED_SIGNATURES",
      "outputs": [
        {
          "internalType": "uint16",
          "name": "",
          "type": "uint16"
        }
      ],
      "stateMutability": "view",
      "type": "function"
    },
    {
      "inputs": [],
      "name": "STAKING_BANK",
      "outputs": [
        {
          "internalType": "contract IStakingBank",
          "name": "",
          "type": "address"
        }
      ],
      "stateMutability": "view",
      "type": "function"
    },
    {
      "inputs": [],
      "name": "getName",
      "outputs": [
        {
          "internalType": "bytes32",
          "name": "",
          "type": "bytes32"
        }
      ],
      "stateMutability": "pure",
      "type": "function"
    },
    {
      "inputs": [
        {
          "internalType": "bytes32",
          "name": "_key",
          "type": "bytes32"
        }
      ],
      "name": "getPriceData",
      "outputs": [
        {
          "components": [
            {
              "internalType": "uint8",
              "name": "data",
              "type": "uint8"
            },
            {
              "internalType": "uint24",
              "name": "heartbeat",
              "type": "uint24"
            },
            {
              "internalType": "uint32",
              "name": "timestamp",
              "type": "uint32"
            },
            {
              "internalType": "uint128",
              "name": "price",
              "type": "uint128"
            }
          ],
          "internalType": "struct IUmbrellaFeeds.PriceData",
          "name": "data",
          "type": "tuple"
        }
      ],
      "stateMutability": "view",
      "type": "function"
    },
    {
      "inputs": [
        {
          "internalType": "bytes32",
          "name": "_key",
          "type": "bytes32"
        }
      ],
      "name": "getPriceDataRaw",
      "outputs": [
        {
          "components": [
            {
              "internalType": "uint8",
              "name": "data",
              "type": "uint8"
            },
            {
              "internalType": "uint24",
              "name": "heartbeat",
              "type": "uint24"
            },
            {
              "internalType": "uint32",
              "name": "timestamp",
              "type": "uint32"
            },
            {
              "internalType": "uint128",
              "name": "price",
              "type": "uint128"
            }
          ],
          "internalType": "struct IUmbrellaFeeds.PriceData",
          "name": "data",
          "type": "tuple"
        }
      ],
      "stateMutability": "view",
      "type": "function"
    },
    {
      "inputs": [
        {
          "internalType": "bytes32[]",
          "name": "_keys",
          "type": "bytes32[]"
        }
      ],
      "name": "getPricesData",
      "outputs": [
        {
          "components": [
            {
              "internalType": "uint8",
              "name": "data",
              "type": "uint8"
            },
            {
              "internalType": "uint24",
              "name": "heartbeat",
              "type": "uint24"
            },
            {
              "internalType": "uint32",
              "name": "timestamp",
              "type": "uint32"
            },
            {
              "internalType": "uint128",
              "name": "price",
              "type": "uint128"
            }
          ],
          "internalType": "struct IUmbrellaFeeds.PriceData[]",
          "name": "data",
          "type": "tuple[]"
        }
      ],
      "stateMutability": "view",
      "type": "function"
    },
    {
      "inputs": [
        {
          "internalType": "bytes32[]",
          "name": "_keys",
          "type": "bytes32[]"
        }
      ],
      "name": "getPricesDataRaw",
      "outputs": [
        {
          "components": [
            {
              "internalType": "uint8",
              "name": "data",
              "type": "uint8"
            },
            {
              "internalType": "uint24",
              "name": "heartbeat",
              "type": "uint24"
            },
            {
              "internalType": "uint32",
              "name": "timestamp",
              "type": "uint32"
            },
            {
              "internalType": "uint128",
              "name": "price",
              "type": "uint128"
            }
          ],
          "internalType": "struct IUmbrellaFeeds.PriceData[]",
          "name": "data",
          "type": "tuple[]"
        }
      ],
      "stateMutability": "view",
      "type": "function"
    },
    {
      "inputs": [
        {
          "internalType": "bytes32[]",
          "name": "_priceKeys",
          "type": "bytes32[]"
        },
        {
          "components": [
            {
              "internalType": "uint8",
              "name": "data",
              "type": "uint8"
            },
            {
              "internalType": "uint24",
              "name": "heartbeat",
              "type": "uint24"
            },
            {
              "internalType": "uint32",
              "name": "timestamp",
              "type": "uint32"
            },
            {
              "internalType": "uint128",
              "name": "price",
              "type": "uint128"
            }
          ],
          "internalType": "struct IUmbrellaFeeds.PriceData[]",
          "name": "_priceDatas",
          "type": "tuple[]"
        }
      ],
      "name": "hashSubmitData",
      "outputs": [
        {
          "internalType": "bytes32",
          "name": "",
          "type": "bytes32"
        }
      ],
      "stateMutability": "pure",
      "type": "function"
    },
    {
      "inputs": [
        {
          "internalType": "string",
          "name": "_key",
          "type": "string"
        }
      ],
      "name": "priceData",
      "outputs": [
        {
          "components": [
            {
              "internalType": "uint8",
              "name": "data",
              "type": "uint8"
            },
            {
              "internalType": "uint24",
              "name": "heartbeat",
              "type": "uint24"
            },
            {
              "internalType": "uint32",
              "name": "timestamp",
              "type": "uint32"
            },
            {
              "internalType": "uint128",
              "name": "price",
              "type": "uint128"
            }
          ],
          "internalType": "struct IUmbrellaFeeds.PriceData",
          "name": "",
          "type": "tuple"
        }
      ],
      "stateMutability": "view",
      "type": "function"
    },
    {
      "inputs": [
        {
          "internalType": "bytes32",
          "name": "",
          "type": "bytes32"
        }
      ],
      "name": "prices",
      "outputs": [
        {
          "internalType": "uint8",
          "name": "data",
          "type": "uint8"
        },
        {
          "internalType": "uint24",
          "name": "heartbeat",
          "type": "uint24"
        },
        {
          "internalType": "uint32",
          "name": "timestamp",
          "type": "uint32"
        },
        {
          "internalType": "uint128",
          "name": "price",
          "type": "uint128"
        }
      ],
      "stateMutability": "view",
      "type": "function"
    },
    {
      "inputs": [
        {
          "internalType": "bytes32",
          "name": "_hash",
          "type": "bytes32"
        },
        {
          "internalType": "uint8",
          "name": "_v",
          "type": "uint8"
        },
        {
          "internalType": "bytes32",
          "name": "_r",
          "type": "bytes32"
        },
        {
          "internalType": "bytes32",
          "name": "_s",
          "type": "bytes32"
        }
      ],
      "name": "recoverSigner",
      "outputs": [
        {
          "internalType": "address",
          "name": "",
          "type": "address"
        }
      ],
      "stateMutability": "pure",
      "type": "function"
    },
    {
      "inputs": [
        {
          "internalType": "bytes32[]",
          "name": "_priceKeys",
          "type": "bytes32[]"
        },
        {
          "components": [
            {
              "internalType": "uint8",
              "name": "v",
              "type": "uint8"
            },
            {
              "internalType": "bytes32",
              "name": "r",
              "type": "bytes32"
            },
            {
              "internalType": "bytes32",
              "name": "s",
              "type": "bytes32"
            }
          ],
          "internalType": "struct IUmbrellaFeeds.Signature[]",
          "name": "_signatures",
          "type": "tuple[]"
        }
      ],
      "name": "reset",
      "outputs": [],
      "stateMutability": "nonpayable",
      "type": "function"
    },
    {
      "inputs": [
        {
          "internalType": "bytes32[]",
          "name": "_priceKeys",
          "type": "bytes32[]"
        },
        {
          "components": [
            {
              "internalType": "uint8",
              "name": "data",
              "type": "uint8"
            },
            {
              "internalType": "uint24",
              "name": "heartbeat",
              "type": "uint24"
            },
            {
              "internalType": "uint32",
              "name": "timestamp",
              "type": "uint32"
            },
            {
              "internalType": "uint128",
              "name": "price",
              "type": "uint128"
            }
          ],
          "internalType": "struct IUmbrellaFeeds.PriceData[]",
          "name": "_priceDatas",
          "type": "tuple[]"
        },
        {
          "components": [
            {
              "internalType": "uint8",
              "name": "v",
              "type": "uint8"
            },
            {
              "internalType": "bytes32",
              "name": "r",
              "type": "bytes32"
            },
            {
              "internalType": "bytes32",
              "name": "s",
              "type": "bytes32"
            }
          ],
          "internalType": "struct IUmbrellaFeeds.Signature[]",
          "name": "_signatures",
          "type": "tuple[]"
        }
      ],
      "name": "update",
      "outputs": [],
      "stateMutability": "nonpayable",
      "type": "function"
    },
    {
      "inputs": [
        {
          "internalType": "bytes32",
          "name": "_hash",
          "type": "bytes32"
        },
        {
          "components": [
            {
              "internalType": "uint8",
              "name": "v",
              "type": "uint8"
            },
            {
              "internalType": "bytes32",
              "name": "r",
              "type": "bytes32"
            },
            {
              "internalType": "bytes32",
              "name": "s",
              "type": "bytes32"
            }
          ],
          "internalType": "struct IUmbrellaFeeds.Signature[]",
          "name": "_signatures",
          "type": "tuple[]"
        }
      ],
      "name": "verifySignatures",
      "outputs": [],
      "stateMutability": "view",
      "type": "function"
    }
  ],
  "transactionHash": "0xced55a3ef0b27e342796a0e09a0b384b9216b28a23fe23b0e6cfe1e78045a86c",
  "args": [
    "0x92010E763d476A732021191562134c488ca92a1F",
    2,
    8
  ],
  "numDeployments": 3,
  "solcInputHash": "e6135dfe8900d5ffd02ed467ad09a269",
  "bytecode": "0x6101006040523480156200001257600080fd5b5060405162002ebc38038062002ebc83398181016040528101906200003891906200027d565b60008261ffff160362000077576040517f458bb42100000000000000000000000000000000000000000000000000000000815260040160405180910390fd5b8273ffffffffffffffffffffffffffffffffffffffff1660a08173ffffffffffffffffffffffffffffffffffffffff16815250508161ffff1660c08161ffff16815250508273ffffffffffffffffffffffffffffffffffffffff166346bcb49d6040518163ffffffff1660e01b8152600401620000f490620002ff565b602060405180830381865afa15801562000112573d6000803e3d6000fd5b505050506040513d601f19601f820116820180604052508101906200013891906200034b565b73ffffffffffffffffffffffffffffffffffffffff1660808173ffffffffffffffffffffffffffffffffffffffff16815250508060ff1660e08160ff16815250505050506200037d565b600080fd5b600073ffffffffffffffffffffffffffffffffffffffff82169050919050565b6000620001b48262000187565b9050919050565b6000620001c882620001a7565b9050919050565b620001da81620001bb565b8114620001e657600080fd5b50565b600081519050620001fa81620001cf565b92915050565b600061ffff82169050919050565b620002198162000200565b81146200022557600080fd5b50565b60008151905062000239816200020e565b92915050565b600060ff82169050919050565b62000257816200023f565b81146200026357600080fd5b50565b60008151905062000277816200024c565b92915050565b60008060006060848603121562000299576200029862000182565b5b6000620002a986828701620001e9565b9350506020620002bc8682870162000228565b9250506040620002cf8682870162000266565b9150509250925092565b7f5374616b696e6742616e6b000000000000000000000000000000000000000000815250565b60006020820190506200031560008301620002d9565b919050565b6200032581620001a7565b81146200033157600080fd5b50565b60008151905062000345816200031a565b92915050565b60006020828403121562000364576200036362000182565b5b6000620003748482850162000334565b91505092915050565b60805160a05160c05160e051612ae2620003da60003960006108d4015260008181610682015281816106e60152610db90152600081816103c6015281816111dc01526113800152600081816107eb01526110f10152612ae26000f3fe608060405234801561001057600080fd5b50600436106101165760003560e01c806360846bc6116100a25780639e551beb116100715780639e551beb1461030c578063a3f4df7e14610328578063b8479b7c14610346578063c65a53ad14610376578063d45167d01461039457610116565b806360846bc61461026f5780636491c82f146102a257806395f1cf30146102d25780639ac18b19146102ee57610116565b806318445a0d116100e957806318445a0d146101b757806324c89a49146101e757806326559877146102055780632e0f26251461022157806343fa62111461023f57610116565b806306433b1b1461011b57806314de7a241461013957806317c5d7981461016957806317d7de7c14610199575b600080fd5b6101236103c4565b60405161013091906115fd565b60405180910390f35b610153600480360381019061014e9190611772565b6103e8565b6040516101609190611894565b60405180910390f35b610183600480360381019061017e91906118e5565b6104ea565b6040516101909190611894565b60405180910390f35b6101a16105e4565b6040516101ae9190611921565b60405180910390f35b6101d160048036038101906101cc91906119f2565b61060c565b6040516101de9190611921565b60405180910390f35b6101ef610645565b6040516101fc9190611afb565b60405180910390f35b61021f600480360381019061021a9190611b73565b61067e565b005b6102296108d2565b6040516102369190611be2565b60405180910390f35b610259600480360381019061025491906118e5565b6108f6565b6040516102669190611894565b60405180910390f35b610289600480360381019061028491906118e5565b6109f0565b6040516102999493929190611c2a565b60405180910390f35b6102bc60048036038101906102b79190611c6f565b610a68565b6040516102c99190611dc0565b60405180910390f35b6102ec60048036038101906102e79190611de2565b610c56565b005b6102f6610db7565b6040516103039190611eb3565b60405180910390f35b61032660048036038101906103219190611ece565b610ddb565b005b610330610ec8565b60405161033d9190611fa4565b60405180910390f35b610360600480360381019061035b9190611c6f565b610f01565b60405161036d9190611dc0565b60405180910390f35b61037e6110ef565b60405161038b9190611fe7565b60405180910390f35b6103ae60048036038101906103a9919061202e565b611113565b6040516103bb91906120b6565b60405180910390f35b7f000000000000000000000000000000000000000000000000000000000000000081565b6103f0611536565b60008083604051602001610404919061210d565b6040516020818303038152906040528051906020012081526020019081526020016000206040518060800160405290816000820160009054906101000a900460ff1660ff1660ff1681526020016000820160019054906101000a900462ffffff1662ffffff1662ffffff1681526020016000820160049054906101000a900463ffffffff1663ffffffff1663ffffffff1681526020016000820160089054906101000a90046fffffffffffffffffffffffffffffffff166fffffffffffffffffffffffffffffffff166fffffffffffffffffffffffffffffffff16815250509050919050565b6104f2611536565b6000808381526020019081526020016000206040518060800160405290816000820160009054906101000a900460ff1660ff1660ff1681526020016000820160019054906101000a900462ffffff1662ffffff1662ffffff1681526020016000820160049054906101000a900463ffffffff1663ffffffff1663ffffffff1681526020016000820160089054906101000a90046fffffffffffffffffffffffffffffffff166fffffffffffffffffffffffffffffffff166fffffffffffffffffffffffffffffffff168152505090506000816040015163ffffffff16036105df576105dc826111d0565b90505b919050565b60007f556d6272656c6c61466565647300000000000000000000000000000000000000905090565b6000848484846040516020016106259493929190612382565b604051602081830303815290604052805190602001209050949350505050565b6040518060400160405280601c81526020017f19457468657265756d205369676e6564204d6573736167653a0a33320000000081525081565b60007f000000000000000000000000000000000000000000000000000000000000000061ffff168383905010156106e1576040517fe246dc6300000000000000000000000000000000000000000000000000000000815260040160405180910390fd5b60005b7f000000000000000000000000000000000000000000000000000000000000000061ffff168110156108cb57600061078086868685818110610729576107286123bd565b5b905060600201600001602081019061074191906123ec565b878786818110610754576107536123bd565b5b90506060020160200135888887818110610771576107706123bd565b5b90506060020160400135611113565b90508073ffffffffffffffffffffffffffffffffffffffff168373ffffffffffffffffffffffffffffffffffffffff16106107e7576040517f9079f69b00000000000000000000000000000000000000000000000000000000815260040160405180910390fd5b60007f000000000000000000000000000000000000000000000000000000000000000073ffffffffffffffffffffffffffffffffffffffff166370a08231836040518263ffffffff1660e01b815260040161084291906120b6565b602060405180830381865afa15801561085f573d6000803e3d6000fd5b505050506040513d601f19601f82011682018060405250810190610883919061244f565b036108ba576040517fe246dc6300000000000000000000000000000000000000000000000000000000815260040160405180910390fd5b8092508180600101925050506106e4565b5050505050565b7f000000000000000000000000000000000000000000000000000000000000000081565b6108fe611536565b6000808381526020019081526020016000206040518060800160405290816000820160009054906101000a900460ff1660ff1660ff1681526020016000820160019054906101000a900462ffffff1662ffffff1662ffffff1681526020016000820160049054906101000a900463ffffffff1663ffffffff1663ffffffff1681526020016000820160089054906101000a90046fffffffffffffffffffffffffffffffff166fffffffffffffffffffffffffffffffff166fffffffffffffffffffffffffffffffff168152505090506000816040015163ffffffff16036109eb576109e882611374565b90505b919050565b60006020528060005260406000206000915090508060000160009054906101000a900460ff16908060000160019054906101000a900462ffffff16908060000160049054906101000a900463ffffffff16908060000160089054906101000a90046fffffffffffffffffffffffffffffffff16905084565b60608282905067ffffffffffffffff811115610a8757610a86611647565b5b604051908082528060200260200182016040528015610ac057816020015b610aad611536565b815260200190600190039081610aa55790505b50905060005b83839050811015610c4f57600080858584818110610ae757610ae66123bd565b5b9050602002013581526020019081526020016000206040518060800160405290816000820160009054906101000a900460ff1660ff1660ff1681526020016000820160019054906101000a900462ffffff1662ffffff1662ffffff1681526020016000820160049054906101000a900463ffffffff1663ffffffff1663ffffffff1681526020016000820160089054906101000a90046fffffffffffffffffffffffffffffffff166fffffffffffffffffffffffffffffffff166fffffffffffffffffffffffffffffffff1681525050828281518110610bca57610bc96123bd565b5b60200260200101819052506000828281518110610bea57610be96123bd565b5b60200260200101516040015163ffffffff1603610c4257610c23848483818110610c1757610c166123bd565b5b905060200201356111d0565b828281518110610c3657610c356123bd565b5b60200260200101819052505b8080600101915050610ac6565b5092915050565b600086868686604051602001610c6f9493929190612382565b604051602081830303815290604052805190602001209050610c9281848461067e565b60005b85859050811015610dad57858582818110610cb357610cb26123bd565b5b9050608002016040016020810190610ccb919061247c565b63ffffffff166000808a8a85818110610ce757610ce66123bd565b5b90506020020135815260200190815260200160002060000160049054906101000a900463ffffffff1663ffffffff1610610d4d576040517f1251b2f300000000000000000000000000000000000000000000000000000000815260040160405180910390fd5b858582818110610d6057610d5f6123bd565b5b9050608002016000808a8a85818110610d7c57610d7b6123bd565b5b9050602002013581526020019081526020016000208181610d9d91906127a6565b9050508080600101915050610c95565b5050505050505050565b7f000000000000000000000000000000000000000000000000000000000000000081565b60008484604051602001610df0929190612867565b604051602081830303815290604052805190602001209050610e1381848461067e565b60005b85859050811015610ec057600080878784818110610e3757610e366123bd565b5b905060200201358152602001908152602001600020600080820160006101000a81549060ff02191690556000820160016101000a81549062ffffff02191690556000820160046101000a81549063ffffffff02191690556000820160086101000a8154906fffffffffffffffffffffffffffffffff021916905550508080600101915050610e16565b505050505050565b6040518060400160405280600d81526020017f556d6272656c6c6146656564730000000000000000000000000000000000000081525081565b60608282905067ffffffffffffffff811115610f2057610f1f611647565b5b604051908082528060200260200182016040528015610f5957816020015b610f46611536565b815260200190600190039081610f3e5790505b50905060005b838390508110156110e857600080858584818110610f8057610f7f6123bd565b5b9050602002013581526020019081526020016000206040518060800160405290816000820160009054906101000a900460ff1660ff1660ff1681526020016000820160019054906101000a900462ffffff1662ffffff1662ffffff1681526020016000820160049054906101000a900463ffffffff1663ffffffff1663ffffffff1681526020016000820160089054906101000a90046fffffffffffffffffffffffffffffffff166fffffffffffffffffffffffffffffffff166fffffffffffffffffffffffffffffffff1681525050828281518110611063576110626123bd565b5b60200260200101819052506000828281518110611083576110826123bd565b5b60200260200101516040015163ffffffff16036110db576110bc8484838181106110b0576110af6123bd565b5b90506020020135611374565b8282815181106110cf576110ce6123bd565b5b60200260200101819052505b8080600101915050610f5f565b5092915050565b7f000000000000000000000000000000000000000000000000000000000000000081565b6000806040518060400160405280601c81526020017f19457468657265756d205369676e6564204d6573736167653a0a3332000000008152508660405160200161115e9291906128e8565b604051602081830303815290604052805190602001209050600181868686604051600081526020016040526040516111999493929190612910565b6020604051602081039080840390855afa1580156111bb573d6000803e3d6000fd5b50505060206040510351915050949350505050565b6111d8611536565b60007f000000000000000000000000000000000000000000000000000000000000000073ffffffffffffffffffffffffffffffffffffffff166321f8a72161121e6105e4565b6040518263ffffffff1660e01b815260040161123a9190611921565b602060405180830381865afa158015611257573d6000803e3d6000fd5b505050506040513d601f19601f8201168201806040525081019061127b9190612981565b90503073ffffffffffffffffffffffffffffffffffffffff168173ffffffffffffffffffffffffffffffffffffffff16141580156112e65750600073ffffffffffffffffffffffffffffffffffffffff168173ffffffffffffffffffffffffffffffffffffffff1614155b1561136d578073ffffffffffffffffffffffffffffffffffffffff166317c5d798846040518263ffffffff1660e01b81526004016113249190611921565b608060405180830381865afa158015611341573d6000803e3d6000fd5b505050506040513d601f19601f820116820180604052508101906113659190612a7f565b91505061136f565b505b919050565b61137c611536565b60007f000000000000000000000000000000000000000000000000000000000000000073ffffffffffffffffffffffffffffffffffffffff1663e8f98f886040518060400160405280600d81526020017f556d6272656c6c614665656473000000000000000000000000000000000000008152506040518263ffffffff1660e01b815260040161140c9190611fa4565b602060405180830381865afa158015611429573d6000803e3d6000fd5b505050506040513d601f19601f8201168201806040525081019061144d9190612981565b90503073ffffffffffffffffffffffffffffffffffffffff168173ffffffffffffffffffffffffffffffffffffffff16036114b4576040517f15647ae900000000000000000000000000000000000000000000000000000000815260040160405180910390fd5b8073ffffffffffffffffffffffffffffffffffffffff166317c5d798846040518263ffffffff1660e01b81526004016114ed9190611921565b608060405180830381865afa15801561150a573d6000803e3d6000fd5b505050506040513d601f19601f8201168201806040525081019061152e9190612a7f565b915050919050565b6040518060800160405280600060ff168152602001600062ffffff168152602001600063ffffffff16815260200160006fffffffffffffffffffffffffffffffff1681525090565b600073ffffffffffffffffffffffffffffffffffffffff82169050919050565b6000819050919050565b60006115c36115be6115b98461157e565b61159e565b61157e565b9050919050565b60006115d5826115a8565b9050919050565b60006115e7826115ca565b9050919050565b6115f7816115dc565b82525050565b600060208201905061161260008301846115ee565b92915050565b6000604051905090565b600080fd5b600080fd5b600080fd5b600080fd5b6000601f19601f8301169050919050565b7f4e487b7100000000000000000000000000000000000000000000000000000000600052604160045260246000fd5b61167f82611636565b810181811067ffffffffffffffff8211171561169e5761169d611647565b5b80604052505050565b60006116b1611618565b90506116bd8282611676565b919050565b600067ffffffffffffffff8211156116dd576116dc611647565b5b6116e682611636565b9050602081019050919050565b82818337600083830152505050565b6000611715611710846116c2565b6116a7565b90508281526020810184848401111561173157611730611631565b5b61173c8482856116f3565b509392505050565b600082601f8301126117595761175861162c565b5b8135611769848260208601611702565b91505092915050565b60006020828403121561178857611787611622565b5b600082013567ffffffffffffffff8111156117a6576117a5611627565b5b6117b284828501611744565b91505092915050565b600060ff82169050919050565b6117d1816117bb565b82525050565b600062ffffff82169050919050565b6117ef816117d7565b82525050565b600063ffffffff82169050919050565b61180e816117f5565b82525050565b60006fffffffffffffffffffffffffffffffff82169050919050565b61183981611814565b82525050565b60808201600082015161185560008501826117c8565b50602082015161186860208501826117e6565b50604082015161187b6040850182611805565b50606082015161188e6060850182611830565b50505050565b60006080820190506118a9600083018461183f565b92915050565b6000819050919050565b6118c2816118af565b81146118cd57600080fd5b50565b6000813590506118df816118b9565b92915050565b6000602082840312156118fb576118fa611622565b5b6000611909848285016118d0565b91505092915050565b61191b816118af565b82525050565b60006020820190506119366000830184611912565b92915050565b600080fd5b600080fd5b60008083601f84011261195c5761195b61162c565b5b8235905067ffffffffffffffff8111156119795761197861193c565b5b60208301915083602082028301111561199557611994611941565b5b9250929050565b60008083601f8401126119b2576119b161162c565b5b8235905067ffffffffffffffff8111156119cf576119ce61193c565b5b6020830191508360808202830111156119eb576119ea611941565b5b9250929050565b60008060008060408587031215611a0c57611a0b611622565b5b600085013567ffffffffffffffff811115611a2a57611a29611627565b5b611a3687828801611946565b9450945050602085013567ffffffffffffffff811115611a5957611a58611627565b5b611a658782880161199c565b925092505092959194509250565b600081519050919050565b600082825260208201905092915050565b60005b83811015611aad578082015181840152602081019050611a92565b83811115611abc576000848401525b50505050565b6000611acd82611a73565b611ad78185611a7e565b9350611ae7818560208601611a8f565b611af081611636565b840191505092915050565b60006020820190508181036000830152611b158184611ac2565b905092915050565b60008083601f840112611b3357611b3261162c565b5b8235905067ffffffffffffffff811115611b5057611b4f61193c565b5b602083019150836060820283011115611b6c57611b6b611941565b5b9250929050565b600080600060408486031215611b8c57611b8b611622565b5b6000611b9a868287016118d0565b935050602084013567ffffffffffffffff811115611bbb57611bba611627565b5b611bc786828701611b1d565b92509250509250925092565b611bdc816117bb565b82525050565b6000602082019050611bf76000830184611bd3565b92915050565b611c06816117d7565b82525050565b611c15816117f5565b82525050565b611c2481611814565b82525050565b6000608082019050611c3f6000830187611bd3565b611c4c6020830186611bfd565b611c596040830185611c0c565b611c666060830184611c1b565b95945050505050565b60008060208385031215611c8657611c85611622565b5b600083013567ffffffffffffffff811115611ca457611ca3611627565b5b611cb085828601611946565b92509250509250929050565b600081519050919050565b600082825260208201905092915050565b6000819050602082019050919050565b608082016000820151611cfe60008501826117c8565b506020820151611d1160208501826117e6565b506040820151611d246040850182611805565b506060820151611d376060850182611830565b50505050565b6000611d498383611ce8565b60808301905092915050565b6000602082019050919050565b6000611d6d82611cbc565b611d778185611cc7565b9350611d8283611cd8565b8060005b83811015611db3578151611d9a8882611d3d565b9750611da583611d55565b925050600181019050611d86565b5085935050505092915050565b60006020820190508181036000830152611dda8184611d62565b905092915050565b60008060008060008060608789031215611dff57611dfe611622565b5b600087013567ffffffffffffffff811115611e1d57611e1c611627565b5b611e2989828a01611946565b9650965050602087013567ffffffffffffffff811115611e4c57611e4b611627565b5b611e5889828a0161199c565b9450945050604087013567ffffffffffffffff811115611e7b57611e7a611627565b5b611e8789828a01611b1d565b92509250509295509295509295565b600061ffff82169050919050565b611ead81611e96565b82525050565b6000602082019050611ec86000830184611ea4565b92915050565b60008060008060408587031215611ee857611ee7611622565b5b600085013567ffffffffffffffff811115611f0657611f05611627565b5b611f1287828801611946565b9450945050602085013567ffffffffffffffff811115611f3557611f34611627565b5b611f4187828801611b1d565b925092505092959194509250565b600081519050919050565b600082825260208201905092915050565b6000611f7682611f4f565b611f808185611f5a565b9350611f90818560208601611a8f565b611f9981611636565b840191505092915050565b60006020820190508181036000830152611fbe8184611f6b565b905092915050565b6000611fd1826115ca565b9050919050565b611fe181611fc6565b82525050565b6000602082019050611ffc6000830184611fd8565b92915050565b61200b816117bb565b811461201657600080fd5b50565b60008135905061202881612002565b92915050565b6000806000806080858703121561204857612047611622565b5b6000612056878288016118d0565b945050602061206787828801612019565b9350506040612078878288016118d0565b9250506060612089878288016118d0565b91505092959194509250565b60006120a08261157e565b9050919050565b6120b081612095565b82525050565b60006020820190506120cb60008301846120a7565b92915050565b600081905092915050565b60006120e782611f4f565b6120f181856120d1565b9350612101818560208601611a8f565b80840191505092915050565b600061211982846120dc565b915081905092915050565b600082825260208201905092915050565b600080fd5b60006121468385612124565b93507f07ffffffffffffffffffffffffffffffffffffffffffffffffffffffffffffff83111561217957612178612135565b5b60208302925061218a8385846116f3565b82840190509392505050565b6000819050919050565b60006121af6020840184612019565b905092915050565b6121c0816117d7565b81146121cb57600080fd5b50565b6000813590506121dd816121b7565b92915050565b60006121f260208401846121ce565b905092915050565b612203816117f5565b811461220e57600080fd5b50565b600081359050612220816121fa565b92915050565b60006122356020840184612211565b905092915050565b61224681611814565b811461225157600080fd5b50565b6000813590506122638161223d565b92915050565b60006122786020840184612254565b905092915050565b6080820161229160008301836121a0565b61229e60008501826117c8565b506122ac60208301836121e3565b6122b960208501826117e6565b506122c76040830183612226565b6122d46040850182611805565b506122e26060830183612269565b6122ef6060850182611830565b50505050565b60006123018383612280565b60808301905092915050565b600082905092915050565b6000608082019050919050565b60006123318385611cc7565b935061233c82612196565b8060005b8581101561237557612352828461230d565b61235c88826122f5565b975061236783612318565b925050600181019050612340565b5085925050509392505050565b6000604082019050818103600083015261239d81868861213a565b905081810360208301526123b2818486612325565b905095945050505050565b7f4e487b7100000000000000000000000000000000000000000000000000000000600052603260045260246000fd5b60006020828403121561240257612401611622565b5b600061241084828501612019565b91505092915050565b6000819050919050565b61242c81612419565b811461243757600080fd5b50565b60008151905061244981612423565b92915050565b60006020828403121561246557612464611622565b5b60006124738482850161243a565b91505092915050565b60006020828403121561249257612491611622565b5b60006124a084828501612211565b91505092915050565b600081356124b681612002565b80915050919050565b60008160001b9050919050565b600060ff6124d9846124bf565b9350801983169250808416831791505092915050565b600061250a612505612500846117bb565b61159e565b6117bb565b9050919050565b6000819050919050565b612524826124ef565b61253761253082612511565b83546124cc565b8255505050565b6000813561254b816121b7565b80915050919050565b60008160081b9050919050565b600063ffffff0061257184612554565b9350801983169250808416831791505092915050565b60006125a261259d612598846117d7565b61159e565b6117d7565b9050919050565b6000819050919050565b6125bc82612587565b6125cf6125c8826125a9565b8354612561565b8255505050565b600081356125e3816121fa565b80915050919050565b60008160201b9050919050565b600067ffffffff0000000061260d846125ec565b9350801983169250808416831791505092915050565b600061263e612639612634846117f5565b61159e565b6117f5565b9050919050565b6000819050919050565b61265882612623565b61266b61266482612645565b83546125f9565b8255505050565b6000813561267f8161223d565b80915050919050565b60008160401b9050919050565b600077ffffffffffffffffffffffffffffffff00000000000000006126b984612688565b9350801983169250808416831791505092915050565b60006126ea6126e56126e084611814565b61159e565b611814565b9050919050565b6000819050919050565b612704826126cf565b612717612710826126f1565b8354612695565b8255505050565b600081016000830180612730816124a9565b905061273c818461251b565b5050506000810160208301806127518161253e565b905061275d81846125b3565b505050600081016040830180612772816125d6565b905061277e818461264f565b50505060008101606083018061279381612672565b905061279f81846126fb565b5050505050565b6127b0828261271e565b5050565b600081905092915050565b60006127cb83856127b4565b93507f07ffffffffffffffffffffffffffffffffffffffffffffffffffffffffffffff8311156127fe576127fd612135565b5b60208302925061280f8385846116f3565b82840190509392505050565b7f5245534554000000000000000000000000000000000000000000000000000000600082015250565b60006128516005836120d1565b915061285c8261281b565b600582019050919050565b60006128748284866127bf565b915061287f82612844565b91508190509392505050565b600081905092915050565b60006128a182611a73565b6128ab818561288b565b93506128bb818560208601611a8f565b80840191505092915050565b6000819050919050565b6128e26128dd826118af565b6128c7565b82525050565b60006128f48285612896565b915061290082846128d1565b6020820191508190509392505050565b60006080820190506129256000830187611912565b6129326020830186611bd3565b61293f6040830185611912565b61294c6060830184611912565b95945050505050565b61295e81612095565b811461296957600080fd5b50565b60008151905061297b81612955565b92915050565b60006020828403121561299757612996611622565b5b60006129a58482850161296c565b91505092915050565b600080fd5b6000815190506129c281612002565b92915050565b6000815190506129d7816121b7565b92915050565b6000815190506129ec816121fa565b92915050565b600081519050612a018161223d565b92915050565b600060808284031215612a1d57612a1c6129ae565b5b612a2760806116a7565b90506000612a37848285016129b3565b6000830152506020612a4b848285016129c8565b6020830152506040612a5f848285016129dd565b6040830152506060612a73848285016129f2565b60608301525092915050565b600060808284031215612a9557612a94611622565b5b6000612aa384828501612a07565b9150509291505056fea2646970667358221220fa5c19b9752cd8ab58e6028534a79cb441874b8a42416941dbe2529b9f40bed164736f6c634300080d0033",
  "devdoc": {
    "details": "Main contract for all deviation triggered fees. This contract has build in fallback feature in case it will be replaced by newer version. Fallback is transparent for the user, no additional setup is needed. How fallback feature works? If data for provided key is empty, contract will execute following procedure: 1. triggered feeds, that needs to be updated will be updated in new contract and erased from this one 2. if data is empty, check, if new deployment of UmbrellaFeeds is done, if not stop. 3. forward the call to that new contract. After new deployment done it is recommended to update address to avoid fallback and reduce gas cost. In long run this is most efficient solution, better than any proxy.",
    "kind": "dev",
    "methods": {
      "constructor": {
        "params": {
          "_contractRegistry": "Registry address",
          "_decimals": "decimals for prices stored in this contract",
          "_requiredSignatures": "number of required signatures for accepting consensus submission"
        }
      },
      "getName()": {
        "details": "to follow Registrable interface"
      },
      "getPriceData(bytes32)": {
        "details": "this is main endpoint for reading feeds. In case timestamp is empty (that means there is no data), contract will execute fallback call. Check contract description for fallback details."
      },
      "getPriceDataRaw(bytes32)": {
        "details": "same as `getPriceData` but does not revert when no data"
      },
      "getPricesData(bytes32[])": {
        "details": "it will return array of price datas for provided `_keys` In case ony of feeds timestamp is empty, fallback call will be executed for that feed. If any of feeds fallback calls fail, function will revert.",
        "params": {
          "_keys": "array of feed keys"
        },
        "returns": {
          "data": "PriceData array"
        }
      },
      "getPricesDataRaw(bytes32[])": {
        "details": "same as getPricesData() but does not revert on empty data."
      },
      "hashSubmitData(bytes32[],(uint8,uint24,uint32,uint128)[])": {
        "details": "helper method for QA purposes",
        "returns": {
          "_0": "hash of data that are signed by validators (keys and priced data)"
        }
      },
      "priceData(string)": {
        "details": "this is only for dev debug, please use `getPriceData` directly for lower has cost and fallback functionality"
      },
      "recoverSigner(bytes32,uint8,bytes32,bytes32)": {
        "params": {
          "_hash": "hashed of data",
          "_r": "part of signature",
          "_s": "part of signature",
          "_v": "part of signature"
        },
        "returns": {
          "_0": "signer address"
        }
      },
      "reset(bytes32[],(uint8,bytes32,bytes32)[])": {
        "details": "method for resetting data",
        "params": {
          "_priceKeys": "array of keys for `_priceDatas`",
          "_signatures": "validators signatures"
        }
      },
      "update(bytes32[],(uint8,uint24,uint32,uint128)[],(uint8,bytes32,bytes32)[])": {
        "details": "method for submitting consensus data",
        "params": {
          "_priceDatas": "PriceData signed by validators",
          "_priceKeys": "array of keys for `_priceDatas`",
          "_signatures": "validators signatures"
        }
      },
      "verifySignatures(bytes32,(uint8,bytes32,bytes32)[])": {
        "details": "method for submitting consensus data",
        "params": {
          "_hash": "hash of signed data",
          "_signatures": "array of validators signatures"
        }
      }
    },
    "stateVariables": {
      "DECIMALS": {
        "details": "decimals for prices stored in this contract"
      },
      "REQUIRED_SIGNATURES": {
        "details": "minimal number of signatures required for accepting submission (PoA)"
      }
    },
    "version": 1
  },
  "userdoc": {
    "kind": "user",
    "methods": {},
    "version": 1
  },
  "storageLayout": {
    "storage": [
      {
        "astId": 370,
        "contract": "contracts/onChainFeeds/UmbrellaFeeds.sol:UmbrellaFeeds",
        "label": "prices",
        "offset": 0,
        "slot": "0",
        "type": "t_mapping(t_bytes32,t_struct(PriceData)260_storage)"
      }
    ],
    "types": {
      "t_bytes32": {
        "encoding": "inplace",
        "label": "bytes32",
        "numberOfBytes": "32"
      },
      "t_mapping(t_bytes32,t_struct(PriceData)260_storage)": {
        "encoding": "mapping",
        "key": "t_bytes32",
        "label": "mapping(bytes32 => struct IUmbrellaFeeds.PriceData)",
        "numberOfBytes": "32",
        "value": "t_struct(PriceData)260_storage"
      },
      "t_struct(PriceData)260_storage": {
        "encoding": "inplace",
        "label": "struct IUmbrellaFeeds.PriceData",
        "members": [
          {
            "astId": 253,
            "contract": "contracts/onChainFeeds/UmbrellaFeeds.sol:UmbrellaFeeds",
            "label": "data",
            "offset": 0,
            "slot": "0",
            "type": "t_uint8"
          },
          {
            "astId": 255,
            "contract": "contracts/onChainFeeds/UmbrellaFeeds.sol:UmbrellaFeeds",
            "label": "heartbeat",
            "offset": 1,
            "slot": "0",
            "type": "t_uint24"
          },
          {
            "astId": 257,
            "contract": "contracts/onChainFeeds/UmbrellaFeeds.sol:UmbrellaFeeds",
            "label": "timestamp",
            "offset": 4,
            "slot": "0",
            "type": "t_uint32"
          },
          {
            "astId": 259,
            "contract": "contracts/onChainFeeds/UmbrellaFeeds.sol:UmbrellaFeeds",
            "label": "price",
            "offset": 8,
            "slot": "0",
            "type": "t_uint128"
          }
        ],
        "numberOfBytes": "32"
      },
      "t_uint128": {
        "encoding": "inplace",
        "label": "uint128",
        "numberOfBytes": "16"
      },
      "t_uint24": {
        "encoding": "inplace",
        "label": "uint24",
        "numberOfBytes": "3"
      },
      "t_uint32": {
        "encoding": "inplace",
        "label": "uint32",
        "numberOfBytes": "4"
      },
      "t_uint8": {
        "encoding": "inplace",
        "label": "uint8",
        "numberOfBytes": "1"
      }
    }
  }
}