{
  "address": "0x5eEd6de05623984CA0fB57746129336C14c6119C",
  "abi": [
    {
      "inputs": [
        {
          "internalType": "contract IRegistry",
          "name": "_contractRegistry",
          "type": "address"
        },
        {
          "internalType": "uint16",
          "name": "_requiredSignatures",
          "type": "uint16"
        },
        {
          "internalType": "uint8",
          "name": "_decimals",
          "type": "uint8"
        }
      ],
      "stateMutability": "nonpayable",
      "type": "constructor"
    },
    {
      "inputs": [],
      "name": "ArraysDataDoNotMatch",
      "type": "error"
    },
    {
      "inputs": [],
      "name": "ContractInUse",
      "type": "error"
    },
    {
      "inputs": [],
      "name": "ContractNotInitialised",
      "type": "error"
    },
    {
      "inputs": [],
      "name": "ECDSAInvalidSignatureS",
      "type": "error"
    },
    {
      "inputs": [],
      "name": "ECDSAInvalidSignatureV",
      "type": "error"
    },
    {
      "inputs": [],
      "name": "FeedNotExist",
      "type": "error"
    },
    {
      "inputs": [],
      "name": "InvalidRequiredSignatures",
      "type": "error"
    },
    {
      "inputs": [],
      "name": "InvalidSigner",
      "type": "error"
    },
    {
      "inputs": [],
      "name": "NotEnoughSignatures",
      "type": "error"
    },
    {
      "inputs": [],
      "name": "OldData",
      "type": "error"
    },
    {
      "inputs": [],
      "name": "SelfDestruct",
      "type": "error"
    },
    {
      "inputs": [],
      "name": "SignaturesOutOfOrder",
      "type": "error"
    },
    {
      "inputs": [],
      "name": "DECIMALS",
      "outputs": [
        {
          "internalType": "uint8",
          "name": "",
          "type": "uint8"
        }
      ],
      "stateMutability": "view",
      "type": "function"
    },
    {
      "inputs": [],
      "name": "DEPLOYED_AT",
      "outputs": [
        {
          "internalType": "uint256",
          "name": "",
          "type": "uint256"
        }
      ],
      "stateMutability": "view",
      "type": "function"
    },
    {
      "inputs": [],
      "name": "ETH_PREFIX",
      "outputs": [
        {
          "internalType": "bytes",
          "name": "",
          "type": "bytes"
        }
      ],
      "stateMutability": "view",
      "type": "function"
    },
    {
      "inputs": [],
      "name": "NAME",
      "outputs": [
        {
          "internalType": "string",
          "name": "",
          "type": "string"
        }
      ],
      "stateMutability": "view",
      "type": "function"
    },
    {
      "inputs": [],
      "name": "REGISTRY",
      "outputs": [
        {
          "internalType": "contract IRegistry",
          "name": "",
          "type": "address"
        }
      ],
      "stateMutability": "view",
      "type": "function"
    },
    {
      "inputs": [],
      "name": "REQUIRED_SIGNATURES",
      "outputs": [
        {
          "internalType": "uint16",
          "name": "",
          "type": "uint16"
        }
      ],
      "stateMutability": "view",
      "type": "function"
    },
    {
      "inputs": [],
      "name": "STAKING_BANK",
      "outputs": [
        {
          "internalType": "contract IStakingBankStatic",
          "name": "",
          "type": "address"
        }
      ],
      "stateMutability": "view",
      "type": "function"
    },
    {
      "inputs": [
        {
          "internalType": "string",
          "name": "_name",
          "type": "string"
        }
      ],
      "name": "destroy",
      "outputs": [],
      "stateMutability": "nonpayable",
      "type": "function"
    },
    {
      "inputs": [],
      "name": "disabled",
      "outputs": [
        {
          "internalType": "bool",
          "name": "",
          "type": "bool"
        }
      ],
      "stateMutability": "view",
      "type": "function"
    },
    {
      "inputs": [],
      "name": "getChainId",
      "outputs": [
        {
          "internalType": "uint256",
          "name": "id",
          "type": "uint256"
        }
      ],
      "stateMutability": "view",
      "type": "function"
    },
    {
      "inputs": [
        {
          "internalType": "bytes32[]",
          "name": "_keys",
          "type": "bytes32[]"
        }
      ],
      "name": "getManyPriceData",
      "outputs": [
        {
          "components": [
            {
              "internalType": "uint8",
              "name": "data",
              "type": "uint8"
            },
            {
              "internalType": "uint24",
              "name": "heartbeat",
              "type": "uint24"
            },
            {
              "internalType": "uint32",
              "name": "timestamp",
              "type": "uint32"
            },
            {
              "internalType": "uint128",
              "name": "price",
              "type": "uint128"
            }
          ],
          "internalType": "struct IUmbrellaFeeds.PriceData[]",
          "name": "data",
          "type": "tuple[]"
        }
      ],
      "stateMutability": "view",
      "type": "function"
    },
    {
      "inputs": [
        {
          "internalType": "bytes32[]",
          "name": "_keys",
          "type": "bytes32[]"
        }
      ],
      "name": "getManyPriceDataRaw",
      "outputs": [
        {
          "components": [
            {
              "internalType": "uint8",
              "name": "data",
              "type": "uint8"
            },
            {
              "internalType": "uint24",
              "name": "heartbeat",
              "type": "uint24"
            },
            {
              "internalType": "uint32",
              "name": "timestamp",
              "type": "uint32"
            },
            {
              "internalType": "uint128",
              "name": "price",
              "type": "uint128"
            }
          ],
          "internalType": "struct IUmbrellaFeeds.PriceData[]",
          "name": "data",
          "type": "tuple[]"
        }
      ],
      "stateMutability": "view",
      "type": "function"
    },
    {
      "inputs": [],
      "name": "getName",
      "outputs": [
        {
          "internalType": "bytes32",
          "name": "",
          "type": "bytes32"
        }
      ],
      "stateMutability": "pure",
      "type": "function"
    },
    {
      "inputs": [
        {
          "internalType": "bytes32",
          "name": "_key",
          "type": "bytes32"
        }
      ],
      "name": "getPrice",
      "outputs": [
        {
          "internalType": "uint128",
          "name": "price",
          "type": "uint128"
        }
      ],
      "stateMutability": "view",
      "type": "function"
    },
    {
      "inputs": [
        {
          "internalType": "bytes32",
          "name": "_key",
          "type": "bytes32"
        }
      ],
      "name": "getPriceData",
      "outputs": [
        {
          "components": [
            {
              "internalType": "uint8",
              "name": "data",
              "type": "uint8"
            },
            {
              "internalType": "uint24",
              "name": "heartbeat",
              "type": "uint24"
            },
            {
              "internalType": "uint32",
              "name": "timestamp",
              "type": "uint32"
            },
            {
              "internalType": "uint128",
              "name": "price",
              "type": "uint128"
            }
          ],
          "internalType": "struct IUmbrellaFeeds.PriceData",
          "name": "data",
          "type": "tuple"
        }
      ],
      "stateMutability": "view",
      "type": "function"
    },
    {
      "inputs": [
        {
          "internalType": "string",
          "name": "_name",
          "type": "string"
        }
      ],
      "name": "getPriceDataByName",
      "outputs": [
        {
          "components": [
            {
              "internalType": "uint8",
              "name": "data",
              "type": "uint8"
            },
            {
              "internalType": "uint24",
              "name": "heartbeat",
              "type": "uint24"
            },
            {
              "internalType": "uint32",
              "name": "timestamp",
              "type": "uint32"
            },
            {
              "internalType": "uint128",
              "name": "price",
              "type": "uint128"
            }
          ],
          "internalType": "struct IUmbrellaFeeds.PriceData",
          "name": "data",
          "type": "tuple"
        }
      ],
      "stateMutability": "view",
      "type": "function"
    },
    {
      "inputs": [
        {
          "internalType": "bytes32",
          "name": "_key",
          "type": "bytes32"
        }
      ],
      "name": "getPriceTimestamp",
      "outputs": [
        {
          "internalType": "uint128",
          "name": "price",
          "type": "uint128"
        },
        {
          "internalType": "uint32",
          "name": "timestamp",
          "type": "uint32"
        }
      ],
      "stateMutability": "view",
      "type": "function"
    },
    {
      "inputs": [
        {
          "internalType": "bytes32",
          "name": "_key",
          "type": "bytes32"
        }
      ],
      "name": "getPriceTimestampHeartbeat",
      "outputs": [
        {
          "internalType": "uint128",
          "name": "price",
          "type": "uint128"
        },
        {
          "internalType": "uint32",
          "name": "timestamp",
          "type": "uint32"
        },
        {
          "internalType": "uint24",
          "name": "heartbeat",
          "type": "uint24"
        }
      ],
      "stateMutability": "view",
      "type": "function"
    },
    {
      "inputs": [
        {
          "internalType": "bytes32[]",
          "name": "_priceKeys",
          "type": "bytes32[]"
        },
        {
          "components": [
            {
              "internalType": "uint8",
              "name": "data",
              "type": "uint8"
            },
            {
              "internalType": "uint24",
              "name": "heartbeat",
              "type": "uint24"
            },
            {
              "internalType": "uint32",
              "name": "timestamp",
              "type": "uint32"
            },
            {
              "internalType": "uint128",
              "name": "price",
              "type": "uint128"
            }
          ],
          "internalType": "struct IUmbrellaFeeds.PriceData[]",
          "name": "_priceDatas",
          "type": "tuple[]"
        }
      ],
      "name": "hashData",
      "outputs": [
        {
          "internalType": "bytes32",
          "name": "",
          "type": "bytes32"
        }
      ],
      "stateMutability": "view",
      "type": "function"
    },
    {
      "inputs": [
        {
          "internalType": "bytes32",
          "name": "_key",
          "type": "bytes32"
        }
      ],
      "name": "prices",
      "outputs": [
        {
          "components": [
            {
              "internalType": "uint8",
              "name": "data",
              "type": "uint8"
            },
            {
              "internalType": "uint24",
              "name": "heartbeat",
              "type": "uint24"
            },
            {
              "internalType": "uint32",
              "name": "timestamp",
              "type": "uint32"
            },
            {
              "internalType": "uint128",
              "name": "price",
              "type": "uint128"
            }
          ],
          "internalType": "struct IUmbrellaFeeds.PriceData",
          "name": "data",
          "type": "tuple"
        }
      ],
      "stateMutability": "view",
      "type": "function"
    },
    {
      "inputs": [
        {
          "internalType": "bytes32",
          "name": "_hash",
          "type": "bytes32"
        },
        {
          "internalType": "uint8",
          "name": "_v",
          "type": "uint8"
        },
        {
          "internalType": "bytes32",
          "name": "_r",
          "type": "bytes32"
        },
        {
          "internalType": "bytes32",
          "name": "_s",
          "type": "bytes32"
        }
      ],
      "name": "recoverSigner",
      "outputs": [
        {
          "internalType": "address",
          "name": "",
          "type": "address"
        }
      ],
      "stateMutability": "pure",
      "type": "function"
    },
    {
      "inputs": [
        {
          "internalType": "bytes32[]",
          "name": "_priceKeys",
          "type": "bytes32[]"
        },
        {
          "components": [
            {
              "internalType": "uint8",
              "name": "data",
              "type": "uint8"
            },
            {
              "internalType": "uint24",
              "name": "heartbeat",
              "type": "uint24"
            },
            {
              "internalType": "uint32",
              "name": "timestamp",
              "type": "uint32"
            },
            {
              "internalType": "uint128",
              "name": "price",
              "type": "uint128"
            }
          ],
          "internalType": "struct IUmbrellaFeeds.PriceData[]",
          "name": "_priceDatas",
          "type": "tuple[]"
        },
        {
          "components": [
            {
              "internalType": "uint8",
              "name": "v",
              "type": "uint8"
            },
            {
              "internalType": "bytes32",
              "name": "r",
              "type": "bytes32"
            },
            {
              "internalType": "bytes32",
              "name": "s",
              "type": "bytes32"
            }
          ],
          "internalType": "struct IUmbrellaFeeds.Signature[]",
          "name": "_signatures",
          "type": "tuple[]"
        }
      ],
      "name": "update",
      "outputs": [],
      "stateMutability": "nonpayable",
      "type": "function"
    },
    {
      "inputs": [
        {
          "internalType": "bytes32",
          "name": "_hash",
          "type": "bytes32"
        },
        {
          "components": [
            {
              "internalType": "uint8",
              "name": "v",
              "type": "uint8"
            },
            {
              "internalType": "bytes32",
              "name": "r",
              "type": "bytes32"
            },
            {
              "internalType": "bytes32",
              "name": "s",
              "type": "bytes32"
            }
          ],
          "internalType": "struct IUmbrellaFeeds.Signature[]",
          "name": "_signatures",
          "type": "tuple[]"
        }
      ],
      "name": "verifySignatures",
      "outputs": [],
      "stateMutability": "view",
      "type": "function"
    }
  ],
  "transactionHash": "0xe790286c3f15998ecd36a0cf17d72adc5e39718348c195b134146473d64edcaa",
  "args": [
    "0x8f98d3B5C911206C1Ac08B9938875620A03BCd59",
    2,
    8
  ],
  "numDeployments": 1,
  "solcInputHash": "00b526f7aeb2e4461a22e6afc85ad8b0",
  "bytecode": "0x6101206040523480156200001257600080fd5b506040516200338938038062003389833981810160405281019062000038919062000286565b60008261ffff160362000077576040517f458bb42100000000000000000000000000000000000000000000000000000000815260040160405180910390fd5b8273ffffffffffffffffffffffffffffffffffffffff1660a08173ffffffffffffffffffffffffffffffffffffffff16815250508161ffff1660e08161ffff16815250508273ffffffffffffffffffffffffffffffffffffffff166346bcb49d6040518163ffffffff1660e01b8152600401620000f49062000308565b602060405180830381865afa15801562000112573d6000803e3d6000fd5b505050506040513d601f19601f8201168201806040525081019062000138919062000354565b73ffffffffffffffffffffffffffffffffffffffff1660c08173ffffffffffffffffffffffffffffffffffffffff16815250508060ff166101008160ff1681525050426080818152505050505062000386565b600080fd5b600073ffffffffffffffffffffffffffffffffffffffff82169050919050565b6000620001bd8262000190565b9050919050565b6000620001d182620001b0565b9050919050565b620001e381620001c4565b8114620001ef57600080fd5b50565b6000815190506200020381620001d8565b92915050565b600061ffff82169050919050565b620002228162000209565b81146200022e57600080fd5b50565b600081519050620002428162000217565b92915050565b600060ff82169050919050565b620002608162000248565b81146200026c57600080fd5b50565b600081519050620002808162000255565b92915050565b600080600060608486031215620002a257620002a16200018b565b5b6000620002b286828701620001f2565b9350506020620002c58682870162000231565b9250506040620002d8868287016200026f565b9150509250925092565b7f5374616b696e6742616e6b000000000000000000000000000000000000000000815250565b60006020820190506200031e60008301620002e2565b919050565b6200032e81620001b0565b81146200033a57600080fd5b50565b6000815190506200034e8162000323565b92915050565b6000602082840312156200036d576200036c6200018b565b5b60006200037d848285016200033d565b91505092915050565b60805160a05160c05160e05161010051612f94620003f560003960006108da01526000818161050e01528181610571015281816105e30152611942015260008181610803015261199f015260008181610487015261124d0152600081816113cd015261144f0152612f946000f3fe608060405234801561001057600080fd5b506004361061011d5760003560e01c806306433b1b1461012257806317d7de7c1461014057806324c89a491461015e578063265598771461017c5780632e0f2625146101985780632e550693146101b657806331d98b3f146101e65780633408e47014610216578063385e05da1461023457806343fa6211146102645780635b38adc71461029457806360846bc6146102c45780636b9c3c7c146102f45780636ebb8cd2146103105780638a1194d31461032e57806395f1cf301461035f57806396594f661461037b5780639ac18b19146103ad578063a3f4df7e146103cb578063c65a53ad146103e9578063ccc6fd6914610407578063d45167d014610437578063ee07080514610467575b600080fd5b61012a610485565b6040516101379190611b9a565b60405180910390f35b6101486104a9565b6040516101559190611bce565b60405180910390f35b6101666104d1565b6040516101739190611c82565b60405180910390f35b61019660048036038101906101919190611d3f565b61050a565b005b6101a06108d8565b6040516101ad9190611dbb565b60405180910390f35b6101d060048036038101906101cb9190611e2c565b6108fc565b6040516101dd9190611ff4565b60405180910390f35b61020060048036038101906101fb9190612016565b610ac3565b60405161020d9190612052565b60405180910390f35b61021e610c2e565b60405161022b9190612086565b60405180910390f35b61024e60048036038101906102499190611e2c565b610c36565b60405161025b9190611ff4565b60405180910390f35b61027e60048036038101906102799190612016565b610e5b565b60405161028b91906120f6565b60405180910390f35b6102ae60048036038101906102a99190612167565b610fc1565b6040516102bb91906120f6565b60405180910390f35b6102de60048036038101906102d99190612016565b611112565b6040516102eb91906120f6565b60405180910390f35b61030e60048036038101906103099190612167565b611234565b005b61031861144d565b6040516103259190612086565b60405180910390f35b61034860048036038101906103439190612016565b611471565b6040516103569291906121c3565b60405180910390f35b61037960048036038101906103749190612242565b6115e3565b005b61039560048036038101906103909190612016565b6117c2565b6040516103a493929190612305565b60405180910390f35b6103b5611940565b6040516103c29190612359565b60405180910390f35b6103d3611964565b6040516103e091906123c9565b60405180910390f35b6103f161199d565b6040516103fe919061240c565b60405180910390f35b610421600480360381019061041c9190612427565b6119c1565b60405161042e9190611bce565b60405180910390f35b610451600480360381019061044c91906124d4565b611a05565b60405161045e919061255c565b60405180910390f35b61046f611ac2565b60405161047c9190612592565b60405180910390f35b7f000000000000000000000000000000000000000000000000000000000000000081565b60007f556d6272656c6c61466565647300000000000000000000000000000000000000905090565b6040518060400160405280601c81526020017f19457468657265756d205369676e6564204d6573736167653a0a33320000000081525081565b60007f000000000000000000000000000000000000000000000000000000000000000061ffff1683839050101561056d576040517fe246dc6300000000000000000000000000000000000000000000000000000000815260040160405180910390fd5b60007f000000000000000000000000000000000000000000000000000000000000000061ffff1667ffffffffffffffff8111156105ad576105ac6125ad565b5b6040519080825280602002602001820160405280156105db5781602001602082028036833780820191505090505b50905060005b7f000000000000000000000000000000000000000000000000000000000000000061ffff16811015610800576000806000878785818110610625576106246125dc565b5b905060600201600001602081019061063d919061260b565b8888868181106106505761064f6125dc565b5b9050606002016020013589898781811061066d5761066c6125dc565b5b905060600201604001359250925092507f7fffffffffffffffffffffffffffffff5d576e7357a4501ddfe92f46681b20a08160001c11156106da576040517f454ffaa700000000000000000000000000000000000000000000000000000000815260040160405180910390fd5b601b8360ff16141580156106f25750601c8360ff1614155b15610729576040517f1afa741400000000000000000000000000000000000000000000000000000000815260040160405180910390fd5b60006107378a858585611a05565b90508073ffffffffffffffffffffffffffffffffffffffff168773ffffffffffffffffffffffffffffffffffffffff161061079e576040517f9079f69b00000000000000000000000000000000000000000000000000000000815260040160405180910390fd5b809650808686815181106107b5576107b46125dc565b5b602002602001019073ffffffffffffffffffffffffffffffffffffffff16908173ffffffffffffffffffffffffffffffffffffffff16815250508480600101955050505050506105e1565b507f000000000000000000000000000000000000000000000000000000000000000073ffffffffffffffffffffffffffffffffffffffff16631d4f9ce0826040518263ffffffff1660e01b815260040161085a91906126f6565b602060405180830381865afa158015610877573d6000803e3d6000fd5b505050506040513d601f19601f8201168201806040525081019061089b9190612744565b6108d1576040517f815e1d6400000000000000000000000000000000000000000000000000000000815260040160405180910390fd5b5050505050565b7f000000000000000000000000000000000000000000000000000000000000000081565b606060008054906101000a900460ff1615610943576040517fdba5e91700000000000000000000000000000000000000000000000000000000815260040160405180910390fd5b8282905067ffffffffffffffff8111156109605761095f6125ad565b5b60405190808252806020026020018201604052801561099957816020015b610986611ad3565b81526020019060019003908161097e5790505b50905060005b83839050811015610abc57600160008585848181106109c1576109c06125dc565b5b9050602002013581526020019081526020016000206040518060800160405290816000820160009054906101000a900460ff1660ff1660ff1681526020016000820160019054906101000a900462ffffff1662ffffff1662ffffff1681526020016000820160049054906101000a900463ffffffff1663ffffffff1663ffffffff1681526020016000820160089054906101000a90046fffffffffffffffffffffffffffffffff166fffffffffffffffffffffffffffffffff166fffffffffffffffffffffffffffffffff1681525050828281518110610aa457610aa36125dc565b5b6020026020010181905250808060010191505061099f565b5092915050565b60008060009054906101000a900460ff1615610b0b576040517fdba5e91700000000000000000000000000000000000000000000000000000000815260040160405180910390fd5b6000600160008481526020019081526020016000206040518060800160405290816000820160009054906101000a900460ff1660ff1660ff1681526020016000820160019054906101000a900462ffffff1662ffffff1662ffffff1681526020016000820160049054906101000a900463ffffffff1663ffffffff1663ffffffff1681526020016000820160089054906101000a90046fffffffffffffffffffffffffffffffff166fffffffffffffffffffffffffffffffff166fffffffffffffffffffffffffffffffff168152505090506000816040015163ffffffff1603610c21576040517f15647ae900000000000000000000000000000000000000000000000000000000815260040160405180910390fd5b8060600151915050919050565b600046905090565b606060008054906101000a900460ff1615610c7d576040517fdba5e91700000000000000000000000000000000000000000000000000000000815260040160405180910390fd5b8282905067ffffffffffffffff811115610c9a57610c996125ad565b5b604051908082528060200260200182016040528015610cd357816020015b610cc0611ad3565b815260200190600190039081610cb85790505b50905060005b83839050811015610e545760016000858584818110610cfb57610cfa6125dc565b5b9050602002013581526020019081526020016000206040518060800160405290816000820160009054906101000a900460ff1660ff1660ff1681526020016000820160019054906101000a900462ffffff1662ffffff1662ffffff1681526020016000820160049054906101000a900463ffffffff1663ffffffff1663ffffffff1681526020016000820160089054906101000a90046fffffffffffffffffffffffffffffffff166fffffffffffffffffffffffffffffffff166fffffffffffffffffffffffffffffffff1681525050828281518110610dde57610ddd6125dc565b5b60200260200101819052506000828281518110610dfe57610dfd6125dc565b5b60200260200101516040015163ffffffff1603610e47576040517f15647ae900000000000000000000000000000000000000000000000000000000815260040160405180910390fd5b8080600101915050610cd9565b5092915050565b610e63611ad3565b60008054906101000a900460ff1615610ea8576040517fdba5e91700000000000000000000000000000000000000000000000000000000815260040160405180910390fd5b600160008381526020019081526020016000206040518060800160405290816000820160009054906101000a900460ff1660ff1660ff1681526020016000820160019054906101000a900462ffffff1662ffffff1662ffffff1681526020016000820160049054906101000a900463ffffffff1663ffffffff1663ffffffff1681526020016000820160089054906101000a90046fffffffffffffffffffffffffffffffff166fffffffffffffffffffffffffffffffff166fffffffffffffffffffffffffffffffff168152505090506000816040015163ffffffff1603610fbc576040517f15647ae900000000000000000000000000000000000000000000000000000000815260040160405180910390fd5b919050565b610fc9611ad3565b60008054906101000a900460ff161561100e576040517fdba5e91700000000000000000000000000000000000000000000000000000000815260040160405180910390fd5b600083836040516020016110239291906127b0565b604051602081830303815290604052805190602001209050600160008281526020019081526020016000206040518060800160405290816000820160009054906101000a900460ff1660ff1660ff1681526020016000820160019054906101000a900462ffffff1662ffffff1662ffffff1681526020016000820160049054906101000a900463ffffffff1663ffffffff1663ffffffff1681526020016000820160089054906101000a90046fffffffffffffffffffffffffffffffff166fffffffffffffffffffffffffffffffff166fffffffffffffffffffffffffffffffff168152505091505092915050565b61111a611ad3565b60008054906101000a900460ff161561115f576040517fdba5e91700000000000000000000000000000000000000000000000000000000815260040160405180910390fd5b600160008381526020019081526020016000206040518060800160405290816000820160009054906101000a900460ff1660ff1660ff1681526020016000820160019054906101000a900462ffffff1662ffffff1662ffffff1681526020016000820160049054906101000a900463ffffffff1663ffffffff1663ffffffff1681526020016000820160089054906101000a90046fffffffffffffffffffffffffffffffff166fffffffffffffffffffffffffffffffff166fffffffffffffffffffffffffffffffff16815250509050919050565b3073ffffffffffffffffffffffffffffffffffffffff167f000000000000000000000000000000000000000000000000000000000000000073ffffffffffffffffffffffffffffffffffffffff1663e8f98f886040518060400160405280600d81526020017f556d6272656c6c614665656473000000000000000000000000000000000000008152506040518263ffffffff1660e01b81526004016112d991906123c9565b602060405180830381865afa1580156112f6573d6000803e3d6000fd5b505050506040513d601f19601f8201168201806040525081019061131a91906127f5565b73ffffffffffffffffffffffffffffffffffffffff1603611367576040517f8c3e700900000000000000000000000000000000000000000000000000000000815260040160405180910390fd5b60006001600084846040516020016113809291906127b0565b60405160208183030381529060405280519060200120815260200190815260200160002060000160049054906101000a900463ffffffff1663ffffffff161480156113f85750426203f4807f00000000000000000000000000000000000000000000000000000000000000006113f69190612851565b115b1561142f576040517fcf51b43b00000000000000000000000000000000000000000000000000000000815260040160405180910390fd5b60016000806101000a81548160ff0219169083151502179055505050565b7f000000000000000000000000000000000000000000000000000000000000000081565b60008060008054906101000a900460ff16156114b9576040517fdba5e91700000000000000000000000000000000000000000000000000000000815260040160405180910390fd5b6000600160008581526020019081526020016000206040518060800160405290816000820160009054906101000a900460ff1660ff1660ff1681526020016000820160019054906101000a900462ffffff1662ffffff1662ffffff1681526020016000820160049054906101000a900463ffffffff1663ffffffff1663ffffffff1681526020016000820160089054906101000a90046fffffffffffffffffffffffffffffffff166fffffffffffffffffffffffffffffffff166fffffffffffffffffffffffffffffffff168152505090506000816040015163ffffffff16036115cf576040517f15647ae900000000000000000000000000000000000000000000000000000000815260040160405180910390fd5b806060015181604001519250925050915091565b60008054906101000a900460ff1615611628576040517fdba5e91700000000000000000000000000000000000000000000000000000000815260040160405180910390fd5b838390508686905014611667576040517f0cf7902300000000000000000000000000000000000000000000000000000000815260040160405180910390fd5b6000611671610c2e565b308888888860405160200161168b96959493929190612b05565b6040516020818303038152906040528051906020012090506116ae81848461050a565b60005b858590508110156117b85760008888838181106116d1576116d06125dc565b5b9050602002013590508686838181106116ed576116ec6125dc565b5b90506080020160400160208101906117059190612b5c565b63ffffffff166001600083815260200190815260200160002060000160049054906101000a900463ffffffff1663ffffffff161061176f576040517f1251b2f300000000000000000000000000000000000000000000000000000000815260040160405180910390fd5b868683818110611782576117816125dc565b5b9050608002016001600083815260200190815260200160002081816117a79190612e86565b9050508180600101925050506116b1565b5050505050505050565b60008060008060009054906101000a900460ff161561180d576040517fdba5e91700000000000000000000000000000000000000000000000000000000815260040160405180910390fd5b6000600160008681526020019081526020016000206040518060800160405290816000820160009054906101000a900460ff1660ff1660ff1681526020016000820160019054906101000a900462ffffff1662ffffff1662ffffff1681526020016000820160049054906101000a900463ffffffff1663ffffffff1663ffffffff1681526020016000820160089054906101000a90046fffffffffffffffffffffffffffffffff166fffffffffffffffffffffffffffffffff166fffffffffffffffffffffffffffffffff168152505090506000816040015163ffffffff1603611923576040517f15647ae900000000000000000000000000000000000000000000000000000000815260040160405180910390fd5b806060015181604001518260200151935093509350509193909250565b7f000000000000000000000000000000000000000000000000000000000000000081565b6040518060400160405280600d81526020017f556d6272656c6c6146656564730000000000000000000000000000000000000081525081565b7f000000000000000000000000000000000000000000000000000000000000000081565b60006119cb610c2e565b30868686866040516020016119e596959493929190612b05565b604051602081830303815290604052805190602001209050949350505050565b6000806040518060400160405280601c81526020017f19457468657265756d205369676e6564204d6573736167653a0a33320000000081525086604051602001611a50929190612ef1565b60405160208183030381529060405280519060200120905060018186868660405160008152602001604052604051611a8b9493929190612f19565b6020604051602081039080840390855afa158015611aad573d6000803e3d6000fd5b50505060206040510351915050949350505050565b60008054906101000a900460ff1681565b6040518060800160405280600060ff168152602001600062ffffff168152602001600063ffffffff16815260200160006fffffffffffffffffffffffffffffffff1681525090565b600073ffffffffffffffffffffffffffffffffffffffff82169050919050565b6000819050919050565b6000611b60611b5b611b5684611b1b565b611b3b565b611b1b565b9050919050565b6000611b7282611b45565b9050919050565b6000611b8482611b67565b9050919050565b611b9481611b79565b82525050565b6000602082019050611baf6000830184611b8b565b92915050565b6000819050919050565b611bc881611bb5565b82525050565b6000602082019050611be36000830184611bbf565b92915050565b600081519050919050565b600082825260208201905092915050565b60005b83811015611c23578082015181840152602081019050611c08565b83811115611c32576000848401525b50505050565b6000601f19601f8301169050919050565b6000611c5482611be9565b611c5e8185611bf4565b9350611c6e818560208601611c05565b611c7781611c38565b840191505092915050565b60006020820190508181036000830152611c9c8184611c49565b905092915050565b600080fd5b600080fd5b611cb781611bb5565b8114611cc257600080fd5b50565b600081359050611cd481611cae565b92915050565b600080fd5b600080fd5b600080fd5b60008083601f840112611cff57611cfe611cda565b5b8235905067ffffffffffffffff811115611d1c57611d1b611cdf565b5b602083019150836060820283011115611d3857611d37611ce4565b5b9250929050565b600080600060408486031215611d5857611d57611ca4565b5b6000611d6686828701611cc5565b935050602084013567ffffffffffffffff811115611d8757611d86611ca9565b5b611d9386828701611ce9565b92509250509250925092565b600060ff82169050919050565b611db581611d9f565b82525050565b6000602082019050611dd06000830184611dac565b92915050565b60008083601f840112611dec57611deb611cda565b5b8235905067ffffffffffffffff811115611e0957611e08611cdf565b5b602083019150836020820283011115611e2557611e24611ce4565b5b9250929050565b60008060208385031215611e4357611e42611ca4565b5b600083013567ffffffffffffffff811115611e6157611e60611ca9565b5b611e6d85828601611dd6565b92509250509250929050565b600081519050919050565b600082825260208201905092915050565b6000819050602082019050919050565b611eae81611d9f565b82525050565b600062ffffff82169050919050565b611ecc81611eb4565b82525050565b600063ffffffff82169050919050565b611eeb81611ed2565b82525050565b60006fffffffffffffffffffffffffffffffff82169050919050565b611f1681611ef1565b82525050565b608082016000820151611f326000850182611ea5565b506020820151611f456020850182611ec3565b506040820151611f586040850182611ee2565b506060820151611f6b6060850182611f0d565b50505050565b6000611f7d8383611f1c565b60808301905092915050565b6000602082019050919050565b6000611fa182611e79565b611fab8185611e84565b9350611fb683611e95565b8060005b83811015611fe7578151611fce8882611f71565b9750611fd983611f89565b925050600181019050611fba565b5085935050505092915050565b6000602082019050818103600083015261200e8184611f96565b905092915050565b60006020828403121561202c5761202b611ca4565b5b600061203a84828501611cc5565b91505092915050565b61204c81611ef1565b82525050565b60006020820190506120676000830184612043565b92915050565b6000819050919050565b6120808161206d565b82525050565b600060208201905061209b6000830184612077565b92915050565b6080820160008201516120b76000850182611ea5565b5060208201516120ca6020850182611ec3565b5060408201516120dd6040850182611ee2565b5060608201516120f06060850182611f0d565b50505050565b600060808201905061210b60008301846120a1565b92915050565b60008083601f84011261212757612126611cda565b5b8235905067ffffffffffffffff81111561214457612143611cdf565b5b6020830191508360018202830111156121605761215f611ce4565b5b9250929050565b6000806020838503121561217e5761217d611ca4565b5b600083013567ffffffffffffffff81111561219c5761219b611ca9565b5b6121a885828601612111565b92509250509250929050565b6121bd81611ed2565b82525050565b60006040820190506121d86000830185612043565b6121e560208301846121b4565b9392505050565b60008083601f84011261220257612201611cda565b5b8235905067ffffffffffffffff81111561221f5761221e611cdf565b5b60208301915083608082028301111561223b5761223a611ce4565b5b9250929050565b6000806000806000806060878903121561225f5761225e611ca4565b5b600087013567ffffffffffffffff81111561227d5761227c611ca9565b5b61228989828a01611dd6565b9650965050602087013567ffffffffffffffff8111156122ac576122ab611ca9565b5b6122b889828a016121ec565b9450945050604087013567ffffffffffffffff8111156122db576122da611ca9565b5b6122e789828a01611ce9565b92509250509295509295509295565b6122ff81611eb4565b82525050565b600060608201905061231a6000830186612043565b61232760208301856121b4565b61233460408301846122f6565b949350505050565b600061ffff82169050919050565b6123538161233c565b82525050565b600060208201905061236e600083018461234a565b92915050565b600081519050919050565b600082825260208201905092915050565b600061239b82612374565b6123a5818561237f565b93506123b5818560208601611c05565b6123be81611c38565b840191505092915050565b600060208201905081810360008301526123e38184612390565b905092915050565b60006123f682611b67565b9050919050565b612406816123eb565b82525050565b600060208201905061242160008301846123fd565b92915050565b6000806000806040858703121561244157612440611ca4565b5b600085013567ffffffffffffffff81111561245f5761245e611ca9565b5b61246b87828801611dd6565b9450945050602085013567ffffffffffffffff81111561248e5761248d611ca9565b5b61249a878288016121ec565b925092505092959194509250565b6124b181611d9f565b81146124bc57600080fd5b50565b6000813590506124ce816124a8565b92915050565b600080600080608085870312156124ee576124ed611ca4565b5b60006124fc87828801611cc5565b945050602061250d878288016124bf565b935050604061251e87828801611cc5565b925050606061252f87828801611cc5565b91505092959194509250565b600061254682611b1b565b9050919050565b6125568161253b565b82525050565b6000602082019050612571600083018461254d565b92915050565b60008115159050919050565b61258c81612577565b82525050565b60006020820190506125a76000830184612583565b92915050565b7f4e487b7100000000000000000000000000000000000000000000000000000000600052604160045260246000fd5b7f4e487b7100000000000000000000000000000000000000000000000000000000600052603260045260246000fd5b60006020828403121561262157612620611ca4565b5b600061262f848285016124bf565b91505092915050565b600081519050919050565b600082825260208201905092915050565b6000819050602082019050919050565b61266d8161253b565b82525050565b600061267f8383612664565b60208301905092915050565b6000602082019050919050565b60006126a382612638565b6126ad8185612643565b93506126b883612654565b8060005b838110156126e95781516126d08882612673565b97506126db8361268b565b9250506001810190506126bc565b5085935050505092915050565b600060208201905081810360008301526127108184612698565b905092915050565b61272181612577565b811461272c57600080fd5b50565b60008151905061273e81612718565b92915050565b60006020828403121561275a57612759611ca4565b5b60006127688482850161272f565b91505092915050565b600081905092915050565b82818337600083830152505050565b60006127978385612771565b93506127a483858461277c565b82840190509392505050565b60006127bd82848661278b565b91508190509392505050565b6127d28161253b565b81146127dd57600080fd5b50565b6000815190506127ef816127c9565b92915050565b60006020828403121561280b5761280a611ca4565b5b6000612819848285016127e0565b91505092915050565b7f4e487b7100000000000000000000000000000000000000000000000000000000600052601160045260246000fd5b600061285c8261206d565b91506128678361206d565b9250827fffffffffffffffffffffffffffffffffffffffffffffffffffffffffffffffff0382111561289c5761289b612822565b5b828201905092915050565b600082825260208201905092915050565b600080fd5b60006128c983856128a7565b93507f07ffffffffffffffffffffffffffffffffffffffffffffffffffffffffffffff8311156128fc576128fb6128b8565b5b60208302925061290d83858461277c565b82840190509392505050565b6000819050919050565b600061293260208401846124bf565b905092915050565b61294381611eb4565b811461294e57600080fd5b50565b6000813590506129608161293a565b92915050565b60006129756020840184612951565b905092915050565b61298681611ed2565b811461299157600080fd5b50565b6000813590506129a38161297d565b92915050565b60006129b86020840184612994565b905092915050565b6129c981611ef1565b81146129d457600080fd5b50565b6000813590506129e6816129c0565b92915050565b60006129fb60208401846129d7565b905092915050565b60808201612a146000830183612923565b612a216000850182611ea5565b50612a2f6020830183612966565b612a3c6020850182611ec3565b50612a4a60408301836129a9565b612a576040850182611ee2565b50612a6560608301836129ec565b612a726060850182611f0d565b50505050565b6000612a848383612a03565b60808301905092915050565b600082905092915050565b6000608082019050919050565b6000612ab48385611e84565b9350612abf82612919565b8060005b85811015612af857612ad58284612a90565b612adf8882612a78565b9750612aea83612a9b565b925050600181019050612ac3565b5085925050509392505050565b6000608082019050612b1a6000830189612077565b612b27602083018861254d565b8181036040830152612b3a8186886128bd565b90508181036060830152612b4f818486612aa8565b9050979650505050505050565b600060208284031215612b7257612b71611ca4565b5b6000612b8084828501612994565b91505092915050565b60008135612b96816124a8565b80915050919050565b60008160001b9050919050565b600060ff612bb984612b9f565b9350801983169250808416831791505092915050565b6000612bea612be5612be084611d9f565b611b3b565b611d9f565b9050919050565b6000819050919050565b612c0482612bcf565b612c17612c1082612bf1565b8354612bac565b8255505050565b60008135612c2b8161293a565b80915050919050565b60008160081b9050919050565b600063ffffff00612c5184612c34565b9350801983169250808416831791505092915050565b6000612c82612c7d612c7884611eb4565b611b3b565b611eb4565b9050919050565b6000819050919050565b612c9c82612c67565b612caf612ca882612c89565b8354612c41565b8255505050565b60008135612cc38161297d565b80915050919050565b60008160201b9050919050565b600067ffffffff00000000612ced84612ccc565b9350801983169250808416831791505092915050565b6000612d1e612d19612d1484611ed2565b611b3b565b611ed2565b9050919050565b6000819050919050565b612d3882612d03565b612d4b612d4482612d25565b8354612cd9565b8255505050565b60008135612d5f816129c0565b80915050919050565b60008160401b9050919050565b600077ffffffffffffffffffffffffffffffff0000000000000000612d9984612d68565b9350801983169250808416831791505092915050565b6000612dca612dc5612dc084611ef1565b611b3b565b611ef1565b9050919050565b6000819050919050565b612de482612daf565b612df7612df082612dd1565b8354612d75565b8255505050565b600081016000830180612e1081612b89565b9050612e1c8184612bfb565b505050600081016020830180612e3181612c1e565b9050612e3d8184612c93565b505050600081016040830180612e5281612cb6565b9050612e5e8184612d2f565b505050600081016060830180612e7381612d52565b9050612e7f8184612ddb565b5050505050565b612e908282612dfe565b5050565b600081905092915050565b6000612eaa82611be9565b612eb48185612e94565b9350612ec4818560208601611c05565b80840191505092915050565b6000819050919050565b612eeb612ee682611bb5565b612ed0565b82525050565b6000612efd8285612e9f565b9150612f098284612eda565b6020820191508190509392505050565b6000608082019050612f2e6000830187611bbf565b612f3b6020830186611dac565b612f486040830185611bbf565b612f556060830184611bbf565b9594505050505056fea26469706673582212203c94ef026128da26d9af17f4ae512b74977c4517bba8c6a471968f986602d08264736f6c634300080d0033",
  "devdoc": {
    "details": "Main contract for all on-chain data. Check `UmbrellaFeedsReader` to see how to integrate.",
    "kind": "dev",
    "methods": {
      "constructor": {
        "params": {
          "_contractRegistry": "Registry address",
          "_decimals": "decimals for prices stored in this contract",
          "_requiredSignatures": "number of required signatures for accepting consensus submission"
        }
      },
      "destroy(string)": {
        "details": "destroys old contract there is sanity check that prevents abuse of destroy method",
        "params": {
          "_name": "string feed key to verify, that contract was initialised"
        }
      },
      "getManyPriceData(bytes32[])": {
        "details": "it will return array of price datas for provided `_keys` In case ony of feed does not exist, fallback call will be executed for that feed.",
        "params": {
          "_keys": "array of feed keys"
        },
        "returns": {
          "data": "PriceData array"
        }
      },
      "getManyPriceDataRaw(bytes32[])": {
        "details": "same as getManyPriceData() but does not revert on empty data."
      },
      "getName()": {
        "details": "to follow Registrable interface"
      },
      "getPrice(bytes32)": {
        "params": {
          "_key": "hash of feed name"
        },
        "returns": {
          "price": "price"
        }
      },
      "getPriceData(bytes32)": {
        "details": "this is main endpoint for reading feeds. In case timestamp is empty (that means there is no data), contract will revert. If you do not need whole data from `PriceData` struct, you can save some gas by using other view methods that returns just what you need.",
        "params": {
          "_key": "hash of feed name"
        },
        "returns": {
          "data": "full PriceData struct"
        }
      },
      "getPriceDataByName(string)": {
        "details": "This method should be used only for Layer2 as it is more gas consuming than others views.",
        "params": {
          "_name": "string feed name"
        },
        "returns": {
          "data": "PriceData"
        }
      },
      "getPriceTimestamp(bytes32)": {
        "params": {
          "_key": "hash of feed name"
        },
        "returns": {
          "price": "price",
          "timestamp": "timestamp"
        }
      },
      "getPriceTimestampHeartbeat(bytes32)": {
        "params": {
          "_key": "hash of feed name"
        },
        "returns": {
          "heartbeat": "heartbeat",
          "price": "price",
          "timestamp": "timestamp"
        }
      },
      "hashData(bytes32[],(uint8,uint24,uint32,uint128)[])": {
        "details": "helper method for QA purposes",
        "returns": {
          "_0": "hash of data that are signed by validators (keys and priced data)"
        }
      },
      "prices(bytes32)": {
        "params": {
          "_key": "hash of feed name"
        },
        "returns": {
          "data": "full PriceData struct"
        }
      },
      "recoverSigner(bytes32,uint8,bytes32,bytes32)": {
        "params": {
          "_hash": "hashed of data",
          "_r": "part of signature",
          "_s": "part of signature",
          "_v": "part of signature"
        },
        "returns": {
          "_0": "signer address"
        }
      },
      "update(bytes32[],(uint8,uint24,uint32,uint128)[],(uint8,bytes32,bytes32)[])": {
        "details": "method for submitting consensus data",
        "params": {
          "_priceDatas": "PriceData signed by validators",
          "_priceKeys": "array of keys for `_priceDatas`",
          "_signatures": "validators signatures"
        }
      },
      "verifySignatures(bytes32,(uint8,bytes32,bytes32)[])": {
        "params": {
          "_hash": "hash of signed data",
          "_signatures": "array of validators signatures"
        }
      }
    },
    "stateVariables": {
      "DECIMALS": {
        "details": "decimals for prices stored in this contract"
      },
      "DEPLOYED_AT": {
        "details": "deployment time, used for protect for unintentional destroy"
      },
      "REGISTRY": {
        "details": "Registry contract where list of all addresses is stored. Fallback feature uses this registry to resolve newest `UmbrellaFeeds` address"
      },
      "REQUIRED_SIGNATURES": {
        "details": "minimal number of signatures required for accepting price submission (PoA)"
      },
      "STAKING_BANK": {
        "details": "StakingBank contract where list of validators is stored"
      },
      "disabled": {
        "details": "in case selfdestruct is not supported, this flag will make sure contract is not usable anymore"
      }
    },
    "version": 1
  },
  "userdoc": {
    "kind": "user",
    "methods": {
      "getManyPriceData(bytes32[])": {
        "notice": "If data for any key not exists, function will revert. Use `getManyPriceDataRaw` method if you don't want revert."
      },
      "getManyPriceDataRaw(bytes32[])": {
        "notice": "This method does no revert if some data does not exists. Check `data.timestamp` to see if price exist, if it is 0, then it does not exist."
      },
      "getPrice(bytes32)": {
        "notice": "method will revert if data for `_key` not exists."
      },
      "getPriceData(bytes32)": {
        "notice": "method will revert if data for `_key` not exists."
      },
      "getPriceDataByName(string)": {
        "notice": "It does not revert on empty data."
      },
      "getPriceTimestamp(bytes32)": {
        "notice": "method will revert if data for `_key` not exists."
      },
      "getPriceTimestampHeartbeat(bytes32)": {
        "notice": "method will revert if data for `_key` not exists."
      },
      "prices(bytes32)": {
        "notice": "reader for mapping"
      }
    },
    "notice": "This contract can be destroyed and replaced with new one (with new address). For best gas efficiency you should pick one of two ways of integration: 1. make `UmbrellaFeeds` immutable and use fallback in case of selfdestruct. After new deployment, it is recommended to update address to avoid fallback and reduce gas cost to minimum. In long run this is most efficient solution, better than any proxy. 2. always check newest `UmbrellaFeeds` via `Regostry` and fallback will not be needed.",
    "version": 1
  },
  "storageLayout": {
    "storage": [
      {
        "astId": 4236,
        "contract": "contracts/onChainFeeds/UmbrellaFeeds.sol:UmbrellaFeeds",
        "label": "disabled",
        "offset": 0,
        "slot": "0",
        "type": "t_bool"
      },
      {
        "astId": 4242,
        "contract": "contracts/onChainFeeds/UmbrellaFeeds.sol:UmbrellaFeeds",
        "label": "_prices",
        "offset": 0,
        "slot": "1",
        "type": "t_mapping(t_bytes32,t_struct(PriceData)3365_storage)"
      }
    ],
    "types": {
      "t_bool": {
        "encoding": "inplace",
        "label": "bool",
        "numberOfBytes": "1"
      },
      "t_bytes32": {
        "encoding": "inplace",
        "label": "bytes32",
        "numberOfBytes": "32"
      },
      "t_mapping(t_bytes32,t_struct(PriceData)3365_storage)": {
        "encoding": "mapping",
        "key": "t_bytes32",
        "label": "mapping(bytes32 => struct IUmbrellaFeeds.PriceData)",
        "numberOfBytes": "32",
        "value": "t_struct(PriceData)3365_storage"
      },
      "t_struct(PriceData)3365_storage": {
        "encoding": "inplace",
        "label": "struct IUmbrellaFeeds.PriceData",
        "members": [
          {
            "astId": 3355,
            "contract": "contracts/onChainFeeds/UmbrellaFeeds.sol:UmbrellaFeeds",
            "label": "data",
            "offset": 0,
            "slot": "0",
            "type": "t_uint8"
          },
          {
            "astId": 3358,
            "contract": "contracts/onChainFeeds/UmbrellaFeeds.sol:UmbrellaFeeds",
            "label": "heartbeat",
            "offset": 1,
            "slot": "0",
            "type": "t_uint24"
          },
          {
            "astId": 3361,
            "contract": "contracts/onChainFeeds/UmbrellaFeeds.sol:UmbrellaFeeds",
            "label": "timestamp",
            "offset": 4,
            "slot": "0",
            "type": "t_uint32"
          },
          {
            "astId": 3364,
            "contract": "contracts/onChainFeeds/UmbrellaFeeds.sol:UmbrellaFeeds",
            "label": "price",
            "offset": 8,
            "slot": "0",
            "type": "t_uint128"
          }
        ],
        "numberOfBytes": "32"
      },
      "t_uint128": {
        "encoding": "inplace",
        "label": "uint128",
        "numberOfBytes": "16"
      },
      "t_uint24": {
        "encoding": "inplace",
        "label": "uint24",
        "numberOfBytes": "3"
      },
      "t_uint32": {
        "encoding": "inplace",
        "label": "uint32",
        "numberOfBytes": "4"
      },
      "t_uint8": {
        "encoding": "inplace",
        "label": "uint8",
        "numberOfBytes": "1"
      }
    }
  }
}