{
  "address": "0x29A5f90DBe54A11d37b0b18573fF853c7dc5433B",
  "abi": [
    {
      "inputs": [
        {
          "internalType": "address",
          "name": "_factory",
          "type": "address"
        },
        {
          "internalType": "address",
          "name": "_WETH9",
          "type": "address"
        }
      ],
      "stateMutability": "nonpayable",
      "type": "constructor"
    },
    {
      "inputs": [],
      "name": "WETH9",
      "outputs": [
        {
          "internalType": "address",
          "name": "",
          "type": "address"
        }
      ],
      "stateMutability": "view",
      "type": "function"
    },
    {
      "inputs": [],
      "name": "factory",
      "outputs": [
        {
          "internalType": "address",
          "name": "",
          "type": "address"
        }
      ],
      "stateMutability": "view",
      "type": "function"
    },
    {
      "inputs": [
        {
          "internalType": "bytes",
          "name": "path",
          "type": "bytes"
        },
        {
          "internalType": "uint256",
          "name": "amountIn",
          "type": "uint256"
        }
      ],
      "name": "quoteExactInput",
      "outputs": [
        {
          "internalType": "uint256",
          "name": "amountOut",
          "type": "uint256"
        },
        {
          "internalType": "uint160[]",
          "name": "sqrtPriceX96AfterList",
          "type": "uint160[]"
        },
        {
          "internalType": "uint32[]",
          "name": "initializedTicksCrossedList",
          "type": "uint32[]"
        },
        {
          "internalType": "uint256",
          "name": "gasEstimate",
          "type": "uint256"
        }
      ],
      "stateMutability": "nonpayable",
      "type": "function"
    },
    {
      "inputs": [
        {
          "components": [
            {
              "internalType": "address",
              "name": "tokenIn",
              "type": "address"
            },
            {
              "internalType": "address",
              "name": "tokenOut",
              "type": "address"
            },
            {
              "internalType": "uint256",
              "name": "amountIn",
              "type": "uint256"
            },
            {
              "internalType": "uint24",
              "name": "fee",
              "type": "uint24"
            },
            {
              "internalType": "uint160",
              "name": "sqrtPriceLimitX96",
              "type": "uint160"
            }
          ],
          "internalType": "struct IQuoterV2.QuoteExactInputSingleParams",
          "name": "params",
          "type": "tuple"
        }
      ],
      "name": "quoteExactInputSingle",
      "outputs": [
        {
          "internalType": "uint256",
          "name": "amountOut",
          "type": "uint256"
        },
        {
          "internalType": "uint160",
          "name": "sqrtPriceX96After",
          "type": "uint160"
        },
        {
          "internalType": "uint32",
          "name": "initializedTicksCrossed",
          "type": "uint32"
        },
        {
          "internalType": "uint256",
          "name": "gasEstimate",
          "type": "uint256"
        }
      ],
      "stateMutability": "nonpayable",
      "type": "function"
    },
    {
      "inputs": [
        {
          "internalType": "bytes",
          "name": "path",
          "type": "bytes"
        },
        {
          "internalType": "uint256",
          "name": "amountOut",
          "type": "uint256"
        }
      ],
      "name": "quoteExactOutput",
      "outputs": [
        {
          "internalType": "uint256",
          "name": "amountIn",
          "type": "uint256"
        },
        {
          "internalType": "uint160[]",
          "name": "sqrtPriceX96AfterList",
          "type": "uint160[]"
        },
        {
          "internalType": "uint32[]",
          "name": "initializedTicksCrossedList",
          "type": "uint32[]"
        },
        {
          "internalType": "uint256",
          "name": "gasEstimate",
          "type": "uint256"
        }
      ],
      "stateMutability": "nonpayable",
      "type": "function"
    },
    {
      "inputs": [
        {
          "components": [
            {
              "internalType": "address",
              "name": "tokenIn",
              "type": "address"
            },
            {
              "internalType": "address",
              "name": "tokenOut",
              "type": "address"
            },
            {
              "internalType": "uint256",
              "name": "amount",
              "type": "uint256"
            },
            {
              "internalType": "uint24",
              "name": "fee",
              "type": "uint24"
            },
            {
              "internalType": "uint160",
              "name": "sqrtPriceLimitX96",
              "type": "uint160"
            }
          ],
          "internalType": "struct IQuoterV2.QuoteExactOutputSingleParams",
          "name": "params",
          "type": "tuple"
        }
      ],
      "name": "quoteExactOutputSingle",
      "outputs": [
        {
          "internalType": "uint256",
          "name": "amountIn",
          "type": "uint256"
        },
        {
          "internalType": "uint160",
          "name": "sqrtPriceX96After",
          "type": "uint160"
        },
        {
          "internalType": "uint32",
          "name": "initializedTicksCrossed",
          "type": "uint32"
        },
        {
          "internalType": "uint256",
          "name": "gasEstimate",
          "type": "uint256"
        }
      ],
      "stateMutability": "nonpayable",
      "type": "function"
    },
    {
      "inputs": [
        {
          "internalType": "int256",
          "name": "amount0Delta",
          "type": "int256"
        },
        {
          "internalType": "int256",
          "name": "amount1Delta",
          "type": "int256"
        },
        {
          "internalType": "bytes",
          "name": "path",
          "type": "bytes"
        }
      ],
      "name": "uniswapV3SwapCallback",
      "outputs": [],
      "stateMutability": "view",
      "type": "function"
    }
  ],
  "transactionHash": "0x89af2584d03caa6ec5ac21f5d7344fb51c585150ae800ca40f82dd87ff6219a4",
  "args": [
    "0x0227628f3F023bb0B980b67D528571c95c6DaC1c",
    "0xD0dF82dE051244f04BfF3A8bB1f62E1cD39eED92"
  ],
  "numDeployments": 1,
  "solcInputHash": "f0e9c792d70824199810f3cc82eaf3ac",
  "bytecode": "0x60c06040523480156200001157600080fd5b5060405162002ac238038062002ac28339818101604052810190620000379190620000c8565b81818173ffffffffffffffffffffffffffffffffffffffff1660808173ffffffffffffffffffffffffffffffffffffffff1660601b815250508073ffffffffffffffffffffffffffffffffffffffff1660a08173ffffffffffffffffffffffffffffffffffffffff1660601b815250505050505062000157565b600081519050620000c2816200013d565b92915050565b60008060408385031215620000dc57600080fd5b6000620000ec85828601620000b1565b9250506020620000ff85828601620000b1565b9150509250929050565b600062000116826200011d565b9050919050565b600073ffffffffffffffffffffffffffffffffffffffff82169050919050565b620001488162000109565b81146200015457600080fd5b50565b60805160601c60a05160601c6129376200018b600039806103a75250806106085280610a4d5280610c9152506129376000f3fe608060405234801561001057600080fd5b506004361061006d5760003560e01c80632f80bb1d146100725780634aa4a4fc146100a5578063bd21704a146100c3578063c45a0155146100f6578063c6a5026a14610114578063cdca175314610147578063fa461e331461017a575b600080fd5b61008c60048036038101906100879190611f72565b610196565b60405161009c9493929190612521565b60405180910390f35b6100ad6103a5565b6040516100ba919061246a565b60405180910390f35b6100dd60048036038101906100d891906120d3565b6103c9565b6040516100ed9493929190612574565b60405180910390f35b6100fe610606565b60405161010b919061246a565b60405180910390f35b61012e600480360381019061012991906120aa565b61062a565b60405161013e9493929190612574565b60405180910390f35b610161600480360381019061015c9190611f72565b61080d565b6040516101719493929190612521565b60405180910390f35b610194600480360381019061018f9190612002565b610a1c565b005b600060608060006101a686610bda565b67ffffffffffffffff811180156101bc57600080fd5b506040519080825280602002602001820160405280156101eb5781602001602082028036833780820191505090505b5092506101f786610bda565b67ffffffffffffffff8111801561020d57600080fd5b5060405190808252806020026020018201604052801561023c5781602001602082028036833780820191505090505b50915060005b60011561039a5760008060006102578a610bf5565b9250925092506000806000806102da6040518060a001604052808873ffffffffffffffffffffffffffffffffffffffff1681526020018973ffffffffffffffffffffffffffffffffffffffff1681526020018f81526020018762ffffff168152602001600073ffffffffffffffffffffffffffffffffffffffff168152506103c9565b9350935093509350828b89815181106102ef57fe5b602002602001019073ffffffffffffffffffffffffffffffffffffffff16908173ffffffffffffffffffffffffffffffffffffffff1681525050818a898151811061033657fe5b602002602001019063ffffffff16908163ffffffff1681525050839c50808901985087806001019850506103698e610c46565b1561037e576103778e610c61565b9d5061038e565b8c9b50505050505050505061039c565b50505050505050610242565b505b92959194509250565b7f000000000000000000000000000000000000000000000000000000000000000081565b6000806000806000856020015173ffffffffffffffffffffffffffffffffffffffff16866000015173ffffffffffffffffffffffffffffffffffffffff161090506000610423876000015188602001518960600151610c8a565b90506000876080015173ffffffffffffffffffffffffffffffffffffffff1614156104545786604001516000819055505b60005a90508173ffffffffffffffffffffffffffffffffffffffff1663128acb0830856104848c60400151610cc9565b60000360008d6080015173ffffffffffffffffffffffffffffffffffffffff16146104b3578c608001516104e0565b876104d557600173fffd8963efd1fc6a506488495d951d5263988d26036104df565b60016401000276a3015b5b8d602001518e606001518f600001516040516020016105019392919061242d565b6040516020818303038152906040526040518663ffffffff1660e01b8152600401610530959493929190612485565b6040805180830381600087803b15801561054957600080fd5b505af192505050801561057a57506040513d601f19601f820116820180604052508101906105779190611fc6565b60015b6105f9573d80600081146105aa576040519150601f19603f3d011682016040523d82523d6000602084013e6105af565b606091505b505a820394506000896080015173ffffffffffffffffffffffffffffffffffffffff1614156105dd57600080555b6105e8818487610cff565b9750975097509750505050506105ff565b50505050505b9193509193565b7f000000000000000000000000000000000000000000000000000000000000000081565b6000806000806000856020015173ffffffffffffffffffffffffffffffffffffffff16866000015173ffffffffffffffffffffffffffffffffffffffff161090506000610684876000015188602001518960600151610c8a565b905060005a90508173ffffffffffffffffffffffffffffffffffffffff1663128acb0830856106b68c60400151610cc9565b60008d6080015173ffffffffffffffffffffffffffffffffffffffff16146106e2578c6080015161070f565b8761070457600173fffd8963efd1fc6a506488495d951d5263988d260361070e565b60016401000276a3015b5b8d600001518e606001518f602001516040516020016107309392919061242d565b6040516020818303038152906040526040518663ffffffff1660e01b815260040161075f959493929190612485565b6040805180830381600087803b15801561077857600080fd5b505af19250505080156107a957506040513d601f19601f820116820180604052508101906107a69190611fc6565b60015b610800573d80600081146107d9576040519150601f19603f3d011682016040523d82523d6000602084013e6107de565b606091505b505a820394506107ef818487610cff565b975097509750975050505050610806565b50505050505b9193509193565b6000606080600061081d86610bda565b67ffffffffffffffff8111801561083357600080fd5b506040519080825280602002602001820160405280156108625781602001602082028036833780820191505090505b50925061086e86610bda565b67ffffffffffffffff8111801561088457600080fd5b506040519080825280602002602001820160405280156108b35781602001602082028036833780820191505090505b50915060005b600115610a115760008060006108ce8a610bf5565b9250925092506000806000806109516040518060a001604052808973ffffffffffffffffffffffffffffffffffffffff1681526020018873ffffffffffffffffffffffffffffffffffffffff1681526020018f81526020018762ffffff168152602001600073ffffffffffffffffffffffffffffffffffffffff1681525061062a565b9350935093509350828b898151811061096657fe5b602002602001019073ffffffffffffffffffffffffffffffffffffffff16908173ffffffffffffffffffffffffffffffffffffffff1681525050818a89815181106109ad57fe5b602002602001019063ffffffff16908163ffffffff1681525050839c50808901985087806001019850506109e08e610c46565b156109f5576109ee8e610c61565b9d50610a05565b8c9b505050505050505050610a13565b505050505050506108b9565b505b92959194509250565b6000831380610a2b5750600082135b610a3457600080fd5b6000806000610a4284610bf5565b925092509250610a747f0000000000000000000000000000000000000000000000000000000000000000848484610df9565b506000806000808913610aba578573ffffffffffffffffffffffffffffffffffffffff168573ffffffffffffffffffffffffffffffffffffffff1610888a600003610aef565b8473ffffffffffffffffffffffffffffffffffffffff168673ffffffffffffffffffffffffffffffffffffffff161089896000035b9250925092506000610b02878787610c8a565b90506000808273ffffffffffffffffffffffffffffffffffffffff16633850c7bd6040518163ffffffff1660e01b815260040160e06040518083038186803b158015610b4d57600080fd5b505afa158015610b61573d6000803e3d6000fd5b505050506040513d601f19601f82011682018060405250810190610b8591906120fc565b5050505050915091508515610bab57604051848152826020820152816040820152606081fd5b6000805414610bc3576000548414610bc257600080fd5b5b604051858152826020820152816040820152606081fd5b60006003601401601483510381610bed57fe5b049050919050565b6000806000610c0e600085610e1990919063ffffffff16565b9250610c24601485610f3290919063ffffffff16565b9050610c3d600360140185610e1990919063ffffffff16565b91509193909250565b60006003601401601460036014010101825110159050919050565b6060610c83600360140160036014018451038461103c9092919063ffffffff16565b9050919050565b6000610cc07f0000000000000000000000000000000000000000000000000000000000000000610cbb868686611226565b6112c2565b90509392505050565b60007f80000000000000000000000000000000000000000000000000000000000000008210610cf757600080fd5b819050919050565b6000806000806000808773ffffffffffffffffffffffffffffffffffffffff16633850c7bd6040518163ffffffff1660e01b815260040160e06040518083038186803b158015610d4e57600080fd5b505afa158015610d62573d6000803e3d6000fd5b505050506040513d601f19601f82011682018060405250810190610d8691906120fc565b9091929394955090919293509091925090915090505080925050610da98961141d565b809350819750829850505050610de082828a73ffffffffffffffffffffffffffffffffffffffff166114e79092919063ffffffff16565b9350858585899550955095509550505093509350935093565b6000610e0f85610e0a868686611226565b611bca565b9050949350505050565b600081601483011015610e94576040517f08c379a00000000000000000000000000000000000000000000000000000000081526004018080602001828103825260128152602001807f746f416464726573735f6f766572666c6f77000000000000000000000000000081525060200191505060405180910390fd5b6014820183511015610f0e576040517f08c379a00000000000000000000000000000000000000000000000000000000081526004018080602001828103825260158152602001807f746f416464726573735f6f75744f66426f756e6473000000000000000000000081525060200191505060405180910390fd5b60006c01000000000000000000000000836020860101510490508091505092915050565b600081600383011015610fad576040517f08c379a00000000000000000000000000000000000000000000000000000000081526004018080602001828103825260118152602001807f746f55696e7432345f6f766572666c6f7700000000000000000000000000000081525060200191505060405180910390fd5b6003820183511015611027576040517f08c379a00000000000000000000000000000000000000000000000000000000081526004018080602001828103825260148152602001807f746f55696e7432345f6f75744f66426f756e647300000000000000000000000081525060200191505060405180910390fd5b60008260038501015190508091505092915050565b606081601f830110156110b7576040517f08c379a000000000000000000000000000000000000000000000000000000000815260040180806020018281038252600e8152602001807f736c6963655f6f766572666c6f7700000000000000000000000000000000000081525060200191505060405180910390fd5b82828401101561112f576040517f08c379a000000000000000000000000000000000000000000000000000000000815260040180806020018281038252600e8152602001807f736c6963655f6f766572666c6f7700000000000000000000000000000000000081525060200191505060405180910390fd5b818301845110156111a8576040517f08c379a00000000000000000000000000000000000000000000000000000000081526004018080602001828103825260118152602001807f736c6963655f6f75744f66426f756e647300000000000000000000000000000081525060200191505060405180910390fd5b60608215600081146111c9576040519150600082526020820160405261121a565b6040519150601f8416801560200281840101858101878315602002848b0101015b8183101561120757805183526020830192506020810190506111ea565b50868552601f19601f8301166040525050505b50809150509392505050565b61122e611c44565b8273ffffffffffffffffffffffffffffffffffffffff168473ffffffffffffffffffffffffffffffffffffffff16111561126d57828480945081955050505b60405180606001604052808573ffffffffffffffffffffffffffffffffffffffff1681526020018473ffffffffffffffffffffffffffffffffffffffff1681526020018362ffffff1681525090509392505050565b6000816020015173ffffffffffffffffffffffffffffffffffffffff16826000015173ffffffffffffffffffffffffffffffffffffffff161061130457600080fd5b82826000015183602001518460400151604051602001808473ffffffffffffffffffffffffffffffffffffffff1681526020018373ffffffffffffffffffffffffffffffffffffffff1681526020018262ffffff1681526020019350505050604051602081830303815290604052805190602001207fe34f199b19b2b4f47f68442619d555527d244f78a3297ea89325f843f87b8b5460001b60405160200180807fff000000000000000000000000000000000000000000000000000000000000008152506001018473ffffffffffffffffffffffffffffffffffffffff1660601b815260140183815260200182815260200193505050506040516020818303038152906040528051906020012060001c905092915050565b600080600060608451146114c657604484511015611470576040517f08c379a000000000000000000000000000000000000000000000000000000000815260040161146790612501565b60405180910390fd5b6004840193508380602001905181019061148a9190612069565b6040517f08c379a00000000000000000000000000000000000000000000000000000000081526004016114bd91906124df565b60405180910390fd5b838060200190518101906114da919061219a565b9250925092509193909250565b60008060008060008060008060088b73ffffffffffffffffffffffffffffffffffffffff1663d0c93a7c6040518163ffffffff1660e01b815260040160206040518083038186803b15801561153b57600080fd5b505afa15801561154f573d6000803e3d6000fd5b505050506040513d602081101561156557600080fd5b810190808051906020019092919050505060020b8b60020b8161158457fe5b0560020b901d905060006101008c73ffffffffffffffffffffffffffffffffffffffff1663d0c93a7c6040518163ffffffff1660e01b815260040160206040518083038186803b1580156115d757600080fd5b505afa1580156115eb573d6000803e3d6000fd5b505050506040513d602081101561160157600080fd5b810190808051906020019092919050505060020b8c60020b8161162057fe5b0560020b8161162b57fe5b079050600060088d73ffffffffffffffffffffffffffffffffffffffff1663d0c93a7c6040518163ffffffff1660e01b815260040160206040518083038186803b15801561167857600080fd5b505afa15801561168c573d6000803e3d6000fd5b505050506040513d60208110156116a257600080fd5b810190808051906020019092919050505060020b8c60020b816116c157fe5b0560020b901d905060006101008e73ffffffffffffffffffffffffffffffffffffffff1663d0c93a7c6040518163ffffffff1660e01b815260040160206040518083038186803b15801561171457600080fd5b505afa158015611728573d6000803e3d6000fd5b505050506040513d602081101561173e57600080fd5b810190808051906020019092919050505060020b8d60020b8161175d57fe5b0560020b8161176857fe5b07905060008160ff166001901b8f73ffffffffffffffffffffffffffffffffffffffff16635339c296856040518263ffffffff1660e01b8152600401808260010b815260200191505060206040518083038186803b1580156117c957600080fd5b505afa1580156117dd573d6000803e3d6000fd5b505050506040513d60208110156117f357600080fd5b8101908080519060200190929190505050161180156118a4575060008e73ffffffffffffffffffffffffffffffffffffffff1663d0c93a7c6040518163ffffffff1660e01b815260040160206040518083038186803b15801561185557600080fd5b505afa158015611869573d6000803e3d6000fd5b505050506040513d602081101561187f57600080fd5b810190808051906020019092919050505060020b8d60020b8161189e57fe5b0760020b145b80156118b557508b60020b8d60020b135b945060008360ff166001901b8f73ffffffffffffffffffffffffffffffffffffffff16635339c296876040518263ffffffff1660e01b8152600401808260010b815260200191505060206040518083038186803b15801561191557600080fd5b505afa158015611929573d6000803e3d6000fd5b505050506040513d602081101561193f57600080fd5b8101908080519060200190929190505050161180156119f0575060008e73ffffffffffffffffffffffffffffffffffffffff1663d0c93a7c6040518163ffffffff1660e01b815260040160206040518083038186803b1580156119a157600080fd5b505afa1580156119b5573d6000803e3d6000fd5b505050506040513d60208110156119cb57600080fd5b810190808051906020019092919050505060020b8e60020b816119ea57fe5b0760020b145b8015611a0157508b60020b8d60020b125b95508160010b8460010b1280611a2e57508160010b8460010b148015611a2d57508060ff168360ff1611155b5b15611a4457839950829750819850809650611a51565b8199508097508398508296505b5050505060008460ff167fffffffffffffffffffffffffffffffffffffffffffffffffffffffffffffffff901b90505b8560010b8760010b13611ba2578560010b8760010b1415611acb578360ff0360ff167fffffffffffffffffffffffffffffffffffffffffffffffffffffffffffffffff901c811690505b6000818c73ffffffffffffffffffffffffffffffffffffffff16635339c2968a6040518263ffffffff1660e01b8152600401808260010b815260200191505060206040518083038186803b158015611b2257600080fd5b505afa158015611b36573d6000803e3d6000fd5b505050506040513d6020811015611b4c57600080fd5b8101908080519060200190929190505050169050611b6981611c16565b61ffff168901985087806001019850507fffffffffffffffffffffffffffffffffffffffffffffffffffffffffffffffff915050611a81565b8115611baf576001880397505b8215611bbc576001880397505b505050505050509392505050565b6000611bd683836112c2565b90508073ffffffffffffffffffffffffffffffffffffffff163373ffffffffffffffffffffffffffffffffffffffff1614611c1057600080fd5b92915050565b600080600090505b60008314611c3b5780806001019150506001830383169250611c1e565b80915050919050565b6040518060600160405280600073ffffffffffffffffffffffffffffffffffffffff168152602001600073ffffffffffffffffffffffffffffffffffffffff168152602001600062ffffff1681525090565b6000611ca9611ca4846125ea565b6125b9565b905082815260208101848484011115611cc157600080fd5b611ccc84828561278d565b509392505050565b6000611ce7611ce28461261a565b6125b9565b905082815260208101848484011115611cff57600080fd5b611d0a84828561279c565b509392505050565b600081359050611d2181612832565b92915050565b600081519050611d3681612849565b92915050565b600082601f830112611d4d57600080fd5b8135611d5d848260208601611c96565b91505092915050565b600081519050611d7581612860565b92915050565b600081359050611d8a81612877565b92915050565b600081519050611d9f81612877565b92915050565b600082601f830112611db657600080fd5b8151611dc6848260208601611cd4565b91505092915050565b600060a08284031215611de157600080fd5b611deb60a06125b9565b90506000611dfb84828501611d12565b6000830152506020611e0f84828501611d12565b6020830152506040611e2384828501611f33565b6040830152506060611e3784828501611f1e565b6060830152506080611e4b84828501611edf565b60808301525092915050565b600060a08284031215611e6957600080fd5b611e7360a06125b9565b90506000611e8384828501611d12565b6000830152506020611e9784828501611d12565b6020830152506040611eab84828501611f33565b6040830152506060611ebf84828501611f1e565b6060830152506080611ed384828501611edf565b60808301525092915050565b600081359050611eee816128a5565b92915050565b600081519050611f03816128a5565b92915050565b600081519050611f188161288e565b92915050565b600081359050611f2d816128bc565b92915050565b600081359050611f42816128d3565b92915050565b600081519050611f57816128d3565b92915050565b600081519050611f6c816128ea565b92915050565b60008060408385031215611f8557600080fd5b600083013567ffffffffffffffff811115611f9f57600080fd5b611fab85828601611d3c565b9250506020611fbc85828601611f33565b9150509250929050565b60008060408385031215611fd957600080fd5b6000611fe785828601611d90565b9250506020611ff885828601611d90565b9150509250929050565b60008060006060848603121561201757600080fd5b600061202586828701611d7b565b935050602061203686828701611d7b565b925050604084013567ffffffffffffffff81111561205357600080fd5b61205f86828701611d3c565b9150509250925092565b60006020828403121561207b57600080fd5b600082015167ffffffffffffffff81111561209557600080fd5b6120a184828501611da5565b91505092915050565b600060a082840312156120bc57600080fd5b60006120ca84828501611dcf565b91505092915050565b600060a082840312156120e557600080fd5b60006120f384828501611e57565b91505092915050565b600080600080600080600060e0888a03121561211757600080fd5b60006121258a828b01611ef4565b97505060206121368a828b01611d66565b96505060406121478a828b01611f09565b95505060606121588a828b01611f09565b94505060806121698a828b01611f09565b93505060a061217a8a828b01611f5d565b92505060c061218b8a828b01611d27565b91505092959891949750929550565b6000806000606084860312156121af57600080fd5b60006121bd86828701611f48565b93505060206121ce86828701611ef4565b92505060406121df86828701611d66565b9150509250925092565b60006121f583836123cb565b60208301905092915050565b600061220d838361240f565b60208301905092915050565b612222816126f4565b82525050565b612239612234826126f4565b6127cf565b82525050565b600061224a8261266a565b61225481856126b0565b935061225f8361264a565b8060005b8381101561229057815161227788826121e9565b975061228283612696565b925050600181019050612263565b5085935050505092915050565b60006122a882612675565b6122b281856126c1565b93506122bd8361265a565b8060005b838110156122ee5781516122d58882612201565b97506122e0836126a3565b9250506001810190506122c1565b5085935050505092915050565b61230481612706565b82525050565b600061231582612680565b61231f81856126d2565b935061232f81856020860161279c565b61233881612807565b840191505092915050565b61234c8161271f565b82525050565b600061235d8261268b565b61236781856126e3565b935061237781856020860161279c565b61238081612807565b840191505092915050565b60006123986010836126e3565b91507f556e6578706563746564206572726f72000000000000000000000000000000006000830152602082019050919050565b6123d481612737565b82525050565b6123e381612737565b82525050565b6123fa6123f582612757565b6127f3565b82525050565b61240981612766565b82525050565b61241881612770565b82525050565b61242781612770565b82525050565b60006124398286612228565b60148201915061244982856123e9565b6003820191506124598284612228565b601482019150819050949350505050565b600060208201905061247f6000830184612219565b92915050565b600060a08201905061249a6000830188612219565b6124a760208301876122fb565b6124b46040830186612343565b6124c160608301856123da565b81810360808301526124d3818461230a565b90509695505050505050565b600060208201905081810360008301526124f98184612352565b905092915050565b6000602082019050818103600083015261251a8161238b565b9050919050565b60006080820190506125366000830187612400565b8181036020830152612548818661223f565b9050818103604083015261255c818561229d565b905061256b6060830184612400565b95945050505050565b60006080820190506125896000830187612400565b61259660208301866123da565b6125a3604083018561241e565b6125b06060830184612400565b95945050505050565b6000604051905081810181811067ffffffffffffffff821117156125e0576125df612805565b5b8060405250919050565b600067ffffffffffffffff82111561260557612604612805565b5b601f19601f8301169050602081019050919050565b600067ffffffffffffffff82111561263557612634612805565b5b601f19601f8301169050602081019050919050565b6000819050602082019050919050565b6000819050602082019050919050565b600081519050919050565b600081519050919050565b600081519050919050565b600081519050919050565b6000602082019050919050565b6000602082019050919050565b600082825260208201905092915050565b600082825260208201905092915050565b600082825260208201905092915050565b600082825260208201905092915050565b60006126ff82612737565b9050919050565b60008115159050919050565b60008160020b9050919050565b6000819050919050565b600061ffff82169050919050565b600073ffffffffffffffffffffffffffffffffffffffff82169050919050565b600062ffffff82169050919050565b6000819050919050565b600063ffffffff82169050919050565b600060ff82169050919050565b82818337600083830152505050565b60005b838110156127ba57808201518184015260208101905061279f565b838111156127c9576000848401525b50505050565b60006127da826127e1565b9050919050565b60006127ec82612825565b9050919050565b60006127fe82612818565b9050919050565bfe5b6000601f19601f8301169050919050565b60008160e81b9050919050565b60008160601b9050919050565b61283b816126f4565b811461284657600080fd5b50565b61285281612706565b811461285d57600080fd5b50565b61286981612712565b811461287457600080fd5b50565b6128808161271f565b811461288b57600080fd5b50565b61289781612729565b81146128a257600080fd5b50565b6128ae81612737565b81146128b957600080fd5b50565b6128c581612757565b81146128d057600080fd5b50565b6128dc81612766565b81146128e757600080fd5b50565b6128f381612780565b81146128fe57600080fd5b5056fea26469706673582212206f7d1d9c5116e962cac6fc1ea064ff25506b6cb2623220b05706b30d0914a09064736f6c63430007060033",
  "devdoc": {
    "details": "These functions are not gas efficient and should _not_ be called on chain. Instead, optimistically execute the swap and check the amounts in the callback.",
    "kind": "dev",
    "methods": {
      "quoteExactInput(bytes,uint256)": {
        "params": {
          "amountIn": "The amount of the first token to swap",
          "path": "The path of the swap, i.e. each token pair and the pool fee"
        },
        "returns": {
          "amountOut": "The amount of the last token that would be received",
          "gasEstimate": "The estimate of the gas that the swap consumes",
          "initializedTicksCrossedList": "List of the initialized ticks that the swap crossed for each pool in the path",
          "sqrtPriceX96AfterList": "List of the sqrt price after the swap for each pool in the path"
        }
      },
      "quoteExactInputSingle((address,address,uint256,uint24,uint160))": {
        "params": {
          "params": "The params for the quote, encoded as `QuoteExactInputSingleParams` tokenIn The token being swapped in tokenOut The token being swapped out fee The fee of the token pool to consider for the pair amountIn The desired input amount sqrtPriceLimitX96 The price limit of the pool that cannot be exceeded by the swap"
        },
        "returns": {
          "amountOut": "The amount of `tokenOut` that would be received",
          "gasEstimate": "The estimate of the gas that the swap consumes",
          "initializedTicksCrossed": "The number of initialized ticks that the swap crossed",
          "sqrtPriceX96After": "The sqrt price of the pool after the swap"
        }
      },
      "quoteExactOutput(bytes,uint256)": {
        "params": {
          "amountOut": "The amount of the last token to receive",
          "path": "The path of the swap, i.e. each token pair and the pool fee. Path must be provided in reverse order"
        },
        "returns": {
          "amountIn": "The amount of first token required to be paid",
          "gasEstimate": "The estimate of the gas that the swap consumes",
          "initializedTicksCrossedList": "List of the initialized ticks that the swap crossed for each pool in the path",
          "sqrtPriceX96AfterList": "List of the sqrt price after the swap for each pool in the path"
        }
      },
      "quoteExactOutputSingle((address,address,uint256,uint24,uint160))": {
        "params": {
          "params": "The params for the quote, encoded as `QuoteExactOutputSingleParams` tokenIn The token being swapped in tokenOut The token being swapped out fee The fee of the token pool to consider for the pair amountOut The desired output amount sqrtPriceLimitX96 The price limit of the pool that cannot be exceeded by the swap"
        },
        "returns": {
          "amountIn": "The amount required as the input for the swap in order to receive `amountOut`",
          "gasEstimate": "The estimate of the gas that the swap consumes",
          "initializedTicksCrossed": "The number of initialized ticks that the swap crossed",
          "sqrtPriceX96After": "The sqrt price of the pool after the swap"
        }
      },
      "uniswapV3SwapCallback(int256,int256,bytes)": {
        "details": "In the implementation you must pay the pool tokens owed for the swap. The caller of this method must be checked to be a UniswapV3Pool deployed by the canonical UniswapV3Factory. amount0Delta and amount1Delta can both be 0 if no tokens were swapped.",
        "params": {
          "amount0Delta": "The amount of token0 that was sent (negative) or must be received (positive) by the pool by the end of the swap. If positive, the callback must send that amount of token0 to the pool.",
          "amount1Delta": "The amount of token1 that was sent (negative) or must be received (positive) by the pool by the end of the swap. If positive, the callback must send that amount of token1 to the pool.",
          "data": "Any data passed through by the caller via the IUniswapV3PoolActions#swap call"
        }
      }
    },
    "stateVariables": {
      "amountOutCached": {
        "details": "Transient storage variable used to check a safety condition in exact output swaps."
      }
    },
    "title": "Provides quotes for swaps",
    "version": 1
  },
  "userdoc": {
    "kind": "user",
    "methods": {
      "quoteExactInput(bytes,uint256)": {
        "notice": "Returns the amount out received for a given exact input swap without executing the swap"
      },
      "quoteExactInputSingle((address,address,uint256,uint24,uint160))": {
        "notice": "Returns the amount out received for a given exact input but for a swap of a single pool"
      },
      "quoteExactOutput(bytes,uint256)": {
        "notice": "Returns the amount in required for a given exact output swap without executing the swap"
      },
      "quoteExactOutputSingle((address,address,uint256,uint24,uint160))": {
        "notice": "Returns the amount in required to receive the given exact output amount but for a swap of a single pool"
      },
      "uniswapV3SwapCallback(int256,int256,bytes)": {
        "notice": "Called to `msg.sender` after executing a swap via IUniswapV3Pool#swap."
      }
    },
    "notice": "Allows getting the expected amount out or amount in for a given swap without executing the swap",
    "version": 1
  },
  "storageLayout": {
    "storage": [
      {
        "astId": 1786,
        "contract": "gitmodules/uniswap/v3-periphery/contracts/lens/QuoterV2.sol:QuoterV2",
        "label": "amountOutCached",
        "offset": 0,
        "slot": "0",
        "type": "t_uint256"
      }
    ],
    "types": {
      "t_uint256": {
        "encoding": "inplace",
        "label": "uint256",
        "numberOfBytes": "32"
      }
    }
  }
}