{
  "address": "0x75A2640374bEd1ee374F1339ec7DC65f898851d6",
  "abi": [
    {
      "inputs": [
        {
          "internalType": "contract IUniswapV3Factory",
          "name": "_factory",
          "type": "address"
        },
        {
          "internalType": "contract IQuoterV2",
          "name": "_quoter",
          "type": "address"
        }
      ],
      "stateMutability": "nonpayable",
      "type": "constructor"
    },
    {
      "inputs": [
        {
          "components": [
            {
              "internalType": "contract IUniswapV3Pool",
              "name": "pool",
              "type": "address"
            },
            {
              "internalType": "address",
              "name": "base",
              "type": "address"
            },
            {
              "internalType": "address",
              "name": "quote",
              "type": "address"
            },
            {
              "internalType": "uint8",
              "name": "amountInDecimals",
              "type": "uint8"
            }
          ],
          "internalType": "struct UniswapV3FetcherHelper.InputData[]",
          "name": "_data",
          "type": "tuple[]"
        }
      ],
      "name": "getPrices",
      "outputs": [
        {
          "components": [
            {
              "internalType": "uint256",
              "name": "price",
              "type": "uint256"
            },
            {
              "internalType": "bool",
              "name": "success",
              "type": "bool"
            }
          ],
          "internalType": "struct UniswapV3FetcherHelper.Price[]",
          "name": "prices",
          "type": "tuple[]"
        },
        {
          "internalType": "uint256",
          "name": "timestamp",
          "type": "uint256"
        }
      ],
      "stateMutability": "nonpayable",
      "type": "function"
    },
    {
      "inputs": [
        {
          "internalType": "contract IUniswapV3Pool[]",
          "name": "_pools",
          "type": "address[]"
        }
      ],
      "name": "liquidityData",
      "outputs": [
        {
          "components": [
            {
              "internalType": "int24",
              "name": "tick",
              "type": "int24"
            },
            {
              "internalType": "uint256",
              "name": "liquidity",
              "type": "uint256"
            }
          ],
          "internalType": "struct UniswapV3FetcherHelper.LiquidityData[]",
          "name": "data",
          "type": "tuple[]"
        }
      ],
      "stateMutability": "view",
      "type": "function"
    },
    {
      "inputs": [
        {
          "internalType": "address[]",
          "name": "_tokens",
          "type": "address[]"
        }
      ],
      "name": "tokensSymbols",
      "outputs": [
        {
          "internalType": "string[]",
          "name": "symbols",
          "type": "string[]"
        }
      ],
      "stateMutability": "view",
      "type": "function"
    },
    {
      "inputs": [],
      "name": "uniswapV3Factory",
      "outputs": [
        {
          "internalType": "contract IUniswapV3Factory",
          "name": "",
          "type": "address"
        }
      ],
      "stateMutability": "view",
      "type": "function"
    },
    {
      "inputs": [],
      "name": "uniswapV3Quoter",
      "outputs": [
        {
          "internalType": "contract IQuoterV2",
          "name": "",
          "type": "address"
        }
      ],
      "stateMutability": "view",
      "type": "function"
    }
  ],
  "transactionHash": "0x32adff783716f108c35573d0dd97cbcd8960243ce6648ba5f891af3a94520bf1",
  "args": [
    "0x0227628f3F023bb0B980b67D528571c95c6DaC1c",
    "0x26fD86791fCE0946E8D8c685446Dd257634a2b28"
  ],
  "numDeployments": 3,
  "solcInputHash": "7d0ce880ab90bdf9ca518a347f49d804",
  "bytecode": "0x60c06040523480156200001157600080fd5b506040516200215b3803806200215b83398181016040528101906200003791906200016a565b8173ffffffffffffffffffffffffffffffffffffffff1660808173ffffffffffffffffffffffffffffffffffffffff16815250508073ffffffffffffffffffffffffffffffffffffffff1660a08173ffffffffffffffffffffffffffffffffffffffff16815250505050620001b1565b600080fd5b600073ffffffffffffffffffffffffffffffffffffffff82169050919050565b6000620000d982620000ac565b9050919050565b6000620000ed82620000cc565b9050919050565b620000ff81620000e0565b81146200010b57600080fd5b50565b6000815190506200011f81620000f4565b92915050565b60006200013282620000cc565b9050919050565b620001448162000125565b81146200015057600080fd5b50565b600081519050620001648162000139565b92915050565b60008060408385031215620001845762000183620000a7565b5b600062000194858286016200010e565b9250506020620001a78582860162000153565b9150509250929050565b60805160a051611f76620001e5600039600081816104f501526107a00152600081816105190152610ab40152611f766000f3fe608060405234801561001057600080fd5b50600436106100575760003560e01c80631d20d10a1461005c5780634757efc11461008c5780634d20d0f8146100bc5780635b549182146100da578063ff514fa3146100f8575b600080fd5b61007660048036038101906100719190610d64565b610129565b6040516100839190610ec4565b60405180910390f35b6100a660048036038101906100a19190610f3c565b610328565b6040516100b391906110db565b60405180910390f35b6100c46104f3565b6040516100d1919061117c565b60405180910390f35b6100e2610517565b6040516100ef91906111b8565b60405180910390f35b610112600480360381019061010d9190611229565b61053b565b60405161012092919061137e565b60405180910390f35b606060008383905090508067ffffffffffffffff81111561014d5761014c6113ae565b5b60405190808252806020026020018201604052801561018657816020015b610173610cb2565b81526020019060019003908161016b5790505b50915060005b818110156103205760008585838181106101a9576101a86113dd565b5b90506020020160208101906101be919061145c565b90508073ffffffffffffffffffffffffffffffffffffffff16633850c7bd6040518163ffffffff1660e01b815260040160e060405180830381865afa15801561020b573d6000803e3d6000fd5b505050506040513d601f19601f8201168201806040525081019061022f9190611580565b90919293949550909192935090919250909150905050848381518110610258576102576113dd565b5b60200260200101516000018160020b60020b815250508073ffffffffffffffffffffffffffffffffffffffff16631a6865026040518163ffffffff1660e01b8152600401602060405180830381865afa1580156102b9573d6000803e3d6000fd5b505050506040513d601f19601f820116820180604052508101906102dd919061166a565b6fffffffffffffffffffffffffffffffff16848381518110610302576103016113dd565b5b6020026020010151602001818152505050808060010191505061018c565b505092915050565b606060008383905090508067ffffffffffffffff81111561034c5761034b6113ae565b5b60405190808252806020026020018201604052801561037f57816020015b606081526020019060019003908161036a5790505b50915060005b818110156104eb576000808686848181106103a3576103a26113dd565b5b90506020020160208101906103b891906116c3565b73ffffffffffffffffffffffffffffffffffffffff167f95d89b41e2f5f391a79ec54e9d87c79d6e777c63e32c28da95b4e9e4a79250ec6040516020016103ff919061172b565b60405160208183030381529060405260405161041b919061178d565b600060405180830381855afa9150503d8060008114610456576040519150601f19603f3d011682016040523d82523d6000602084013e61045b565b606091505b50915091508161047a57604051806020016040528060008152506104be565b602081511461049c57808060200190518101906104979190611896565b6104bd565b806040516020016104ad919061178d565b6040516020818303038152906040525b5b8584815181106104d1576104d06113dd565b5b602002602001018190525050508080600101915050610385565b505092915050565b7f000000000000000000000000000000000000000000000000000000000000000081565b7f000000000000000000000000000000000000000000000000000000000000000081565b6060600042905060008484905090508067ffffffffffffffff811115610564576105636113ae565b5b60405190808252806020026020018201604052801561059d57816020015b61058a610ccf565b8152602001906001900390816105825790505b50925060005b81811015610607576105dc8686838181106105c1576105c06113dd565b5b9050608002018036038101906105d79190611971565b610610565b8482815181106105ef576105ee6113dd565b5b602002602001018190525080806001019150506105a3565b50509250929050565b610618610ccf565b60008061062884602001516108ae565b91509150806106385750506108a9565b60008061064886604001516108ae565b915091508061065a57505050506108a9565b600073ffffffffffffffffffffffffffffffffffffffff16866000015173ffffffffffffffffffffffffffffffffffffffff160361069b57505050506108a9565b6000806106ab886000015161099a565b91509150806106bf575050505050506108a9565b6106d28860200151896040015184610aad565b73ffffffffffffffffffffffffffffffffffffffff16886000015173ffffffffffffffffffffffffffffffffffffffff1614610713575050505050506108a9565b60006040518060a001604052808a6020015173ffffffffffffffffffffffffffffffffffffffff1681526020018a6040015173ffffffffffffffffffffffffffffffffffffffff1681526020018a60600151600a6107719190611b00565b81526020018462ffffff168152602001600073ffffffffffffffffffffffffffffffffffffffff1681525090507f000000000000000000000000000000000000000000000000000000000000000073ffffffffffffffffffffffffffffffffffffffff1663c6a5026a826040518263ffffffff1660e01b81526004016107f79190611bef565b6080604051808303816000875af192505050801561083357506040513d601f19601f820116820180604052508101906108309190611c72565b60015b61086f573d8060008114610863576040519150601f19603f3d011682016040523d82523d6000602084013e610868565b606091505b50506108a1565b6108828d6060015160ff168c8b87610bdb565b8c600001818152505060018c6020019015159081151581525050505050505b505050505050505b919050565b60008060608373ffffffffffffffffffffffffffffffffffffffff167f313ce567add4d438edf58b94ff345d7d38c45b17dfc0f947988d7819dca364f96040516020016108fb919061172b565b604051602081830303815290604052604051610917919061178d565b600060405180830381855afa9150503d8060008114610952576040519150601f19603f3d011682016040523d82523d6000602084013e610957565b606091505b50809250819350505081801561096f57506000815114155b1561098f57808060200190518101906109889190611cd9565b9250610994565b600091505b50915091565b60008060608373ffffffffffffffffffffffffffffffffffffffff1663ddca3f4360e01b604051602401604051602081830303815290604052907bffffffffffffffffffffffffffffffffffffffffffffffffffffffff19166020820180517bffffffffffffffffffffffffffffffffffffffffffffffffffffffff8381831617835250505050604051610a2e919061178d565b600060405180830381855afa9150503d8060008114610a69576040519150601f19603f3d011682016040523d82523d6000602084013e610a6e565b606091505b5080925081935050506000815103610a895760009150610aa7565b8115610aa65780806020019051810190610aa39190611d32565b92505b5b50915091565b60008060007f000000000000000000000000000000000000000000000000000000000000000073ffffffffffffffffffffffffffffffffffffffff16631698ee8260e01b878787604051602401610b0693929190611d7d565b604051602081830303815290604052907bffffffffffffffffffffffffffffffffffffffffffffffffffffffff19166020820180517bffffffffffffffffffffffffffffffffffffffffffffffffffffffff8381831617835250505050604051610b70919061178d565b600060405180830381855afa9150503d8060008114610bab576040519150601f19603f3d011682016040523d82523d6000602084013e610bb0565b606091505b50915091508115610bd25780806020019051810190610bcf9190611df2565b92505b50509392505050565b6000838503610bec57819050610c45565b83851015610c1e578484610c009190611e1f565b600a610c0c9190611e53565b82610c179190611e9e565b9050610c44565b8385610c2a9190611e1f565b600a610c369190611e53565b82610c419190611f0f565b90505b5b6012830315610caa576012831115610c8257601283610c649190611e1f565b600a610c709190611e53565b81610c7b9190611f0f565b9050610ca9565b826012610c8f9190611e1f565b600a610c9b9190611e53565b81610ca69190611e9e565b90505b5b949350505050565b6040518060400160405280600060020b8152602001600081525090565b6040518060400160405280600081526020016000151581525090565b6000604051905090565b600080fd5b600080fd5b600080fd5b600080fd5b600080fd5b60008083601f840112610d2457610d23610cff565b5b8235905067ffffffffffffffff811115610d4157610d40610d04565b5b602083019150836020820283011115610d5d57610d5c610d09565b5b9250929050565b60008060208385031215610d7b57610d7a610cf5565b5b600083013567ffffffffffffffff811115610d9957610d98610cfa565b5b610da585828601610d0e565b92509250509250929050565b600081519050919050565b600082825260208201905092915050565b6000819050602082019050919050565b60008160020b9050919050565b610df381610ddd565b82525050565b6000819050919050565b610e0c81610df9565b82525050565b604082016000820151610e286000850182610dea565b506020820151610e3b6020850182610e03565b50505050565b6000610e4d8383610e12565b60408301905092915050565b6000602082019050919050565b6000610e7182610db1565b610e7b8185610dbc565b9350610e8683610dcd565b8060005b83811015610eb7578151610e9e8882610e41565b9750610ea983610e59565b925050600181019050610e8a565b5085935050505092915050565b60006020820190508181036000830152610ede8184610e66565b905092915050565b60008083601f840112610efc57610efb610cff565b5b8235905067ffffffffffffffff811115610f1957610f18610d04565b5b602083019150836020820283011115610f3557610f34610d09565b5b9250929050565b60008060208385031215610f5357610f52610cf5565b5b600083013567ffffffffffffffff811115610f7157610f70610cfa565b5b610f7d85828601610ee6565b92509250509250929050565b600081519050919050565b600082825260208201905092915050565b6000819050602082019050919050565b600081519050919050565b600082825260208201905092915050565b60005b83811015610fef578082015181840152602081019050610fd4565b60008484015250505050565b6000601f19601f8301169050919050565b600061101782610fb5565b6110218185610fc0565b9350611031818560208601610fd1565b61103a81610ffb565b840191505092915050565b6000611051838361100c565b905092915050565b6000602082019050919050565b600061107182610f89565b61107b8185610f94565b93508360208202850161108d85610fa5565b8060005b858110156110c957848403895281516110aa8582611045565b94506110b583611059565b925060208a01995050600181019050611091565b50829750879550505050505092915050565b600060208201905081810360008301526110f58184611066565b905092915050565b600073ffffffffffffffffffffffffffffffffffffffff82169050919050565b6000819050919050565b600061114261113d611138846110fd565b61111d565b6110fd565b9050919050565b600061115482611127565b9050919050565b600061116682611149565b9050919050565b6111768161115b565b82525050565b6000602082019050611191600083018461116d565b92915050565b60006111a282611149565b9050919050565b6111b281611197565b82525050565b60006020820190506111cd60008301846111a9565b92915050565b60008083601f8401126111e9576111e8610cff565b5b8235905067ffffffffffffffff81111561120657611205610d04565b5b60208301915083608082028301111561122257611221610d09565b5b9250929050565b600080602083850312156112405761123f610cf5565b5b600083013567ffffffffffffffff81111561125e5761125d610cfa565b5b61126a858286016111d3565b92509250509250929050565b600081519050919050565b600082825260208201905092915050565b6000819050602082019050919050565b60008115159050919050565b6112b7816112a2565b82525050565b6040820160008201516112d36000850182610e03565b5060208201516112e660208501826112ae565b50505050565b60006112f883836112bd565b60408301905092915050565b6000602082019050919050565b600061131c82611276565b6113268185611281565b935061133183611292565b8060005b8381101561136257815161134988826112ec565b975061135483611304565b925050600181019050611335565b5085935050505092915050565b61137881610df9565b82525050565b600060408201905081810360008301526113988185611311565b90506113a7602083018461136f565b9392505050565b7f4e487b7100000000000000000000000000000000000000000000000000000000600052604160045260246000fd5b7f4e487b7100000000000000000000000000000000000000000000000000000000600052603260045260246000fd5b6000611417826110fd565b9050919050565b60006114298261140c565b9050919050565b6114398161141e565b811461144457600080fd5b50565b60008135905061145681611430565b92915050565b60006020828403121561147257611471610cf5565b5b600061148084828501611447565b91505092915050565b611492816110fd565b811461149d57600080fd5b50565b6000815190506114af81611489565b92915050565b6114be81610ddd565b81146114c957600080fd5b50565b6000815190506114db816114b5565b92915050565b600061ffff82169050919050565b6114f8816114e1565b811461150357600080fd5b50565b600081519050611515816114ef565b92915050565b600060ff82169050919050565b6115318161151b565b811461153c57600080fd5b50565b60008151905061154e81611528565b92915050565b61155d816112a2565b811461156857600080fd5b50565b60008151905061157a81611554565b92915050565b600080600080600080600060e0888a03121561159f5761159e610cf5565b5b60006115ad8a828b016114a0565b97505060206115be8a828b016114cc565b96505060406115cf8a828b01611506565b95505060606115e08a828b01611506565b94505060806115f18a828b01611506565b93505060a06116028a828b0161153f565b92505060c06116138a828b0161156b565b91505092959891949750929550565b60006fffffffffffffffffffffffffffffffff82169050919050565b61164781611622565b811461165257600080fd5b50565b6000815190506116648161163e565b92915050565b6000602082840312156116805761167f610cf5565b5b600061168e84828501611655565b91505092915050565b6116a08161140c565b81146116ab57600080fd5b50565b6000813590506116bd81611697565b92915050565b6000602082840312156116d9576116d8610cf5565b5b60006116e7848285016116ae565b91505092915050565b60007fffffffff0000000000000000000000000000000000000000000000000000000082169050919050565b611725816116f0565b82525050565b6000602082019050611740600083018461171c565b92915050565b600081519050919050565b600081905092915050565b600061176782611746565b6117718185611751565b9350611781818560208601610fd1565b80840191505092915050565b6000611799828461175c565b915081905092915050565b600080fd5b6117b282610ffb565b810181811067ffffffffffffffff821117156117d1576117d06113ae565b5b80604052505050565b60006117e4610ceb565b90506117f082826117a9565b919050565b600067ffffffffffffffff8211156118105761180f6113ae565b5b61181982610ffb565b9050602081019050919050565b6000611839611834846117f5565b6117da565b905082815260208101848484011115611855576118546117a4565b5b611860848285610fd1565b509392505050565b600082601f83011261187d5761187c610cff565b5b815161188d848260208601611826565b91505092915050565b6000602082840312156118ac576118ab610cf5565b5b600082015167ffffffffffffffff8111156118ca576118c9610cfa565b5b6118d684828501611868565b91505092915050565b600080fd5b6000813590506118f381611528565b92915050565b60006080828403121561190f5761190e6118df565b5b61191960806117da565b9050600061192984828501611447565b600083015250602061193d848285016116ae565b6020830152506040611951848285016116ae565b6040830152506060611965848285016118e4565b60608301525092915050565b60006080828403121561198757611986610cf5565b5b6000611995848285016118f9565b91505092915050565b7f4e487b7100000000000000000000000000000000000000000000000000000000600052601160045260246000fd5b60008160011c9050919050565b6000808291508390505b6001851115611a2457808604811115611a00576119ff61199e565b5b6001851615611a0f5780820291505b8081029050611a1d856119cd565b94506119e4565b94509492505050565b600082611a3d5760019050611af9565b81611a4b5760009050611af9565b8160018114611a615760028114611a6b57611a9a565b6001915050611af9565b60ff841115611a7d57611a7c61199e565b5b8360020a915084821115611a9457611a9361199e565b5b50611af9565b5060208310610133831016604e8410600b8410161715611acf5782820a905083811115611aca57611ac961199e565b5b611af9565b611adc84848460016119da565b92509050818404811115611af357611af261199e565b5b81810290505b9392505050565b6000611b0b82610df9565b9150611b168361151b565b9250611b437fffffffffffffffffffffffffffffffffffffffffffffffffffffffffffffffff8484611a2d565b905092915050565b611b548161140c565b82525050565b600062ffffff82169050919050565b611b7281611b5a565b82525050565b611b81816110fd565b82525050565b60a082016000820151611b9d6000850182611b4b565b506020820151611bb06020850182611b4b565b506040820151611bc36040850182610e03565b506060820151611bd66060850182611b69565b506080820151611be96080850182611b78565b50505050565b600060a082019050611c046000830184611b87565b92915050565b611c1381610df9565b8114611c1e57600080fd5b50565b600081519050611c3081611c0a565b92915050565b600063ffffffff82169050919050565b611c4f81611c36565b8114611c5a57600080fd5b50565b600081519050611c6c81611c46565b92915050565b60008060008060808587031215611c8c57611c8b610cf5565b5b6000611c9a87828801611c21565b9450506020611cab878288016114a0565b9350506040611cbc87828801611c5d565b9250506060611ccd87828801611c21565b91505092959194509250565b600060208284031215611cef57611cee610cf5565b5b6000611cfd84828501611c21565b91505092915050565b611d0f81611b5a565b8114611d1a57600080fd5b50565b600081519050611d2c81611d06565b92915050565b600060208284031215611d4857611d47610cf5565b5b6000611d5684828501611d1d565b91505092915050565b611d688161140c565b82525050565b611d7781611b5a565b82525050565b6000606082019050611d926000830186611d5f565b611d9f6020830185611d5f565b611dac6040830184611d6e565b949350505050565b6000611dbf826110fd565b9050919050565b611dcf81611db4565b8114611dda57600080fd5b50565b600081519050611dec81611dc6565b92915050565b600060208284031215611e0857611e07610cf5565b5b6000611e1684828501611ddd565b91505092915050565b6000611e2a82610df9565b9150611e3583610df9565b9250828203905081811115611e4d57611e4c61199e565b5b92915050565b6000611e5e82610df9565b9150611e6983610df9565b9250611e967fffffffffffffffffffffffffffffffffffffffffffffffffffffffffffffffff8484611a2d565b905092915050565b6000611ea982610df9565b9150611eb483610df9565b9250828202611ec281610df9565b91508282048414831517611ed957611ed861199e565b5b5092915050565b7f4e487b7100000000000000000000000000000000000000000000000000000000600052601260045260246000fd5b6000611f1a82610df9565b9150611f2583610df9565b925082611f3557611f34611ee0565b5b82820490509291505056fea2646970667358221220a46763ce702404ea2983f783f2c4e5f53edd899fbe2e87969ebcf94c7bb4feaf64736f6c63430008160033",
  "devdoc": {
    "kind": "dev",
    "methods": {
      "getPrices((address,address,address,uint8)[])": {
        "details": "this method will return estimations for swap for one base token it can not be view, but to get estimation you have to call it in a static way Tokens that do not have `.decimals()` are not supported",
        "params": {
          "_data": "array of PriceData, each PriceData can accept multiple pools per one price, price is fetched from pool, that has biggest liquidity (quote.balanceOf(pool))"
        },
        "returns": {
          "prices": "prices normalized from input amount (10 ** prices[n].amountInDecimals) to one token price"
        }
      }
    },
    "version": 1
  },
  "userdoc": {
    "kind": "user",
    "methods": {},
    "version": 1
  },
  "storageLayout": {
    "storage": [],
    "types": null
  }
}