{
  "address": "0xbC758FCB97e06Ec635DFf698f55e41aCC35e1d2d",
  "abi": [
    {
      "inputs": [
        {
          "internalType": "contract IQuoterV2",
          "name": "_quoter",
          "type": "address"
        }
      ],
      "stateMutability": "nonpayable",
      "type": "constructor"
    },
    {
      "inputs": [],
      "name": "NoDecimals",
      "type": "error"
    },
    {
      "inputs": [
        {
          "internalType": "address",
          "name": "_token",
          "type": "address"
        }
      ],
      "name": "_decimals",
      "outputs": [
        {
          "internalType": "uint256",
          "name": "decimals",
          "type": "uint256"
        }
      ],
      "stateMutability": "view",
      "type": "function"
    },
    {
      "inputs": [
        {
          "internalType": "contract IUniswapV3Pool[]",
          "name": "_pools",
          "type": "address[]"
        },
        {
          "internalType": "address",
          "name": "_quote",
          "type": "address"
        }
      ],
      "name": "findBiggestPool",
      "outputs": [
        {
          "internalType": "contract IUniswapV3Pool",
          "name": "biggestPool",
          "type": "address"
        }
      ],
      "stateMutability": "view",
      "type": "function"
    },
    {
      "inputs": [
        {
          "components": [
            {
              "internalType": "contract IUniswapV3Pool[]",
              "name": "pools",
              "type": "address[]"
            },
            {
              "internalType": "address",
              "name": "base",
              "type": "address"
            },
            {
              "internalType": "address",
              "name": "quote",
              "type": "address"
            }
          ],
          "internalType": "struct UniswapV3FetcherHelper.PriceData[]",
          "name": "_data",
          "type": "tuple[]"
        }
      ],
      "name": "getPrices",
      "outputs": [
        {
          "components": [
            {
              "internalType": "uint256",
              "name": "price",
              "type": "uint256"
            },
            {
              "internalType": "bool",
              "name": "success",
              "type": "bool"
            }
          ],
          "internalType": "struct UniswapV3FetcherHelper.Price[]",
          "name": "prices",
          "type": "tuple[]"
        },
        {
          "internalType": "uint256",
          "name": "timestamp",
          "type": "uint256"
        }
      ],
      "stateMutability": "nonpayable",
      "type": "function"
    },
    {
      "inputs": [
        {
          "internalType": "address[]",
          "name": "_tokens",
          "type": "address[]"
        }
      ],
      "name": "tokensSymbols",
      "outputs": [
        {
          "internalType": "string[]",
          "name": "symbols",
          "type": "string[]"
        }
      ],
      "stateMutability": "view",
      "type": "function"
    }
  ],
  "transactionHash": "0x28f5138b20995a5d411d898b7da3a7f71a555ab1c2a58aad43c64cb8b0a80d7e",
  "args": [
    "0x29A5f90DBe54A11d37b0b18573fF853c7dc5433B"
  ],
  "numDeployments": 1,
  "solcInputHash": "1446eaeab82ad6d52a34cb3a008976ba",
  "bytecode": "0x60a06040523480156200001157600080fd5b5060405162001849380380620018498339818101604052810190620000379190620000f0565b8073ffffffffffffffffffffffffffffffffffffffff1660808173ffffffffffffffffffffffffffffffffffffffff16815250505062000122565b600080fd5b600073ffffffffffffffffffffffffffffffffffffffff82169050919050565b6000620000a48262000077565b9050919050565b6000620000b88262000097565b9050919050565b620000ca81620000ab565b8114620000d657600080fd5b50565b600081519050620000ea81620000bf565b92915050565b60006020828403121562000109576200010862000072565b5b60006200011984828501620000d9565b91505092915050565b60805161170b6200013e60003960006105bf015261170b6000f3fe608060405234801561001057600080fd5b506004361061004c5760003560e01c80634757efc114610051578063d2c94aec14610081578063d51f0f47146100b1578063e2b535be146100e1575b600080fd5b61006b600480360381019061006691906108a5565b610112565b6040516100789190610a44565b60405180910390f35b61009b60048036038101906100969190610c40565b6102dd565b6040516100a89190610cfb565b60405180910390f35b6100cb60048036038101906100c69190610d16565b6103b3565b6040516100d89190610d5c565b60405180910390f35b6100fb60048036038101906100f69190610dcd565b6104b5565b604051610109929190610f22565b60405180910390f35b606060008383905090508067ffffffffffffffff81111561013657610135610a66565b5b60405190808252806020026020018201604052801561016957816020015b60608152602001906001900390816101545790505b50915060005b818110156102d55760008086868481811061018d5761018c610f52565b5b90506020020160208101906101a29190610d16565b73ffffffffffffffffffffffffffffffffffffffff167f95d89b41e2f5f391a79ec54e9d87c79d6e777c63e32c28da95b4e9e4a79250ec6040516020016101e99190610fbc565b604051602081830303815290604052604051610205919061101e565b600060405180830381855afa9150503d8060008114610240576040519150601f19603f3d011682016040523d82523d6000602084013e610245565b606091505b50915091508161026457604051806020016040528060008152506102a8565b6020815114610286578080602001905181019061028191906110db565b6102a7565b80604051602001610297919061101e565b6040516020818303038152906040525b5b8584815181106102bb576102ba610f52565b5b60200260200101819052505050808060010191505061016f565b505092915050565b6000806000905060005b84518110156103ab57600085828151811061030557610304610f52565b5b6020026020010151905060008573ffffffffffffffffffffffffffffffffffffffff166370a08231836040518263ffffffff1660e01b815260040161034a9190611133565b602060405180830381865afa158015610367573d6000803e3d6000fd5b505050506040513d601f19601f8201168201806040525081019061038b919061117a565b90508381111561039c578194508093505b505080806001019150506102e7565b505092915050565b60008060008373ffffffffffffffffffffffffffffffffffffffff167f313ce567add4d438edf58b94ff345d7d38c45b17dfc0f947988d7819dca364f96040516020016104009190610fbc565b60405160208183030381529060405260405161041c919061101e565b600060405180830381855afa9150503d8060008114610457576040519150601f19603f3d011682016040523d82523d6000602084013e61045c565b606091505b509150915081610498576040517f5dc0359200000000000000000000000000000000000000000000000000000000815260040160405180910390fd5b808060200190518101906104ac919061117a565b92505050919050565b6060600042905060008484905090508067ffffffffffffffff8111156104de576104dd610a66565b5b60405190808252806020026020018201604052801561051757816020015b610504610810565b8152602001906001900390816104fc5790505b50925060005b8181101561080757600086868381811061053a57610539610f52565b5b905060200281019061054c91906111ac565b6105559061125e565b9050600085838151811061056c5761056b610f52565b5b60200260200101519050600061058a836000015184604001516102dd565b9050600061059b84602001516103b3565b600a6105a791906113d3565b905060006105b885604001516103b3565b90506000807f000000000000000000000000000000000000000000000000000000000000000073ffffffffffffffffffffffffffffffffffffffff1663c6a5026a60e01b88602001518960400151878973ffffffffffffffffffffffffffffffffffffffff1663ddca3f436040518163ffffffff1660e01b8152600401602060405180830381865afa158015610652573d6000803e3d6000fd5b505050506040513d601f19601f820116820180604052508101906106769190611459565b600060405160240161068c9594939291906114dd565b604051602081830303815290604052907bffffffffffffffffffffffffffffffffffffffffffffffffffffffff19166020820180517bffffffffffffffffffffffffffffffffffffffffffffffffffffffff83818316178352505050506040516106f6919061101e565b6000604051808303816000865af19150503d8060008114610733576040519150601f19603f3d011682016040523d82523d6000602084013e610738565b606091505b5091509150811561077857808060200190518101906107579190611598565b90915090505086600001818152505060018660200190151590811515815250505b60128303156107f35760128311156107c05760128361079791906115ff565b600a6107a391906113d3565b866000018181516107b49190611662565b915081815250506107f2565b8260126107cd91906115ff565b600a6107d991906113d3565b866000018181516107ea9190611693565b915081815250505b5b50505050505050808060010191505061051d565b50509250929050565b6040518060400160405280600081526020016000151581525090565b6000604051905090565b600080fd5b600080fd5b600080fd5b600080fd5b600080fd5b60008083601f84011261086557610864610840565b5b8235905067ffffffffffffffff81111561088257610881610845565b5b60208301915083602082028301111561089e5761089d61084a565b5b9250929050565b600080602083850312156108bc576108bb610836565b5b600083013567ffffffffffffffff8111156108da576108d961083b565b5b6108e68582860161084f565b92509250509250929050565b600081519050919050565b600082825260208201905092915050565b6000819050602082019050919050565b600081519050919050565b600082825260208201905092915050565b60005b8381101561095857808201518184015260208101905061093d565b60008484015250505050565b6000601f19601f8301169050919050565b60006109808261091e565b61098a8185610929565b935061099a81856020860161093a565b6109a381610964565b840191505092915050565b60006109ba8383610975565b905092915050565b6000602082019050919050565b60006109da826108f2565b6109e481856108fd565b9350836020820285016109f68561090e565b8060005b85811015610a325784840389528151610a1385826109ae565b9450610a1e836109c2565b925060208a019950506001810190506109fa565b50829750879550505050505092915050565b60006020820190508181036000830152610a5e81846109cf565b905092915050565b7f4e487b7100000000000000000000000000000000000000000000000000000000600052604160045260246000fd5b610a9e82610964565b810181811067ffffffffffffffff82111715610abd57610abc610a66565b5b80604052505050565b6000610ad061082c565b9050610adc8282610a95565b919050565b600067ffffffffffffffff821115610afc57610afb610a66565b5b602082029050602081019050919050565b600073ffffffffffffffffffffffffffffffffffffffff82169050919050565b6000610b3882610b0d565b9050919050565b6000610b4a82610b2d565b9050919050565b610b5a81610b3f565b8114610b6557600080fd5b50565b600081359050610b7781610b51565b92915050565b6000610b90610b8b84610ae1565b610ac6565b90508083825260208201905060208402830185811115610bb357610bb261084a565b5b835b81811015610bdc5780610bc88882610b68565b845260208401935050602081019050610bb5565b5050509392505050565b600082601f830112610bfb57610bfa610840565b5b8135610c0b848260208601610b7d565b91505092915050565b610c1d81610b2d565b8114610c2857600080fd5b50565b600081359050610c3a81610c14565b92915050565b60008060408385031215610c5757610c56610836565b5b600083013567ffffffffffffffff811115610c7557610c7461083b565b5b610c8185828601610be6565b9250506020610c9285828601610c2b565b9150509250929050565b6000819050919050565b6000610cc1610cbc610cb784610b0d565b610c9c565b610b0d565b9050919050565b6000610cd382610ca6565b9050919050565b6000610ce582610cc8565b9050919050565b610cf581610cda565b82525050565b6000602082019050610d106000830184610cec565b92915050565b600060208284031215610d2c57610d2b610836565b5b6000610d3a84828501610c2b565b91505092915050565b6000819050919050565b610d5681610d43565b82525050565b6000602082019050610d716000830184610d4d565b92915050565b60008083601f840112610d8d57610d8c610840565b5b8235905067ffffffffffffffff811115610daa57610da9610845565b5b602083019150836020820283011115610dc657610dc561084a565b5b9250929050565b60008060208385031215610de457610de3610836565b5b600083013567ffffffffffffffff811115610e0257610e0161083b565b5b610e0e85828601610d77565b92509250509250929050565b600081519050919050565b600082825260208201905092915050565b6000819050602082019050919050565b610e4f81610d43565b82525050565b60008115159050919050565b610e6a81610e55565b82525050565b604082016000820151610e866000850182610e46565b506020820151610e996020850182610e61565b50505050565b6000610eab8383610e70565b60408301905092915050565b6000602082019050919050565b6000610ecf82610e1a565b610ed98185610e25565b9350610ee483610e36565b8060005b83811015610f15578151610efc8882610e9f565b9750610f0783610eb7565b925050600181019050610ee8565b5085935050505092915050565b60006040820190508181036000830152610f3c8185610ec4565b9050610f4b6020830184610d4d565b9392505050565b7f4e487b7100000000000000000000000000000000000000000000000000000000600052603260045260246000fd5b60007fffffffff0000000000000000000000000000000000000000000000000000000082169050919050565b610fb681610f81565b82525050565b6000602082019050610fd16000830184610fad565b92915050565b600081519050919050565b600081905092915050565b6000610ff882610fd7565b6110028185610fe2565b935061101281856020860161093a565b80840191505092915050565b600061102a8284610fed565b915081905092915050565b600080fd5b600067ffffffffffffffff82111561105557611054610a66565b5b61105e82610964565b9050602081019050919050565b600061107e6110798461103a565b610ac6565b90508281526020810184848401111561109a57611099611035565b5b6110a584828561093a565b509392505050565b600082601f8301126110c2576110c1610840565b5b81516110d284826020860161106b565b91505092915050565b6000602082840312156110f1576110f0610836565b5b600082015167ffffffffffffffff81111561110f5761110e61083b565b5b61111b848285016110ad565b91505092915050565b61112d81610b2d565b82525050565b60006020820190506111486000830184611124565b92915050565b61115781610d43565b811461116257600080fd5b50565b6000815190506111748161114e565b92915050565b6000602082840312156111905761118f610836565b5b600061119e84828501611165565b91505092915050565b600080fd5b6000823560016060038336030381126111c8576111c76111a7565b5b80830191505092915050565b600080fd5b600080fd5b6000606082840312156111f4576111f36111d4565b5b6111fe6060610ac6565b9050600082013567ffffffffffffffff81111561121e5761121d6111d9565b5b61122a84828501610be6565b600083015250602061123e84828501610c2b565b602083015250604061125284828501610c2b565b60408301525092915050565b600061126a36836111de565b9050919050565b7f4e487b7100000000000000000000000000000000000000000000000000000000600052601160045260246000fd5b60008160011c9050919050565b6000808291508390505b60018511156112f7578086048111156112d3576112d2611271565b5b60018516156112e25780820291505b80810290506112f0856112a0565b94506112b7565b94509492505050565b60008261131057600190506113cc565b8161131e57600090506113cc565b8160018114611334576002811461133e5761136d565b60019150506113cc565b60ff8411156113505761134f611271565b5b8360020a91508482111561136757611366611271565b5b506113cc565b5060208310610133831016604e8410600b84101617156113a25782820a90508381111561139d5761139c611271565b5b6113cc565b6113af84848460016112ad565b925090508184048111156113c6576113c5611271565b5b81810290505b9392505050565b60006113de82610d43565b91506113e983610d43565b92506114167fffffffffffffffffffffffffffffffffffffffffffffffffffffffffffffffff8484611300565b905092915050565b600062ffffff82169050919050565b6114368161141e565b811461144157600080fd5b50565b6000815190506114538161142d565b92915050565b60006020828403121561146f5761146e610836565b5b600061147d84828501611444565b91505092915050565b61148f8161141e565b82525050565b6000819050919050565b600060ff82169050919050565b60006114c76114c26114bd84611495565b610c9c565b61149f565b9050919050565b6114d7816114ac565b82525050565b600060a0820190506114f26000830188611124565b6114ff6020830187611124565b61150c6040830186610d4d565b6115196060830185611486565b61152660808301846114ce565b9695505050505050565b61153981610b0d565b811461154457600080fd5b50565b60008151905061155681611530565b92915050565b600063ffffffff82169050919050565b6115758161155c565b811461158057600080fd5b50565b6000815190506115928161156c565b92915050565b600080600080608085870312156115b2576115b1610836565b5b60006115c087828801611165565b94505060206115d187828801611547565b93505060406115e287828801611583565b92505060606115f387828801611165565b91505092959194509250565b600061160a82610d43565b915061161583610d43565b925082820390508181111561162d5761162c611271565b5b92915050565b7f4e487b7100000000000000000000000000000000000000000000000000000000600052601260045260246000fd5b600061166d82610d43565b915061167883610d43565b92508261168857611687611633565b5b828204905092915050565b600061169e82610d43565b91506116a983610d43565b92508282026116b781610d43565b915082820484148315176116ce576116cd611271565b5b509291505056fea2646970667358221220eee3689952621a74b19173208fbe1c774a57d83f2237ef83a63820e9f5eba63264736f6c63430008160033",
  "devdoc": {
    "kind": "dev",
    "methods": {
      "findBiggestPool(address[],address)": {
        "details": "finds pool with biggest quote liquidity"
      },
      "getPrices((address[],address,address)[])": {
        "details": "this method will return estimations for swap for one base otken it can not be view, but to get estimation you have to call it in a static way"
      }
    },
    "version": 1
  },
  "userdoc": {
    "kind": "user",
    "methods": {},
    "version": 1
  },
  "storageLayout": {
    "storage": [],
    "types": null
  }
}