{
  "address": "0x1B9131518EadDFDCCc1876616e3Bf9c534b4e527",
  "abi": [
    {
      "inputs": [
        {
          "internalType": "contract IUniswapV3Factory",
          "name": "_factory",
          "type": "address"
        },
        {
          "internalType": "contract IQuoterV2",
          "name": "_quoter",
          "type": "address"
        }
      ],
      "stateMutability": "nonpayable",
      "type": "constructor"
    },
    {
      "inputs": [
        {
          "components": [
            {
              "internalType": "contract IUniswapV3Pool[]",
              "name": "pools",
              "type": "address[]"
            },
            {
              "internalType": "address",
              "name": "base",
              "type": "address"
            },
            {
              "internalType": "address",
              "name": "quote",
              "type": "address"
            }
          ],
          "internalType": "struct UniswapV3FetcherHelper.PriceData[]",
          "name": "_data",
          "type": "tuple[]"
        }
      ],
      "name": "getPrices",
      "outputs": [
        {
          "components": [
            {
              "internalType": "uint256",
              "name": "price",
              "type": "uint256"
            },
            {
              "internalType": "bool",
              "name": "success",
              "type": "bool"
            }
          ],
          "internalType": "struct UniswapV3FetcherHelper.Price[]",
          "name": "prices",
          "type": "tuple[]"
        },
        {
          "internalType": "uint256",
          "name": "timestamp",
          "type": "uint256"
        }
      ],
      "stateMutability": "nonpayable",
      "type": "function"
    },
    {
      "inputs": [
        {
          "internalType": "address[]",
          "name": "_tokens",
          "type": "address[]"
        }
      ],
      "name": "tokensSymbols",
      "outputs": [
        {
          "internalType": "string[]",
          "name": "symbols",
          "type": "string[]"
        }
      ],
      "stateMutability": "view",
      "type": "function"
    }
  ],
  "transactionHash": "0x7349df411aeb7b47fd77dbf9d8fd8297a9296738e258c87204daf9853ffc6960",
  "args": [
    "0x0227628f3F023bb0B980b67D528571c95c6DaC1c",
    "0x29A5f90DBe54A11d37b0b18573fF853c7dc5433B"
  ],
  "numDeployments": 2,
  "solcInputHash": "0a83b861b180a0259b7156e26bd9bea3",
  "bytecode": "0x60c06040523480156200001157600080fd5b50604051620019383803806200193883398181016040528101906200003791906200016a565b8173ffffffffffffffffffffffffffffffffffffffff1660808173ffffffffffffffffffffffffffffffffffffffff16815250508073ffffffffffffffffffffffffffffffffffffffff1660a08173ffffffffffffffffffffffffffffffffffffffff16815250505050620001b1565b600080fd5b600073ffffffffffffffffffffffffffffffffffffffff82169050919050565b6000620000d982620000ac565b9050919050565b6000620000ed82620000cc565b9050919050565b620000ff81620000e0565b81146200010b57600080fd5b50565b6000815190506200011f81620000f4565b92915050565b60006200013282620000cc565b9050919050565b620001448162000125565b81146200015057600080fd5b50565b600081519050620001648162000139565b92915050565b60008060408385031215620001845762000183620000a7565b5b600062000194858286016200010e565b9250506020620001a78582860162000153565b9150509250929050565b60805160a051611761620001d760003960006104a20152600061082b01526117616000f3fe608060405234801561001057600080fd5b50600436106100365760003560e01c80634757efc11461003b578063e2b535be1461006b575b600080fd5b610055600480360381019061005091906109e7565b61009c565b6040516100629190610b86565b60405180910390f35b61008560048036038101906100809190610bfe565b610267565b604051610093929190610d6c565b60405180910390f35b606060008383905090508067ffffffffffffffff8111156100c0576100bf610d9c565b5b6040519080825280602002602001820160405280156100f357816020015b60608152602001906001900390816100de5790505b50915060005b8181101561025f5760008086868481811061011757610116610dcb565b5b905060200201602081019061012c9190610e58565b73ffffffffffffffffffffffffffffffffffffffff167f95d89b41e2f5f391a79ec54e9d87c79d6e777c63e32c28da95b4e9e4a79250ec6040516020016101739190610ec0565b60405160208183030381529060405260405161018f9190610f22565b600060405180830381855afa9150503d80600081146101ca576040519150601f19603f3d011682016040523d82523d6000602084013e6101cf565b606091505b5091509150816101ee5760405180602001604052806000815250610232565b6020815114610210578080602001905181019061020b919061102b565b610231565b806040516020016102219190610f22565b6040516020818303038152906040525b5b85848151811061024557610244610dcb565b5b6020026020010181905250505080806001019150506100f9565b505092915050565b6060600042905060008484905090508067ffffffffffffffff8111156102905761028f610d9c565b5b6040519080825280602002602001820160405280156102c957816020015b6102b6610952565b8152602001906001900390816102ae5790505b50925060005b818110156106595760008686838181106102ec576102eb610dcb565b5b90506020028101906102fe9190611079565b6103079061122c565b9050600085838151811061031e5761031d610dcb565b5b602002602001015190506000806103388460200151610662565b915091508061034a575050505061064c565b600082600a61035991906113a1565b905060008061036b8760400151610662565b9150915080610380575050505050505061064c565b60006103948860000151896040015161074e565b9050600073ffffffffffffffffffffffffffffffffffffffff168173ffffffffffffffffffffffffffffffffffffffff16036103d757505050505050505061064c565b60008173ffffffffffffffffffffffffffffffffffffffff1663ddca3f436040518163ffffffff1660e01b8152600401602060405180830381865afa158015610424573d6000803e3d6000fd5b505050506040513d601f19601f820116820180604052508101906104489190611427565b905061045d89602001518a6040015183610824565b73ffffffffffffffffffffffffffffffffffffffff168273ffffffffffffffffffffffffffffffffffffffff161461049d5750505050505050505061064c565b6000807f000000000000000000000000000000000000000000000000000000000000000073ffffffffffffffffffffffffffffffffffffffff1663c6a5026a60e01b8c602001518d604001518a8760006040516024016105019594939291906114c4565b604051602081830303815290604052907bffffffffffffffffffffffffffffffffffffffffffffffffffffffff19166020820180517bffffffffffffffffffffffffffffffffffffffffffffffffffffffff838183161783525050505060405161056b9190610f22565b6000604051808303816000865af19150503d80600081146105a8576040519150601f19603f3d011682016040523d82523d6000602084013e6105ad565b606091505b509150915081156105ed57808060200190518101906105cc91906115ab565b9091509050508a600001818152505060018a60200190151590811515815250505b60128603156106405760128611156106285760128603600a0a8a6000018181518161061b5761061a611612565b5b049150818152505061063f565b85601203600a0a8a60000181815102915081815250505b5b50505050505050505050505b80806001019150506102cf565b50509250929050565b60008060608373ffffffffffffffffffffffffffffffffffffffff167f313ce567add4d438edf58b94ff345d7d38c45b17dfc0f947988d7819dca364f96040516020016106af9190610ec0565b6040516020818303038152906040526040516106cb9190610f22565b600060405180830381855afa9150503d8060008114610706576040519150601f19603f3d011682016040523d82523d6000602084013e61070b565b606091505b50809250819350505081801561072357506000815114155b15610743578080602001905181019061073c9190611641565b9250610748565b600091505b50915091565b6000806000905060005b845181101561081c57600085828151811061077657610775610dcb565b5b6020026020010151905060008573ffffffffffffffffffffffffffffffffffffffff166370a08231836040518263ffffffff1660e01b81526004016107bb919061166e565b602060405180830381865afa1580156107d8573d6000803e3d6000fd5b505050506040513d601f19601f820116820180604052508101906107fc9190611641565b90508381111561080d578194508093505b50508080600101915050610758565b505092915050565b60008060007f000000000000000000000000000000000000000000000000000000000000000073ffffffffffffffffffffffffffffffffffffffff16631698ee8260e01b87878760405160240161087d93929190611689565b604051602081830303815290604052907bffffffffffffffffffffffffffffffffffffffffffffffffffffffff19166020820180517bffffffffffffffffffffffffffffffffffffffffffffffffffffffff83818316178352505050506040516108e79190610f22565b600060405180830381855afa9150503d8060008114610922576040519150601f19603f3d011682016040523d82523d6000602084013e610927565b606091505b50915091508115610949578080602001905181019061094691906116fe565b92505b50509392505050565b6040518060400160405280600081526020016000151581525090565b6000604051905090565b600080fd5b600080fd5b600080fd5b600080fd5b600080fd5b60008083601f8401126109a7576109a6610982565b5b8235905067ffffffffffffffff8111156109c4576109c3610987565b5b6020830191508360208202830111156109e0576109df61098c565b5b9250929050565b600080602083850312156109fe576109fd610978565b5b600083013567ffffffffffffffff811115610a1c57610a1b61097d565b5b610a2885828601610991565b92509250509250929050565b600081519050919050565b600082825260208201905092915050565b6000819050602082019050919050565b600081519050919050565b600082825260208201905092915050565b60005b83811015610a9a578082015181840152602081019050610a7f565b60008484015250505050565b6000601f19601f8301169050919050565b6000610ac282610a60565b610acc8185610a6b565b9350610adc818560208601610a7c565b610ae581610aa6565b840191505092915050565b6000610afc8383610ab7565b905092915050565b6000602082019050919050565b6000610b1c82610a34565b610b268185610a3f565b935083602082028501610b3885610a50565b8060005b85811015610b745784840389528151610b558582610af0565b9450610b6083610b04565b925060208a01995050600181019050610b3c565b50829750879550505050505092915050565b60006020820190508181036000830152610ba08184610b11565b905092915050565b60008083601f840112610bbe57610bbd610982565b5b8235905067ffffffffffffffff811115610bdb57610bda610987565b5b602083019150836020820283011115610bf757610bf661098c565b5b9250929050565b60008060208385031215610c1557610c14610978565b5b600083013567ffffffffffffffff811115610c3357610c3261097d565b5b610c3f85828601610ba8565b92509250509250929050565b600081519050919050565b600082825260208201905092915050565b6000819050602082019050919050565b6000819050919050565b610c8a81610c77565b82525050565b60008115159050919050565b610ca581610c90565b82525050565b604082016000820151610cc16000850182610c81565b506020820151610cd46020850182610c9c565b50505050565b6000610ce68383610cab565b60408301905092915050565b6000602082019050919050565b6000610d0a82610c4b565b610d148185610c56565b9350610d1f83610c67565b8060005b83811015610d50578151610d378882610cda565b9750610d4283610cf2565b925050600181019050610d23565b5085935050505092915050565b610d6681610c77565b82525050565b60006040820190508181036000830152610d868185610cff565b9050610d956020830184610d5d565b9392505050565b7f4e487b7100000000000000000000000000000000000000000000000000000000600052604160045260246000fd5b7f4e487b7100000000000000000000000000000000000000000000000000000000600052603260045260246000fd5b600073ffffffffffffffffffffffffffffffffffffffff82169050919050565b6000610e2582610dfa565b9050919050565b610e3581610e1a565b8114610e4057600080fd5b50565b600081359050610e5281610e2c565b92915050565b600060208284031215610e6e57610e6d610978565b5b6000610e7c84828501610e43565b91505092915050565b60007fffffffff0000000000000000000000000000000000000000000000000000000082169050919050565b610eba81610e85565b82525050565b6000602082019050610ed56000830184610eb1565b92915050565b600081519050919050565b600081905092915050565b6000610efc82610edb565b610f068185610ee6565b9350610f16818560208601610a7c565b80840191505092915050565b6000610f2e8284610ef1565b915081905092915050565b600080fd5b610f4782610aa6565b810181811067ffffffffffffffff82111715610f6657610f65610d9c565b5b80604052505050565b6000610f7961096e565b9050610f858282610f3e565b919050565b600067ffffffffffffffff821115610fa557610fa4610d9c565b5b610fae82610aa6565b9050602081019050919050565b6000610fce610fc984610f8a565b610f6f565b905082815260208101848484011115610fea57610fe9610f39565b5b610ff5848285610a7c565b509392505050565b600082601f83011261101257611011610982565b5b8151611022848260208601610fbb565b91505092915050565b60006020828403121561104157611040610978565b5b600082015167ffffffffffffffff81111561105f5761105e61097d565b5b61106b84828501610ffd565b91505092915050565b600080fd5b60008235600160600383360303811261109557611094611074565b5b80830191505092915050565b600080fd5b600080fd5b600067ffffffffffffffff8211156110c6576110c5610d9c565b5b602082029050602081019050919050565b60006110e282610e1a565b9050919050565b6110f2816110d7565b81146110fd57600080fd5b50565b60008135905061110f816110e9565b92915050565b6000611128611123846110ab565b610f6f565b9050808382526020820190506020840283018581111561114b5761114a61098c565b5b835b8181101561117457806111608882611100565b84526020840193505060208101905061114d565b5050509392505050565b600082601f83011261119357611192610982565b5b81356111a3848260208601611115565b91505092915050565b6000606082840312156111c2576111c16110a1565b5b6111cc6060610f6f565b9050600082013567ffffffffffffffff8111156111ec576111eb6110a6565b5b6111f88482850161117e565b600083015250602061120c84828501610e43565b602083015250604061122084828501610e43565b60408301525092915050565b600061123836836111ac565b9050919050565b7f4e487b7100000000000000000000000000000000000000000000000000000000600052601160045260246000fd5b60008160011c9050919050565b6000808291508390505b60018511156112c5578086048111156112a1576112a061123f565b5b60018516156112b05780820291505b80810290506112be8561126e565b9450611285565b94509492505050565b6000826112de576001905061139a565b816112ec576000905061139a565b8160018114611302576002811461130c5761133b565b600191505061139a565b60ff84111561131e5761131d61123f565b5b8360020a9150848211156113355761133461123f565b5b5061139a565b5060208310610133831016604e8410600b84101617156113705782820a90508381111561136b5761136a61123f565b5b61139a565b61137d848484600161127b565b925090508184048111156113945761139361123f565b5b81810290505b9392505050565b60006113ac82610c77565b91506113b783610c77565b92506113e47fffffffffffffffffffffffffffffffffffffffffffffffffffffffffffffffff84846112ce565b905092915050565b600062ffffff82169050919050565b611404816113ec565b811461140f57600080fd5b50565b600081519050611421816113fb565b92915050565b60006020828403121561143d5761143c610978565b5b600061144b84828501611412565b91505092915050565b61145d81610e1a565b82525050565b61146c816113ec565b82525050565b6000819050919050565b600060ff82169050919050565b6000819050919050565b60006114ae6114a96114a484611472565b611489565b61147c565b9050919050565b6114be81611493565b82525050565b600060a0820190506114d96000830188611454565b6114e66020830187611454565b6114f36040830186610d5d565b6115006060830185611463565b61150d60808301846114b5565b9695505050505050565b61152081610c77565b811461152b57600080fd5b50565b60008151905061153d81611517565b92915050565b61154c81610dfa565b811461155757600080fd5b50565b60008151905061156981611543565b92915050565b600063ffffffff82169050919050565b6115888161156f565b811461159357600080fd5b50565b6000815190506115a58161157f565b92915050565b600080600080608085870312156115c5576115c4610978565b5b60006115d38782880161152e565b94505060206115e48782880161155a565b93505060406115f587828801611596565b92505060606116068782880161152e565b91505092959194509250565b7f4e487b7100000000000000000000000000000000000000000000000000000000600052601260045260246000fd5b60006020828403121561165757611656610978565b5b60006116658482850161152e565b91505092915050565b60006020820190506116836000830184611454565b92915050565b600060608201905061169e6000830186611454565b6116ab6020830185611454565b6116b86040830184611463565b949350505050565b60006116cb82610dfa565b9050919050565b6116db816116c0565b81146116e657600080fd5b50565b6000815190506116f8816116d2565b92915050565b60006020828403121561171457611713610978565b5b6000611722848285016116e9565b9150509291505056fea2646970667358221220dcc3c337ceb3dc33dd3d55d0abf31da2f4e3c20063f921ab08e96f0873a6c54e64736f6c63430008160033",
  "devdoc": {
    "kind": "dev",
    "methods": {
      "getPrices((address[],address,address)[])": {
        "details": "this method will return estimations for swap for one base token it can not be view, but to get estimation you have to call it in a static way Tokens that do not have `.decimals()` are not supported",
        "params": {
          "_data": "array of PriceData, each PriceData can accept multiple pools per one price, price is fetched from pool, that has biggest liquidity (quote.balanceOf(pool)) TODO balanceOf might be not liquidity and by sending token to pool we can in theory affect this fetcher"
        }
      }
    },
    "version": 1
  },
  "userdoc": {
    "kind": "user",
    "methods": {},
    "version": 1
  },
  "storageLayout": {
    "storage": [],
    "types": null
  }
}