{
  "address": "0x4bcEb3098A035aE81bf1Fd5Ee445a205d84F7cbF",
  "abi": [
    {
      "inputs": [
        {
          "internalType": "contract IRegistry",
          "name": "_contractRegistry",
          "type": "address"
        },
        {
          "internalType": "uint32",
          "name": "_padding",
          "type": "uint32"
        },
        {
          "internalType": "uint16",
          "name": "_requiredSignatures",
          "type": "uint16"
        },
        {
          "internalType": "bool",
          "name": "_allowForMixedType",
          "type": "bool"
        }
      ],
      "stateMutability": "nonpayable",
      "type": "constructor"
    },
    {
      "inputs": [],
      "name": "AlreadyDeprecated",
      "type": "error"
    },
    {
      "inputs": [],
      "name": "AlreadyRegistered",
      "type": "error"
    },
    {
      "inputs": [],
      "name": "ArraysDataDoNotMatch",
      "type": "error"
    },
    {
      "inputs": [],
      "name": "BlockSubmittedToFastOrDataToOld",
      "type": "error"
    },
    {
      "inputs": [],
      "name": "ContractNotReady",
      "type": "error"
    },
    {
      "inputs": [],
      "name": "FCDOverflow",
      "type": "error"
    },
    {
      "inputs": [],
      "name": "InvalidContractType",
      "type": "error"
    },
    {
      "inputs": [],
      "name": "NoChangeToState",
      "type": "error"
    },
    {
      "inputs": [],
      "name": "NotEnoughSignatures",
      "type": "error"
    },
    {
      "inputs": [],
      "name": "OnlyOwnerOrRegistry",
      "type": "error"
    },
    {
      "inputs": [],
      "name": "SignaturesOutOfOrder",
      "type": "error"
    },
    {
      "inputs": [],
      "name": "UnregisterFirst",
      "type": "error"
    },
    {
      "anonymous": false,
      "inputs": [
        {
          "indexed": true,
          "internalType": "address",
          "name": "deprecator",
          "type": "address"
        }
      ],
      "name": "LogDeprecation",
      "type": "event"
    },
    {
      "anonymous": false,
      "inputs": [
        {
          "indexed": true,
          "internalType": "address",
          "name": "minter",
          "type": "address"
        },
        {
          "indexed": false,
          "internalType": "uint256",
          "name": "blockId",
          "type": "uint256"
        },
        {
          "indexed": false,
          "internalType": "uint256",
          "name": "staked",
          "type": "uint256"
        },
        {
          "indexed": false,
          "internalType": "uint256",
          "name": "power",
          "type": "uint256"
        }
      ],
      "name": "LogMint",
      "type": "event"
    },
    {
      "anonymous": false,
      "inputs": [
        {
          "indexed": true,
          "internalType": "address",
          "name": "executor",
          "type": "address"
        },
        {
          "indexed": false,
          "internalType": "uint32",
          "name": "timePadding",
          "type": "uint32"
        }
      ],
      "name": "LogPadding",
      "type": "event"
    },
    {
      "anonymous": false,
      "inputs": [
        {
          "indexed": true,
          "internalType": "uint256",
          "name": "blockId",
          "type": "uint256"
        },
        {
          "indexed": true,
          "internalType": "address",
          "name": "voter",
          "type": "address"
        },
        {
          "indexed": false,
          "internalType": "uint256",
          "name": "vote",
          "type": "uint256"
        }
      ],
      "name": "LogVoter",
      "type": "event"
    },
    {
      "anonymous": false,
      "inputs": [
        {
          "indexed": true,
          "internalType": "address",
          "name": "previousOwner",
          "type": "address"
        },
        {
          "indexed": true,
          "internalType": "address",
          "name": "newOwner",
          "type": "address"
        }
      ],
      "name": "OwnershipTransferred",
      "type": "event"
    },
    {
      "inputs": [],
      "name": "ETH_PREFIX",
      "outputs": [
        {
          "internalType": "bytes",
          "name": "",
          "type": "bytes"
        }
      ],
      "stateMutability": "view",
      "type": "function"
    },
    {
      "inputs": [],
      "name": "VERSION",
      "outputs": [
        {
          "internalType": "uint256",
          "name": "",
          "type": "uint256"
        }
      ],
      "stateMutability": "view",
      "type": "function"
    },
    {
      "inputs": [
        {
          "internalType": "uint256",
          "name": "_blockId",
          "type": "uint256"
        }
      ],
      "name": "blocks",
      "outputs": [
        {
          "components": [
            {
              "internalType": "bytes32",
              "name": "root",
              "type": "bytes32"
            },
            {
              "internalType": "uint32",
              "name": "dataTimestamp",
              "type": "uint32"
            }
          ],
          "internalType": "struct BaseChain.Block",
          "name": "",
          "type": "tuple"
        }
      ],
      "stateMutability": "view",
      "type": "function"
    },
    {
      "inputs": [],
      "name": "blocksCount",
      "outputs": [
        {
          "internalType": "uint256",
          "name": "",
          "type": "uint256"
        }
      ],
      "stateMutability": "view",
      "type": "function"
    },
    {
      "inputs": [],
      "name": "blocksCountOffset",
      "outputs": [
        {
          "internalType": "uint32",
          "name": "",
          "type": "uint32"
        }
      ],
      "stateMutability": "view",
      "type": "function"
    },
    {
      "inputs": [
        {
          "internalType": "bytes",
          "name": "_data",
          "type": "bytes"
        },
        {
          "internalType": "uint256",
          "name": "_offset",
          "type": "uint256"
        },
        {
          "internalType": "uint256",
          "name": "_items",
          "type": "uint256"
        }
      ],
      "name": "bytesToBytes32Array",
      "outputs": [
        {
          "internalType": "bytes32[]",
          "name": "",
          "type": "bytes32[]"
        }
      ],
      "stateMutability": "pure",
      "type": "function"
    },
    {
      "inputs": [],
      "name": "contractRegistry",
      "outputs": [
        {
          "internalType": "contract IRegistry",
          "name": "",
          "type": "address"
        }
      ],
      "stateMutability": "view",
      "type": "function"
    },
    {
      "inputs": [],
      "name": "deprecate",
      "outputs": [],
      "stateMutability": "nonpayable",
      "type": "function"
    },
    {
      "inputs": [
        {
          "internalType": "bytes32",
          "name": "",
          "type": "bytes32"
        }
      ],
      "name": "fcds",
      "outputs": [
        {
          "internalType": "uint224",
          "name": "value",
          "type": "uint224"
        },
        {
          "internalType": "uint32",
          "name": "dataTimestamp",
          "type": "uint32"
        }
      ],
      "stateMutability": "view",
      "type": "function"
    },
    {
      "inputs": [],
      "name": "getBlockId",
      "outputs": [
        {
          "internalType": "uint32",
          "name": "",
          "type": "uint32"
        }
      ],
      "stateMutability": "view",
      "type": "function"
    },
    {
      "inputs": [
        {
          "internalType": "uint256",
          "name": "_timestamp",
          "type": "uint256"
        }
      ],
      "name": "getBlockIdAtTimestamp",
      "outputs": [
        {
          "internalType": "uint32",
          "name": "",
          "type": "uint32"
        }
      ],
      "stateMutability": "view",
      "type": "function"
    },
    {
      "inputs": [
        {
          "internalType": "uint32",
          "name": "_blockId",
          "type": "uint32"
        }
      ],
      "name": "getBlockRoot",
      "outputs": [
        {
          "internalType": "bytes32",
          "name": "",
          "type": "bytes32"
        }
      ],
      "stateMutability": "view",
      "type": "function"
    },
    {
      "inputs": [
        {
          "internalType": "uint32",
          "name": "_blockId",
          "type": "uint32"
        }
      ],
      "name": "getBlockTimestamp",
      "outputs": [
        {
          "internalType": "uint32",
          "name": "",
          "type": "uint32"
        }
      ],
      "stateMutability": "view",
      "type": "function"
    },
    {
      "inputs": [],
      "name": "getConsensusData",
      "outputs": [
        {
          "components": [
            {
              "internalType": "uint32",
              "name": "blocksCountOffset",
              "type": "uint32"
            },
            {
              "internalType": "uint32",
              "name": "sequence",
              "type": "uint32"
            },
            {
              "internalType": "uint32",
              "name": "lastTimestamp",
              "type": "uint32"
            },
            {
              "internalType": "uint32",
              "name": "padding",
              "type": "uint32"
            },
            {
              "internalType": "bool",
              "name": "deprecated",
              "type": "bool"
            }
          ],
          "internalType": "struct BaseChain.ConsensusData",
          "name": "",
          "type": "tuple"
        }
      ],
      "stateMutability": "view",
      "type": "function"
    },
    {
      "inputs": [
        {
          "internalType": "bytes32",
          "name": "_key",
          "type": "bytes32"
        }
      ],
      "name": "getCurrentIntValue",
      "outputs": [
        {
          "internalType": "int256",
          "name": "value",
          "type": "int256"
        },
        {
          "internalType": "uint256",
          "name": "timestamp",
          "type": "uint256"
        }
      ],
      "stateMutability": "view",
      "type": "function"
    },
    {
      "inputs": [
        {
          "internalType": "bytes32",
          "name": "_key",
          "type": "bytes32"
        }
      ],
      "name": "getCurrentValue",
      "outputs": [
        {
          "internalType": "uint256",
          "name": "value",
          "type": "uint256"
        },
        {
          "internalType": "uint256",
          "name": "timestamp",
          "type": "uint256"
        }
      ],
      "stateMutability": "view",
      "type": "function"
    },
    {
      "inputs": [
        {
          "internalType": "bytes32[]",
          "name": "_keys",
          "type": "bytes32[]"
        }
      ],
      "name": "getCurrentValues",
      "outputs": [
        {
          "internalType": "uint256[]",
          "name": "values",
          "type": "uint256[]"
        },
        {
          "internalType": "uint32[]",
          "name": "timestamps",
          "type": "uint32[]"
        }
      ],
      "stateMutability": "view",
      "type": "function"
    },
    {
      "inputs": [],
      "name": "getLatestBlockId",
      "outputs": [
        {
          "internalType": "uint32",
          "name": "",
          "type": "uint32"
        }
      ],
      "stateMutability": "view",
      "type": "function"
    },
    {
      "inputs": [],
      "name": "getLeaderAddress",
      "outputs": [
        {
          "internalType": "address",
          "name": "",
          "type": "address"
        }
      ],
      "stateMutability": "view",
      "type": "function"
    },
    {
      "inputs": [
        {
          "internalType": "uint256",
          "name": "_timestamp",
          "type": "uint256"
        }
      ],
      "name": "getLeaderAddressAtTime",
      "outputs": [
        {
          "internalType": "address",
          "name": "",
          "type": "address"
        }
      ],
      "stateMutability": "view",
      "type": "function"
    },
    {
      "inputs": [
        {
          "internalType": "uint256",
          "name": "_numberOfValidators",
          "type": "uint256"
        },
        {
          "internalType": "uint256",
          "name": "_timestamp",
          "type": "uint256"
        }
      ],
      "name": "getLeaderIndex",
      "outputs": [
        {
          "internalType": "uint256",
          "name": "",
          "type": "uint256"
        }
      ],
      "stateMutability": "view",
      "type": "function"
    },
    {
      "inputs": [],
      "name": "getName",
      "outputs": [
        {
          "internalType": "bytes32",
          "name": "",
          "type": "bytes32"
        }
      ],
      "stateMutability": "pure",
      "type": "function"
    },
    {
      "inputs": [],
      "name": "getNextLeaderAddress",
      "outputs": [
        {
          "internalType": "address",
          "name": "",
          "type": "address"
        }
      ],
      "stateMutability": "view",
      "type": "function"
    },
    {
      "inputs": [],
      "name": "getStatus",
      "outputs": [
        {
          "internalType": "uint256",
          "name": "blockNumber",
          "type": "uint256"
        },
        {
          "internalType": "uint32",
          "name": "timePadding",
          "type": "uint32"
        },
        {
          "internalType": "uint32",
          "name": "lastDataTimestamp",
          "type": "uint32"
        },
        {
          "internalType": "uint32",
          "name": "lastId",
          "type": "uint32"
        },
        {
          "internalType": "address",
          "name": "nextLeader",
          "type": "address"
        },
        {
          "internalType": "uint32",
          "name": "nextBlockId",
          "type": "uint32"
        },
        {
          "internalType": "address[]",
          "name": "validators",
          "type": "address[]"
        },
        {
          "internalType": "uint256[]",
          "name": "powers",
          "type": "uint256[]"
        },
        {
          "internalType": "string[]",
          "name": "locations",
          "type": "string[]"
        },
        {
          "internalType": "uint256",
          "name": "staked",
          "type": "uint256"
        },
        {
          "internalType": "uint16",
          "name": "minSignatures",
          "type": "uint16"
        }
      ],
      "stateMutability": "view",
      "type": "function"
    },
    {
      "inputs": [
        {
          "internalType": "bytes",
          "name": "_key",
          "type": "bytes"
        },
        {
          "internalType": "bytes",
          "name": "_value",
          "type": "bytes"
        }
      ],
      "name": "hashLeaf",
      "outputs": [
        {
          "internalType": "bytes32",
          "name": "",
          "type": "bytes32"
        }
      ],
      "stateMutability": "pure",
      "type": "function"
    },
    {
      "inputs": [],
      "name": "isForeign",
      "outputs": [
        {
          "internalType": "bool",
          "name": "",
          "type": "bool"
        }
      ],
      "stateMutability": "pure",
      "type": "function"
    },
    {
      "inputs": [],
      "name": "lastBlockId",
      "outputs": [
        {
          "internalType": "uint256",
          "name": "",
          "type": "uint256"
        }
      ],
      "stateMutability": "view",
      "type": "function"
    },
    {
      "inputs": [],
      "name": "owner",
      "outputs": [
        {
          "internalType": "address",
          "name": "",
          "type": "address"
        }
      ],
      "stateMutability": "view",
      "type": "function"
    },
    {
      "inputs": [
        {
          "internalType": "bytes32",
          "name": "_affidavit",
          "type": "bytes32"
        },
        {
          "internalType": "uint8",
          "name": "_v",
          "type": "uint8"
        },
        {
          "internalType": "bytes32",
          "name": "_r",
          "type": "bytes32"
        },
        {
          "internalType": "bytes32",
          "name": "_s",
          "type": "bytes32"
        }
      ],
      "name": "recoverSigner",
      "outputs": [
        {
          "internalType": "address",
          "name": "",
          "type": "address"
        }
      ],
      "stateMutability": "pure",
      "type": "function"
    },
    {
      "inputs": [],
      "name": "register",
      "outputs": [],
      "stateMutability": "nonpayable",
      "type": "function"
    },
    {
      "inputs": [],
      "name": "renounceOwnership",
      "outputs": [],
      "stateMutability": "nonpayable",
      "type": "function"
    },
    {
      "inputs": [],
      "name": "requiredSignatures",
      "outputs": [
        {
          "internalType": "uint16",
          "name": "",
          "type": "uint16"
        }
      ],
      "stateMutability": "view",
      "type": "function"
    },
    {
      "inputs": [
        {
          "internalType": "uint256",
          "name": "",
          "type": "uint256"
        }
      ],
      "name": "roots",
      "outputs": [
        {
          "internalType": "bytes32",
          "name": "",
          "type": "bytes32"
        }
      ],
      "stateMutability": "view",
      "type": "function"
    },
    {
      "inputs": [
        {
          "internalType": "uint16",
          "name": "_padding",
          "type": "uint16"
        }
      ],
      "name": "setPadding",
      "outputs": [],
      "stateMutability": "nonpayable",
      "type": "function"
    },
    {
      "inputs": [],
      "name": "stakingBank",
      "outputs": [
        {
          "internalType": "contract IStakingBank",
          "name": "",
          "type": "address"
        }
      ],
      "stateMutability": "view",
      "type": "function"
    },
    {
      "inputs": [],
      "name": "stakingBankContract",
      "outputs": [
        {
          "internalType": "contract IStakingBank",
          "name": "",
          "type": "address"
        }
      ],
      "stateMutability": "view",
      "type": "function"
    },
    {
      "inputs": [
        {
          "internalType": "uint32",
          "name": "_dataTimestamp",
          "type": "uint32"
        },
        {
          "internalType": "bytes32",
          "name": "_root",
          "type": "bytes32"
        },
        {
          "internalType": "bytes32[]",
          "name": "_keys",
          "type": "bytes32[]"
        },
        {
          "internalType": "uint256[]",
          "name": "_values",
          "type": "uint256[]"
        },
        {
          "internalType": "uint8[]",
          "name": "_v",
          "type": "uint8[]"
        },
        {
          "internalType": "bytes32[]",
          "name": "_r",
          "type": "bytes32[]"
        },
        {
          "internalType": "bytes32[]",
          "name": "_s",
          "type": "bytes32[]"
        }
      ],
      "name": "submit",
      "outputs": [],
      "stateMutability": "nonpayable",
      "type": "function"
    },
    {
      "inputs": [],
      "name": "tokenContract",
      "outputs": [
        {
          "internalType": "contract ERC20",
          "name": "",
          "type": "address"
        }
      ],
      "stateMutability": "view",
      "type": "function"
    },
    {
      "inputs": [
        {
          "internalType": "address",
          "name": "newOwner",
          "type": "address"
        }
      ],
      "name": "transferOwnership",
      "outputs": [],
      "stateMutability": "nonpayable",
      "type": "function"
    },
    {
      "inputs": [],
      "name": "unregister",
      "outputs": [],
      "stateMutability": "nonpayable",
      "type": "function"
    },
    {
      "inputs": [
        {
          "internalType": "bytes32[]",
          "name": "_proof",
          "type": "bytes32[]"
        },
        {
          "internalType": "bytes32",
          "name": "_root",
          "type": "bytes32"
        },
        {
          "internalType": "bytes32",
          "name": "_leaf",
          "type": "bytes32"
        }
      ],
      "name": "verifyProof",
      "outputs": [
        {
          "internalType": "bool",
          "name": "",
          "type": "bool"
        }
      ],
      "stateMutability": "pure",
      "type": "function"
    },
    {
      "inputs": [
        {
          "internalType": "uint256",
          "name": "_blockId",
          "type": "uint256"
        },
        {
          "internalType": "bytes32[]",
          "name": "_proof",
          "type": "bytes32[]"
        },
        {
          "internalType": "bytes",
          "name": "_key",
          "type": "bytes"
        },
        {
          "internalType": "bytes",
          "name": "_value",
          "type": "bytes"
        }
      ],
      "name": "verifyProofForBlock",
      "outputs": [
        {
          "internalType": "bool",
          "name": "",
          "type": "bool"
        }
      ],
      "stateMutability": "view",
      "type": "function"
    },
    {
      "inputs": [
        {
          "internalType": "uint32[]",
          "name": "_blockIds",
          "type": "uint32[]"
        },
        {
          "internalType": "bytes",
          "name": "_proofs",
          "type": "bytes"
        },
        {
          "internalType": "uint256[]",
          "name": "_proofItemsCounter",
          "type": "uint256[]"
        },
        {
          "internalType": "bytes32[]",
          "name": "_leaves",
          "type": "bytes32[]"
        }
      ],
      "name": "verifyProofs",
      "outputs": [
        {
          "internalType": "bool[]",
          "name": "results",
          "type": "bool[]"
        }
      ],
      "stateMutability": "view",
      "type": "function"
    }
  ],
  "transactionHash": "0x8e4f61440cc6534c2a21a0992d829c60f9a510738880127efb5b6fece2aa5d54",
  "args": [
    "0xb2C6c4162c0d2B6963C62A9133331b4D0359AA34",
    240,
    6,
    false
  ],
  "numDeployments": 1,
  "solcInputHash": "dc68422c0ad35a4fe46d461b096b9383",
  "bytecode": "0x6101006040523480156200001257600080fd5b5060405162005e9138038062005e91833981810160405281019062000038919062000677565b8383838383600073ffffffffffffffffffffffffffffffffffffffff168173ffffffffffffffffffffffffffffffffffffffff1603620000af576040517f08c379a0000000000000000000000000000000000000000000000000000000008152600401620000a6906200074a565b60405180910390fd5b8073ffffffffffffffffffffffffffffffffffffffff1660808173ffffffffffffffffffffffffffffffffffffffff16815250505062000104620000f8620002e660201b60201c565b620002ee60201b60201c565b80151560a0811515815250508161ffff1660c08161ffff16815250506200013183620003b260201b60201c565b60008473ffffffffffffffffffffffffffffffffffffffff166321f8a7216040518163ffffffff1660e01b81526004016200016c9062000792565b602060405180830381865afa1580156200018a573d6000803e3d6000fd5b505050506040513d601f19601f82011682018060405250810190620001b09190620007de565b9050600073ffffffffffffffffffffffffffffffffffffffff168173ffffffffffffffffffffffffffffffffffffffff1603620002275760018442620001f791906200083f565b6200020391906200083f565b600160000160086101000a81548163ffffffff021916908363ffffffff1602179055505b50505050508373ffffffffffffffffffffffffffffffffffffffff166346bcb49d6040518163ffffffff1660e01b81526004016200026590620008a0565b602060405180830381865afa15801562000283573d6000803e3d6000fd5b505050506040513d601f19601f82011682018060405250810190620002a99190620007de565b73ffffffffffffffffffffffffffffffffffffffff1660e08173ffffffffffffffffffffffffffffffffffffffff1681525050505050506200095b565b600033905090565b60008060009054906101000a900473ffffffffffffffffffffffffffffffffffffffff169050816000806101000a81548173ffffffffffffffffffffffffffffffffffffffff021916908373ffffffffffffffffffffffffffffffffffffffff1602179055508173ffffffffffffffffffffffffffffffffffffffff168173ffffffffffffffffffffffffffffffffffffffff167f8be0079c531659141344cd1fd0a4f28419497f9722a3daafe3b4186f6b6457e060405160405180910390a35050565b620003c2620002e660201b60201c565b73ffffffffffffffffffffffffffffffffffffffff16620003e86200051360201b60201c565b73ffffffffffffffffffffffffffffffffffffffff161462000441576040517f08c379a000000000000000000000000000000000000000000000000000000000815260040162000438906200090b565b60405180910390fd5b8063ffffffff166001600001600c9054906101000a900463ffffffff1663ffffffff16036200049c576040517f96f56f6a00000000000000000000000000000000000000000000000000000000815260040160405180910390fd5b806001600001600c6101000a81548163ffffffff021916908363ffffffff1602179055503373ffffffffffffffffffffffffffffffffffffffff167f02ff77a0f68d11f7efb906f331b2dda82916de8ba9c37dda2a95817936a530ec826040516200050891906200093e565b60405180910390a250565b60008060009054906101000a900473ffffffffffffffffffffffffffffffffffffffff16905090565b600080fd5b600073ffffffffffffffffffffffffffffffffffffffff82169050919050565b60006200056e8262000541565b9050919050565b6000620005828262000561565b9050919050565b620005948162000575565b8114620005a057600080fd5b50565b600081519050620005b48162000589565b92915050565b600063ffffffff82169050919050565b620005d581620005ba565b8114620005e157600080fd5b50565b600081519050620005f581620005ca565b92915050565b600061ffff82169050919050565b6200061481620005fb565b81146200062057600080fd5b50565b600081519050620006348162000609565b92915050565b60008115159050919050565b62000651816200063a565b81146200065d57600080fd5b50565b600081519050620006718162000646565b92915050565b600080600080608085870312156200069457620006936200053c565b5b6000620006a487828801620005a3565b9450506020620006b787828801620005e4565b9350506040620006ca8782880162000623565b9250506060620006dd8782880162000660565b91505092959194509250565b600082825260208201905092915050565b7f5f726567697374727920697320656d7074790000000000000000000000000000600082015250565b600062000732601283620006e9565b91506200073f82620006fa565b602082019050919050565b60006020820190508181036000830152620007658162000723565b9050919050565b7f436861696e000000000000000000000000000000000000000000000000000000815250565b6000602082019050620007a8600083016200076c565b919050565b620007b88162000561565b8114620007c457600080fd5b50565b600081519050620007d881620007ad565b92915050565b600060208284031215620007f757620007f66200053c565b5b60006200080784828501620007c7565b91505092915050565b7f4e487b7100000000000000000000000000000000000000000000000000000000600052601160045260246000fd5b60006200084c82620005ba565b91506200085983620005ba565b9250828210156200086f576200086e62000810565b5b828203905092915050565b7f5374616b696e6742616e6b000000000000000000000000000000000000000000815250565b6000602082019050620008b6600083016200087a565b919050565b7f4f776e61626c653a2063616c6c6572206973206e6f7420746865206f776e6572600082015250565b6000620008f3602083620006e9565b91506200090082620008bb565b602082019050919050565b600060208201905081810360008301526200092681620008e4565b9050919050565b6200093881620005ba565b82525050565b60006020820190506200095560008301846200092d565b92915050565b60805160a05160c05160e05161547762000a1a60003960008181610eac0152818161122601528181611451015281816116880152818161171b0152818161189d0152818161198401528181611a5d0152818161291901526129ca0152600081816113ba015281816116650152611f410152600061276301526000818161082701528181610a1d01528181610ae501528181611bab01528181611c2201528181611cc10152818161207901528181612585015261266401526154776000f3fe608060405234801561001057600080fd5b50600436106101f95760003560e01c80630f2acc3e146101fe5780630fcc0c281461022e57806317d7de7c14610238578063199dadc5146102565780631aa3a00814610286578063243b68f91461029057806324c89a49146102c057806326f3ab8b146102de57806334ba34811461030f5780633bb8819d1461032d57806340a9e5e31461035e578063485e055d1461037a5780634bc935d7146103965780634e69d560146103c657806355a373d6146103ee578063637180a81461040c5780636d046c3e1461042a578063715018a6146104485780637353cbcb1461045257806377839fe614610470578063805d34321461048e5780638d068043146104be5780638da5cb5b146104dc5780639f6119d7146104fa578063a0bc937414610518578063abf410e514610536578063adf1639d14610554578063bef9f8a114610585578063bf66e3ba146105b5578063c2a4250b146105e5578063c2b40ae414610603578063c3369db814610633578063ca4d29d214610663578063cbb1b2c714610693578063d3d3ea08146106c4578063d45167d0146106e2578063e76c0b5714610712578063e79a198f14610730578063ed9975c31461073a578063ef19f3e714610758578063f25b3f9914610788578063f2fde38b146107b8578063ffa1ad74146107d4575b600080fd5b6102186004803603810190610213919061358f565b6107f2565b6040516102259190613620565b60405180910390f35b610236610825565b005b610240610997565b60405161024d9190613620565b60405180910390f35b610270600480360381019061026b9190613765565b6109bf565b60405161027d919061383b565b60405180910390f35b61028e610a1b565b005b6102aa60048036038101906102a59190613856565b610c29565b6040516102b79190613983565b60405180910390f35b6102c8610cd2565b6040516102d59190613a2d565b60405180910390f35b6102f860048036038101906102f39190613aaa565b610d0b565b604051610306929190613c83565b60405180910390f35b610317610eaa565b6040516103249190613d39565b60405180910390f35b61034760048036038101906103429190613d54565b610ece565b604051610355929190613da9565b60405180910390f35b61037860048036038101906103739190613e0c565b610f63565b005b610394600480360381019061038f9190614024565b610f73565b005b6103b060048036038101906103ab9190614152565b611546565b6040516103bd919061383b565b60405180910390f35b6103ce61157a565b6040516103e59b9a999897969594939291906143d5565b60405180910390f35b6103f6611b90565b60405161040391906144b6565b60405180910390f35b610414611cbd565b6040516104219190613d39565b60405180910390f35b610432611d5c565b60405161043f919061383b565b60405180910390f35b610450611d61565b005b61045a611de9565b60405161046791906144d1565b60405180910390f35b610478611e2c565b60405161048591906144ec565b60405180910390f35b6104a860048036038101906104a39190614507565b611e49565b6040516104b591906144ec565b60405180910390f35b6104c6611f3d565b6040516104d39190614534565b60405180910390f35b6104e4611f65565b6040516104f1919061454f565b60405180910390f35b610502611f8e565b60405161050f919061454f565b60405180910390f35b610520611faa565b60405161052d91906145e1565b60405180910390f35b61053e612077565b60405161054b919061461d565b60405180910390f35b61056e60048036038101906105699190613d54565b61209b565b60405161057c929190614638565b60405180910390f35b61059f600480360381019061059a9190614661565b612128565b6040516105ac9190613620565b60405180910390f35b6105cf60048036038101906105ca9190614751565b61214b565b6040516105dc91906148d7565b60405180910390f35b6105ed612287565b6040516105fa91906144d1565b60405180910390f35b61061d60048036038101906106189190614507565b6122aa565b60405161062a9190613620565b60405180910390f35b61064d60048036038101906106489190614661565b6122c2565b60405161065a91906144ec565b60405180910390f35b61067d600480360381019061067891906148f9565b6122f7565b60405161068a91906144d1565b60405180910390f35b6106ad60048036038101906106a89190613d54565b612411565b6040516106bb929190614970565b60405180910390f35b6106cc61246d565b6040516106d991906144ec565b60405180910390f35b6106fc60048036038101906106f79190614999565b61248a565b604051610709919061454f565b60405180910390f35b61071a612547565b60405161072791906144ec565b60405180910390f35b610738612583565b005b610742612904565b60405161074f919061454f565b60405180910390f35b610772600480360381019061076d9190614507565b612914565b60405161077f919061454f565b60405180910390f35b6107a2600480360381019061079d9190614507565b612a6c565b6040516107af9190614a2f565b60405180910390f35b6107d260048036038101906107cd9190614a76565b612aa9565b005b6107dc612ba0565b6040516107e991906144d1565b60405180910390f35b60008282604051602001610807929190614adf565b60405160208183030381529060405280519060200120905092915050565b7f000000000000000000000000000000000000000000000000000000000000000073ffffffffffffffffffffffffffffffffffffffff163373ffffffffffffffffffffffffffffffffffffffff16141580156108b45750610884611f65565b73ffffffffffffffffffffffffffffffffffffffff163373ffffffffffffffffffffffffffffffffffffffff1614155b156108eb576040517f0daa173600000000000000000000000000000000000000000000000000000000815260040160405180910390fd5b600160000160109054906101000a900460ff1615610935576040517f764c143b00000000000000000000000000000000000000000000000000000000815260040160405180910390fd5b60018060000160106101000a81548160ff0219169083151502179055503373ffffffffffffffffffffffffffffffffffffffff167fd4ae81319f0b4df100dcda9ce971671b97278c7a5ce6b37a8331a44700679fd460405160405180910390a2565b60007f436861696e000000000000000000000000000000000000000000000000000000905090565b6000610a11600260008781526020019081526020016000205484846040516020016109eb929190614adf565b6040516020818303038152906040528051906020012086612ba59092919063ffffffff16565b9050949350505050565b7f000000000000000000000000000000000000000000000000000000000000000073ffffffffffffffffffffffffffffffffffffffff163373ffffffffffffffffffffffffffffffffffffffff1614158015610aaa5750610a7a611f65565b73ffffffffffffffffffffffffffffffffffffffff163373ffffffffffffffffffffffffffffffffffffffff1614155b15610ae1576040517f0daa173600000000000000000000000000000000000000000000000000000000815260040160405180910390fd5b60007f000000000000000000000000000000000000000000000000000000000000000073ffffffffffffffffffffffffffffffffffffffff166321f8a7216040518163ffffffff1660e01b8152600401610b3a90614b29565b602060405180830381865afa158015610b57573d6000803e3d6000fd5b505050506040513d601f19601f82011682018060405250810190610b7b9190614b57565b90503073ffffffffffffffffffffffffffffffffffffffff168173ffffffffffffffffffffffffffffffffffffffff1603610be2576040517f3a81d6fc00000000000000000000000000000000000000000000000000000000815260040160405180910390fd5b600073ffffffffffffffffffffffffffffffffffffffff168173ffffffffffffffffffffffffffffffffffffffff1603610c1c5750610c27565b610c2581612bbc565b505b565b606060008267ffffffffffffffff811115610c4757610c46613464565b5b604051908082528060200260200182016040528015610c755781602001602082028036833780820191505090505b50905060005b83811015610cc657600080602087600185010102905080880151915081848481518110610cab57610caa614b84565b5b60200260200101818152505050508080600101915050610c7b565b50809150509392505050565b6040518060400160405280601c81526020017f19457468657265756d205369676e6564204d6573736167653a0a33320000000081525081565b6060808383905067ffffffffffffffff811115610d2b57610d2a613464565b5b604051908082528060200260200182016040528015610d595781602001602082028036833780820191505090505b5090508383905067ffffffffffffffff811115610d7957610d78613464565b5b604051908082528060200260200182016040528015610da75781602001602082028036833780820191505090505b50915060005b84849050811015610ea257600060036000878785818110610dd157610dd0614b84565b5b90506020020135815260200190815260200160002090508060000160009054906101000a90047bffffffffffffffffffffffffffffffffffffffffffffffffffffffff167bffffffffffffffffffffffffffffffffffffffffffffffffffffffff16848381518110610e4657610e45614b84565b5b60200260200101818152505080600001601c9054906101000a900463ffffffff16838381518110610e7a57610e79614b84565b5b602002602001019063ffffffff16908163ffffffff1681525050818060010192505050610dad565b509250929050565b7f000000000000000000000000000000000000000000000000000000000000000081565b6000806000600360008581526020019081526020016000209050610f3b8160000160009054906101000a90047bffffffffffffffffffffffffffffffffffffffffffffffffffffffff167bffffffffffffffffffffffffffffffffffffffffffffffffffffffff16612efe565b81600001601c9054906101000a900463ffffffff168063ffffffff1690509250925050915091565b610f708161ffff16612fa6565b50565b610f828763ffffffff166130f1565b60008787604051602001610f97929190614c0a565b604051602081830303815290604052905060005b86518110156111a757858181518110610fc757610fc6614b84565b5b6020026020010151868281518110610fe257610fe1614b84565b5b60200260200101517bffffffffffffffffffffffffffffffffffffffffffffffffffffffff161461103f576040517f6980091000000000000000000000000000000000000000000000000000000000815260040160405180910390fd5b604051806040016040528087838151811061105d5761105c614b84565b5b60200260200101517bffffffffffffffffffffffffffffffffffffffffffffffffffffffff1681526020018a63ffffffff16815250600360008984815181106110a9576110a8614b84565b5b6020026020010151815260200190815260200160002060008201518160000160006101000a8154817bffffffffffffffffffffffffffffffffffffffffffffffffffffffff02191690837bffffffffffffffffffffffffffffffffffffffffffffffffffffffff160217905550602082015181600001601c6101000a81548163ffffffff021916908363ffffffff1602179055509050508187828151811061115457611153614b84565b5b602002602001015187838151811061116f5761116e614b84565b5b602002602001015160405160200161118993929190614c57565b60405160208183030381529060405291508080600101915050610fab565b506000806000838051906020012090506000805b88518110156113b7576000611220848b84815181106111dd576111dc614b84565b5b60200260200101518b85815181106111f8576111f7614b84565b5b60200260200101518b868151811061121357611212614b84565b5b602002602001015161248a565b905060007f000000000000000000000000000000000000000000000000000000000000000073ffffffffffffffffffffffffffffffffffffffff166370a08231836040518263ffffffff1660e01b815260040161127d919061454f565b602060405180830381865afa15801561129a573d6000803e3d6000fd5b505050506040513d601f19601f820116820180604052508101906112be9190614ca5565b90508173ffffffffffffffffffffffffffffffffffffffff168473ffffffffffffffffffffffffffffffffffffffff1610611325576040517f9079f69b00000000000000000000000000000000000000000000000000000000815260040160405180910390fd5b8193506000810361133f57828060010193505050506113b2565b868061134a90614d01565b9750508173ffffffffffffffffffffffffffffffffffffffff168f63ffffffff167fbac7552ab5da8d0588709ddb75aceec28520646f54bca1cc5e6e104db61935ec8360405161139a91906144d1565b60405180910390a38086019550828060010193505050505b6111bb565b507f000000000000000000000000000000000000000000000000000000000000000061ffff16841015611416576040517fe246dc6300000000000000000000000000000000000000000000000000000000815260040160405180910390fd5b3373ffffffffffffffffffffffffffffffffffffffff167f5f11830295067c4bcc7d02d4e3b048cd7427be50a3aeb6afc9d3d559ee64bcfa8d7f000000000000000000000000000000000000000000000000000000000000000073ffffffffffffffffffffffffffffffffffffffff166318160ddd6040518163ffffffff1660e01b8152600401602060405180830381865afa1580156114ba573d6000803e3d6000fd5b505050506040513d601f19601f820116820180604052508101906114de9190614ca5565b866040516114ee93929190614d7a565b60405180910390a28a600260008e63ffffffff168152602001908152602001600020819055508b600160000160086101000a81548163ffffffff021916908363ffffffff160217905550505050505050505050505050565b60008060001b830361155b5760009050611573565b611570838386612ba59092919063ffffffff16565b90505b9392505050565b6000806000806000806060806060600080600060016040518060a00160405290816000820160009054906101000a900463ffffffff1663ffffffff1663ffffffff1681526020016000820160049054906101000a900463ffffffff1663ffffffff1663ffffffff1681526020016000820160089054906101000a900463ffffffff1663ffffffff1663ffffffff16815260200160008201600c9054906101000a900463ffffffff1663ffffffff1663ffffffff1681526020016000820160109054906101000a900460ff1615151515815250509050439b5080606001519a50806040015198508899507f000000000000000000000000000000000000000000000000000000000000000091507f000000000000000000000000000000000000000000000000000000000000000073ffffffffffffffffffffffffffffffffffffffff166318160ddd6040518163ffffffff1660e01b8152600401602060405180830381865afa1580156116f1573d6000803e3d6000fd5b505050506040513d601f19601f820116820180604052508101906117159190614ca5565b925060007f000000000000000000000000000000000000000000000000000000000000000073ffffffffffffffffffffffffffffffffffffffff16639031d9136040518163ffffffff1660e01b8152600401602060405180830381865afa158015611784573d6000803e3d6000fd5b505050506040513d601f19601f820116820180604052508101906117a89190614ca5565b90508067ffffffffffffffff8111156117c4576117c3613464565b5b6040519080825280602002602001820160405280156117f25781602001602082028036833780820191505090505b5095508067ffffffffffffffff81111561180f5761180e613464565b5b60405190808252806020026020018201604052801561183d5781602001602082028036833780820191505090505b5096508067ffffffffffffffff81111561185a57611859613464565b5b60405190808252806020026020018201604052801561188d57816020015b60608152602001906001900390816118785790505b50945060005b81811015611b3b577f000000000000000000000000000000000000000000000000000000000000000073ffffffffffffffffffffffffffffffffffffffff1663edf26d9b826040518263ffffffff1660e01b81526004016118f491906144d1565b602060405180830381865afa158015611911573d6000803e3d6000fd5b505050506040513d601f19601f820116820180604052508101906119359190614b57565b88828151811061194857611947614b84565b5b602002602001019073ffffffffffffffffffffffffffffffffffffffff16908173ffffffffffffffffffffffffffffffffffffffff16815250507f000000000000000000000000000000000000000000000000000000000000000073ffffffffffffffffffffffffffffffffffffffff1663fa52c7d88983815181106119d1576119d0614b84565b5b60200260200101516040518263ffffffff1660e01b81526004016119f5919061454f565b600060405180830381865afa158015611a12573d6000803e3d6000fd5b505050506040513d6000823e3d601f19601f82011682018060405250810190611a3b9190614e52565b9050868281518110611a5057611a4f614b84565b5b60200260200101819052507f000000000000000000000000000000000000000000000000000000000000000073ffffffffffffffffffffffffffffffffffffffff166370a08231898381518110611aaa57611aa9614b84565b5b60200260200101516040518263ffffffff1660e01b8152600401611ace919061454f565b602060405180830381865afa158015611aeb573d6000803e3d6000fd5b505050506040513d601f19601f82011682018060405250810190611b0f9190614ca5565b878281518110611b2257611b21614b84565b5b6020026020010181815250508080600101915050611893565b50600182606001518b0101975060008111611b57576000611b7f565b86611b6582600142016122f7565b81518110611b7657611b75614b84565b5b60200260200101515b98505050909192939495969798999a565b60008073ffffffffffffffffffffffffffffffffffffffff167f000000000000000000000000000000000000000000000000000000000000000073ffffffffffffffffffffffffffffffffffffffff1603611c20576040517f08c379a0000000000000000000000000000000000000000000000000000000008152600401611c1790614f0b565b60405180910390fd5b7f000000000000000000000000000000000000000000000000000000000000000073ffffffffffffffffffffffffffffffffffffffff166346bcb49d6040518163ffffffff1660e01b8152600401611c7790614f51565b602060405180830381865afa158015611c94573d6000803e3d6000fd5b505050506040513d601f19601f82011682018060405250810190611cb89190614b57565b905090565b60007f000000000000000000000000000000000000000000000000000000000000000073ffffffffffffffffffffffffffffffffffffffff166346bcb49d6040518163ffffffff1660e01b8152600401611d1690614f90565b602060405180830381865afa158015611d33573d6000803e3d6000fd5b505050506040513d601f19601f82011682018060405250810190611d579190614b57565b905090565b600090565b611d69613271565b73ffffffffffffffffffffffffffffffffffffffff16611d87611f65565b73ffffffffffffffffffffffffffffffffffffffff1614611ddd576040517f08c379a0000000000000000000000000000000000000000000000000000000008152600401611dd490614ff5565b60405180910390fd5b611de76000613279565b565b6000600160000160009054906101000a900463ffffffff16600160000160049054906101000a900463ffffffff16611e219190615015565b63ffffffff16905090565b6000600160000160009054906101000a900463ffffffff16905090565b60008060016040518060a00160405290816000820160009054906101000a900463ffffffff1663ffffffff1663ffffffff1681526020016000820160049054906101000a900463ffffffff1663ffffffff1663ffffffff1681526020016000820160089054906101000a900463ffffffff1663ffffffff1663ffffffff16815260200160008201600c9054906101000a900463ffffffff1663ffffffff1663ffffffff1681526020016000820160109054906101000a900460ff161515151581525050905082816060015182604001510163ffffffff161015611f2f5782915050611f38565b80604001519150505b919050565b60007f0000000000000000000000000000000000000000000000000000000000000000905090565b60008060009054906101000a900473ffffffffffffffffffffffffffffffffffffffff16905090565b6000611fa5600142611fa09190615049565b612914565b905090565b611fb26133c9565b60016040518060a00160405290816000820160009054906101000a900463ffffffff1663ffffffff1663ffffffff1681526020016000820160049054906101000a900463ffffffff1663ffffffff1663ffffffff1681526020016000820160089054906101000a900463ffffffff1663ffffffff1663ffffffff16815260200160008201600c9054906101000a900463ffffffff1663ffffffff1663ffffffff1681526020016000820160109054906101000a900460ff161515151581525050905090565b7f000000000000000000000000000000000000000000000000000000000000000081565b60008060006003600085815260200190815260200160002090508060000160009054906101000a90047bffffffffffffffffffffffffffffffffffffffffffffffffffffffff167bffffffffffffffffffffffffffffffffffffffffffffffffffffffff1681600001601c9054906101000a900463ffffffff168063ffffffff1690509250925050915091565b6000600260008363ffffffff168152602001908152602001600020549050919050565b6060815167ffffffffffffffff81111561216857612167613464565b5b6040519080825280602002602001820160405280156121965781602001602082028036833780820191505090505b5090506000805b835181101561227d5761222c600260008984815181106121c0576121bf614b84565b5b602002602001015163ffffffff168152602001908152602001600020548583815181106121f0576121ef614b84565b5b602002602001015161221d89868a87815181106122105761220f614b84565b5b6020026020010151610c29565b612ba59092919063ffffffff16565b83828151811061223f5761223e614b84565b5b60200260200101901515908115158152505084818151811061226457612263614b84565b5b602002602001015182019150808060010191505061219d565b5050949350505050565b6000600160000160089054906101000a900463ffffffff1663ffffffff16905090565b60026020528060005260406000206000915090505481565b60008060001b600260008463ffffffff16815260200190815260200160002054146122ed57816122f0565b60005b9050919050565b60008060016040518060a00160405290816000820160009054906101000a900463ffffffff1663ffffffff1663ffffffff1681526020016000820160049054906101000a900463ffffffff1663ffffffff1663ffffffff1681526020016000820160089054906101000a900463ffffffff1663ffffffff1663ffffffff16815260200160008201600c9054906101000a900463ffffffff1663ffffffff1663ffffffff1681526020016000820160109054906101000a900460ff16151515158152505090506000600182606001510163ffffffff16826040015163ffffffff168503816123e7576123e661509f565b5b04826020015163ffffffff160190508481816124065761240561509f565b5b069250505092915050565b60036020528060005260406000206000915090508060000160009054906101000a90047bffffffffffffffffffffffffffffffffffffffffffffffffffffffff169080600001601c9054906101000a900463ffffffff16905082565b6000600160000160089054906101000a900463ffffffff16905090565b6000806040518060400160405280601c81526020017f19457468657265756d205369676e6564204d6573736167653a0a333200000000815250866040516020016124d59291906150ce565b604051602081830303815290604052805190602001209050600181868686604051600081526020016040526040516125109493929190615105565b6020604051602081039080840390855afa158015612532573d6000803e3d6000fd5b50505060206040510351915050949350505050565b600080600160000160089054906101000a900463ffffffff1663ffffffff16036125745760009050612580565b61257d42611e49565b90505b90565b7f000000000000000000000000000000000000000000000000000000000000000073ffffffffffffffffffffffffffffffffffffffff163373ffffffffffffffffffffffffffffffffffffffff161415801561261257506125e2611f65565b73ffffffffffffffffffffffffffffffffffffffff163373ffffffffffffffffffffffffffffffffffffffff1614155b15612649576040517f0daa173600000000000000000000000000000000000000000000000000000000815260040160405180910390fd5b600160000160109054906101000a900460ff166129025760007f000000000000000000000000000000000000000000000000000000000000000073ffffffffffffffffffffffffffffffffffffffff166321f8a7216040518163ffffffff1660e01b81526004016126b990614b29565b602060405180830381865afa1580156126d6573d6000803e3d6000fd5b505050506040513d601f19601f820116820180604052508101906126fa9190614b57565b90503073ffffffffffffffffffffffffffffffffffffffff168173ffffffffffffffffffffffffffffffffffffffff1603612761576040517ff8e0084400000000000000000000000000000000000000000000000000000000815260040160405180910390fd5b7f00000000000000000000000000000000000000000000000000000000000000006128a0573073ffffffffffffffffffffffffffffffffffffffff16636d046c3e6040518163ffffffff1660e01b8152600401602060405180830381865afa1580156127d1573d6000803e3d6000fd5b505050506040513d601f19601f820116820180604052508101906127f59190615176565b15158173ffffffffffffffffffffffffffffffffffffffff16636d046c3e6040518163ffffffff1660e01b8152600401602060405180830381865afa158015612842573d6000803e3d6000fd5b505050506040513d601f19601f820116820180604052508101906128669190615176565b15151461289f576040517f07b72f5e00000000000000000000000000000000000000000000000000000000815260040160405180910390fd5b5b60018060000160106101000a81548160ff0219169083151502179055503373ffffffffffffffffffffffffffffffffffffffff167fd4ae81319f0b4df100dcda9ce971671b97278c7a5ce6b37a8331a44700679fd460405160405180910390a2505b565b600061290f42612914565b905090565b6000807f000000000000000000000000000000000000000000000000000000000000000073ffffffffffffffffffffffffffffffffffffffff16639031d9136040518163ffffffff1660e01b8152600401602060405180830381865afa158015612982573d6000803e3d6000fd5b505050506040513d601f19601f820116820180604052508101906129a69190614ca5565b9050600081036129ba576000915050612a67565b60006129c682856122f7565b90507f000000000000000000000000000000000000000000000000000000000000000073ffffffffffffffffffffffffffffffffffffffff1663edf26d9b826040518263ffffffff1660e01b8152600401612a2191906144d1565b602060405180830381865afa158015612a3e573d6000803e3d6000fd5b505050506040513d601f19601f82011682018060405250810190612a629190614b57565b925050505b919050565b612a74613412565b6040518060400160405280600260008581526020019081526020016000205481526020018363ffffffff168152509050919050565b612ab1613271565b73ffffffffffffffffffffffffffffffffffffffff16612acf611f65565b73ffffffffffffffffffffffffffffffffffffffff1614612b25576040517f08c379a0000000000000000000000000000000000000000000000000000000008152600401612b1c90614ff5565b60405180910390fd5b600073ffffffffffffffffffffffffffffffffffffffff168173ffffffffffffffffffffffffffffffffffffffff1603612b94576040517f08c379a0000000000000000000000000000000000000000000000000000000008152600401612b8b90615215565b60405180910390fd5b612b9d81613279565b50565b600281565b600082612bb2858461333d565b1490509392505050565b6000808273ffffffffffffffffffffffffffffffffffffffff167fffa1ad74ba96b4c159a84d090433911c3991c54f629eb60d0c84aed3be5f067c604051602001612c079190615270565b604051602081830303815290604052604051612c23919061528b565b600060405180830381855afa9150503d8060008114612c5e576040519150601f19603f3d011682016040523d82523d6000602084013e612c63565b606091505b5091509150600082612c76576001612c8b565b81806020019051810190612c8a9190614ca5565b5b905060018103612e0b5760008473ffffffffffffffffffffffffffffffffffffffff1663d3d3ea086040518163ffffffff1660e01b8152600401602060405180830381865afa158015612ce2573d6000803e3d6000fd5b505050506040513d601f19601f82011682018060405250810190612d0691906152b7565b90508473ffffffffffffffffffffffffffffffffffffffff1663c3369db8826040518263ffffffff1660e01b8152600401612d4191906144ec565b602060405180830381865afa158015612d5e573d6000803e3d6000fd5b505050506040513d601f19601f82011682018060405250810190612d8291906152b7565b600160000160086101000a81548163ffffffff021916908363ffffffff160217905550600281612db291906152e4565b600160000160046101000a81548163ffffffff021916908363ffffffff160217905550600281612de291906152e4565b600160000160006101000a81548163ffffffff021916908363ffffffff16021790555050612ef8565b60008473ffffffffffffffffffffffffffffffffffffffff1663a0bc93746040518163ffffffff1660e01b815260040160a060405180830381865afa158015612e58573d6000803e3d6000fd5b505050506040513d601f19601f82011682018060405250810190612e7c91906153af565b90508060200151600160000160046101000a81548163ffffffff021916908363ffffffff1602179055508060200151600160000160006101000a81548163ffffffff021916908363ffffffff1602179055508060400151600160000160086101000a81548163ffffffff021916908363ffffffff160217905550505b50505050565b60008060007bffffffffffffffffffffffffffffffffffffffffffffffffffffffff90506002600182612f3191906153dc565b612f3b9190615410565b7bffffffffffffffffffffffffffffffffffffffffffffffffffffffff16847bffffffffffffffffffffffffffffffffffffffffffffffffffffffff1611612f905760008401915081601b0b92505050612fa1565b600181850303915081601b0b925050505b919050565b612fae613271565b73ffffffffffffffffffffffffffffffffffffffff16612fcc611f65565b73ffffffffffffffffffffffffffffffffffffffff1614613022576040517f08c379a000000000000000000000000000000000000000000000000000000000815260040161301990614ff5565b60405180910390fd5b8063ffffffff166001600001600c9054906101000a900463ffffffff1663ffffffff160361307c576040517f96f56f6a00000000000000000000000000000000000000000000000000000000815260040160405180910390fd5b806001600001600c6101000a81548163ffffffff021916908363ffffffff1602179055503373ffffffffffffffffffffffffffffffffffffffff167f02ff77a0f68d11f7efb906f331b2dda82916de8ba9c37dda2a95817936a530ec826040516130e691906144ec565b60405180910390a250565b600060016040518060a00160405290816000820160009054906101000a900463ffffffff1663ffffffff1663ffffffff1681526020016000820160049054906101000a900463ffffffff1663ffffffff1663ffffffff1681526020016000820160089054906101000a900463ffffffff1663ffffffff1663ffffffff16815260200160008201600c9054906101000a900463ffffffff1663ffffffff1663ffffffff1681526020016000820160109054906101000a900460ff16151515158152505090506000816040015163ffffffff16036131f9576040517f96a96e1700000000000000000000000000000000000000000000000000000000815260040160405180910390fd5b81816060015182604001510163ffffffff1610613242576040517ff886149e00000000000000000000000000000000000000000000000000000000815260040160405180910390fd5b6001816020015101600160000160046101000a81548163ffffffff021916908363ffffffff1602179055505050565b600033905090565b60008060009054906101000a900473ffffffffffffffffffffffffffffffffffffffff169050816000806101000a81548173ffffffffffffffffffffffffffffffffffffffff021916908373ffffffffffffffffffffffffffffffffffffffff1602179055508173ffffffffffffffffffffffffffffffffffffffff168173ffffffffffffffffffffffffffffffffffffffff167f8be0079c531659141344cd1fd0a4f28419497f9722a3daafe3b4186f6b6457e060405160405180910390a35050565b60008082905060005b84518110156133a757600085828151811061336457613363614b84565b5b602002602001015190508083116133865761337f83826133b2565b9250613393565b61339081846133b2565b92505b50808061339f90614d01565b915050613346565b508091505092915050565b600082600052816020526040600020905092915050565b6040518060a00160405280600063ffffffff168152602001600063ffffffff168152602001600063ffffffff168152602001600063ffffffff1681526020016000151581525090565b604051806040016040528060008019168152602001600063ffffffff1681525090565b6000604051905090565b600080fd5b600080fd5b600080fd5b600080fd5b6000601f19601f8301169050919050565b7f4e487b7100000000000000000000000000000000000000000000000000000000600052604160045260246000fd5b61349c82613453565b810181811067ffffffffffffffff821117156134bb576134ba613464565b5b80604052505050565b60006134ce613435565b90506134da8282613493565b919050565b600067ffffffffffffffff8211156134fa576134f9613464565b5b61350382613453565b9050602081019050919050565b82818337600083830152505050565b600061353261352d846134df565b6134c4565b90508281526020810184848401111561354e5761354d61344e565b5b613559848285613510565b509392505050565b600082601f83011261357657613575613449565b5b813561358684826020860161351f565b91505092915050565b600080604083850312156135a6576135a561343f565b5b600083013567ffffffffffffffff8111156135c4576135c3613444565b5b6135d085828601613561565b925050602083013567ffffffffffffffff8111156135f1576135f0613444565b5b6135fd85828601613561565b9150509250929050565b6000819050919050565b61361a81613607565b82525050565b60006020820190506136356000830184613611565b92915050565b6000819050919050565b61364e8161363b565b811461365957600080fd5b50565b60008135905061366b81613645565b92915050565b600067ffffffffffffffff82111561368c5761368b613464565b5b602082029050602081019050919050565b600080fd5b6136ab81613607565b81146136b657600080fd5b50565b6000813590506136c8816136a2565b92915050565b60006136e16136dc84613671565b6134c4565b905080838252602082019050602084028301858111156137045761370361369d565b5b835b8181101561372d578061371988826136b9565b845260208401935050602081019050613706565b5050509392505050565b600082601f83011261374c5761374b613449565b5b813561375c8482602086016136ce565b91505092915050565b6000806000806080858703121561377f5761377e61343f565b5b600061378d8782880161365c565b945050602085013567ffffffffffffffff8111156137ae576137ad613444565b5b6137ba87828801613737565b935050604085013567ffffffffffffffff8111156137db576137da613444565b5b6137e787828801613561565b925050606085013567ffffffffffffffff81111561380857613807613444565b5b61381487828801613561565b91505092959194509250565b60008115159050919050565b61383581613820565b82525050565b6000602082019050613850600083018461382c565b92915050565b60008060006060848603121561386f5761386e61343f565b5b600084013567ffffffffffffffff81111561388d5761388c613444565b5b61389986828701613561565b93505060206138aa8682870161365c565b92505060406138bb8682870161365c565b9150509250925092565b600081519050919050565b600082825260208201905092915050565b6000819050602082019050919050565b6138fa81613607565b82525050565b600061390c83836138f1565b60208301905092915050565b6000602082019050919050565b6000613930826138c5565b61393a81856138d0565b9350613945836138e1565b8060005b8381101561397657815161395d8882613900565b975061396883613918565b925050600181019050613949565b5085935050505092915050565b6000602082019050818103600083015261399d8184613925565b905092915050565b600081519050919050565b600082825260208201905092915050565b60005b838110156139df5780820151818401526020810190506139c4565b838111156139ee576000848401525b50505050565b60006139ff826139a5565b613a0981856139b0565b9350613a198185602086016139c1565b613a2281613453565b840191505092915050565b60006020820190508181036000830152613a4781846139f4565b905092915050565b600080fd5b60008083601f840112613a6a57613a69613449565b5b8235905067ffffffffffffffff811115613a8757613a86613a4f565b5b602083019150836020820283011115613aa357613aa261369d565b5b9250929050565b60008060208385031215613ac157613ac061343f565b5b600083013567ffffffffffffffff811115613adf57613ade613444565b5b613aeb85828601613a54565b92509250509250929050565b600081519050919050565b600082825260208201905092915050565b6000819050602082019050919050565b613b2c8161363b565b82525050565b6000613b3e8383613b23565b60208301905092915050565b6000602082019050919050565b6000613b6282613af7565b613b6c8185613b02565b9350613b7783613b13565b8060005b83811015613ba8578151613b8f8882613b32565b9750613b9a83613b4a565b925050600181019050613b7b565b5085935050505092915050565b600081519050919050565b600082825260208201905092915050565b6000819050602082019050919050565b600063ffffffff82169050919050565b613bfa81613be1565b82525050565b6000613c0c8383613bf1565b60208301905092915050565b6000602082019050919050565b6000613c3082613bb5565b613c3a8185613bc0565b9350613c4583613bd1565b8060005b83811015613c76578151613c5d8882613c00565b9750613c6883613c18565b925050600181019050613c49565b5085935050505092915050565b60006040820190508181036000830152613c9d8185613b57565b90508181036020830152613cb18184613c25565b90509392505050565b600073ffffffffffffffffffffffffffffffffffffffff82169050919050565b6000819050919050565b6000613cff613cfa613cf584613cba565b613cda565b613cba565b9050919050565b6000613d1182613ce4565b9050919050565b6000613d2382613d06565b9050919050565b613d3381613d18565b82525050565b6000602082019050613d4e6000830184613d2a565b92915050565b600060208284031215613d6a57613d6961343f565b5b6000613d78848285016136b9565b91505092915050565b6000819050919050565b613d9481613d81565b82525050565b613da38161363b565b82525050565b6000604082019050613dbe6000830185613d8b565b613dcb6020830184613d9a565b9392505050565b600061ffff82169050919050565b613de981613dd2565b8114613df457600080fd5b50565b600081359050613e0681613de0565b92915050565b600060208284031215613e2257613e2161343f565b5b6000613e3084828501613df7565b91505092915050565b613e4281613be1565b8114613e4d57600080fd5b50565b600081359050613e5f81613e39565b92915050565b600067ffffffffffffffff821115613e8057613e7f613464565b5b602082029050602081019050919050565b6000613ea4613e9f84613e65565b6134c4565b90508083825260208201905060208402830185811115613ec757613ec661369d565b5b835b81811015613ef05780613edc888261365c565b845260208401935050602081019050613ec9565b5050509392505050565b600082601f830112613f0f57613f0e613449565b5b8135613f1f848260208601613e91565b91505092915050565b600067ffffffffffffffff821115613f4357613f42613464565b5b602082029050602081019050919050565b600060ff82169050919050565b613f6a81613f54565b8114613f7557600080fd5b50565b600081359050613f8781613f61565b92915050565b6000613fa0613f9b84613f28565b6134c4565b90508083825260208201905060208402830185811115613fc357613fc261369d565b5b835b81811015613fec5780613fd88882613f78565b845260208401935050602081019050613fc5565b5050509392505050565b600082601f83011261400b5761400a613449565b5b813561401b848260208601613f8d565b91505092915050565b600080600080600080600060e0888a0312156140435761404261343f565b5b60006140518a828b01613e50565b97505060206140628a828b016136b9565b965050604088013567ffffffffffffffff81111561408357614082613444565b5b61408f8a828b01613737565b955050606088013567ffffffffffffffff8111156140b0576140af613444565b5b6140bc8a828b01613efa565b945050608088013567ffffffffffffffff8111156140dd576140dc613444565b5b6140e98a828b01613ff6565b93505060a088013567ffffffffffffffff81111561410a57614109613444565b5b6141168a828b01613737565b92505060c088013567ffffffffffffffff81111561413757614136613444565b5b6141438a828b01613737565b91505092959891949750929550565b60008060006060848603121561416b5761416a61343f565b5b600084013567ffffffffffffffff81111561418957614188613444565b5b61419586828701613737565b93505060206141a6868287016136b9565b92505060406141b7868287016136b9565b9150509250925092565b6141ca81613be1565b82525050565b60006141db82613cba565b9050919050565b6141eb816141d0565b82525050565b600081519050919050565b600082825260208201905092915050565b6000819050602082019050919050565b614226816141d0565b82525050565b6000614238838361421d565b60208301905092915050565b6000602082019050919050565b600061425c826141f1565b61426681856141fc565b93506142718361420d565b8060005b838110156142a2578151614289888261422c565b975061429483614244565b925050600181019050614275565b5085935050505092915050565b600081519050919050565b600082825260208201905092915050565b6000819050602082019050919050565b600081519050919050565b600082825260208201905092915050565b6000614302826142db565b61430c81856142e6565b935061431c8185602086016139c1565b61432581613453565b840191505092915050565b600061433c83836142f7565b905092915050565b6000602082019050919050565b600061435c826142af565b61436681856142ba565b935083602082028501614378856142cb565b8060005b858110156143b457848403895281516143958582614330565b94506143a083614344565b925060208a0199505060018101905061437c565b50829750879550505050505092915050565b6143cf81613dd2565b82525050565b6000610160820190506143eb600083018e613d9a565b6143f8602083018d6141c1565b614405604083018c6141c1565b614412606083018b6141c1565b61441f608083018a6141e2565b61442c60a08301896141c1565b81810360c083015261443e8188614251565b905081810360e08301526144528187613b57565b90508181036101008301526144678186614351565b9050614477610120830185613d9a565b6144856101408301846143c6565b9c9b505050505050505050505050565b60006144a082613d06565b9050919050565b6144b081614495565b82525050565b60006020820190506144cb60008301846144a7565b92915050565b60006020820190506144e66000830184613d9a565b92915050565b600060208201905061450160008301846141c1565b92915050565b60006020828403121561451d5761451c61343f565b5b600061452b8482850161365c565b91505092915050565b600060208201905061454960008301846143c6565b92915050565b600060208201905061456460008301846141e2565b92915050565b61457381613820565b82525050565b60a08201600082015161458f6000850182613bf1565b5060208201516145a26020850182613bf1565b5060408201516145b56040850182613bf1565b5060608201516145c86060850182613bf1565b5060808201516145db608085018261456a565b50505050565b600060a0820190506145f66000830184614579565b92915050565b600061460782613d06565b9050919050565b614617816145fc565b82525050565b6000602082019050614632600083018461460e565b92915050565b600060408201905061464d6000830185613d9a565b61465a6020830184613d9a565b9392505050565b6000602082840312156146775761467661343f565b5b600061468584828501613e50565b91505092915050565b600067ffffffffffffffff8211156146a9576146a8613464565b5b602082029050602081019050919050565b60006146cd6146c88461468e565b6134c4565b905080838252602082019050602084028301858111156146f0576146ef61369d565b5b835b8181101561471957806147058882613e50565b8452602084019350506020810190506146f2565b5050509392505050565b600082601f83011261473857614737613449565b5b81356147488482602086016146ba565b91505092915050565b6000806000806080858703121561476b5761476a61343f565b5b600085013567ffffffffffffffff81111561478957614788613444565b5b61479587828801614723565b945050602085013567ffffffffffffffff8111156147b6576147b5613444565b5b6147c287828801613561565b935050604085013567ffffffffffffffff8111156147e3576147e2613444565b5b6147ef87828801613efa565b925050606085013567ffffffffffffffff8111156148105761480f613444565b5b61481c87828801613737565b91505092959194509250565b600081519050919050565b600082825260208201905092915050565b6000819050602082019050919050565b6000614860838361456a565b60208301905092915050565b6000602082019050919050565b600061488482614828565b61488e8185614833565b935061489983614844565b8060005b838110156148ca5781516148b18882614854565b97506148bc8361486c565b92505060018101905061489d565b5085935050505092915050565b600060208201905081810360008301526148f18184614879565b905092915050565b600080604083850312156149105761490f61343f565b5b600061491e8582860161365c565b925050602061492f8582860161365c565b9150509250929050565b60007bffffffffffffffffffffffffffffffffffffffffffffffffffffffff82169050919050565b61496a81614939565b82525050565b60006040820190506149856000830185614961565b61499260208301846141c1565b9392505050565b600080600080608085870312156149b3576149b261343f565b5b60006149c1878288016136b9565b94505060206149d287828801613f78565b93505060406149e3878288016136b9565b92505060606149f4878288016136b9565b91505092959194509250565b604082016000820151614a1660008501826138f1565b506020820151614a296020850182613bf1565b50505050565b6000604082019050614a446000830184614a00565b92915050565b614a53816141d0565b8114614a5e57600080fd5b50565b600081359050614a7081614a4a565b92915050565b600060208284031215614a8c57614a8b61343f565b5b6000614a9a84828501614a61565b91505092915050565b600081905092915050565b6000614ab9826139a5565b614ac38185614aa3565b9350614ad38185602086016139c1565b80840191505092915050565b6000614aeb8285614aae565b9150614af78284614aae565b91508190509392505050565b7f436861696e000000000000000000000000000000000000000000000000000000815250565b6000602082019050614b3d60008301614b03565b919050565b600081519050614b5181614a4a565b92915050565b600060208284031215614b6d57614b6c61343f565b5b6000614b7b84828501614b42565b91505092915050565b7f4e487b7100000000000000000000000000000000000000000000000000000000600052603260045260246000fd5b60008160e01b9050919050565b6000614bcb82614bb3565b9050919050565b614be3614bde82613be1565b614bc0565b82525050565b6000819050919050565b614c04614bff82613607565b614be9565b82525050565b6000614c168285614bd2565b600482019150614c268284614bf3565b6020820191508190509392505050565b6000819050919050565b614c51614c4c8261363b565b614c36565b82525050565b6000614c638286614aae565b9150614c6f8285614bf3565b602082019150614c7f8284614c40565b602082019150819050949350505050565b600081519050614c9f81613645565b92915050565b600060208284031215614cbb57614cba61343f565b5b6000614cc984828501614c90565b91505092915050565b7f4e487b7100000000000000000000000000000000000000000000000000000000600052601160045260246000fd5b6000614d0c8261363b565b91507fffffffffffffffffffffffffffffffffffffffffffffffffffffffffffffffff8203614d3e57614d3d614cd2565b5b600182019050919050565b6000614d64614d5f614d5a84613be1565b613cda565b61363b565b9050919050565b614d7481614d49565b82525050565b6000606082019050614d8f6000830186614d6b565b614d9c6020830185613d9a565b614da96040830184613d9a565b949350505050565b600067ffffffffffffffff821115614dcc57614dcb613464565b5b614dd582613453565b9050602081019050919050565b6000614df5614df084614db1565b6134c4565b905082815260208101848484011115614e1157614e1061344e565b5b614e1c8482856139c1565b509392505050565b600082601f830112614e3957614e38613449565b5b8151614e49848260208601614de2565b91505092915050565b60008060408385031215614e6957614e6861343f565b5b6000614e7785828601614b42565b925050602083015167ffffffffffffffff811115614e9857614e97613444565b5b614ea485828601614e24565b9150509250929050565b600082825260208201905092915050565b7f5f726567697374727920697320656d7074790000000000000000000000000000600082015250565b6000614ef5601283614eae565b9150614f0082614ebf565b602082019050919050565b60006020820190508181036000830152614f2481614ee8565b9050919050565b7f554d420000000000000000000000000000000000000000000000000000000000815250565b6000602082019050614f6560008301614f2b565b919050565b7f5374616b696e6742616e6b000000000000000000000000000000000000000000815250565b6000602082019050614fa460008301614f6a565b919050565b7f4f776e61626c653a2063616c6c6572206973206e6f7420746865206f776e6572600082015250565b6000614fdf602083614eae565b9150614fea82614fa9565b602082019050919050565b6000602082019050818103600083015261500e81614fd2565b9050919050565b600061502082613be1565b915061502b83613be1565b92508282101561503e5761503d614cd2565b5b828203905092915050565b60006150548261363b565b915061505f8361363b565b9250827fffffffffffffffffffffffffffffffffffffffffffffffffffffffffffffffff0382111561509457615093614cd2565b5b828201905092915050565b7f4e487b7100000000000000000000000000000000000000000000000000000000600052601260045260246000fd5b60006150da8285614aae565b91506150e68284614bf3565b6020820191508190509392505050565b6150ff81613f54565b82525050565b600060808201905061511a6000830187613611565b61512760208301866150f6565b6151346040830185613611565b6151416060830184613611565b95945050505050565b61515381613820565b811461515e57600080fd5b50565b6000815190506151708161514a565b92915050565b60006020828403121561518c5761518b61343f565b5b600061519a84828501615161565b91505092915050565b7f4f776e61626c653a206e6577206f776e657220697320746865207a65726f206160008201527f6464726573730000000000000000000000000000000000000000000000000000602082015250565b60006151ff602683614eae565b915061520a826151a3565b604082019050919050565b6000602082019050818103600083015261522e816151f2565b9050919050565b60007fffffffff0000000000000000000000000000000000000000000000000000000082169050919050565b61526a81615235565b82525050565b60006020820190506152856000830184615261565b92915050565b60006152978284614aae565b915081905092915050565b6000815190506152b181613e39565b92915050565b6000602082840312156152cd576152cc61343f565b5b60006152db848285016152a2565b91505092915050565b60006152ef82613be1565b91506152fa83613be1565b92508263ffffffff0382111561531357615312614cd2565b5b828201905092915050565b600080fd5b600060a082840312156153395761533861531e565b5b61534360a06134c4565b90506000615353848285016152a2565b6000830152506020615367848285016152a2565b602083015250604061537b848285016152a2565b604083015250606061538f848285016152a2565b60608301525060806153a384828501615161565b60808301525092915050565b600060a082840312156153c5576153c461343f565b5b60006153d384828501615323565b91505092915050565b60006153e782614939565b91506153f283614939565b92508282101561540557615404614cd2565b5b828203905092915050565b600061541b82614939565b915061542683614939565b9250826154365761543561509f565b5b82820490509291505056fea26469706673582212203b81b49a36eda6df7e65aadbd98f4c4b7adc76975d4d22afe7d3b46145920afd64736f6c634300080d0033",
  "devdoc": {
    "kind": "dev",
    "methods": {
      "blocks(uint256)": {
        "params": {
          "_blockId": "ID of submitted block"
        },
        "returns": {
          "_0": "block data (root + timestamp)"
        }
      },
      "blocksCount()": {
        "details": "number of blocks (consensus rounds) saved in this contract"
      },
      "bytesToBytes32Array(bytes,uint256,uint256)": {
        "details": "this is helper method, that extracts one merkle proof from many hashed provided as bytes",
        "params": {
          "_data": "many hashes as bytes",
          "_items": "how many hashes to extract",
          "_offset": "this is starting point for extraction"
        },
        "returns": {
          "_0": "merkle proof (array of bytes32 hashes)"
        }
      },
      "constructor": {
        "params": {
          "_allowForMixedType": "we have two \"types\" of Chain: HomeChain and ForeignChain, when we redeploying we don't want to mix up them, so we checking, if new Chain has the same type as current one. However, when we will be switching from one homechain to another one, we have to allow for this mixing up. This flag will tell contract, if this is the case.",
          "_contractRegistry": "Registry address",
          "_padding": "required \"space\" between blocks in seconds",
          "_requiredSignatures": "number of required signatures for accepting consensus submission"
        }
      },
      "getBlockId()": {
        "returns": {
          "_0": "current block ID please note, that current ID is not the same as last ID, current means that once padding pass, ID will switch to next one and it will be pointing to empty submit until submit for that ID is done"
        }
      },
      "getBlockIdAtTimestamp(uint256)": {
        "details": "calculates block ID for provided timestamp this function does not works for past timestamps",
        "params": {
          "_timestamp": "current or future timestamp"
        },
        "returns": {
          "_0": "block ID for provided timestamp"
        }
      },
      "getBlockRoot(uint32)": {
        "params": {
          "_blockId": "consensus ID"
        },
        "returns": {
          "_0": "root for provided consensus ID"
        }
      },
      "getBlockTimestamp(uint32)": {
        "params": {
          "_blockId": "consensus ID"
        },
        "returns": {
          "_0": "timestamp for provided consensus ID"
        }
      },
      "getConsensusData()": {
        "details": "getter for `_consensusData`"
      },
      "getCurrentIntValue(bytes32)": {
        "details": "getter for single FCD value in case its type is `int`",
        "params": {
          "_key": "FCD key"
        },
        "returns": {
          "timestamp": "FCD timestamp",
          "value": "FCD value"
        }
      },
      "getCurrentValue(bytes32)": {
        "details": "getter for single FCD value",
        "params": {
          "_key": "FCD key"
        },
        "returns": {
          "timestamp": "FCD timestamp",
          "value": "FCD value"
        }
      },
      "getCurrentValues(bytes32[])": {
        "details": "batch getter for FCDs",
        "params": {
          "_keys": "FCDs keys to fetch"
        },
        "returns": {
          "timestamps": "array of FCDs timestamps",
          "values": "array of FCDs values"
        }
      },
      "getLatestBlockId()": {
        "returns": {
          "_0": "last submitted block ID, please note, that on deployment, when there is no submission for this contract block for last ID will be available in previous contract"
        }
      },
      "getLeaderAddress()": {
        "returns": {
          "_0": "address of current leader"
        }
      },
      "getLeaderAddressAtTime(uint256)": {
        "params": {
          "_timestamp": "timestamp for which you want to calculate leader address"
        },
        "returns": {
          "_0": "leader address for provider timestamp"
        }
      },
      "getLeaderIndex(uint256,uint256)": {
        "params": {
          "_numberOfValidators": "total number of validators",
          "_timestamp": "timestamp for which you want to calculate index"
        },
        "returns": {
          "_0": "leader index, use it for StakingBank.addresses[index] to fetch leader address"
        }
      },
      "getName()": {
        "returns": {
          "_0": "contract name as bytes32"
        }
      },
      "getNextLeaderAddress()": {
        "returns": {
          "_0": "address of leader for next second"
        }
      },
      "getStatus()": {
        "details": "helper method that returns all important data about current state of contract",
        "returns": {
          "blockNumber": "`block.number`",
          "lastDataTimestamp": "timestamp for last submitted consensus",
          "lastId": "ID of last submitted consensus",
          "locations": "array of all validators locations",
          "minSignatures": "`this.requiredSignatures`",
          "nextBlockId": "block ID for `block.timestamp + padding`",
          "nextLeader": "leader for `block.timestamp + 1`",
          "powers": "array of all validators powers",
          "staked": "total UMB staked by validators",
          "timePadding": "`this.padding`",
          "validators": "array of all validators addresses"
        }
      },
      "hashLeaf(bytes,bytes)": {
        "details": "creates leaf hash, that has is used in merkle tree",
        "params": {
          "_key": "key under which we store the value",
          "_value": "value itself as bytes"
        },
        "returns": {
          "_0": "leaf hash"
        }
      },
      "isForeign()": {
        "returns": {
          "_0": "TRUE if contract is ForeignChain, FALSE otherwise"
        }
      },
      "owner()": {
        "details": "Returns the address of the current owner."
      },
      "recoverSigner(bytes32,uint8,bytes32,bytes32)": {
        "params": {
          "_affidavit": "root and FCDs hashed together",
          "_r": "part of signature",
          "_s": "part of signature",
          "_v": "part of signature"
        },
        "returns": {
          "_0": "signer address"
        }
      },
      "register()": {
        "details": "this method will be called as a first method in registration process when old contract will be replaced when called, old contract address is still in registry"
      },
      "renounceOwnership()": {
        "details": "Leaves the contract without owner. It will not be possible to call `onlyOwner` functions anymore. Can only be called by the current owner. NOTE: Renouncing ownership will leave the contract without an owner, thereby removing any functionality that is only available to the owner."
      },
      "setPadding(uint16)": {
        "details": "setter for `padding`"
      },
      "stakingBankContract()": {
        "details": "helper method for fetching StakingBank address"
      },
      "submit(uint32,bytes32,bytes32[],uint256[],uint8[],bytes32[],bytes32[])": {
        "details": "method for submitting consensus data",
        "params": {
          "_dataTimestamp": "consensus timestamp, this is time for all data in merkle tree including FCDs",
          "_keys": "FCDs keys",
          "_r": "array of `r` part of validators signatures",
          "_root": "merkle root",
          "_s": "array of `s` part of validators signatures",
          "_v": "array of `v` part of validators signatures",
          "_values": "FCDs values"
        }
      },
      "tokenContract()": {
        "details": "helper method for fetching UMB address"
      },
      "transferOwnership(address)": {
        "details": "Transfers ownership of the contract to a new account (`newOwner`). Can only be called by the current owner."
      },
      "unregister()": {
        "details": "this method will be called as a last method in registration process when old contract will be replaced when called, new contract address is already in registry"
      },
      "verifyProof(bytes32[],bytes32,bytes32)": {
        "details": "verifies if the leaf is valid leaf for merkle tree",
        "params": {
          "_leaf": "leaf hash",
          "_proof": "merkle proof for merkle tree",
          "_root": "merkle root"
        },
        "returns": {
          "_0": "TRUE if `_leaf` is valid, FALSE otherwise"
        }
      },
      "verifyProofForBlock(uint256,bytes32[],bytes,bytes)": {
        "details": "verifies, if provided key-value pair was part of consensus",
        "params": {
          "_blockId": "consensus ID for which we doing a check",
          "_key": "pair key",
          "_proof": "merkle proof for pair",
          "_value": "pair value"
        },
        "returns": {
          "_0": "TRUE if key-value par was part of consensus, FALSE otherwise"
        }
      },
      "verifyProofs(uint32[],bytes,uint256[],bytes32[])": {
        "details": "batch method for data verification",
        "params": {
          "_blockIds": "consensus IDs for which we doing a checks",
          "_leaves": "array of merkle leaves",
          "_proofItemsCounter": "array of counters, each counter tells how many hashes proof for each leaf has",
          "_proofs": "merkle proofs for all pair, sequence of hashes provided as bytes"
        },
        "returns": {
          "results": "array of verification results, TRUE if leaf is part of consensus, FALSE otherwise"
        }
      }
    },
    "version": 1
  },
  "userdoc": {
    "kind": "user",
    "methods": {
      "deprecate()": {
        "notice": "it allows to deprecate contract manually Only new Registry calls `unregister()` where we set deprecated to true In old Registries we don't have this feature, so in order to safely redeploy new Chain we will have to first deprecate current contract manually, then register new contract"
      },
      "register()": {
        "notice": "if this method needs to be called manually (not from Registry) it is important to do it as part of tx batch eg using multisig, we should prepare set of transactions and confirm them all at once"
      }
    },
    "version": 1
  },
  "storageLayout": {
    "storage": [
      {
        "astId": 7,
        "contract": "contracts/Chain.sol:Chain",
        "label": "_owner",
        "offset": 0,
        "slot": "0",
        "type": "t_address"
      },
      {
        "astId": 1028,
        "contract": "contracts/Chain.sol:Chain",
        "label": "_consensusData",
        "offset": 0,
        "slot": "1",
        "type": "t_struct(ConsensusData)1009_storage"
      },
      {
        "astId": 1036,
        "contract": "contracts/Chain.sol:Chain",
        "label": "roots",
        "offset": 0,
        "slot": "2",
        "type": "t_mapping(t_uint256,t_bytes32)"
      },
      {
        "astId": 1042,
        "contract": "contracts/Chain.sol:Chain",
        "label": "fcds",
        "offset": 0,
        "slot": "3",
        "type": "t_mapping(t_bytes32,t_struct(FirstClassData)998_storage)"
      }
    ],
    "types": {
      "t_address": {
        "encoding": "inplace",
        "label": "address",
        "numberOfBytes": "20"
      },
      "t_bool": {
        "encoding": "inplace",
        "label": "bool",
        "numberOfBytes": "1"
      },
      "t_bytes32": {
        "encoding": "inplace",
        "label": "bytes32",
        "numberOfBytes": "32"
      },
      "t_mapping(t_bytes32,t_struct(FirstClassData)998_storage)": {
        "encoding": "mapping",
        "key": "t_bytes32",
        "label": "mapping(bytes32 => struct BaseChain.FirstClassData)",
        "numberOfBytes": "32",
        "value": "t_struct(FirstClassData)998_storage"
      },
      "t_mapping(t_uint256,t_bytes32)": {
        "encoding": "mapping",
        "key": "t_uint256",
        "label": "mapping(uint256 => bytes32)",
        "numberOfBytes": "32",
        "value": "t_bytes32"
      },
      "t_struct(ConsensusData)1009_storage": {
        "encoding": "inplace",
        "label": "struct BaseChain.ConsensusData",
        "members": [
          {
            "astId": 1000,
            "contract": "contracts/Chain.sol:Chain",
            "label": "blocksCountOffset",
            "offset": 0,
            "slot": "0",
            "type": "t_uint32"
          },
          {
            "astId": 1002,
            "contract": "contracts/Chain.sol:Chain",
            "label": "sequence",
            "offset": 4,
            "slot": "0",
            "type": "t_uint32"
          },
          {
            "astId": 1004,
            "contract": "contracts/Chain.sol:Chain",
            "label": "lastTimestamp",
            "offset": 8,
            "slot": "0",
            "type": "t_uint32"
          },
          {
            "astId": 1006,
            "contract": "contracts/Chain.sol:Chain",
            "label": "padding",
            "offset": 12,
            "slot": "0",
            "type": "t_uint32"
          },
          {
            "astId": 1008,
            "contract": "contracts/Chain.sol:Chain",
            "label": "deprecated",
            "offset": 16,
            "slot": "0",
            "type": "t_bool"
          }
        ],
        "numberOfBytes": "32"
      },
      "t_struct(FirstClassData)998_storage": {
        "encoding": "inplace",
        "label": "struct BaseChain.FirstClassData",
        "members": [
          {
            "astId": 995,
            "contract": "contracts/Chain.sol:Chain",
            "label": "value",
            "offset": 0,
            "slot": "0",
            "type": "t_uint224"
          },
          {
            "astId": 997,
            "contract": "contracts/Chain.sol:Chain",
            "label": "dataTimestamp",
            "offset": 28,
            "slot": "0",
            "type": "t_uint32"
          }
        ],
        "numberOfBytes": "32"
      },
      "t_uint224": {
        "encoding": "inplace",
        "label": "uint224",
        "numberOfBytes": "28"
      },
      "t_uint256": {
        "encoding": "inplace",
        "label": "uint256",
        "numberOfBytes": "32"
      },
      "t_uint32": {
        "encoding": "inplace",
        "label": "uint32",
        "numberOfBytes": "4"
      }
    }
  }
}