{
  "address": "0xb2C6c4162c0d2B6963C62A9133331b4D0359AA34",
  "abi": [
    {
      "inputs": [],
      "name": "ArraysDataDoNotMatch",
      "type": "error"
    },
    {
      "inputs": [],
      "name": "NameNotRegistered",
      "type": "error"
    },
    {
      "anonymous": false,
      "inputs": [
        {
          "indexed": true,
          "internalType": "address",
          "name": "destination",
          "type": "address"
        },
        {
          "indexed": false,
          "internalType": "bytes32",
          "name": "name",
          "type": "bytes32"
        }
      ],
      "name": "LogRegistered",
      "type": "event"
    },
    {
      "anonymous": false,
      "inputs": [
        {
          "indexed": true,
          "internalType": "address",
          "name": "previousOwner",
          "type": "address"
        },
        {
          "indexed": true,
          "internalType": "address",
          "name": "newOwner",
          "type": "address"
        }
      ],
      "name": "OwnershipTransferred",
      "type": "event"
    },
    {
      "inputs": [
        {
          "internalType": "address",
          "name": "_newContract",
          "type": "address"
        }
      ],
      "name": "atomicUpdate",
      "outputs": [],
      "stateMutability": "nonpayable",
      "type": "function"
    },
    {
      "inputs": [
        {
          "internalType": "bytes32",
          "name": "_bytes",
          "type": "bytes32"
        }
      ],
      "name": "getAddress",
      "outputs": [
        {
          "internalType": "address",
          "name": "",
          "type": "address"
        }
      ],
      "stateMutability": "view",
      "type": "function"
    },
    {
      "inputs": [
        {
          "internalType": "string",
          "name": "_name",
          "type": "string"
        }
      ],
      "name": "getAddressByString",
      "outputs": [
        {
          "internalType": "address",
          "name": "",
          "type": "address"
        }
      ],
      "stateMutability": "view",
      "type": "function"
    },
    {
      "inputs": [
        {
          "internalType": "bytes32[]",
          "name": "_names",
          "type": "bytes32[]"
        },
        {
          "internalType": "address[]",
          "name": "_destinations",
          "type": "address[]"
        }
      ],
      "name": "importAddresses",
      "outputs": [],
      "stateMutability": "nonpayable",
      "type": "function"
    },
    {
      "inputs": [
        {
          "internalType": "address[]",
          "name": "_destinations",
          "type": "address[]"
        }
      ],
      "name": "importContracts",
      "outputs": [],
      "stateMutability": "nonpayable",
      "type": "function"
    },
    {
      "inputs": [],
      "name": "owner",
      "outputs": [
        {
          "internalType": "address",
          "name": "",
          "type": "address"
        }
      ],
      "stateMutability": "view",
      "type": "function"
    },
    {
      "inputs": [
        {
          "internalType": "bytes32",
          "name": "",
          "type": "bytes32"
        }
      ],
      "name": "registry",
      "outputs": [
        {
          "internalType": "address",
          "name": "",
          "type": "address"
        }
      ],
      "stateMutability": "view",
      "type": "function"
    },
    {
      "inputs": [],
      "name": "renounceOwnership",
      "outputs": [],
      "stateMutability": "nonpayable",
      "type": "function"
    },
    {
      "inputs": [
        {
          "internalType": "bytes32",
          "name": "name",
          "type": "bytes32"
        }
      ],
      "name": "requireAndGetAddress",
      "outputs": [
        {
          "internalType": "address",
          "name": "",
          "type": "address"
        }
      ],
      "stateMutability": "view",
      "type": "function"
    },
    {
      "inputs": [
        {
          "internalType": "string",
          "name": "_string",
          "type": "string"
        }
      ],
      "name": "stringToBytes32",
      "outputs": [
        {
          "internalType": "bytes32",
          "name": "result",
          "type": "bytes32"
        }
      ],
      "stateMutability": "pure",
      "type": "function"
    },
    {
      "inputs": [
        {
          "internalType": "address",
          "name": "newOwner",
          "type": "address"
        }
      ],
      "name": "transferOwnership",
      "outputs": [],
      "stateMutability": "nonpayable",
      "type": "function"
    }
  ],
  "transactionHash": "0xc672de74b0e6113eadaa1ba947cc61e52eb4c64ed713ed5fbfc25b2c849f5beb",
  "args": [],
  "numDeployments": 1,
  "solcInputHash": "8e97b2dcbd3a84faf3c3b8906eaf9cc0",
  "bytecode": "0x608060405234801561001057600080fd5b5061002d61002261003260201b60201c565b61003a60201b60201c565b6100fe565b600033905090565b60008060009054906101000a900473ffffffffffffffffffffffffffffffffffffffff169050816000806101000a81548173ffffffffffffffffffffffffffffffffffffffff021916908373ffffffffffffffffffffffffffffffffffffffff1602179055508173ffffffffffffffffffffffffffffffffffffffff168173ffffffffffffffffffffffffffffffffffffffff167f8be0079c531659141344cd1fd0a4f28419497f9722a3daafe3b4186f6b6457e060405160405180910390a35050565b6112fd8061010d6000396000f3fe608060405234801561001057600080fd5b50600436106100a95760003560e01c80637ef50298116100715780637ef50298146101505780638da5cb5b14610180578063ab0b8f771461019e578063cfb51928146101ba578063e8f98f88146101ea578063f2fde38b1461021a576100a9565b806310b68901146100ae57806321f8a721146100ca57806346bcb49d146100fa578063648642e91461012a578063715018a614610146575b600080fd5b6100c860048036038101906100c39190610d57565b610236565b005b6100e460048036038101906100df9190610dda565b61045b565b6040516100f19190610e48565b60405180910390f35b610114600480360381019061010f9190610dda565b610498565b6040516101219190610e48565b60405180910390f35b610144600480360381019061013f9190610e8f565b610540565b005b61014e6107cc565b005b61016a60048036038101906101659190610dda565b610854565b6040516101779190610e48565b60405180910390f35b610188610887565b6040516101959190610e48565b60405180910390f35b6101b860048036038101906101b39190610f12565b6108b0565b005b6101d460048036038101906101cf91906110d4565b610aad565b6040516101e1919061112c565b60405180910390f35b61020460048036038101906101ff91906110d4565b610ad6565b6040516102119190610e48565b60405180910390f35b610234600480360381019061022f9190610e8f565b610b1b565b005b61023e610c12565b73ffffffffffffffffffffffffffffffffffffffff1661025c610887565b73ffffffffffffffffffffffffffffffffffffffff16146102b2576040517f08c379a00000000000000000000000000000000000000000000000000000000081526004016102a9906111a4565b60405180910390fd5b60005b828290508110156104565760008383838181106102d5576102d46111c4565b5b90506020020160208101906102ea9190610e8f565b73ffffffffffffffffffffffffffffffffffffffff166317d7de7c6040518163ffffffff1660e01b8152600401602060405180830381865afa158015610334573d6000803e3d6000fd5b505050506040513d601f19601f820116820180604052508101906103589190611208565b905083838381811061036d5761036c6111c4565b5b90506020020160208101906103829190610e8f565b6001600083815260200190815260200160002060006101000a81548173ffffffffffffffffffffffffffffffffffffffff021916908373ffffffffffffffffffffffffffffffffffffffff1602179055508383838181106103e6576103e56111c4565b5b90506020020160208101906103fb9190610e8f565b73ffffffffffffffffffffffffffffffffffffffff167f528ecde2b2a965b3d69f80eb4775d121bf5fe485f9bfc184b5b789a90065bb0482604051610440919061112c565b60405180910390a28180600101925050506102b5565b505050565b60006001600083815260200190815260200160002060009054906101000a900473ffffffffffffffffffffffffffffffffffffffff169050919050565b6000806001600084815260200190815260200160002060009054906101000a900473ffffffffffffffffffffffffffffffffffffffff169050600073ffffffffffffffffffffffffffffffffffffffff168173ffffffffffffffffffffffffffffffffffffffff1603610537576040517f31aef0e500000000000000000000000000000000000000000000000000000000815260040160405180910390fd5b80915050919050565b610548610c12565b73ffffffffffffffffffffffffffffffffffffffff16610566610887565b73ffffffffffffffffffffffffffffffffffffffff16146105bc576040517f08c379a00000000000000000000000000000000000000000000000000000000081526004016105b3906111a4565b60405180910390fd5b8073ffffffffffffffffffffffffffffffffffffffff16631aa3a0086040518163ffffffff1660e01b8152600401600060405180830381600087803b15801561060457600080fd5b505af1158015610618573d6000803e3d6000fd5b5050505060008173ffffffffffffffffffffffffffffffffffffffff166317d7de7c6040518163ffffffff1660e01b8152600401602060405180830381865afa158015610669573d6000803e3d6000fd5b505050506040513d601f19601f8201168201806040525081019061068d9190611208565b905060006001600083815260200190815260200160002060009054906101000a900473ffffffffffffffffffffffffffffffffffffffff169050826001600084815260200190815260200160002060006101000a81548173ffffffffffffffffffffffffffffffffffffffff021916908373ffffffffffffffffffffffffffffffffffffffff1602179055508073ffffffffffffffffffffffffffffffffffffffff1663e79a198f6040518163ffffffff1660e01b8152600401600060405180830381600087803b15801561076157600080fd5b505af1158015610775573d6000803e3d6000fd5b505050508273ffffffffffffffffffffffffffffffffffffffff167f528ecde2b2a965b3d69f80eb4775d121bf5fe485f9bfc184b5b789a90065bb04836040516107bf919061112c565b60405180910390a2505050565b6107d4610c12565b73ffffffffffffffffffffffffffffffffffffffff166107f2610887565b73ffffffffffffffffffffffffffffffffffffffff1614610848576040517f08c379a000000000000000000000000000000000000000000000000000000000815260040161083f906111a4565b60405180910390fd5b6108526000610c1a565b565b60016020528060005260406000206000915054906101000a900473ffffffffffffffffffffffffffffffffffffffff1681565b60008060009054906101000a900473ffffffffffffffffffffffffffffffffffffffff16905090565b6108b8610c12565b73ffffffffffffffffffffffffffffffffffffffff166108d6610887565b73ffffffffffffffffffffffffffffffffffffffff161461092c576040517f08c379a0000000000000000000000000000000000000000000000000000000008152600401610923906111a4565b60405180910390fd5b81819050848490501461096b576040517f0cf7902300000000000000000000000000000000000000000000000000000000815260040160405180910390fd5b60005b84849050811015610aa65782828281811061098c5761098b6111c4565b5b90506020020160208101906109a19190610e8f565b600160008787858181106109b8576109b76111c4565b5b90506020020135815260200190815260200160002060006101000a81548173ffffffffffffffffffffffffffffffffffffffff021916908373ffffffffffffffffffffffffffffffffffffffff160217905550828282818110610a1e57610a1d6111c4565b5b9050602002016020810190610a339190610e8f565b73ffffffffffffffffffffffffffffffffffffffff167f528ecde2b2a965b3d69f80eb4775d121bf5fe485f9bfc184b5b789a90065bb04868684818110610a7d57610a7c6111c4565b5b90506020020135604051610a91919061112c565b60405180910390a2808060010191505061096e565b5050505050565b6000808290506000815103610ac8576000801b915050610ad1565b60208301519150505b919050565b600060016000610ae584610aad565b815260200190815260200160002060009054906101000a900473ffffffffffffffffffffffffffffffffffffffff169050919050565b610b23610c12565b73ffffffffffffffffffffffffffffffffffffffff16610b41610887565b73ffffffffffffffffffffffffffffffffffffffff1614610b97576040517f08c379a0000000000000000000000000000000000000000000000000000000008152600401610b8e906111a4565b60405180910390fd5b600073ffffffffffffffffffffffffffffffffffffffff168173ffffffffffffffffffffffffffffffffffffffff1603610c06576040517f08c379a0000000000000000000000000000000000000000000000000000000008152600401610bfd906112a7565b60405180910390fd5b610c0f81610c1a565b50565b600033905090565b60008060009054906101000a900473ffffffffffffffffffffffffffffffffffffffff169050816000806101000a81548173ffffffffffffffffffffffffffffffffffffffff021916908373ffffffffffffffffffffffffffffffffffffffff1602179055508173ffffffffffffffffffffffffffffffffffffffff168173ffffffffffffffffffffffffffffffffffffffff167f8be0079c531659141344cd1fd0a4f28419497f9722a3daafe3b4186f6b6457e060405160405180910390a35050565b6000604051905090565b600080fd5b600080fd5b600080fd5b600080fd5b600080fd5b60008083601f840112610d1757610d16610cf2565b5b8235905067ffffffffffffffff811115610d3457610d33610cf7565b5b602083019150836020820283011115610d5057610d4f610cfc565b5b9250929050565b60008060208385031215610d6e57610d6d610ce8565b5b600083013567ffffffffffffffff811115610d8c57610d8b610ced565b5b610d9885828601610d01565b92509250509250929050565b6000819050919050565b610db781610da4565b8114610dc257600080fd5b50565b600081359050610dd481610dae565b92915050565b600060208284031215610df057610def610ce8565b5b6000610dfe84828501610dc5565b91505092915050565b600073ffffffffffffffffffffffffffffffffffffffff82169050919050565b6000610e3282610e07565b9050919050565b610e4281610e27565b82525050565b6000602082019050610e5d6000830184610e39565b92915050565b610e6c81610e27565b8114610e7757600080fd5b50565b600081359050610e8981610e63565b92915050565b600060208284031215610ea557610ea4610ce8565b5b6000610eb384828501610e7a565b91505092915050565b60008083601f840112610ed257610ed1610cf2565b5b8235905067ffffffffffffffff811115610eef57610eee610cf7565b5b602083019150836020820283011115610f0b57610f0a610cfc565b5b9250929050565b60008060008060408587031215610f2c57610f2b610ce8565b5b600085013567ffffffffffffffff811115610f4a57610f49610ced565b5b610f5687828801610ebc565b9450945050602085013567ffffffffffffffff811115610f7957610f78610ced565b5b610f8587828801610d01565b925092505092959194509250565b600080fd5b6000601f19601f8301169050919050565b7f4e487b7100000000000000000000000000000000000000000000000000000000600052604160045260246000fd5b610fe182610f98565b810181811067ffffffffffffffff8211171561100057610fff610fa9565b5b80604052505050565b6000611013610cde565b905061101f8282610fd8565b919050565b600067ffffffffffffffff82111561103f5761103e610fa9565b5b61104882610f98565b9050602081019050919050565b82818337600083830152505050565b600061107761107284611024565b611009565b90508281526020810184848401111561109357611092610f93565b5b61109e848285611055565b509392505050565b600082601f8301126110bb576110ba610cf2565b5b81356110cb848260208601611064565b91505092915050565b6000602082840312156110ea576110e9610ce8565b5b600082013567ffffffffffffffff81111561110857611107610ced565b5b611114848285016110a6565b91505092915050565b61112681610da4565b82525050565b6000602082019050611141600083018461111d565b92915050565b600082825260208201905092915050565b7f4f776e61626c653a2063616c6c6572206973206e6f7420746865206f776e6572600082015250565b600061118e602083611147565b915061119982611158565b602082019050919050565b600060208201905081810360008301526111bd81611181565b9050919050565b7f4e487b7100000000000000000000000000000000000000000000000000000000600052603260045260246000fd5b60008151905061120281610dae565b92915050565b60006020828403121561121e5761121d610ce8565b5b600061122c848285016111f3565b91505092915050565b7f4f776e61626c653a206e6577206f776e657220697320746865207a65726f206160008201527f6464726573730000000000000000000000000000000000000000000000000000602082015250565b6000611291602683611147565b915061129c82611235565b604082019050919050565b600060208201905081810360008301526112c081611284565b905091905056fea2646970667358221220c42e2b3e6318e1550f1c42f22ea2f890932218ab8630b186634f5c693bad8d4964736f6c634300080d0033",
  "devdoc": {
    "details": "contracts registry protocol uses this registry to fetch current contract addresses",
    "kind": "dev",
    "methods": {
      "atomicUpdate(address)": {
        "details": "this method ensure, that old and new contract is aware of it state in registry Note: BSC registry does not have this method. This method was introduced in later stage.",
        "params": {
          "_newContract": "address of contract that will replace old one"
        }
      },
      "getAddress(bytes32)": {
        "params": {
          "name": "contract name in a form of bytes32"
        },
        "returns": {
          "_0": "contract address registered under provided name"
        }
      },
      "getAddressByString(string)": {
        "params": {
          "_name": "contract name"
        },
        "returns": {
          "_0": "contract address assigned to the name or address(0) if not exists"
        }
      },
      "importAddresses(bytes32[],address[])": {
        "details": "imports new contract addresses and override old addresses, if they exist under provided name This method can be used for contracts that for some reason do not have `getName` method",
        "params": {
          "_destinations": "array of contract addresses",
          "_names": "array of contract names that we want to register"
        }
      },
      "importContracts(address[])": {
        "details": "imports new contracts and override old addresses, if they exist. Names of contracts are fetched directly from each contract by calling `getName`",
        "params": {
          "_destinations": "array of contract addresses"
        }
      },
      "owner()": {
        "details": "Returns the address of the current owner."
      },
      "renounceOwnership()": {
        "details": "Leaves the contract without owner. It will not be possible to call `onlyOwner` functions anymore. Can only be called by the current owner. NOTE: Renouncing ownership will leave the contract without an owner, thereby removing any functionality that is only available to the owner."
      },
      "requireAndGetAddress(bytes32)": {
        "details": "similar to `getAddress` but throws when contract name not exists",
        "params": {
          "name": "contract name"
        },
        "returns": {
          "_0": "contract address registered under provided name or throws, if does not exists"
        }
      },
      "stringToBytes32(string)": {
        "details": "helper method that converts string to bytes32, you can use to to generate contract name"
      },
      "transferOwnership(address)": {
        "details": "Transfers ownership of the contract to a new account (`newOwner`). Can only be called by the current owner."
      }
    },
    "version": 1
  },
  "userdoc": {
    "kind": "user",
    "methods": {
      "registry(bytes32)": {
        "notice": "name => contract address"
      }
    },
    "version": 1
  },
  "storageLayout": {
    "storage": [
      {
        "astId": 7,
        "contract": "contracts/Registry.sol:Registry",
        "label": "_owner",
        "offset": 0,
        "slot": "0",
        "type": "t_address"
      },
      {
        "astId": 3345,
        "contract": "contracts/Registry.sol:Registry",
        "label": "registry",
        "offset": 0,
        "slot": "1",
        "type": "t_mapping(t_bytes32,t_address)"
      }
    ],
    "types": {
      "t_address": {
        "encoding": "inplace",
        "label": "address",
        "numberOfBytes": "20"
      },
      "t_bytes32": {
        "encoding": "inplace",
        "label": "bytes32",
        "numberOfBytes": "32"
      },
      "t_mapping(t_bytes32,t_address)": {
        "encoding": "mapping",
        "key": "t_bytes32",
        "label": "mapping(bytes32 => address)",
        "numberOfBytes": "32",
        "value": "t_address"
      }
    }
  }
}