{
  "address": "0x65a1e39CAF3d6d5d13Fa8dDd063E298E9C616541",
  "abi": [
    {
      "inputs": [
        {
          "internalType": "contract IRegistry",
          "name": "_contractRegistry",
          "type": "address"
        },
        {
          "internalType": "uint32",
          "name": "_padding",
          "type": "uint32"
        },
        {
          "internalType": "uint16",
          "name": "_requiredSignatures",
          "type": "uint16"
        },
        {
          "internalType": "bool",
          "name": "_allowForMixedType",
          "type": "bool"
        }
      ],
      "stateMutability": "nonpayable",
      "type": "constructor"
    },
    {
      "inputs": [],
      "name": "AlreadyDeprecated",
      "type": "error"
    },
    {
      "inputs": [],
      "name": "AlreadyRegistered",
      "type": "error"
    },
    {
      "inputs": [],
      "name": "ArraysDataDoNotMatch",
      "type": "error"
    },
    {
      "inputs": [],
      "name": "BlockSubmittedToFastOrDataToOld",
      "type": "error"
    },
    {
      "inputs": [],
      "name": "ContractNotReady",
      "type": "error"
    },
    {
      "inputs": [],
      "name": "FCDOverflow",
      "type": "error"
    },
    {
      "inputs": [],
      "name": "InvalidContractType",
      "type": "error"
    },
    {
      "inputs": [],
      "name": "NoChangeToState",
      "type": "error"
    },
    {
      "inputs": [],
      "name": "NotEnoughSignatures",
      "type": "error"
    },
    {
      "inputs": [],
      "name": "OnlyOwnerOrRegistry",
      "type": "error"
    },
    {
      "inputs": [],
      "name": "SignaturesOutOfOrder",
      "type": "error"
    },
    {
      "inputs": [],
      "name": "UnregisterFirst",
      "type": "error"
    },
    {
      "anonymous": false,
      "inputs": [
        {
          "indexed": true,
          "internalType": "address",
          "name": "deprecator",
          "type": "address"
        }
      ],
      "name": "LogDeprecation",
      "type": "event"
    },
    {
      "anonymous": false,
      "inputs": [
        {
          "indexed": true,
          "internalType": "address",
          "name": "minter",
          "type": "address"
        },
        {
          "indexed": false,
          "internalType": "uint256",
          "name": "blockId",
          "type": "uint256"
        },
        {
          "indexed": false,
          "internalType": "uint256",
          "name": "staked",
          "type": "uint256"
        },
        {
          "indexed": false,
          "internalType": "uint256",
          "name": "power",
          "type": "uint256"
        }
      ],
      "name": "LogMint",
      "type": "event"
    },
    {
      "anonymous": false,
      "inputs": [
        {
          "indexed": true,
          "internalType": "address",
          "name": "executor",
          "type": "address"
        },
        {
          "indexed": false,
          "internalType": "uint32",
          "name": "timePadding",
          "type": "uint32"
        }
      ],
      "name": "LogPadding",
      "type": "event"
    },
    {
      "anonymous": false,
      "inputs": [
        {
          "indexed": true,
          "internalType": "uint256",
          "name": "blockId",
          "type": "uint256"
        },
        {
          "indexed": true,
          "internalType": "address",
          "name": "voter",
          "type": "address"
        },
        {
          "indexed": false,
          "internalType": "uint256",
          "name": "vote",
          "type": "uint256"
        }
      ],
      "name": "LogVoter",
      "type": "event"
    },
    {
      "anonymous": false,
      "inputs": [
        {
          "indexed": true,
          "internalType": "address",
          "name": "previousOwner",
          "type": "address"
        },
        {
          "indexed": true,
          "internalType": "address",
          "name": "newOwner",
          "type": "address"
        }
      ],
      "name": "OwnershipTransferred",
      "type": "event"
    },
    {
      "inputs": [],
      "name": "ETH_PREFIX",
      "outputs": [
        {
          "internalType": "bytes",
          "name": "",
          "type": "bytes"
        }
      ],
      "stateMutability": "view",
      "type": "function"
    },
    {
      "inputs": [],
      "name": "VERSION",
      "outputs": [
        {
          "internalType": "uint256",
          "name": "",
          "type": "uint256"
        }
      ],
      "stateMutability": "view",
      "type": "function"
    },
    {
      "inputs": [
        {
          "internalType": "uint256",
          "name": "_blockId",
          "type": "uint256"
        }
      ],
      "name": "blocks",
      "outputs": [
        {
          "components": [
            {
              "internalType": "bytes32",
              "name": "root",
              "type": "bytes32"
            },
            {
              "internalType": "uint32",
              "name": "dataTimestamp",
              "type": "uint32"
            }
          ],
          "internalType": "struct BaseChain.Block",
          "name": "",
          "type": "tuple"
        }
      ],
      "stateMutability": "view",
      "type": "function"
    },
    {
      "inputs": [],
      "name": "blocksCount",
      "outputs": [
        {
          "internalType": "uint256",
          "name": "",
          "type": "uint256"
        }
      ],
      "stateMutability": "view",
      "type": "function"
    },
    {
      "inputs": [],
      "name": "blocksCountOffset",
      "outputs": [
        {
          "internalType": "uint32",
          "name": "",
          "type": "uint32"
        }
      ],
      "stateMutability": "view",
      "type": "function"
    },
    {
      "inputs": [
        {
          "internalType": "bytes",
          "name": "_data",
          "type": "bytes"
        },
        {
          "internalType": "uint256",
          "name": "_offset",
          "type": "uint256"
        },
        {
          "internalType": "uint256",
          "name": "_items",
          "type": "uint256"
        }
      ],
      "name": "bytesToBytes32Array",
      "outputs": [
        {
          "internalType": "bytes32[]",
          "name": "",
          "type": "bytes32[]"
        }
      ],
      "stateMutability": "pure",
      "type": "function"
    },
    {
      "inputs": [],
      "name": "contractRegistry",
      "outputs": [
        {
          "internalType": "contract IRegistry",
          "name": "",
          "type": "address"
        }
      ],
      "stateMutability": "view",
      "type": "function"
    },
    {
      "inputs": [],
      "name": "deprecate",
      "outputs": [],
      "stateMutability": "nonpayable",
      "type": "function"
    },
    {
      "inputs": [
        {
          "internalType": "bytes32",
          "name": "",
          "type": "bytes32"
        }
      ],
      "name": "fcds",
      "outputs": [
        {
          "internalType": "uint224",
          "name": "value",
          "type": "uint224"
        },
        {
          "internalType": "uint32",
          "name": "dataTimestamp",
          "type": "uint32"
        }
      ],
      "stateMutability": "view",
      "type": "function"
    },
    {
      "inputs": [],
      "name": "getBlockId",
      "outputs": [
        {
          "internalType": "uint32",
          "name": "",
          "type": "uint32"
        }
      ],
      "stateMutability": "view",
      "type": "function"
    },
    {
      "inputs": [
        {
          "internalType": "uint256",
          "name": "_timestamp",
          "type": "uint256"
        }
      ],
      "name": "getBlockIdAtTimestamp",
      "outputs": [
        {
          "internalType": "uint32",
          "name": "",
          "type": "uint32"
        }
      ],
      "stateMutability": "view",
      "type": "function"
    },
    {
      "inputs": [
        {
          "internalType": "uint32",
          "name": "_blockId",
          "type": "uint32"
        }
      ],
      "name": "getBlockRoot",
      "outputs": [
        {
          "internalType": "bytes32",
          "name": "",
          "type": "bytes32"
        }
      ],
      "stateMutability": "view",
      "type": "function"
    },
    {
      "inputs": [
        {
          "internalType": "uint32",
          "name": "_blockId",
          "type": "uint32"
        }
      ],
      "name": "getBlockTimestamp",
      "outputs": [
        {
          "internalType": "uint32",
          "name": "",
          "type": "uint32"
        }
      ],
      "stateMutability": "view",
      "type": "function"
    },
    {
      "inputs": [],
      "name": "getConsensusData",
      "outputs": [
        {
          "components": [
            {
              "internalType": "uint32",
              "name": "blocksCountOffset",
              "type": "uint32"
            },
            {
              "internalType": "uint32",
              "name": "sequence",
              "type": "uint32"
            },
            {
              "internalType": "uint32",
              "name": "lastTimestamp",
              "type": "uint32"
            },
            {
              "internalType": "uint32",
              "name": "padding",
              "type": "uint32"
            },
            {
              "internalType": "bool",
              "name": "deprecated",
              "type": "bool"
            }
          ],
          "internalType": "struct BaseChain.ConsensusData",
          "name": "",
          "type": "tuple"
        }
      ],
      "stateMutability": "view",
      "type": "function"
    },
    {
      "inputs": [
        {
          "internalType": "bytes32",
          "name": "_key",
          "type": "bytes32"
        }
      ],
      "name": "getCurrentIntValue",
      "outputs": [
        {
          "internalType": "int256",
          "name": "value",
          "type": "int256"
        },
        {
          "internalType": "uint256",
          "name": "timestamp",
          "type": "uint256"
        }
      ],
      "stateMutability": "view",
      "type": "function"
    },
    {
      "inputs": [
        {
          "internalType": "bytes32",
          "name": "_key",
          "type": "bytes32"
        }
      ],
      "name": "getCurrentValue",
      "outputs": [
        {
          "internalType": "uint256",
          "name": "value",
          "type": "uint256"
        },
        {
          "internalType": "uint256",
          "name": "timestamp",
          "type": "uint256"
        }
      ],
      "stateMutability": "view",
      "type": "function"
    },
    {
      "inputs": [
        {
          "internalType": "bytes32[]",
          "name": "_keys",
          "type": "bytes32[]"
        }
      ],
      "name": "getCurrentValues",
      "outputs": [
        {
          "internalType": "uint256[]",
          "name": "values",
          "type": "uint256[]"
        },
        {
          "internalType": "uint32[]",
          "name": "timestamps",
          "type": "uint32[]"
        }
      ],
      "stateMutability": "view",
      "type": "function"
    },
    {
      "inputs": [],
      "name": "getLatestBlockId",
      "outputs": [
        {
          "internalType": "uint32",
          "name": "",
          "type": "uint32"
        }
      ],
      "stateMutability": "view",
      "type": "function"
    },
    {
      "inputs": [],
      "name": "getLeaderAddress",
      "outputs": [
        {
          "internalType": "address",
          "name": "",
          "type": "address"
        }
      ],
      "stateMutability": "view",
      "type": "function"
    },
    {
      "inputs": [
        {
          "internalType": "uint256",
          "name": "_timestamp",
          "type": "uint256"
        }
      ],
      "name": "getLeaderAddressAtTime",
      "outputs": [
        {
          "internalType": "address",
          "name": "",
          "type": "address"
        }
      ],
      "stateMutability": "view",
      "type": "function"
    },
    {
      "inputs": [
        {
          "internalType": "uint256",
          "name": "_numberOfValidators",
          "type": "uint256"
        },
        {
          "internalType": "uint256",
          "name": "_timestamp",
          "type": "uint256"
        }
      ],
      "name": "getLeaderIndex",
      "outputs": [
        {
          "internalType": "uint256",
          "name": "",
          "type": "uint256"
        }
      ],
      "stateMutability": "view",
      "type": "function"
    },
    {
      "inputs": [],
      "name": "getName",
      "outputs": [
        {
          "internalType": "bytes32",
          "name": "",
          "type": "bytes32"
        }
      ],
      "stateMutability": "pure",
      "type": "function"
    },
    {
      "inputs": [],
      "name": "getNextLeaderAddress",
      "outputs": [
        {
          "internalType": "address",
          "name": "",
          "type": "address"
        }
      ],
      "stateMutability": "view",
      "type": "function"
    },
    {
      "inputs": [],
      "name": "getStatus",
      "outputs": [
        {
          "internalType": "uint256",
          "name": "blockNumber",
          "type": "uint256"
        },
        {
          "internalType": "uint32",
          "name": "timePadding",
          "type": "uint32"
        },
        {
          "internalType": "uint32",
          "name": "lastDataTimestamp",
          "type": "uint32"
        },
        {
          "internalType": "uint32",
          "name": "lastId",
          "type": "uint32"
        },
        {
          "internalType": "address",
          "name": "nextLeader",
          "type": "address"
        },
        {
          "internalType": "uint32",
          "name": "nextBlockId",
          "type": "uint32"
        },
        {
          "internalType": "address[]",
          "name": "validators",
          "type": "address[]"
        },
        {
          "internalType": "uint256[]",
          "name": "powers",
          "type": "uint256[]"
        },
        {
          "internalType": "string[]",
          "name": "locations",
          "type": "string[]"
        },
        {
          "internalType": "uint256",
          "name": "staked",
          "type": "uint256"
        },
        {
          "internalType": "uint16",
          "name": "minSignatures",
          "type": "uint16"
        }
      ],
      "stateMutability": "view",
      "type": "function"
    },
    {
      "inputs": [
        {
          "internalType": "bytes",
          "name": "_key",
          "type": "bytes"
        },
        {
          "internalType": "bytes",
          "name": "_value",
          "type": "bytes"
        }
      ],
      "name": "hashLeaf",
      "outputs": [
        {
          "internalType": "bytes32",
          "name": "",
          "type": "bytes32"
        }
      ],
      "stateMutability": "pure",
      "type": "function"
    },
    {
      "inputs": [],
      "name": "isForeign",
      "outputs": [
        {
          "internalType": "bool",
          "name": "",
          "type": "bool"
        }
      ],
      "stateMutability": "pure",
      "type": "function"
    },
    {
      "inputs": [],
      "name": "lastBlockId",
      "outputs": [
        {
          "internalType": "uint256",
          "name": "",
          "type": "uint256"
        }
      ],
      "stateMutability": "view",
      "type": "function"
    },
    {
      "inputs": [],
      "name": "owner",
      "outputs": [
        {
          "internalType": "address",
          "name": "",
          "type": "address"
        }
      ],
      "stateMutability": "view",
      "type": "function"
    },
    {
      "inputs": [
        {
          "internalType": "bytes32",
          "name": "_affidavit",
          "type": "bytes32"
        },
        {
          "internalType": "uint8",
          "name": "_v",
          "type": "uint8"
        },
        {
          "internalType": "bytes32",
          "name": "_r",
          "type": "bytes32"
        },
        {
          "internalType": "bytes32",
          "name": "_s",
          "type": "bytes32"
        }
      ],
      "name": "recoverSigner",
      "outputs": [
        {
          "internalType": "address",
          "name": "",
          "type": "address"
        }
      ],
      "stateMutability": "pure",
      "type": "function"
    },
    {
      "inputs": [],
      "name": "register",
      "outputs": [],
      "stateMutability": "nonpayable",
      "type": "function"
    },
    {
      "inputs": [],
      "name": "renounceOwnership",
      "outputs": [],
      "stateMutability": "nonpayable",
      "type": "function"
    },
    {
      "inputs": [],
      "name": "requiredSignatures",
      "outputs": [
        {
          "internalType": "uint16",
          "name": "",
          "type": "uint16"
        }
      ],
      "stateMutability": "view",
      "type": "function"
    },
    {
      "inputs": [
        {
          "internalType": "uint256",
          "name": "",
          "type": "uint256"
        }
      ],
      "name": "roots",
      "outputs": [
        {
          "internalType": "bytes32",
          "name": "",
          "type": "bytes32"
        }
      ],
      "stateMutability": "view",
      "type": "function"
    },
    {
      "inputs": [
        {
          "internalType": "uint16",
          "name": "_padding",
          "type": "uint16"
        }
      ],
      "name": "setPadding",
      "outputs": [],
      "stateMutability": "nonpayable",
      "type": "function"
    },
    {
      "inputs": [],
      "name": "stakingBank",
      "outputs": [
        {
          "internalType": "contract IStakingBank",
          "name": "",
          "type": "address"
        }
      ],
      "stateMutability": "view",
      "type": "function"
    },
    {
      "inputs": [],
      "name": "stakingBankContract",
      "outputs": [
        {
          "internalType": "contract IStakingBank",
          "name": "",
          "type": "address"
        }
      ],
      "stateMutability": "view",
      "type": "function"
    },
    {
      "inputs": [
        {
          "internalType": "uint32",
          "name": "_dataTimestamp",
          "type": "uint32"
        },
        {
          "internalType": "bytes32",
          "name": "_root",
          "type": "bytes32"
        },
        {
          "internalType": "bytes32[]",
          "name": "_keys",
          "type": "bytes32[]"
        },
        {
          "internalType": "uint256[]",
          "name": "_values",
          "type": "uint256[]"
        },
        {
          "internalType": "uint8[]",
          "name": "_v",
          "type": "uint8[]"
        },
        {
          "internalType": "bytes32[]",
          "name": "_r",
          "type": "bytes32[]"
        },
        {
          "internalType": "bytes32[]",
          "name": "_s",
          "type": "bytes32[]"
        }
      ],
      "name": "submit",
      "outputs": [],
      "stateMutability": "nonpayable",
      "type": "function"
    },
    {
      "inputs": [],
      "name": "tokenContract",
      "outputs": [
        {
          "internalType": "contract ERC20",
          "name": "",
          "type": "address"
        }
      ],
      "stateMutability": "view",
      "type": "function"
    },
    {
      "inputs": [
        {
          "internalType": "address",
          "name": "newOwner",
          "type": "address"
        }
      ],
      "name": "transferOwnership",
      "outputs": [],
      "stateMutability": "nonpayable",
      "type": "function"
    },
    {
      "inputs": [],
      "name": "unregister",
      "outputs": [],
      "stateMutability": "nonpayable",
      "type": "function"
    },
    {
      "inputs": [
        {
          "internalType": "bytes32[]",
          "name": "_proof",
          "type": "bytes32[]"
        },
        {
          "internalType": "bytes32",
          "name": "_root",
          "type": "bytes32"
        },
        {
          "internalType": "bytes32",
          "name": "_leaf",
          "type": "bytes32"
        }
      ],
      "name": "verifyProof",
      "outputs": [
        {
          "internalType": "bool",
          "name": "",
          "type": "bool"
        }
      ],
      "stateMutability": "pure",
      "type": "function"
    },
    {
      "inputs": [
        {
          "internalType": "uint256",
          "name": "_blockId",
          "type": "uint256"
        },
        {
          "internalType": "bytes32[]",
          "name": "_proof",
          "type": "bytes32[]"
        },
        {
          "internalType": "bytes",
          "name": "_key",
          "type": "bytes"
        },
        {
          "internalType": "bytes",
          "name": "_value",
          "type": "bytes"
        }
      ],
      "name": "verifyProofForBlock",
      "outputs": [
        {
          "internalType": "bool",
          "name": "",
          "type": "bool"
        }
      ],
      "stateMutability": "view",
      "type": "function"
    },
    {
      "inputs": [
        {
          "internalType": "uint32[]",
          "name": "_blockIds",
          "type": "uint32[]"
        },
        {
          "internalType": "bytes",
          "name": "_proofs",
          "type": "bytes"
        },
        {
          "internalType": "uint256[]",
          "name": "_proofItemsCounter",
          "type": "uint256[]"
        },
        {
          "internalType": "bytes32[]",
          "name": "_leaves",
          "type": "bytes32[]"
        }
      ],
      "name": "verifyProofs",
      "outputs": [
        {
          "internalType": "bool[]",
          "name": "results",
          "type": "bool[]"
        }
      ],
      "stateMutability": "view",
      "type": "function"
    }
  ],
  "transactionHash": "0x593585b79765616ca5ce6778bd3d4c8a3cdd1af3c011fe843dfd6bcf094a17f3",
  "args": [
    "0xcA702946B0f7d5537B3B6791F45F2E2459374C75",
    40,
    2,
    false
  ],
  "numDeployments": 3,
  "solcInputHash": "21f18df7a0d33984bd9c46eb5e5245db",
  "bytecode": "0x6101006040523480156200001257600080fd5b5060405162005f0138038062005f01833981810160405281019062000038919062000677565b8383838383600073ffffffffffffffffffffffffffffffffffffffff168173ffffffffffffffffffffffffffffffffffffffff1603620000af576040517f08c379a0000000000000000000000000000000000000000000000000000000008152600401620000a6906200074a565b60405180910390fd5b8073ffffffffffffffffffffffffffffffffffffffff1660808173ffffffffffffffffffffffffffffffffffffffff16815250505062000104620000f8620002e660201b60201c565b620002ee60201b60201c565b80151560a0811515815250508161ffff1660c08161ffff16815250506200013183620003b260201b60201c565b60008473ffffffffffffffffffffffffffffffffffffffff166321f8a7216040518163ffffffff1660e01b81526004016200016c9062000792565b602060405180830381865afa1580156200018a573d6000803e3d6000fd5b505050506040513d601f19601f82011682018060405250810190620001b09190620007de565b9050600073ffffffffffffffffffffffffffffffffffffffff168173ffffffffffffffffffffffffffffffffffffffff1603620002275760018442620001f791906200083f565b6200020391906200083f565b600160000160086101000a81548163ffffffff021916908363ffffffff1602179055505b50505050508373ffffffffffffffffffffffffffffffffffffffff166346bcb49d6040518163ffffffff1660e01b81526004016200026590620008a0565b602060405180830381865afa15801562000283573d6000803e3d6000fd5b505050506040513d601f19601f82011682018060405250810190620002a99190620007de565b73ffffffffffffffffffffffffffffffffffffffff1660e08173ffffffffffffffffffffffffffffffffffffffff1681525050505050506200095b565b600033905090565b60008060009054906101000a900473ffffffffffffffffffffffffffffffffffffffff169050816000806101000a81548173ffffffffffffffffffffffffffffffffffffffff021916908373ffffffffffffffffffffffffffffffffffffffff1602179055508173ffffffffffffffffffffffffffffffffffffffff168173ffffffffffffffffffffffffffffffffffffffff167f8be0079c531659141344cd1fd0a4f28419497f9722a3daafe3b4186f6b6457e060405160405180910390a35050565b620003c2620002e660201b60201c565b73ffffffffffffffffffffffffffffffffffffffff16620003e86200051360201b60201c565b73ffffffffffffffffffffffffffffffffffffffff161462000441576040517f08c379a000000000000000000000000000000000000000000000000000000000815260040162000438906200090b565b60405180910390fd5b8063ffffffff166001600001600c9054906101000a900463ffffffff1663ffffffff16036200049c576040517f96f56f6a00000000000000000000000000000000000000000000000000000000815260040160405180910390fd5b806001600001600c6101000a81548163ffffffff021916908363ffffffff1602179055503373ffffffffffffffffffffffffffffffffffffffff167f02ff77a0f68d11f7efb906f331b2dda82916de8ba9c37dda2a95817936a530ec826040516200050891906200093e565b60405180910390a250565b60008060009054906101000a900473ffffffffffffffffffffffffffffffffffffffff16905090565b600080fd5b600073ffffffffffffffffffffffffffffffffffffffff82169050919050565b60006200056e8262000541565b9050919050565b6000620005828262000561565b9050919050565b620005948162000575565b8114620005a057600080fd5b50565b600081519050620005b48162000589565b92915050565b600063ffffffff82169050919050565b620005d581620005ba565b8114620005e157600080fd5b50565b600081519050620005f581620005ca565b92915050565b600061ffff82169050919050565b6200061481620005fb565b81146200062057600080fd5b50565b600081519050620006348162000609565b92915050565b60008115159050919050565b62000651816200063a565b81146200065d57600080fd5b50565b600081519050620006718162000646565b92915050565b600080600080608085870312156200069457620006936200053c565b5b6000620006a487828801620005a3565b9450506020620006b787828801620005e4565b9350506040620006ca8782880162000623565b9250506060620006dd8782880162000660565b91505092959194509250565b600082825260208201905092915050565b7f5f726567697374727920697320656d7074790000000000000000000000000000600082015250565b600062000732601283620006e9565b91506200073f82620006fa565b602082019050919050565b60006020820190508181036000830152620007658162000723565b9050919050565b7f436861696e000000000000000000000000000000000000000000000000000000815250565b6000602082019050620007a8600083016200076c565b919050565b620007b88162000561565b8114620007c457600080fd5b50565b600081519050620007d881620007ad565b92915050565b600060208284031215620007f757620007f66200053c565b5b60006200080784828501620007c7565b91505092915050565b7f4e487b7100000000000000000000000000000000000000000000000000000000600052601160045260246000fd5b60006200084c82620005ba565b91506200085983620005ba565b9250828210156200086f576200086e62000810565b5b828203905092915050565b7f5374616b696e6742616e6b000000000000000000000000000000000000000000815250565b6000602082019050620008b6600083016200087a565b919050565b7f4f776e61626c653a2063616c6c6572206973206e6f7420746865206f776e6572600082015250565b6000620008f3602083620006e9565b91506200090082620008bb565b602082019050919050565b600060208201905081810360008301526200092681620008e4565b9050919050565b6200093881620005ba565b82525050565b60006020820190506200095560008301846200092d565b92915050565b60805160a05160c05160e0516154e762000a1a60003960008181610f1c01528181611296015281816114c1015281816116f80152818161178b0152818161190d015281816119f401528181611acd015281816129890152612a3a01526000818161142a015281816116d50152611fb1015260006127d301526000818161089701528181610a8d01528181610b5501528181611c1b01528181611c9201528181611d31015281816120e9015281816125f501526126d401526154e76000f3fe608060405234801561001057600080fd5b50600436106102695760003560e01c80638d06804311610151578063ca4d29d2116100c3578063e79a198f11610087578063e79a198f146107a0578063ed9975c3146107aa578063ef19f3e7146107c8578063f25b3f99146107f8578063f2fde38b14610828578063ffa1ad741461084457610269565b8063ca4d29d2146106d3578063cbb1b2c714610703578063d3d3ea0814610734578063d45167d014610752578063e76c0b571461078257610269565b8063adf1639d11610115578063adf1639d146105c4578063bef9f8a1146105f5578063bf66e3ba14610625578063c2a4250b14610655578063c2b40ae414610673578063c3369db8146106a357610269565b80638d0680431461052e5780638da5cb5b1461054c5780639f6119d71461056a578063a0bc937414610588578063abf410e5146105a657610269565b806340a9e5e3116101ea578063637180a8116101ae578063637180a81461047c5780636d046c3e1461049a578063715018a6146104b85780637353cbcb146104c257806377839fe6146104e0578063805d3432146104fe57610269565b806340a9e5e3146103ce578063485e055d146103ea5780634bc935d7146104065780634e69d5601461043657806355a373d61461045e57610269565b8063243b68f911610231578063243b68f91461030057806324c89a491461033057806326f3ab8b1461034e57806334ba34811461037f5780633bb8819d1461039d57610269565b80630f2acc3e1461026e5780630fcc0c281461029e57806317d7de7c146102a8578063199dadc5146102c65780631aa3a008146102f6575b600080fd5b610288600480360381019061028391906135ff565b610862565b6040516102959190613690565b60405180910390f35b6102a6610895565b005b6102b0610a07565b6040516102bd9190613690565b60405180910390f35b6102e060048036038101906102db91906137d5565b610a2f565b6040516102ed91906138ab565b60405180910390f35b6102fe610a8b565b005b61031a600480360381019061031591906138c6565b610c99565b60405161032791906139f3565b60405180910390f35b610338610d42565b6040516103459190613a9d565b60405180910390f35b61036860048036038101906103639190613b1a565b610d7b565b604051610376929190613cf3565b60405180910390f35b610387610f1a565b6040516103949190613da9565b60405180910390f35b6103b760048036038101906103b29190613dc4565b610f3e565b6040516103c5929190613e19565b60405180910390f35b6103e860048036038101906103e39190613e7c565b610fd3565b005b61040460048036038101906103ff9190614094565b610fe3565b005b610420600480360381019061041b91906141c2565b6115b6565b60405161042d91906138ab565b60405180910390f35b61043e6115ea565b6040516104559b9a99989796959493929190614445565b60405180910390f35b610466611c00565b6040516104739190614526565b60405180910390f35b610484611d2d565b6040516104919190613da9565b60405180910390f35b6104a2611dcc565b6040516104af91906138ab565b60405180910390f35b6104c0611dd1565b005b6104ca611e59565b6040516104d79190614541565b60405180910390f35b6104e8611e9c565b6040516104f5919061455c565b60405180910390f35b61051860048036038101906105139190614577565b611eb9565b604051610525919061455c565b60405180910390f35b610536611fad565b60405161054391906145a4565b60405180910390f35b610554611fd5565b60405161056191906145bf565b60405180910390f35b610572611ffe565b60405161057f91906145bf565b60405180910390f35b61059061201a565b60405161059d9190614651565b60405180910390f35b6105ae6120e7565b6040516105bb919061468d565b60405180910390f35b6105de60048036038101906105d99190613dc4565b61210b565b6040516105ec9291906146a8565b60405180910390f35b61060f600480360381019061060a91906146d1565b612198565b60405161061c9190613690565b60405180910390f35b61063f600480360381019061063a91906147c1565b6121bb565b60405161064c9190614947565b60405180910390f35b61065d6122f7565b60405161066a9190614541565b60405180910390f35b61068d60048036038101906106889190614577565b61231a565b60405161069a9190613690565b60405180910390f35b6106bd60048036038101906106b891906146d1565b612332565b6040516106ca919061455c565b60405180910390f35b6106ed60048036038101906106e89190614969565b612367565b6040516106fa9190614541565b60405180910390f35b61071d60048036038101906107189190613dc4565b612481565b60405161072b9291906149e0565b60405180910390f35b61073c6124dd565b604051610749919061455c565b60405180910390f35b61076c60048036038101906107679190614a09565b6124fa565b60405161077991906145bf565b60405180910390f35b61078a6125b7565b604051610797919061455c565b60405180910390f35b6107a86125f3565b005b6107b2612974565b6040516107bf91906145bf565b60405180910390f35b6107e260048036038101906107dd9190614577565b612984565b6040516107ef91906145bf565b60405180910390f35b610812600480360381019061080d9190614577565b612adc565b60405161081f9190614a9f565b60405180910390f35b610842600480360381019061083d9190614ae6565b612b19565b005b61084c612c10565b6040516108599190614541565b60405180910390f35b60008282604051602001610877929190614b4f565b60405160208183030381529060405280519060200120905092915050565b7f000000000000000000000000000000000000000000000000000000000000000073ffffffffffffffffffffffffffffffffffffffff163373ffffffffffffffffffffffffffffffffffffffff161415801561092457506108f4611fd5565b73ffffffffffffffffffffffffffffffffffffffff163373ffffffffffffffffffffffffffffffffffffffff1614155b1561095b576040517f0daa173600000000000000000000000000000000000000000000000000000000815260040160405180910390fd5b600160000160109054906101000a900460ff16156109a5576040517f764c143b00000000000000000000000000000000000000000000000000000000815260040160405180910390fd5b60018060000160106101000a81548160ff0219169083151502179055503373ffffffffffffffffffffffffffffffffffffffff167fd4ae81319f0b4df100dcda9ce971671b97278c7a5ce6b37a8331a44700679fd460405160405180910390a2565b60007f436861696e000000000000000000000000000000000000000000000000000000905090565b6000610a8160026000878152602001908152602001600020548484604051602001610a5b929190614b4f565b6040516020818303038152906040528051906020012086612c159092919063ffffffff16565b9050949350505050565b7f000000000000000000000000000000000000000000000000000000000000000073ffffffffffffffffffffffffffffffffffffffff163373ffffffffffffffffffffffffffffffffffffffff1614158015610b1a5750610aea611fd5565b73ffffffffffffffffffffffffffffffffffffffff163373ffffffffffffffffffffffffffffffffffffffff1614155b15610b51576040517f0daa173600000000000000000000000000000000000000000000000000000000815260040160405180910390fd5b60007f000000000000000000000000000000000000000000000000000000000000000073ffffffffffffffffffffffffffffffffffffffff166321f8a7216040518163ffffffff1660e01b8152600401610baa90614b99565b602060405180830381865afa158015610bc7573d6000803e3d6000fd5b505050506040513d601f19601f82011682018060405250810190610beb9190614bc7565b90503073ffffffffffffffffffffffffffffffffffffffff168173ffffffffffffffffffffffffffffffffffffffff1603610c52576040517f3a81d6fc00000000000000000000000000000000000000000000000000000000815260040160405180910390fd5b600073ffffffffffffffffffffffffffffffffffffffff168173ffffffffffffffffffffffffffffffffffffffff1603610c8c5750610c97565b610c9581612c2c565b505b565b606060008267ffffffffffffffff811115610cb757610cb66134d4565b5b604051908082528060200260200182016040528015610ce55781602001602082028036833780820191505090505b50905060005b83811015610d3657600080602087600185010102905080880151915081848481518110610d1b57610d1a614bf4565b5b60200260200101818152505050508080600101915050610ceb565b50809150509392505050565b6040518060400160405280601c81526020017f19457468657265756d205369676e6564204d6573736167653a0a33320000000081525081565b6060808383905067ffffffffffffffff811115610d9b57610d9a6134d4565b5b604051908082528060200260200182016040528015610dc95781602001602082028036833780820191505090505b5090508383905067ffffffffffffffff811115610de957610de86134d4565b5b604051908082528060200260200182016040528015610e175781602001602082028036833780820191505090505b50915060005b84849050811015610f1257600060036000878785818110610e4157610e40614bf4565b5b90506020020135815260200190815260200160002090508060000160009054906101000a90047bffffffffffffffffffffffffffffffffffffffffffffffffffffffff167bffffffffffffffffffffffffffffffffffffffffffffffffffffffff16848381518110610eb657610eb5614bf4565b5b60200260200101818152505080600001601c9054906101000a900463ffffffff16838381518110610eea57610ee9614bf4565b5b602002602001019063ffffffff16908163ffffffff1681525050818060010192505050610e1d565b509250929050565b7f000000000000000000000000000000000000000000000000000000000000000081565b6000806000600360008581526020019081526020016000209050610fab8160000160009054906101000a90047bffffffffffffffffffffffffffffffffffffffffffffffffffffffff167bffffffffffffffffffffffffffffffffffffffffffffffffffffffff16612f6e565b81600001601c9054906101000a900463ffffffff168063ffffffff1690509250925050915091565b610fe08161ffff16613016565b50565b610ff28763ffffffff16613161565b60008787604051602001611007929190614c7a565b604051602081830303815290604052905060005b86518110156112175785818151811061103757611036614bf4565b5b602002602001015186828151811061105257611051614bf4565b5b60200260200101517bffffffffffffffffffffffffffffffffffffffffffffffffffffffff16146110af576040517f6980091000000000000000000000000000000000000000000000000000000000815260040160405180910390fd5b60405180604001604052808783815181106110cd576110cc614bf4565b5b60200260200101517bffffffffffffffffffffffffffffffffffffffffffffffffffffffff1681526020018a63ffffffff168152506003600089848151811061111957611118614bf4565b5b6020026020010151815260200190815260200160002060008201518160000160006101000a8154817bffffffffffffffffffffffffffffffffffffffffffffffffffffffff02191690837bffffffffffffffffffffffffffffffffffffffffffffffffffffffff160217905550602082015181600001601c6101000a81548163ffffffff021916908363ffffffff160217905550905050818782815181106111c4576111c3614bf4565b5b60200260200101518783815181106111df576111de614bf4565b5b60200260200101516040516020016111f993929190614cc7565b6040516020818303038152906040529150808060010191505061101b565b506000806000838051906020012090506000805b8851811015611427576000611290848b848151811061124d5761124c614bf4565b5b60200260200101518b858151811061126857611267614bf4565b5b60200260200101518b868151811061128357611282614bf4565b5b60200260200101516124fa565b905060007f000000000000000000000000000000000000000000000000000000000000000073ffffffffffffffffffffffffffffffffffffffff166370a08231836040518263ffffffff1660e01b81526004016112ed91906145bf565b602060405180830381865afa15801561130a573d6000803e3d6000fd5b505050506040513d601f19601f8201168201806040525081019061132e9190614d15565b90508173ffffffffffffffffffffffffffffffffffffffff168473ffffffffffffffffffffffffffffffffffffffff1610611395576040517f9079f69b00000000000000000000000000000000000000000000000000000000815260040160405180910390fd5b819350600081036113af5782806001019350505050611422565b86806113ba90614d71565b9750508173ffffffffffffffffffffffffffffffffffffffff168f63ffffffff167fbac7552ab5da8d0588709ddb75aceec28520646f54bca1cc5e6e104db61935ec8360405161140a9190614541565b60405180910390a38086019550828060010193505050505b61122b565b507f000000000000000000000000000000000000000000000000000000000000000061ffff16841015611486576040517fe246dc6300000000000000000000000000000000000000000000000000000000815260040160405180910390fd5b3373ffffffffffffffffffffffffffffffffffffffff167f5f11830295067c4bcc7d02d4e3b048cd7427be50a3aeb6afc9d3d559ee64bcfa8d7f000000000000000000000000000000000000000000000000000000000000000073ffffffffffffffffffffffffffffffffffffffff166318160ddd6040518163ffffffff1660e01b8152600401602060405180830381865afa15801561152a573d6000803e3d6000fd5b505050506040513d601f19601f8201168201806040525081019061154e9190614d15565b8660405161155e93929190614dea565b60405180910390a28a600260008e63ffffffff168152602001908152602001600020819055508b600160000160086101000a81548163ffffffff021916908363ffffffff160217905550505050505050505050505050565b60008060001b83036115cb57600090506115e3565b6115e0838386612c159092919063ffffffff16565b90505b9392505050565b6000806000806000806060806060600080600060016040518060a00160405290816000820160009054906101000a900463ffffffff1663ffffffff1663ffffffff1681526020016000820160049054906101000a900463ffffffff1663ffffffff1663ffffffff1681526020016000820160089054906101000a900463ffffffff1663ffffffff1663ffffffff16815260200160008201600c9054906101000a900463ffffffff1663ffffffff1663ffffffff1681526020016000820160109054906101000a900460ff1615151515815250509050439b5080606001519a50806040015198508899507f000000000000000000000000000000000000000000000000000000000000000091507f000000000000000000000000000000000000000000000000000000000000000073ffffffffffffffffffffffffffffffffffffffff166318160ddd6040518163ffffffff1660e01b8152600401602060405180830381865afa158015611761573d6000803e3d6000fd5b505050506040513d601f19601f820116820180604052508101906117859190614d15565b925060007f000000000000000000000000000000000000000000000000000000000000000073ffffffffffffffffffffffffffffffffffffffff16639031d9136040518163ffffffff1660e01b8152600401602060405180830381865afa1580156117f4573d6000803e3d6000fd5b505050506040513d601f19601f820116820180604052508101906118189190614d15565b90508067ffffffffffffffff811115611834576118336134d4565b5b6040519080825280602002602001820160405280156118625781602001602082028036833780820191505090505b5095508067ffffffffffffffff81111561187f5761187e6134d4565b5b6040519080825280602002602001820160405280156118ad5781602001602082028036833780820191505090505b5096508067ffffffffffffffff8111156118ca576118c96134d4565b5b6040519080825280602002602001820160405280156118fd57816020015b60608152602001906001900390816118e85790505b50945060005b81811015611bab577f000000000000000000000000000000000000000000000000000000000000000073ffffffffffffffffffffffffffffffffffffffff1663edf26d9b826040518263ffffffff1660e01b81526004016119649190614541565b602060405180830381865afa158015611981573d6000803e3d6000fd5b505050506040513d601f19601f820116820180604052508101906119a59190614bc7565b8882815181106119b8576119b7614bf4565b5b602002602001019073ffffffffffffffffffffffffffffffffffffffff16908173ffffffffffffffffffffffffffffffffffffffff16815250507f000000000000000000000000000000000000000000000000000000000000000073ffffffffffffffffffffffffffffffffffffffff1663fa52c7d8898381518110611a4157611a40614bf4565b5b60200260200101516040518263ffffffff1660e01b8152600401611a6591906145bf565b600060405180830381865afa158015611a82573d6000803e3d6000fd5b505050506040513d6000823e3d601f19601f82011682018060405250810190611aab9190614ec2565b9050868281518110611ac057611abf614bf4565b5b60200260200101819052507f000000000000000000000000000000000000000000000000000000000000000073ffffffffffffffffffffffffffffffffffffffff166370a08231898381518110611b1a57611b19614bf4565b5b60200260200101516040518263ffffffff1660e01b8152600401611b3e91906145bf565b602060405180830381865afa158015611b5b573d6000803e3d6000fd5b505050506040513d601f19601f82011682018060405250810190611b7f9190614d15565b878281518110611b9257611b91614bf4565b5b6020026020010181815250508080600101915050611903565b50600182606001518b0101975060008111611bc7576000611bef565b86611bd58260014201612367565b81518110611be657611be5614bf4565b5b60200260200101515b98505050909192939495969798999a565b60008073ffffffffffffffffffffffffffffffffffffffff167f000000000000000000000000000000000000000000000000000000000000000073ffffffffffffffffffffffffffffffffffffffff1603611c90576040517f08c379a0000000000000000000000000000000000000000000000000000000008152600401611c8790614f7b565b60405180910390fd5b7f000000000000000000000000000000000000000000000000000000000000000073ffffffffffffffffffffffffffffffffffffffff166346bcb49d6040518163ffffffff1660e01b8152600401611ce790614fc1565b602060405180830381865afa158015611d04573d6000803e3d6000fd5b505050506040513d601f19601f82011682018060405250810190611d289190614bc7565b905090565b60007f000000000000000000000000000000000000000000000000000000000000000073ffffffffffffffffffffffffffffffffffffffff166346bcb49d6040518163ffffffff1660e01b8152600401611d8690615000565b602060405180830381865afa158015611da3573d6000803e3d6000fd5b505050506040513d601f19601f82011682018060405250810190611dc79190614bc7565b905090565b600090565b611dd96132e1565b73ffffffffffffffffffffffffffffffffffffffff16611df7611fd5565b73ffffffffffffffffffffffffffffffffffffffff1614611e4d576040517f08c379a0000000000000000000000000000000000000000000000000000000008152600401611e4490615065565b60405180910390fd5b611e5760006132e9565b565b6000600160000160009054906101000a900463ffffffff16600160000160049054906101000a900463ffffffff16611e919190615085565b63ffffffff16905090565b6000600160000160009054906101000a900463ffffffff16905090565b60008060016040518060a00160405290816000820160009054906101000a900463ffffffff1663ffffffff1663ffffffff1681526020016000820160049054906101000a900463ffffffff1663ffffffff1663ffffffff1681526020016000820160089054906101000a900463ffffffff1663ffffffff1663ffffffff16815260200160008201600c9054906101000a900463ffffffff1663ffffffff1663ffffffff1681526020016000820160109054906101000a900460ff161515151581525050905082816060015182604001510163ffffffff161015611f9f5782915050611fa8565b80604001519150505b919050565b60007f0000000000000000000000000000000000000000000000000000000000000000905090565b60008060009054906101000a900473ffffffffffffffffffffffffffffffffffffffff16905090565b600061201560014261201091906150b9565b612984565b905090565b612022613439565b60016040518060a00160405290816000820160009054906101000a900463ffffffff1663ffffffff1663ffffffff1681526020016000820160049054906101000a900463ffffffff1663ffffffff1663ffffffff1681526020016000820160089054906101000a900463ffffffff1663ffffffff1663ffffffff16815260200160008201600c9054906101000a900463ffffffff1663ffffffff1663ffffffff1681526020016000820160109054906101000a900460ff161515151581525050905090565b7f000000000000000000000000000000000000000000000000000000000000000081565b60008060006003600085815260200190815260200160002090508060000160009054906101000a90047bffffffffffffffffffffffffffffffffffffffffffffffffffffffff167bffffffffffffffffffffffffffffffffffffffffffffffffffffffff1681600001601c9054906101000a900463ffffffff168063ffffffff1690509250925050915091565b6000600260008363ffffffff168152602001908152602001600020549050919050565b6060815167ffffffffffffffff8111156121d8576121d76134d4565b5b6040519080825280602002602001820160405280156122065781602001602082028036833780820191505090505b5090506000805b83518110156122ed5761229c600260008984815181106122305761222f614bf4565b5b602002602001015163ffffffff168152602001908152602001600020548583815181106122605761225f614bf4565b5b602002602001015161228d89868a87815181106122805761227f614bf4565b5b6020026020010151610c99565b612c159092919063ffffffff16565b8382815181106122af576122ae614bf4565b5b6020026020010190151590811515815250508481815181106122d4576122d3614bf4565b5b602002602001015182019150808060010191505061220d565b5050949350505050565b6000600160000160089054906101000a900463ffffffff1663ffffffff16905090565b60026020528060005260406000206000915090505481565b60008060001b600260008463ffffffff168152602001908152602001600020541461235d5781612360565b60005b9050919050565b60008060016040518060a00160405290816000820160009054906101000a900463ffffffff1663ffffffff1663ffffffff1681526020016000820160049054906101000a900463ffffffff1663ffffffff1663ffffffff1681526020016000820160089054906101000a900463ffffffff1663ffffffff1663ffffffff16815260200160008201600c9054906101000a900463ffffffff1663ffffffff1663ffffffff1681526020016000820160109054906101000a900460ff16151515158152505090506000600182606001510163ffffffff16826040015163ffffffff168503816124575761245661510f565b5b04826020015163ffffffff160190508481816124765761247561510f565b5b069250505092915050565b60036020528060005260406000206000915090508060000160009054906101000a90047bffffffffffffffffffffffffffffffffffffffffffffffffffffffff169080600001601c9054906101000a900463ffffffff16905082565b6000600160000160089054906101000a900463ffffffff16905090565b6000806040518060400160405280601c81526020017f19457468657265756d205369676e6564204d6573736167653a0a3332000000008152508660405160200161254592919061513e565b604051602081830303815290604052805190602001209050600181868686604051600081526020016040526040516125809493929190615175565b6020604051602081039080840390855afa1580156125a2573d6000803e3d6000fd5b50505060206040510351915050949350505050565b600080600160000160089054906101000a900463ffffffff1663ffffffff16036125e457600090506125f0565b6125ed42611eb9565b90505b90565b7f000000000000000000000000000000000000000000000000000000000000000073ffffffffffffffffffffffffffffffffffffffff163373ffffffffffffffffffffffffffffffffffffffff16141580156126825750612652611fd5565b73ffffffffffffffffffffffffffffffffffffffff163373ffffffffffffffffffffffffffffffffffffffff1614155b156126b9576040517f0daa173600000000000000000000000000000000000000000000000000000000815260040160405180910390fd5b600160000160109054906101000a900460ff166129725760007f000000000000000000000000000000000000000000000000000000000000000073ffffffffffffffffffffffffffffffffffffffff166321f8a7216040518163ffffffff1660e01b815260040161272990614b99565b602060405180830381865afa158015612746573d6000803e3d6000fd5b505050506040513d601f19601f8201168201806040525081019061276a9190614bc7565b90503073ffffffffffffffffffffffffffffffffffffffff168173ffffffffffffffffffffffffffffffffffffffff16036127d1576040517ff8e0084400000000000000000000000000000000000000000000000000000000815260040160405180910390fd5b7f0000000000000000000000000000000000000000000000000000000000000000612910573073ffffffffffffffffffffffffffffffffffffffff16636d046c3e6040518163ffffffff1660e01b8152600401602060405180830381865afa158015612841573d6000803e3d6000fd5b505050506040513d601f19601f8201168201806040525081019061286591906151e6565b15158173ffffffffffffffffffffffffffffffffffffffff16636d046c3e6040518163ffffffff1660e01b8152600401602060405180830381865afa1580156128b2573d6000803e3d6000fd5b505050506040513d601f19601f820116820180604052508101906128d691906151e6565b15151461290f576040517f07b72f5e00000000000000000000000000000000000000000000000000000000815260040160405180910390fd5b5b60018060000160106101000a81548160ff0219169083151502179055503373ffffffffffffffffffffffffffffffffffffffff167fd4ae81319f0b4df100dcda9ce971671b97278c7a5ce6b37a8331a44700679fd460405160405180910390a2505b565b600061297f42612984565b905090565b6000807f000000000000000000000000000000000000000000000000000000000000000073ffffffffffffffffffffffffffffffffffffffff16639031d9136040518163ffffffff1660e01b8152600401602060405180830381865afa1580156129f2573d6000803e3d6000fd5b505050506040513d601f19601f82011682018060405250810190612a169190614d15565b905060008103612a2a576000915050612ad7565b6000612a368285612367565b90507f000000000000000000000000000000000000000000000000000000000000000073ffffffffffffffffffffffffffffffffffffffff1663edf26d9b826040518263ffffffff1660e01b8152600401612a919190614541565b602060405180830381865afa158015612aae573d6000803e3d6000fd5b505050506040513d601f19601f82011682018060405250810190612ad29190614bc7565b925050505b919050565b612ae4613482565b6040518060400160405280600260008581526020019081526020016000205481526020018363ffffffff168152509050919050565b612b216132e1565b73ffffffffffffffffffffffffffffffffffffffff16612b3f611fd5565b73ffffffffffffffffffffffffffffffffffffffff1614612b95576040517f08c379a0000000000000000000000000000000000000000000000000000000008152600401612b8c90615065565b60405180910390fd5b600073ffffffffffffffffffffffffffffffffffffffff168173ffffffffffffffffffffffffffffffffffffffff1603612c04576040517f08c379a0000000000000000000000000000000000000000000000000000000008152600401612bfb90615285565b60405180910390fd5b612c0d816132e9565b50565b600281565b600082612c2285846133ad565b1490509392505050565b6000808273ffffffffffffffffffffffffffffffffffffffff167fffa1ad74ba96b4c159a84d090433911c3991c54f629eb60d0c84aed3be5f067c604051602001612c7791906152e0565b604051602081830303815290604052604051612c9391906152fb565b600060405180830381855afa9150503d8060008114612cce576040519150601f19603f3d011682016040523d82523d6000602084013e612cd3565b606091505b5091509150600082612ce6576001612cfb565b81806020019051810190612cfa9190614d15565b5b905060018103612e7b5760008473ffffffffffffffffffffffffffffffffffffffff1663d3d3ea086040518163ffffffff1660e01b8152600401602060405180830381865afa158015612d52573d6000803e3d6000fd5b505050506040513d601f19601f82011682018060405250810190612d769190615327565b90508473ffffffffffffffffffffffffffffffffffffffff1663c3369db8826040518263ffffffff1660e01b8152600401612db1919061455c565b602060405180830381865afa158015612dce573d6000803e3d6000fd5b505050506040513d601f19601f82011682018060405250810190612df29190615327565b600160000160086101000a81548163ffffffff021916908363ffffffff160217905550600281612e229190615354565b600160000160046101000a81548163ffffffff021916908363ffffffff160217905550600281612e529190615354565b600160000160006101000a81548163ffffffff021916908363ffffffff16021790555050612f68565b60008473ffffffffffffffffffffffffffffffffffffffff1663a0bc93746040518163ffffffff1660e01b815260040160a060405180830381865afa158015612ec8573d6000803e3d6000fd5b505050506040513d601f19601f82011682018060405250810190612eec919061541f565b90508060200151600160000160046101000a81548163ffffffff021916908363ffffffff1602179055508060200151600160000160006101000a81548163ffffffff021916908363ffffffff1602179055508060400151600160000160086101000a81548163ffffffff021916908363ffffffff160217905550505b50505050565b60008060007bffffffffffffffffffffffffffffffffffffffffffffffffffffffff90506002600182612fa1919061544c565b612fab9190615480565b7bffffffffffffffffffffffffffffffffffffffffffffffffffffffff16847bffffffffffffffffffffffffffffffffffffffffffffffffffffffff16116130005760008401915081601b0b92505050613011565b600181850303915081601b0b925050505b919050565b61301e6132e1565b73ffffffffffffffffffffffffffffffffffffffff1661303c611fd5565b73ffffffffffffffffffffffffffffffffffffffff1614613092576040517f08c379a000000000000000000000000000000000000000000000000000000000815260040161308990615065565b60405180910390fd5b8063ffffffff166001600001600c9054906101000a900463ffffffff1663ffffffff16036130ec576040517f96f56f6a00000000000000000000000000000000000000000000000000000000815260040160405180910390fd5b806001600001600c6101000a81548163ffffffff021916908363ffffffff1602179055503373ffffffffffffffffffffffffffffffffffffffff167f02ff77a0f68d11f7efb906f331b2dda82916de8ba9c37dda2a95817936a530ec82604051613156919061455c565b60405180910390a250565b600060016040518060a00160405290816000820160009054906101000a900463ffffffff1663ffffffff1663ffffffff1681526020016000820160049054906101000a900463ffffffff1663ffffffff1663ffffffff1681526020016000820160089054906101000a900463ffffffff1663ffffffff1663ffffffff16815260200160008201600c9054906101000a900463ffffffff1663ffffffff1663ffffffff1681526020016000820160109054906101000a900460ff16151515158152505090506000816040015163ffffffff1603613269576040517f96a96e1700000000000000000000000000000000000000000000000000000000815260040160405180910390fd5b81816060015182604001510163ffffffff16106132b2576040517ff886149e00000000000000000000000000000000000000000000000000000000815260040160405180910390fd5b6001816020015101600160000160046101000a81548163ffffffff021916908363ffffffff1602179055505050565b600033905090565b60008060009054906101000a900473ffffffffffffffffffffffffffffffffffffffff169050816000806101000a81548173ffffffffffffffffffffffffffffffffffffffff021916908373ffffffffffffffffffffffffffffffffffffffff1602179055508173ffffffffffffffffffffffffffffffffffffffff168173ffffffffffffffffffffffffffffffffffffffff167f8be0079c531659141344cd1fd0a4f28419497f9722a3daafe3b4186f6b6457e060405160405180910390a35050565b60008082905060005b84518110156134175760008582815181106133d4576133d3614bf4565b5b602002602001015190508083116133f6576133ef8382613422565b9250613403565b6134008184613422565b92505b50808061340f90614d71565b9150506133b6565b508091505092915050565b600082600052816020526040600020905092915050565b6040518060a00160405280600063ffffffff168152602001600063ffffffff168152602001600063ffffffff168152602001600063ffffffff1681526020016000151581525090565b604051806040016040528060008019168152602001600063ffffffff1681525090565b6000604051905090565b600080fd5b600080fd5b600080fd5b600080fd5b6000601f19601f8301169050919050565b7f4e487b7100000000000000000000000000000000000000000000000000000000600052604160045260246000fd5b61350c826134c3565b810181811067ffffffffffffffff8211171561352b5761352a6134d4565b5b80604052505050565b600061353e6134a5565b905061354a8282613503565b919050565b600067ffffffffffffffff82111561356a576135696134d4565b5b613573826134c3565b9050602081019050919050565b82818337600083830152505050565b60006135a261359d8461354f565b613534565b9050828152602081018484840111156135be576135bd6134be565b5b6135c9848285613580565b509392505050565b600082601f8301126135e6576135e56134b9565b5b81356135f684826020860161358f565b91505092915050565b60008060408385031215613616576136156134af565b5b600083013567ffffffffffffffff811115613634576136336134b4565b5b613640858286016135d1565b925050602083013567ffffffffffffffff811115613661576136606134b4565b5b61366d858286016135d1565b9150509250929050565b6000819050919050565b61368a81613677565b82525050565b60006020820190506136a56000830184613681565b92915050565b6000819050919050565b6136be816136ab565b81146136c957600080fd5b50565b6000813590506136db816136b5565b92915050565b600067ffffffffffffffff8211156136fc576136fb6134d4565b5b602082029050602081019050919050565b600080fd5b61371b81613677565b811461372657600080fd5b50565b60008135905061373881613712565b92915050565b600061375161374c846136e1565b613534565b905080838252602082019050602084028301858111156137745761377361370d565b5b835b8181101561379d57806137898882613729565b845260208401935050602081019050613776565b5050509392505050565b600082601f8301126137bc576137bb6134b9565b5b81356137cc84826020860161373e565b91505092915050565b600080600080608085870312156137ef576137ee6134af565b5b60006137fd878288016136cc565b945050602085013567ffffffffffffffff81111561381e5761381d6134b4565b5b61382a878288016137a7565b935050604085013567ffffffffffffffff81111561384b5761384a6134b4565b5b613857878288016135d1565b925050606085013567ffffffffffffffff811115613878576138776134b4565b5b613884878288016135d1565b91505092959194509250565b60008115159050919050565b6138a581613890565b82525050565b60006020820190506138c0600083018461389c565b92915050565b6000806000606084860312156138df576138de6134af565b5b600084013567ffffffffffffffff8111156138fd576138fc6134b4565b5b613909868287016135d1565b935050602061391a868287016136cc565b925050604061392b868287016136cc565b9150509250925092565b600081519050919050565b600082825260208201905092915050565b6000819050602082019050919050565b61396a81613677565b82525050565b600061397c8383613961565b60208301905092915050565b6000602082019050919050565b60006139a082613935565b6139aa8185613940565b93506139b583613951565b8060005b838110156139e65781516139cd8882613970565b97506139d883613988565b9250506001810190506139b9565b5085935050505092915050565b60006020820190508181036000830152613a0d8184613995565b905092915050565b600081519050919050565b600082825260208201905092915050565b60005b83811015613a4f578082015181840152602081019050613a34565b83811115613a5e576000848401525b50505050565b6000613a6f82613a15565b613a798185613a20565b9350613a89818560208601613a31565b613a92816134c3565b840191505092915050565b60006020820190508181036000830152613ab78184613a64565b905092915050565b600080fd5b60008083601f840112613ada57613ad96134b9565b5b8235905067ffffffffffffffff811115613af757613af6613abf565b5b602083019150836020820283011115613b1357613b1261370d565b5b9250929050565b60008060208385031215613b3157613b306134af565b5b600083013567ffffffffffffffff811115613b4f57613b4e6134b4565b5b613b5b85828601613ac4565b92509250509250929050565b600081519050919050565b600082825260208201905092915050565b6000819050602082019050919050565b613b9c816136ab565b82525050565b6000613bae8383613b93565b60208301905092915050565b6000602082019050919050565b6000613bd282613b67565b613bdc8185613b72565b9350613be783613b83565b8060005b83811015613c18578151613bff8882613ba2565b9750613c0a83613bba565b925050600181019050613beb565b5085935050505092915050565b600081519050919050565b600082825260208201905092915050565b6000819050602082019050919050565b600063ffffffff82169050919050565b613c6a81613c51565b82525050565b6000613c7c8383613c61565b60208301905092915050565b6000602082019050919050565b6000613ca082613c25565b613caa8185613c30565b9350613cb583613c41565b8060005b83811015613ce6578151613ccd8882613c70565b9750613cd883613c88565b925050600181019050613cb9565b5085935050505092915050565b60006040820190508181036000830152613d0d8185613bc7565b90508181036020830152613d218184613c95565b90509392505050565b600073ffffffffffffffffffffffffffffffffffffffff82169050919050565b6000819050919050565b6000613d6f613d6a613d6584613d2a565b613d4a565b613d2a565b9050919050565b6000613d8182613d54565b9050919050565b6000613d9382613d76565b9050919050565b613da381613d88565b82525050565b6000602082019050613dbe6000830184613d9a565b92915050565b600060208284031215613dda57613dd96134af565b5b6000613de884828501613729565b91505092915050565b6000819050919050565b613e0481613df1565b82525050565b613e13816136ab565b82525050565b6000604082019050613e2e6000830185613dfb565b613e3b6020830184613e0a565b9392505050565b600061ffff82169050919050565b613e5981613e42565b8114613e6457600080fd5b50565b600081359050613e7681613e50565b92915050565b600060208284031215613e9257613e916134af565b5b6000613ea084828501613e67565b91505092915050565b613eb281613c51565b8114613ebd57600080fd5b50565b600081359050613ecf81613ea9565b92915050565b600067ffffffffffffffff821115613ef057613eef6134d4565b5b602082029050602081019050919050565b6000613f14613f0f84613ed5565b613534565b90508083825260208201905060208402830185811115613f3757613f3661370d565b5b835b81811015613f605780613f4c88826136cc565b845260208401935050602081019050613f39565b5050509392505050565b600082601f830112613f7f57613f7e6134b9565b5b8135613f8f848260208601613f01565b91505092915050565b600067ffffffffffffffff821115613fb357613fb26134d4565b5b602082029050602081019050919050565b600060ff82169050919050565b613fda81613fc4565b8114613fe557600080fd5b50565b600081359050613ff781613fd1565b92915050565b600061401061400b84613f98565b613534565b905080838252602082019050602084028301858111156140335761403261370d565b5b835b8181101561405c57806140488882613fe8565b845260208401935050602081019050614035565b5050509392505050565b600082601f83011261407b5761407a6134b9565b5b813561408b848260208601613ffd565b91505092915050565b600080600080600080600060e0888a0312156140b3576140b26134af565b5b60006140c18a828b01613ec0565b97505060206140d28a828b01613729565b965050604088013567ffffffffffffffff8111156140f3576140f26134b4565b5b6140ff8a828b016137a7565b955050606088013567ffffffffffffffff8111156141205761411f6134b4565b5b61412c8a828b01613f6a565b945050608088013567ffffffffffffffff81111561414d5761414c6134b4565b5b6141598a828b01614066565b93505060a088013567ffffffffffffffff81111561417a576141796134b4565b5b6141868a828b016137a7565b92505060c088013567ffffffffffffffff8111156141a7576141a66134b4565b5b6141b38a828b016137a7565b91505092959891949750929550565b6000806000606084860312156141db576141da6134af565b5b600084013567ffffffffffffffff8111156141f9576141f86134b4565b5b614205868287016137a7565b935050602061421686828701613729565b925050604061422786828701613729565b9150509250925092565b61423a81613c51565b82525050565b600061424b82613d2a565b9050919050565b61425b81614240565b82525050565b600081519050919050565b600082825260208201905092915050565b6000819050602082019050919050565b61429681614240565b82525050565b60006142a8838361428d565b60208301905092915050565b6000602082019050919050565b60006142cc82614261565b6142d6818561426c565b93506142e18361427d565b8060005b838110156143125781516142f9888261429c565b9750614304836142b4565b9250506001810190506142e5565b5085935050505092915050565b600081519050919050565b600082825260208201905092915050565b6000819050602082019050919050565b600081519050919050565b600082825260208201905092915050565b60006143728261434b565b61437c8185614356565b935061438c818560208601613a31565b614395816134c3565b840191505092915050565b60006143ac8383614367565b905092915050565b6000602082019050919050565b60006143cc8261431f565b6143d6818561432a565b9350836020820285016143e88561433b565b8060005b85811015614424578484038952815161440585826143a0565b9450614410836143b4565b925060208a019950506001810190506143ec565b50829750879550505050505092915050565b61443f81613e42565b82525050565b60006101608201905061445b600083018e613e0a565b614468602083018d614231565b614475604083018c614231565b614482606083018b614231565b61448f608083018a614252565b61449c60a0830189614231565b81810360c08301526144ae81886142c1565b905081810360e08301526144c28187613bc7565b90508181036101008301526144d781866143c1565b90506144e7610120830185613e0a565b6144f5610140830184614436565b9c9b505050505050505050505050565b600061451082613d76565b9050919050565b61452081614505565b82525050565b600060208201905061453b6000830184614517565b92915050565b60006020820190506145566000830184613e0a565b92915050565b60006020820190506145716000830184614231565b92915050565b60006020828403121561458d5761458c6134af565b5b600061459b848285016136cc565b91505092915050565b60006020820190506145b96000830184614436565b92915050565b60006020820190506145d46000830184614252565b92915050565b6145e381613890565b82525050565b60a0820160008201516145ff6000850182613c61565b5060208201516146126020850182613c61565b5060408201516146256040850182613c61565b5060608201516146386060850182613c61565b50608082015161464b60808501826145da565b50505050565b600060a08201905061466660008301846145e9565b92915050565b600061467782613d76565b9050919050565b6146878161466c565b82525050565b60006020820190506146a2600083018461467e565b92915050565b60006040820190506146bd6000830185613e0a565b6146ca6020830184613e0a565b9392505050565b6000602082840312156146e7576146e66134af565b5b60006146f584828501613ec0565b91505092915050565b600067ffffffffffffffff821115614719576147186134d4565b5b602082029050602081019050919050565b600061473d614738846146fe565b613534565b905080838252602082019050602084028301858111156147605761475f61370d565b5b835b8181101561478957806147758882613ec0565b845260208401935050602081019050614762565b5050509392505050565b600082601f8301126147a8576147a76134b9565b5b81356147b884826020860161472a565b91505092915050565b600080600080608085870312156147db576147da6134af565b5b600085013567ffffffffffffffff8111156147f9576147f86134b4565b5b61480587828801614793565b945050602085013567ffffffffffffffff811115614826576148256134b4565b5b614832878288016135d1565b935050604085013567ffffffffffffffff811115614853576148526134b4565b5b61485f87828801613f6a565b925050606085013567ffffffffffffffff8111156148805761487f6134b4565b5b61488c878288016137a7565b91505092959194509250565b600081519050919050565b600082825260208201905092915050565b6000819050602082019050919050565b60006148d083836145da565b60208301905092915050565b6000602082019050919050565b60006148f482614898565b6148fe81856148a3565b9350614909836148b4565b8060005b8381101561493a57815161492188826148c4565b975061492c836148dc565b92505060018101905061490d565b5085935050505092915050565b6000602082019050818103600083015261496181846148e9565b905092915050565b600080604083850312156149805761497f6134af565b5b600061498e858286016136cc565b925050602061499f858286016136cc565b9150509250929050565b60007bffffffffffffffffffffffffffffffffffffffffffffffffffffffff82169050919050565b6149da816149a9565b82525050565b60006040820190506149f560008301856149d1565b614a026020830184614231565b9392505050565b60008060008060808587031215614a2357614a226134af565b5b6000614a3187828801613729565b9450506020614a4287828801613fe8565b9350506040614a5387828801613729565b9250506060614a6487828801613729565b91505092959194509250565b604082016000820151614a866000850182613961565b506020820151614a996020850182613c61565b50505050565b6000604082019050614ab46000830184614a70565b92915050565b614ac381614240565b8114614ace57600080fd5b50565b600081359050614ae081614aba565b92915050565b600060208284031215614afc57614afb6134af565b5b6000614b0a84828501614ad1565b91505092915050565b600081905092915050565b6000614b2982613a15565b614b338185614b13565b9350614b43818560208601613a31565b80840191505092915050565b6000614b5b8285614b1e565b9150614b678284614b1e565b91508190509392505050565b7f436861696e000000000000000000000000000000000000000000000000000000815250565b6000602082019050614bad60008301614b73565b919050565b600081519050614bc181614aba565b92915050565b600060208284031215614bdd57614bdc6134af565b5b6000614beb84828501614bb2565b91505092915050565b7f4e487b7100000000000000000000000000000000000000000000000000000000600052603260045260246000fd5b60008160e01b9050919050565b6000614c3b82614c23565b9050919050565b614c53614c4e82613c51565b614c30565b82525050565b6000819050919050565b614c74614c6f82613677565b614c59565b82525050565b6000614c868285614c42565b600482019150614c968284614c63565b6020820191508190509392505050565b6000819050919050565b614cc1614cbc826136ab565b614ca6565b82525050565b6000614cd38286614b1e565b9150614cdf8285614c63565b602082019150614cef8284614cb0565b602082019150819050949350505050565b600081519050614d0f816136b5565b92915050565b600060208284031215614d2b57614d2a6134af565b5b6000614d3984828501614d00565b91505092915050565b7f4e487b7100000000000000000000000000000000000000000000000000000000600052601160045260246000fd5b6000614d7c826136ab565b91507fffffffffffffffffffffffffffffffffffffffffffffffffffffffffffffffff8203614dae57614dad614d42565b5b600182019050919050565b6000614dd4614dcf614dca84613c51565b613d4a565b6136ab565b9050919050565b614de481614db9565b82525050565b6000606082019050614dff6000830186614ddb565b614e0c6020830185613e0a565b614e196040830184613e0a565b949350505050565b600067ffffffffffffffff821115614e3c57614e3b6134d4565b5b614e45826134c3565b9050602081019050919050565b6000614e65614e6084614e21565b613534565b905082815260208101848484011115614e8157614e806134be565b5b614e8c848285613a31565b509392505050565b600082601f830112614ea957614ea86134b9565b5b8151614eb9848260208601614e52565b91505092915050565b60008060408385031215614ed957614ed86134af565b5b6000614ee785828601614bb2565b925050602083015167ffffffffffffffff811115614f0857614f076134b4565b5b614f1485828601614e94565b9150509250929050565b600082825260208201905092915050565b7f5f726567697374727920697320656d7074790000000000000000000000000000600082015250565b6000614f65601283614f1e565b9150614f7082614f2f565b602082019050919050565b60006020820190508181036000830152614f9481614f58565b9050919050565b7f554d420000000000000000000000000000000000000000000000000000000000815250565b6000602082019050614fd560008301614f9b565b919050565b7f5374616b696e6742616e6b000000000000000000000000000000000000000000815250565b600060208201905061501460008301614fda565b919050565b7f4f776e61626c653a2063616c6c6572206973206e6f7420746865206f776e6572600082015250565b600061504f602083614f1e565b915061505a82615019565b602082019050919050565b6000602082019050818103600083015261507e81615042565b9050919050565b600061509082613c51565b915061509b83613c51565b9250828210156150ae576150ad614d42565b5b828203905092915050565b60006150c4826136ab565b91506150cf836136ab565b9250827fffffffffffffffffffffffffffffffffffffffffffffffffffffffffffffffff0382111561510457615103614d42565b5b828201905092915050565b7f4e487b7100000000000000000000000000000000000000000000000000000000600052601260045260246000fd5b600061514a8285614b1e565b91506151568284614c63565b6020820191508190509392505050565b61516f81613fc4565b82525050565b600060808201905061518a6000830187613681565b6151976020830186615166565b6151a46040830185613681565b6151b16060830184613681565b95945050505050565b6151c381613890565b81146151ce57600080fd5b50565b6000815190506151e0816151ba565b92915050565b6000602082840312156151fc576151fb6134af565b5b600061520a848285016151d1565b91505092915050565b7f4f776e61626c653a206e6577206f776e657220697320746865207a65726f206160008201527f6464726573730000000000000000000000000000000000000000000000000000602082015250565b600061526f602683614f1e565b915061527a82615213565b604082019050919050565b6000602082019050818103600083015261529e81615262565b9050919050565b60007fffffffff0000000000000000000000000000000000000000000000000000000082169050919050565b6152da816152a5565b82525050565b60006020820190506152f560008301846152d1565b92915050565b60006153078284614b1e565b915081905092915050565b60008151905061532181613ea9565b92915050565b60006020828403121561533d5761533c6134af565b5b600061534b84828501615312565b91505092915050565b600061535f82613c51565b915061536a83613c51565b92508263ffffffff0382111561538357615382614d42565b5b828201905092915050565b600080fd5b600060a082840312156153a9576153a861538e565b5b6153b360a0613534565b905060006153c384828501615312565b60008301525060206153d784828501615312565b60208301525060406153eb84828501615312565b60408301525060606153ff84828501615312565b6060830152506080615413848285016151d1565b60808301525092915050565b600060a08284031215615435576154346134af565b5b600061544384828501615393565b91505092915050565b6000615457826149a9565b9150615462836149a9565b92508282101561547557615474614d42565b5b828203905092915050565b600061548b826149a9565b9150615496836149a9565b9250826154a6576154a561510f565b5b82820490509291505056fea2646970667358221220b3c5eff7d2822b5682cb8dcb28f8f61cd063d70e7cf7384be31e6c3f9d3aff7864736f6c634300080d0033",
  "devdoc": {
    "kind": "dev",
    "methods": {
      "blocks(uint256)": {
        "params": {
          "_blockId": "ID of submitted block"
        },
        "returns": {
          "_0": "block data (root + timestamp)"
        }
      },
      "blocksCount()": {
        "details": "number of blocks (consensus rounds) saved in this contract"
      },
      "bytesToBytes32Array(bytes,uint256,uint256)": {
        "details": "this is helper method, that extracts one merkle proof from many hashed provided as bytes",
        "params": {
          "_data": "many hashes as bytes",
          "_items": "how many hashes to extract",
          "_offset": "this is starting point for extraction"
        },
        "returns": {
          "_0": "merkle proof (array of bytes32 hashes)"
        }
      },
      "constructor": {
        "params": {
          "_allowForMixedType": "we have two \"types\" of Chain: HomeChain and ForeignChain, when we redeploying we don't want to mix up them, so we checking, if new Chain has the same type as current one. However, when we will be switching from one homechain to another one, we have to allow for this mixing up. This flag will tell contract, if this is the case.",
          "_contractRegistry": "Registry address",
          "_padding": "required \"space\" between blocks in seconds",
          "_requiredSignatures": "number of required signatures for accepting consensus submission"
        }
      },
      "getBlockId()": {
        "returns": {
          "_0": "current block ID please note, that current ID is not the same as last ID, current means that once padding pass, ID will switch to next one and it will be pointing to empty submit until submit for that ID is done"
        }
      },
      "getBlockIdAtTimestamp(uint256)": {
        "details": "calculates block ID for provided timestamp this function does not works for past timestamps",
        "params": {
          "_timestamp": "current or future timestamp"
        },
        "returns": {
          "_0": "block ID for provided timestamp"
        }
      },
      "getBlockRoot(uint32)": {
        "params": {
          "_blockId": "consensus ID"
        },
        "returns": {
          "_0": "root for provided consensus ID"
        }
      },
      "getBlockTimestamp(uint32)": {
        "params": {
          "_blockId": "consensus ID"
        },
        "returns": {
          "_0": "timestamp for provided consensus ID"
        }
      },
      "getConsensusData()": {
        "details": "getter for `_consensusData`"
      },
      "getCurrentIntValue(bytes32)": {
        "details": "getter for single FCD value in case its type is `int`",
        "params": {
          "_key": "FCD key"
        },
        "returns": {
          "timestamp": "FCD timestamp",
          "value": "FCD value"
        }
      },
      "getCurrentValue(bytes32)": {
        "details": "getter for single FCD value",
        "params": {
          "_key": "FCD key"
        },
        "returns": {
          "timestamp": "FCD timestamp",
          "value": "FCD value"
        }
      },
      "getCurrentValues(bytes32[])": {
        "details": "batch getter for FCDs",
        "params": {
          "_keys": "FCDs keys to fetch"
        },
        "returns": {
          "timestamps": "array of FCDs timestamps",
          "values": "array of FCDs values"
        }
      },
      "getLatestBlockId()": {
        "returns": {
          "_0": "last submitted block ID, please note, that on deployment, when there is no submission for this contract block for last ID will be available in previous contract"
        }
      },
      "getLeaderAddress()": {
        "returns": {
          "_0": "address of current leader"
        }
      },
      "getLeaderAddressAtTime(uint256)": {
        "params": {
          "_timestamp": "timestamp for which you want to calculate leader address"
        },
        "returns": {
          "_0": "leader address for provider timestamp"
        }
      },
      "getLeaderIndex(uint256,uint256)": {
        "params": {
          "_numberOfValidators": "total number of validators",
          "_timestamp": "timestamp for which you want to calculate index"
        },
        "returns": {
          "_0": "leader index, use it for StakingBank.addresses[index] to fetch leader address"
        }
      },
      "getName()": {
        "returns": {
          "_0": "contract name as bytes32"
        }
      },
      "getNextLeaderAddress()": {
        "returns": {
          "_0": "address of leader for next second"
        }
      },
      "getStatus()": {
        "details": "helper method that returns all important data about current state of contract",
        "returns": {
          "blockNumber": "`block.number`",
          "lastDataTimestamp": "timestamp for last submitted consensus",
          "lastId": "ID of last submitted consensus",
          "locations": "array of all validators locations",
          "minSignatures": "`this.requiredSignatures`",
          "nextBlockId": "block ID for `block.timestamp + padding`",
          "nextLeader": "leader for `block.timestamp + 1`",
          "powers": "array of all validators powers",
          "staked": "total UMB staked by validators",
          "timePadding": "`this.padding`",
          "validators": "array of all validators addresses"
        }
      },
      "hashLeaf(bytes,bytes)": {
        "details": "creates leaf hash, that has is used in merkle tree",
        "params": {
          "_key": "key under which we store the value",
          "_value": "value itself as bytes"
        },
        "returns": {
          "_0": "leaf hash"
        }
      },
      "isForeign()": {
        "returns": {
          "_0": "TRUE if contract is ForeignChain, FALSE otherwise"
        }
      },
      "owner()": {
        "details": "Returns the address of the current owner."
      },
      "recoverSigner(bytes32,uint8,bytes32,bytes32)": {
        "params": {
          "_affidavit": "root and FCDs hashed together",
          "_r": "part of signature",
          "_s": "part of signature",
          "_v": "part of signature"
        },
        "returns": {
          "_0": "signer address"
        }
      },
      "register()": {
        "details": "this method will be called as a first method in registration process when old contract will be replaced when called, old contract address is still in registry"
      },
      "renounceOwnership()": {
        "details": "Leaves the contract without owner. It will not be possible to call `onlyOwner` functions anymore. Can only be called by the current owner. NOTE: Renouncing ownership will leave the contract without an owner, thereby removing any functionality that is only available to the owner."
      },
      "setPadding(uint16)": {
        "details": "setter for `padding`"
      },
      "stakingBankContract()": {
        "details": "helper method for fetching StakingBank address"
      },
      "submit(uint32,bytes32,bytes32[],uint256[],uint8[],bytes32[],bytes32[])": {
        "details": "method for submitting consensus data",
        "params": {
          "_dataTimestamp": "consensus timestamp, this is time for all data in merkle tree including FCDs",
          "_keys": "FCDs keys",
          "_r": "array of `r` part of validators signatures",
          "_root": "merkle root",
          "_s": "array of `s` part of validators signatures",
          "_v": "array of `v` part of validators signatures",
          "_values": "FCDs values"
        }
      },
      "tokenContract()": {
        "details": "helper method for fetching UMB address"
      },
      "transferOwnership(address)": {
        "details": "Transfers ownership of the contract to a new account (`newOwner`). Can only be called by the current owner."
      },
      "unregister()": {
        "details": "this method will be called as a last method in registration process when old contract will be replaced when called, new contract address is already in registry"
      },
      "verifyProof(bytes32[],bytes32,bytes32)": {
        "details": "verifies if the leaf is valid leaf for merkle tree",
        "params": {
          "_leaf": "leaf hash",
          "_proof": "merkle proof for merkle tree",
          "_root": "merkle root"
        },
        "returns": {
          "_0": "TRUE if `_leaf` is valid, FALSE otherwise"
        }
      },
      "verifyProofForBlock(uint256,bytes32[],bytes,bytes)": {
        "details": "verifies, if provided key-value pair was part of consensus",
        "params": {
          "_blockId": "consensus ID for which we doing a check",
          "_key": "pair key",
          "_proof": "merkle proof for pair",
          "_value": "pair value"
        },
        "returns": {
          "_0": "TRUE if key-value par was part of consensus, FALSE otherwise"
        }
      },
      "verifyProofs(uint32[],bytes,uint256[],bytes32[])": {
        "details": "batch method for data verification",
        "params": {
          "_blockIds": "consensus IDs for which we doing a checks",
          "_leaves": "array of merkle leaves",
          "_proofItemsCounter": "array of counters, each counter tells how many hashes proof for each leaf has",
          "_proofs": "merkle proofs for all pair, sequence of hashes provided as bytes"
        },
        "returns": {
          "results": "array of verification results, TRUE if leaf is part of consensus, FALSE otherwise"
        }
      }
    },
    "version": 1
  },
  "userdoc": {
    "kind": "user",
    "methods": {
      "deprecate()": {
        "notice": "it allows to deprecate contract manually Only new Registry calls `unregister()` where we set deprecated to true In old Registries we don't have this feature, so in order to safely redeploy new Chain we will have to first deprecate current contract manually, then register new contract"
      },
      "register()": {
        "notice": "if this method needs to be called manually (not from Registry) it is important to do it as part of tx batch eg using multisig, we should prepare set of transactions and confirm them all at once"
      }
    },
    "version": 1
  },
  "storageLayout": {
    "storage": [
      {
        "astId": 7,
        "contract": "contracts/Chain.sol:Chain",
        "label": "_owner",
        "offset": 0,
        "slot": "0",
        "type": "t_address"
      },
      {
        "astId": 1587,
        "contract": "contracts/Chain.sol:Chain",
        "label": "_consensusData",
        "offset": 0,
        "slot": "1",
        "type": "t_struct(ConsensusData)1568_storage"
      },
      {
        "astId": 1595,
        "contract": "contracts/Chain.sol:Chain",
        "label": "roots",
        "offset": 0,
        "slot": "2",
        "type": "t_mapping(t_uint256,t_bytes32)"
      },
      {
        "astId": 1601,
        "contract": "contracts/Chain.sol:Chain",
        "label": "fcds",
        "offset": 0,
        "slot": "3",
        "type": "t_mapping(t_bytes32,t_struct(FirstClassData)1557_storage)"
      }
    ],
    "types": {
      "t_address": {
        "encoding": "inplace",
        "label": "address",
        "numberOfBytes": "20"
      },
      "t_bool": {
        "encoding": "inplace",
        "label": "bool",
        "numberOfBytes": "1"
      },
      "t_bytes32": {
        "encoding": "inplace",
        "label": "bytes32",
        "numberOfBytes": "32"
      },
      "t_mapping(t_bytes32,t_struct(FirstClassData)1557_storage)": {
        "encoding": "mapping",
        "key": "t_bytes32",
        "label": "mapping(bytes32 => struct BaseChain.FirstClassData)",
        "numberOfBytes": "32",
        "value": "t_struct(FirstClassData)1557_storage"
      },
      "t_mapping(t_uint256,t_bytes32)": {
        "encoding": "mapping",
        "key": "t_uint256",
        "label": "mapping(uint256 => bytes32)",
        "numberOfBytes": "32",
        "value": "t_bytes32"
      },
      "t_struct(ConsensusData)1568_storage": {
        "encoding": "inplace",
        "label": "struct BaseChain.ConsensusData",
        "members": [
          {
            "astId": 1559,
            "contract": "contracts/Chain.sol:Chain",
            "label": "blocksCountOffset",
            "offset": 0,
            "slot": "0",
            "type": "t_uint32"
          },
          {
            "astId": 1561,
            "contract": "contracts/Chain.sol:Chain",
            "label": "sequence",
            "offset": 4,
            "slot": "0",
            "type": "t_uint32"
          },
          {
            "astId": 1563,
            "contract": "contracts/Chain.sol:Chain",
            "label": "lastTimestamp",
            "offset": 8,
            "slot": "0",
            "type": "t_uint32"
          },
          {
            "astId": 1565,
            "contract": "contracts/Chain.sol:Chain",
            "label": "padding",
            "offset": 12,
            "slot": "0",
            "type": "t_uint32"
          },
          {
            "astId": 1567,
            "contract": "contracts/Chain.sol:Chain",
            "label": "deprecated",
            "offset": 16,
            "slot": "0",
            "type": "t_bool"
          }
        ],
        "numberOfBytes": "32"
      },
      "t_struct(FirstClassData)1557_storage": {
        "encoding": "inplace",
        "label": "struct BaseChain.FirstClassData",
        "members": [
          {
            "astId": 1554,
            "contract": "contracts/Chain.sol:Chain",
            "label": "value",
            "offset": 0,
            "slot": "0",
            "type": "t_uint224"
          },
          {
            "astId": 1556,
            "contract": "contracts/Chain.sol:Chain",
            "label": "dataTimestamp",
            "offset": 28,
            "slot": "0",
            "type": "t_uint32"
          }
        ],
        "numberOfBytes": "32"
      },
      "t_uint224": {
        "encoding": "inplace",
        "label": "uint224",
        "numberOfBytes": "28"
      },
      "t_uint256": {
        "encoding": "inplace",
        "label": "uint256",
        "numberOfBytes": "32"
      },
      "t_uint32": {
        "encoding": "inplace",
        "label": "uint32",
        "numberOfBytes": "4"
      }
    }
  }
}