{
  "address": "0x88d71A7E589A9215C450566910858B57f07fcABB",
  "abi": [
    {
      "inputs": [
        {
          "internalType": "uint256",
          "name": "_validatorsCount",
          "type": "uint256"
        }
      ],
      "stateMutability": "nonpayable",
      "type": "constructor"
    },
    {
      "inputs": [],
      "name": "NotSupported",
      "type": "error"
    },
    {
      "anonymous": false,
      "inputs": [
        {
          "indexed": true,
          "internalType": "address",
          "name": "owner",
          "type": "address"
        },
        {
          "indexed": true,
          "internalType": "address",
          "name": "spender",
          "type": "address"
        },
        {
          "indexed": false,
          "internalType": "uint256",
          "name": "value",
          "type": "uint256"
        }
      ],
      "name": "Approval",
      "type": "event"
    },
    {
      "anonymous": false,
      "inputs": [
        {
          "indexed": false,
          "internalType": "uint256",
          "name": "minAmountForStake",
          "type": "uint256"
        }
      ],
      "name": "LogMinAmountForStake",
      "type": "event"
    },
    {
      "anonymous": false,
      "inputs": [
        {
          "indexed": true,
          "internalType": "address",
          "name": "id",
          "type": "address"
        }
      ],
      "name": "LogValidatorRegistered",
      "type": "event"
    },
    {
      "anonymous": false,
      "inputs": [
        {
          "indexed": true,
          "internalType": "address",
          "name": "id",
          "type": "address"
        }
      ],
      "name": "LogValidatorRemoved",
      "type": "event"
    },
    {
      "anonymous": false,
      "inputs": [
        {
          "indexed": true,
          "internalType": "address",
          "name": "id",
          "type": "address"
        }
      ],
      "name": "LogValidatorUpdated",
      "type": "event"
    },
    {
      "anonymous": false,
      "inputs": [
        {
          "indexed": true,
          "internalType": "address",
          "name": "from",
          "type": "address"
        },
        {
          "indexed": true,
          "internalType": "address",
          "name": "to",
          "type": "address"
        },
        {
          "indexed": false,
          "internalType": "uint256",
          "name": "value",
          "type": "uint256"
        }
      ],
      "name": "Transfer",
      "type": "event"
    },
    {
      "inputs": [],
      "name": "NUMBER_OF_VALIDATORS",
      "outputs": [
        {
          "internalType": "uint256",
          "name": "",
          "type": "uint256"
        }
      ],
      "stateMutability": "view",
      "type": "function"
    },
    {
      "inputs": [],
      "name": "TOTAL_SUPPLY",
      "outputs": [
        {
          "internalType": "uint256",
          "name": "",
          "type": "uint256"
        }
      ],
      "stateMutability": "view",
      "type": "function"
    },
    {
      "inputs": [],
      "name": "VALIDATOR_0",
      "outputs": [
        {
          "internalType": "address",
          "name": "",
          "type": "address"
        }
      ],
      "stateMutability": "view",
      "type": "function"
    },
    {
      "inputs": [],
      "name": "VALIDATOR_1",
      "outputs": [
        {
          "internalType": "address",
          "name": "",
          "type": "address"
        }
      ],
      "stateMutability": "view",
      "type": "function"
    },
    {
      "inputs": [
        {
          "internalType": "uint256",
          "name": "_ix",
          "type": "uint256"
        }
      ],
      "name": "addresses",
      "outputs": [
        {
          "internalType": "address",
          "name": "",
          "type": "address"
        }
      ],
      "stateMutability": "view",
      "type": "function"
    },
    {
      "inputs": [
        {
          "internalType": "address",
          "name": "",
          "type": "address"
        },
        {
          "internalType": "address",
          "name": "",
          "type": "address"
        }
      ],
      "name": "allowance",
      "outputs": [
        {
          "internalType": "uint256",
          "name": "",
          "type": "uint256"
        }
      ],
      "stateMutability": "pure",
      "type": "function"
    },
    {
      "inputs": [
        {
          "internalType": "address",
          "name": "",
          "type": "address"
        },
        {
          "internalType": "uint256",
          "name": "",
          "type": "uint256"
        }
      ],
      "name": "approve",
      "outputs": [
        {
          "internalType": "bool",
          "name": "",
          "type": "bool"
        }
      ],
      "stateMutability": "pure",
      "type": "function"
    },
    {
      "inputs": [
        {
          "internalType": "address",
          "name": "_account",
          "type": "address"
        }
      ],
      "name": "balanceOf",
      "outputs": [
        {
          "internalType": "uint256",
          "name": "",
          "type": "uint256"
        }
      ],
      "stateMutability": "view",
      "type": "function"
    },
    {
      "inputs": [
        {
          "internalType": "address",
          "name": "_validator",
          "type": "address"
        }
      ],
      "name": "balances",
      "outputs": [
        {
          "internalType": "uint256",
          "name": "",
          "type": "uint256"
        }
      ],
      "stateMutability": "view",
      "type": "function"
    },
    {
      "inputs": [
        {
          "internalType": "address",
          "name": "",
          "type": "address"
        },
        {
          "internalType": "string",
          "name": "",
          "type": "string"
        }
      ],
      "name": "create",
      "outputs": [],
      "stateMutability": "pure",
      "type": "function"
    },
    {
      "inputs": [],
      "name": "exit",
      "outputs": [
        {
          "internalType": "bool",
          "name": "",
          "type": "bool"
        }
      ],
      "stateMutability": "pure",
      "type": "function"
    },
    {
      "inputs": [],
      "name": "getAddresses",
      "outputs": [
        {
          "internalType": "address[]",
          "name": "",
          "type": "address[]"
        }
      ],
      "stateMutability": "view",
      "type": "function"
    },
    {
      "inputs": [],
      "name": "getBalances",
      "outputs": [
        {
          "internalType": "uint256[]",
          "name": "allBalances",
          "type": "uint256[]"
        }
      ],
      "stateMutability": "view",
      "type": "function"
    },
    {
      "inputs": [],
      "name": "getName",
      "outputs": [
        {
          "internalType": "bytes32",
          "name": "",
          "type": "bytes32"
        }
      ],
      "stateMutability": "pure",
      "type": "function"
    },
    {
      "inputs": [],
      "name": "getNumberOfValidators",
      "outputs": [
        {
          "internalType": "uint256",
          "name": "",
          "type": "uint256"
        }
      ],
      "stateMutability": "view",
      "type": "function"
    },
    {
      "inputs": [
        {
          "internalType": "address",
          "name": "",
          "type": "address"
        }
      ],
      "name": "receiveApproval",
      "outputs": [
        {
          "internalType": "bool",
          "name": "",
          "type": "bool"
        }
      ],
      "stateMutability": "pure",
      "type": "function"
    },
    {
      "inputs": [],
      "name": "register",
      "outputs": [],
      "stateMutability": "nonpayable",
      "type": "function"
    },
    {
      "inputs": [
        {
          "internalType": "address",
          "name": "",
          "type": "address"
        }
      ],
      "name": "remove",
      "outputs": [],
      "stateMutability": "pure",
      "type": "function"
    },
    {
      "inputs": [
        {
          "internalType": "uint256",
          "name": "",
          "type": "uint256"
        }
      ],
      "name": "setMinAmountForStake",
      "outputs": [],
      "stateMutability": "pure",
      "type": "function"
    },
    {
      "inputs": [
        {
          "internalType": "uint256",
          "name": "",
          "type": "uint256"
        }
      ],
      "name": "stake",
      "outputs": [],
      "stateMutability": "pure",
      "type": "function"
    },
    {
      "inputs": [],
      "name": "totalSupply",
      "outputs": [
        {
          "internalType": "uint256",
          "name": "",
          "type": "uint256"
        }
      ],
      "stateMutability": "view",
      "type": "function"
    },
    {
      "inputs": [
        {
          "internalType": "address",
          "name": "",
          "type": "address"
        },
        {
          "internalType": "uint256",
          "name": "",
          "type": "uint256"
        }
      ],
      "name": "transfer",
      "outputs": [
        {
          "internalType": "bool",
          "name": "",
          "type": "bool"
        }
      ],
      "stateMutability": "pure",
      "type": "function"
    },
    {
      "inputs": [
        {
          "internalType": "address",
          "name": "",
          "type": "address"
        },
        {
          "internalType": "address",
          "name": "",
          "type": "address"
        },
        {
          "internalType": "uint256",
          "name": "",
          "type": "uint256"
        }
      ],
      "name": "transferFrom",
      "outputs": [
        {
          "internalType": "bool",
          "name": "",
          "type": "bool"
        }
      ],
      "stateMutability": "pure",
      "type": "function"
    },
    {
      "inputs": [],
      "name": "unregister",
      "outputs": [],
      "stateMutability": "nonpayable",
      "type": "function"
    },
    {
      "inputs": [
        {
          "internalType": "address",
          "name": "",
          "type": "address"
        },
        {
          "internalType": "string",
          "name": "",
          "type": "string"
        }
      ],
      "name": "update",
      "outputs": [],
      "stateMutability": "pure",
      "type": "function"
    },
    {
      "inputs": [
        {
          "internalType": "address",
          "name": "_id",
          "type": "address"
        }
      ],
      "name": "validators",
      "outputs": [
        {
          "internalType": "address",
          "name": "id",
          "type": "address"
        },
        {
          "internalType": "string",
          "name": "location",
          "type": "string"
        }
      ],
      "stateMutability": "view",
      "type": "function"
    },
    {
      "inputs": [
        {
          "internalType": "uint256",
          "name": "",
          "type": "uint256"
        }
      ],
      "name": "withdraw",
      "outputs": [
        {
          "internalType": "bool",
          "name": "",
          "type": "bool"
        }
      ],
      "stateMutability": "pure",
      "type": "function"
    }
  ],
  "transactionHash": "0x13ad0e3d06297337c0f2c1bbf7910d1647457d06c7f23969d5c687b246bec93a",
  "args": [
    2
  ],
  "numDeployments": 1,
  "solcInputHash": "b015efa9add0be63a2cb5c22ab840a21",
  "bytecode": "0x60c06040523480156200001157600080fd5b506040516200147d3803806200147d833981810160405281019062000037919062000090565b8080608081815250508060a081815250505050620000c2565b600080fd5b6000819050919050565b6200006a8162000055565b81146200007657600080fd5b50565b6000815190506200008a816200005f565b92915050565b600060208284031215620000a957620000a862000050565b5b6000620000b98482850162000079565b91505092915050565b60805160a0516113726200010b600039600081816106b8015261083c01526000818161055e015281816105cc01528181610862015281816109470152610b8e01526113726000f3fe608060405234801561001057600080fd5b50600436106101a85760003560e01c8063838e7c3a116100f9578063a9059cbb11610097578063e79a198f11610071578063e79a198f146104d1578063e9fad8ee146104db578063edf26d9b146104f9578063fa52c7d814610529576101a8565b8063a9059cbb14610453578063db73177714610483578063dd62ed3e146104a1576101a8565b80639f0e9484116100d35780639f0e9484146103df578063a15ab08d146103fd578063a39fac1214610419578063a694fc3a14610437576101a8565b8063838e7c3a14610387578063902d55a5146103a35780639031d913146103c1576101a8565b806323b872dd116101665780632e1a7d4d116101405780632e1a7d4d146102ed578063411ff4971461031d57806352b41e351461033b57806370a0823114610357576101a8565b806323b872dd1461027157806327e235e3146102a157806329092d0e146102d1576101a8565b8062113e08146101ad578063095ea7b3146101cb5780630db18e37146101fb57806317d7de7c1461022b57806318160ddd146102495780631aa3a00814610267575b600080fd5b6101b561055a565b6040516101c29190610d8c565b60405180910390f35b6101e560048036038101906101e09190610e42565b610624565b6040516101f29190610e9d565b60405180910390f35b61021560048036038101906102109190610eb8565b610658565b6040516102229190610e9d565b60405180910390f35b61023361068c565b6040516102409190610efe565b60405180910390f35b6102516106b4565b60405161025e9190610f28565b60405180910390f35b61026f6106dc565b005b61028b60048036038101906102869190610f43565b6106de565b6040516102989190610e9d565b60405180910390f35b6102bb60048036038101906102b69190610eb8565b610712565b6040516102c89190610f28565b60405180910390f35b6102eb60048036038101906102e69190610eb8565b610735565b005b61030760048036038101906103029190610f96565b610767565b6040516103149190610e9d565b60405180910390f35b61032561079b565b6040516103329190610fd2565b60405180910390f35b61035560048036038101906103509190610f96565b6107b3565b005b610371600480360381019061036c9190610eb8565b6107e5565b60405161037e9190610f28565b60405180910390f35b6103a1600480360381019061039c9190611052565b610808565b005b6103ab61083a565b6040516103b89190610f28565b60405180910390f35b6103c961085e565b6040516103d69190610f28565b60405180910390f35b6103e7610886565b6040516103f49190610fd2565b60405180910390f35b61041760048036038101906104129190611052565b61089e565b005b6104216108d0565b60405161042e9190611170565b60405180910390f35b610451600480360381019061044c9190610f96565b6108df565b005b61046d60048036038101906104689190610e42565b610911565b60405161047a9190610e9d565b60405180910390f35b61048b610945565b6040516104989190610f28565b60405180910390f35b6104bb60048036038101906104b69190611192565b610969565b6040516104c89190610f28565b60405180910390f35b6104d961099d565b005b6104e361099f565b6040516104f09190610e9d565b60405180910390f35b610513600480360381019061050e9190610f96565b6109d3565b6040516105209190610fd2565b60405180910390f35b610543600480360381019061053e9190610eb8565b6109fe565b60405161055192919061126b565b60405180910390f35b60607f000000000000000000000000000000000000000000000000000000000000000067ffffffffffffffff8111156105965761059561129b565b5b6040519080825280602002602001820160405280156105c45781602001602082028036833780820191505090505b50905060005b7f0000000000000000000000000000000000000000000000000000000000000000811015610620576001828281518110610607576106066112ca565b5b60200260200101818152505080806001019150506105ca565b5090565b60006040517fa038794000000000000000000000000000000000000000000000000000000000815260040160405180910390fd5b60006040517fa038794000000000000000000000000000000000000000000000000000000000815260040160405180910390fd5b60007f5374616b696e6742616e6b000000000000000000000000000000000000000000905090565b60007f0000000000000000000000000000000000000000000000000000000000000000905090565b565b60006040517fa038794000000000000000000000000000000000000000000000000000000000815260040160405180910390fd5b600061071d82610af2565b61072857600061072b565b60015b60ff169050919050565b6040517fa038794000000000000000000000000000000000000000000000000000000000815260040160405180910390fd5b60006040517fa038794000000000000000000000000000000000000000000000000000000000815260040160405180910390fd5b73998cb7821e605cc16b6174e7c50e19adb2dd2fb081565b6040517fa038794000000000000000000000000000000000000000000000000000000000815260040160405180910390fd5b60006107f082610af2565b6107fb5760006107fe565b60015b60ff169050919050565b6040517fa038794000000000000000000000000000000000000000000000000000000000815260040160405180910390fd5b7f000000000000000000000000000000000000000000000000000000000000000081565b60007f0000000000000000000000000000000000000000000000000000000000000000905090565b73dc3ebc37da53a644d67e5e3b5ba4eef88d969d5c81565b6040517fa038794000000000000000000000000000000000000000000000000000000000815260040160405180910390fd5b60606108da610b88565b905090565b6040517fa038794000000000000000000000000000000000000000000000000000000000815260040160405180910390fd5b60006040517fa038794000000000000000000000000000000000000000000000000000000000815260040160405180910390fd5b7f000000000000000000000000000000000000000000000000000000000000000081565b60006040517fa038794000000000000000000000000000000000000000000000000000000000815260040160405180910390fd5b565b60006040517fa038794000000000000000000000000000000000000000000000000000000000815260040160405180910390fd5b60006109dd610b88565b82815181106109ef576109ee6112ca565b5b60200260200101519050919050565b6000606073dc3ebc37da53a644d67e5e3b5ba4eef88d969d5c73ffffffffffffffffffffffffffffffffffffffff168373ffffffffffffffffffffffffffffffffffffffff1603610a6c57826040518060600160405280602181526020016112fa6021913991509150610aed565b73998cb7821e605cc16b6174e7c50e19adb2dd2fb073ffffffffffffffffffffffffffffffffffffffff168373ffffffffffffffffffffffffffffffffffffffff1603610ad6578260405180606001604052806022815260200161131b6022913991509150610aed565b600060405180602001604052806000815250915091505b915091565b600073dc3ebc37da53a644d67e5e3b5ba4eef88d969d5c73ffffffffffffffffffffffffffffffffffffffff168273ffffffffffffffffffffffffffffffffffffffff161480610b81575073998cb7821e605cc16b6174e7c50e19adb2dd2fb073ffffffffffffffffffffffffffffffffffffffff168273ffffffffffffffffffffffffffffffffffffffff16145b9050919050565b606060007f000000000000000000000000000000000000000000000000000000000000000067ffffffffffffffff811115610bc657610bc561129b565b5b604051908082528060200260200182016040528015610bf45781602001602082028036833780820191505090505b50905073dc3ebc37da53a644d67e5e3b5ba4eef88d969d5c81600081518110610c2057610c1f6112ca565b5b602002602001019073ffffffffffffffffffffffffffffffffffffffff16908173ffffffffffffffffffffffffffffffffffffffff168152505073998cb7821e605cc16b6174e7c50e19adb2dd2fb081600181518110610c8357610c826112ca565b5b602002602001019073ffffffffffffffffffffffffffffffffffffffff16908173ffffffffffffffffffffffffffffffffffffffff16815250508091505090565b600081519050919050565b600082825260208201905092915050565b6000819050602082019050919050565b6000819050919050565b610d0381610cf0565b82525050565b6000610d158383610cfa565b60208301905092915050565b6000602082019050919050565b6000610d3982610cc4565b610d438185610ccf565b9350610d4e83610ce0565b8060005b83811015610d7f578151610d668882610d09565b9750610d7183610d21565b925050600181019050610d52565b5085935050505092915050565b60006020820190508181036000830152610da68184610d2e565b905092915050565b600080fd5b600080fd5b600073ffffffffffffffffffffffffffffffffffffffff82169050919050565b6000610de382610db8565b9050919050565b610df381610dd8565b8114610dfe57600080fd5b50565b600081359050610e1081610dea565b92915050565b610e1f81610cf0565b8114610e2a57600080fd5b50565b600081359050610e3c81610e16565b92915050565b60008060408385031215610e5957610e58610dae565b5b6000610e6785828601610e01565b9250506020610e7885828601610e2d565b9150509250929050565b60008115159050919050565b610e9781610e82565b82525050565b6000602082019050610eb26000830184610e8e565b92915050565b600060208284031215610ece57610ecd610dae565b5b6000610edc84828501610e01565b91505092915050565b6000819050919050565b610ef881610ee5565b82525050565b6000602082019050610f136000830184610eef565b92915050565b610f2281610cf0565b82525050565b6000602082019050610f3d6000830184610f19565b92915050565b600080600060608486031215610f5c57610f5b610dae565b5b6000610f6a86828701610e01565b9350506020610f7b86828701610e01565b9250506040610f8c86828701610e2d565b9150509250925092565b600060208284031215610fac57610fab610dae565b5b6000610fba84828501610e2d565b91505092915050565b610fcc81610dd8565b82525050565b6000602082019050610fe76000830184610fc3565b92915050565b600080fd5b600080fd5b600080fd5b60008083601f84011261101257611011610fed565b5b8235905067ffffffffffffffff81111561102f5761102e610ff2565b5b60208301915083600182028301111561104b5761104a610ff7565b5b9250929050565b60008060006040848603121561106b5761106a610dae565b5b600061107986828701610e01565b935050602084013567ffffffffffffffff81111561109a57611099610db3565b5b6110a686828701610ffc565b92509250509250925092565b600081519050919050565b600082825260208201905092915050565b6000819050602082019050919050565b6110e781610dd8565b82525050565b60006110f983836110de565b60208301905092915050565b6000602082019050919050565b600061111d826110b2565b61112781856110bd565b9350611132836110ce565b8060005b8381101561116357815161114a88826110ed565b975061115583611105565b925050600181019050611136565b5085935050505092915050565b6000602082019050818103600083015261118a8184611112565b905092915050565b600080604083850312156111a9576111a8610dae565b5b60006111b785828601610e01565b92505060206111c885828601610e01565b9150509250929050565b600081519050919050565b600082825260208201905092915050565b60005b8381101561120c5780820151818401526020810190506111f1565b8381111561121b576000848401525b50505050565b6000601f19601f8301169050919050565b600061123d826111d2565b61124781856111dd565b93506112578185602086016111ee565b61126081611221565b840191505092915050565b60006040820190506112806000830185610fc3565b81810360208301526112928184611232565b90509392505050565b7f4e487b7100000000000000000000000000000000000000000000000000000000600052604160045260246000fd5b7f4e487b7100000000000000000000000000000000000000000000000000000000600052603260045260246000fdfe68747470733a2f2f76616c696461746f722e6465762e756d622e6e6574776f726b68747470733a2f2f76616c696461746f72322e6465762e756d622e6e6574776f726ba2646970667358221220d8b76bc0958e6d031b02d9912a286a3d2700474887ad8f6e8171e4adf5b4218c64736f6c634300080d0033",
  "devdoc": {
    "kind": "dev",
    "methods": {
      "addresses(uint256)": {
        "details": "gets validator address for provided index",
        "params": {
          "_ix": "index in array of list of all validators wallets"
        }
      },
      "exit()": {
        "details": "unstake and withdraw all tokens"
      },
      "getName()": {
        "details": "to follow Registrable interface"
      },
      "getNumberOfValidators()": {
        "returns": {
          "_0": "total number of registered validators (with and without balance)"
        }
      },
      "register()": {
        "details": "to follow Registrable interface"
      },
      "totalSupply()": {
        "details": "Returns the amount of tokens in existence."
      },
      "unregister()": {
        "details": "to follow Registrable interface"
      },
      "validators(address)": {
        "params": {
          "_id": "address of validator"
        },
        "returns": {
          "id": "address of validator",
          "location": "URL of validator"
        }
      }
    },
    "version": 1
  },
  "userdoc": {
    "kind": "user",
    "methods": {},
    "version": 1
  },
  "storageLayout": {
    "storage": [],
    "types": null
  }
}