{
  "address": "0x444561188f13f78f2F12bCf794aff9b37872592a",
  "abi": [
    {
      "inputs": [
        {
          "internalType": "contract IRegistry",
          "name": "_contractRegistry",
          "type": "address"
        },
        {
          "internalType": "uint16",
          "name": "_requiredSignatures",
          "type": "uint16"
        },
        {
          "internalType": "uint8",
          "name": "_decimals",
          "type": "uint8"
        }
      ],
      "stateMutability": "nonpayable",
      "type": "constructor"
    },
    {
      "inputs": [],
      "name": "ArraysDataDoNotMatch",
      "type": "error"
    },
    {
      "inputs": [],
      "name": "DataReset",
      "type": "error"
    },
    {
      "inputs": [],
      "name": "FeedNotExist",
      "type": "error"
    },
    {
      "inputs": [],
      "name": "InvalidRequiredSignatures",
      "type": "error"
    },
    {
      "inputs": [],
      "name": "InvalidSigner",
      "type": "error"
    },
    {
      "inputs": [],
      "name": "NotEnoughSignatures",
      "type": "error"
    },
    {
      "inputs": [],
      "name": "OldData",
      "type": "error"
    },
    {
      "inputs": [],
      "name": "SignaturesOutOfOrder",
      "type": "error"
    },
    {
      "inputs": [],
      "name": "DATA_RESET",
      "outputs": [
        {
          "internalType": "uint8",
          "name": "",
          "type": "uint8"
        }
      ],
      "stateMutability": "view",
      "type": "function"
    },
    {
      "inputs": [],
      "name": "DECIMALS",
      "outputs": [
        {
          "internalType": "uint8",
          "name": "",
          "type": "uint8"
        }
      ],
      "stateMutability": "view",
      "type": "function"
    },
    {
      "inputs": [],
      "name": "ETH_PREFIX",
      "outputs": [
        {
          "internalType": "bytes",
          "name": "",
          "type": "bytes"
        }
      ],
      "stateMutability": "view",
      "type": "function"
    },
    {
      "inputs": [],
      "name": "NAME",
      "outputs": [
        {
          "internalType": "string",
          "name": "",
          "type": "string"
        }
      ],
      "stateMutability": "view",
      "type": "function"
    },
    {
      "inputs": [],
      "name": "REGISTRY",
      "outputs": [
        {
          "internalType": "contract IRegistry",
          "name": "",
          "type": "address"
        }
      ],
      "stateMutability": "view",
      "type": "function"
    },
    {
      "inputs": [],
      "name": "REQUIRED_SIGNATURES",
      "outputs": [
        {
          "internalType": "uint16",
          "name": "",
          "type": "uint16"
        }
      ],
      "stateMutability": "view",
      "type": "function"
    },
    {
      "inputs": [],
      "name": "STAKING_BANK",
      "outputs": [
        {
          "internalType": "contract IStakingBankStatic",
          "name": "",
          "type": "address"
        }
      ],
      "stateMutability": "view",
      "type": "function"
    },
    {
      "inputs": [],
      "name": "getChainId",
      "outputs": [
        {
          "internalType": "uint256",
          "name": "id",
          "type": "uint256"
        }
      ],
      "stateMutability": "view",
      "type": "function"
    },
    {
      "inputs": [
        {
          "internalType": "bytes32[]",
          "name": "_keys",
          "type": "bytes32[]"
        }
      ],
      "name": "getManyPriceData",
      "outputs": [
        {
          "components": [
            {
              "internalType": "uint8",
              "name": "data",
              "type": "uint8"
            },
            {
              "internalType": "uint24",
              "name": "heartbeat",
              "type": "uint24"
            },
            {
              "internalType": "uint32",
              "name": "timestamp",
              "type": "uint32"
            },
            {
              "internalType": "uint128",
              "name": "price",
              "type": "uint128"
            }
          ],
          "internalType": "struct IUmbrellaFeeds.PriceData[]",
          "name": "data",
          "type": "tuple[]"
        }
      ],
      "stateMutability": "view",
      "type": "function"
    },
    {
      "inputs": [
        {
          "internalType": "bytes32[]",
          "name": "_keys",
          "type": "bytes32[]"
        }
      ],
      "name": "getManyPriceDataRaw",
      "outputs": [
        {
          "components": [
            {
              "internalType": "uint8",
              "name": "data",
              "type": "uint8"
            },
            {
              "internalType": "uint24",
              "name": "heartbeat",
              "type": "uint24"
            },
            {
              "internalType": "uint32",
              "name": "timestamp",
              "type": "uint32"
            },
            {
              "internalType": "uint128",
              "name": "price",
              "type": "uint128"
            }
          ],
          "internalType": "struct IUmbrellaFeeds.PriceData[]",
          "name": "data",
          "type": "tuple[]"
        }
      ],
      "stateMutability": "view",
      "type": "function"
    },
    {
      "inputs": [],
      "name": "getName",
      "outputs": [
        {
          "internalType": "bytes32",
          "name": "",
          "type": "bytes32"
        }
      ],
      "stateMutability": "pure",
      "type": "function"
    },
    {
      "inputs": [
        {
          "internalType": "bytes32",
          "name": "_key",
          "type": "bytes32"
        }
      ],
      "name": "getPrice",
      "outputs": [
        {
          "internalType": "uint128",
          "name": "price",
          "type": "uint128"
        }
      ],
      "stateMutability": "view",
      "type": "function"
    },
    {
      "inputs": [
        {
          "internalType": "bytes32",
          "name": "_key",
          "type": "bytes32"
        }
      ],
      "name": "getPriceData",
      "outputs": [
        {
          "components": [
            {
              "internalType": "uint8",
              "name": "data",
              "type": "uint8"
            },
            {
              "internalType": "uint24",
              "name": "heartbeat",
              "type": "uint24"
            },
            {
              "internalType": "uint32",
              "name": "timestamp",
              "type": "uint32"
            },
            {
              "internalType": "uint128",
              "name": "price",
              "type": "uint128"
            }
          ],
          "internalType": "struct IUmbrellaFeeds.PriceData",
          "name": "data",
          "type": "tuple"
        }
      ],
      "stateMutability": "view",
      "type": "function"
    },
    {
      "inputs": [
        {
          "internalType": "string",
          "name": "_name",
          "type": "string"
        }
      ],
      "name": "getPriceDataByName",
      "outputs": [
        {
          "components": [
            {
              "internalType": "uint8",
              "name": "data",
              "type": "uint8"
            },
            {
              "internalType": "uint24",
              "name": "heartbeat",
              "type": "uint24"
            },
            {
              "internalType": "uint32",
              "name": "timestamp",
              "type": "uint32"
            },
            {
              "internalType": "uint128",
              "name": "price",
              "type": "uint128"
            }
          ],
          "internalType": "struct IUmbrellaFeeds.PriceData",
          "name": "data",
          "type": "tuple"
        }
      ],
      "stateMutability": "view",
      "type": "function"
    },
    {
      "inputs": [
        {
          "internalType": "bytes32",
          "name": "_key",
          "type": "bytes32"
        }
      ],
      "name": "getPriceDataRaw",
      "outputs": [
        {
          "components": [
            {
              "internalType": "uint8",
              "name": "data",
              "type": "uint8"
            },
            {
              "internalType": "uint24",
              "name": "heartbeat",
              "type": "uint24"
            },
            {
              "internalType": "uint32",
              "name": "timestamp",
              "type": "uint32"
            },
            {
              "internalType": "uint128",
              "name": "price",
              "type": "uint128"
            }
          ],
          "internalType": "struct IUmbrellaFeeds.PriceData",
          "name": "data",
          "type": "tuple"
        }
      ],
      "stateMutability": "view",
      "type": "function"
    },
    {
      "inputs": [
        {
          "internalType": "bytes32",
          "name": "_key",
          "type": "bytes32"
        }
      ],
      "name": "getPriceTimestamp",
      "outputs": [
        {
          "internalType": "uint128",
          "name": "price",
          "type": "uint128"
        },
        {
          "internalType": "uint32",
          "name": "timestamp",
          "type": "uint32"
        }
      ],
      "stateMutability": "view",
      "type": "function"
    },
    {
      "inputs": [
        {
          "internalType": "bytes32",
          "name": "_key",
          "type": "bytes32"
        }
      ],
      "name": "getPriceTimestampHeartbeat",
      "outputs": [
        {
          "internalType": "uint128",
          "name": "price",
          "type": "uint128"
        },
        {
          "internalType": "uint32",
          "name": "timestamp",
          "type": "uint32"
        },
        {
          "internalType": "uint24",
          "name": "heartbeat",
          "type": "uint24"
        }
      ],
      "stateMutability": "view",
      "type": "function"
    },
    {
      "inputs": [
        {
          "internalType": "bytes32[]",
          "name": "_priceKeys",
          "type": "bytes32[]"
        },
        {
          "components": [
            {
              "internalType": "uint8",
              "name": "data",
              "type": "uint8"
            },
            {
              "internalType": "uint24",
              "name": "heartbeat",
              "type": "uint24"
            },
            {
              "internalType": "uint32",
              "name": "timestamp",
              "type": "uint32"
            },
            {
              "internalType": "uint128",
              "name": "price",
              "type": "uint128"
            }
          ],
          "internalType": "struct IUmbrellaFeeds.PriceData[]",
          "name": "_priceDatas",
          "type": "tuple[]"
        }
      ],
      "name": "hashData",
      "outputs": [
        {
          "internalType": "bytes32",
          "name": "",
          "type": "bytes32"
        }
      ],
      "stateMutability": "view",
      "type": "function"
    },
    {
      "inputs": [
        {
          "internalType": "string",
          "name": "_key",
          "type": "string"
        }
      ],
      "name": "priceData",
      "outputs": [
        {
          "components": [
            {
              "internalType": "uint8",
              "name": "data",
              "type": "uint8"
            },
            {
              "internalType": "uint24",
              "name": "heartbeat",
              "type": "uint24"
            },
            {
              "internalType": "uint32",
              "name": "timestamp",
              "type": "uint32"
            },
            {
              "internalType": "uint128",
              "name": "price",
              "type": "uint128"
            }
          ],
          "internalType": "struct IUmbrellaFeeds.PriceData",
          "name": "",
          "type": "tuple"
        }
      ],
      "stateMutability": "view",
      "type": "function"
    },
    {
      "inputs": [
        {
          "internalType": "bytes32",
          "name": "_key",
          "type": "bytes32"
        }
      ],
      "name": "prices",
      "outputs": [
        {
          "components": [
            {
              "internalType": "uint8",
              "name": "data",
              "type": "uint8"
            },
            {
              "internalType": "uint24",
              "name": "heartbeat",
              "type": "uint24"
            },
            {
              "internalType": "uint32",
              "name": "timestamp",
              "type": "uint32"
            },
            {
              "internalType": "uint128",
              "name": "price",
              "type": "uint128"
            }
          ],
          "internalType": "struct IUmbrellaFeeds.PriceData",
          "name": "data",
          "type": "tuple"
        }
      ],
      "stateMutability": "view",
      "type": "function"
    },
    {
      "inputs": [
        {
          "internalType": "bytes32",
          "name": "_hash",
          "type": "bytes32"
        },
        {
          "internalType": "uint8",
          "name": "_v",
          "type": "uint8"
        },
        {
          "internalType": "bytes32",
          "name": "_r",
          "type": "bytes32"
        },
        {
          "internalType": "bytes32",
          "name": "_s",
          "type": "bytes32"
        }
      ],
      "name": "recoverSigner",
      "outputs": [
        {
          "internalType": "address",
          "name": "",
          "type": "address"
        }
      ],
      "stateMutability": "pure",
      "type": "function"
    },
    {
      "inputs": [
        {
          "internalType": "bytes32[]",
          "name": "_priceKeys",
          "type": "bytes32[]"
        },
        {
          "components": [
            {
              "internalType": "uint8",
              "name": "v",
              "type": "uint8"
            },
            {
              "internalType": "bytes32",
              "name": "r",
              "type": "bytes32"
            },
            {
              "internalType": "bytes32",
              "name": "s",
              "type": "bytes32"
            }
          ],
          "internalType": "struct IUmbrellaFeeds.Signature[]",
          "name": "_signatures",
          "type": "tuple[]"
        }
      ],
      "name": "reset",
      "outputs": [],
      "stateMutability": "nonpayable",
      "type": "function"
    },
    {
      "inputs": [
        {
          "internalType": "bytes32[]",
          "name": "_priceKeys",
          "type": "bytes32[]"
        },
        {
          "components": [
            {
              "internalType": "uint8",
              "name": "data",
              "type": "uint8"
            },
            {
              "internalType": "uint24",
              "name": "heartbeat",
              "type": "uint24"
            },
            {
              "internalType": "uint32",
              "name": "timestamp",
              "type": "uint32"
            },
            {
              "internalType": "uint128",
              "name": "price",
              "type": "uint128"
            }
          ],
          "internalType": "struct IUmbrellaFeeds.PriceData[]",
          "name": "_priceDatas",
          "type": "tuple[]"
        },
        {
          "components": [
            {
              "internalType": "uint8",
              "name": "v",
              "type": "uint8"
            },
            {
              "internalType": "bytes32",
              "name": "r",
              "type": "bytes32"
            },
            {
              "internalType": "bytes32",
              "name": "s",
              "type": "bytes32"
            }
          ],
          "internalType": "struct IUmbrellaFeeds.Signature[]",
          "name": "_signatures",
          "type": "tuple[]"
        }
      ],
      "name": "update",
      "outputs": [],
      "stateMutability": "nonpayable",
      "type": "function"
    },
    {
      "inputs": [
        {
          "internalType": "bytes32",
          "name": "_hash",
          "type": "bytes32"
        },
        {
          "components": [
            {
              "internalType": "uint8",
              "name": "v",
              "type": "uint8"
            },
            {
              "internalType": "bytes32",
              "name": "r",
              "type": "bytes32"
            },
            {
              "internalType": "bytes32",
              "name": "s",
              "type": "bytes32"
            }
          ],
          "internalType": "struct IUmbrellaFeeds.Signature[]",
          "name": "_signatures",
          "type": "tuple[]"
        }
      ],
      "name": "verifySignatures",
      "outputs": [],
      "stateMutability": "view",
      "type": "function"
    }
  ],
  "transactionHash": "0xd6758d38074aaeef144f7006035ae75598bc0a6e3954425f41d4790dc0447e4b",
  "args": [
    "0x85853685b5165Da1AAB09B10e927da3c2eCD429f",
    2,
    8
  ],
  "numDeployments": 1,
  "solcInputHash": "68bee604d5b9090f624ff6ec4adf2ec5",
  "bytecode": "0x6101006040523480156200001257600080fd5b50604051620039743803806200397483398181016040528101906200003891906200027d565b60008261ffff160362000077576040517f458bb42100000000000000000000000000000000000000000000000000000000815260040160405180910390fd5b8273ffffffffffffffffffffffffffffffffffffffff1660808173ffffffffffffffffffffffffffffffffffffffff16815250508161ffff1660c08161ffff16815250508273ffffffffffffffffffffffffffffffffffffffff166346bcb49d6040518163ffffffff1660e01b8152600401620000f490620002ff565b602060405180830381865afa15801562000112573d6000803e3d6000fd5b505050506040513d601f19601f820116820180604052508101906200013891906200034b565b73ffffffffffffffffffffffffffffffffffffffff1660a08173ffffffffffffffffffffffffffffffffffffffff16815250508060ff1660e08160ff16815250505050506200037d565b600080fd5b600073ffffffffffffffffffffffffffffffffffffffff82169050919050565b6000620001b48262000187565b9050919050565b6000620001c882620001a7565b9050919050565b620001da81620001bb565b8114620001e657600080fd5b50565b600081519050620001fa81620001cf565b92915050565b600061ffff82169050919050565b620002198162000200565b81146200022557600080fd5b50565b60008151905062000239816200020e565b92915050565b600060ff82169050919050565b62000257816200023f565b81146200026357600080fd5b50565b60008151905062000277816200024c565b92915050565b60008060006060848603121562000299576200029862000182565b5b6000620002a986828701620001e9565b9350506020620002bc8682870162000228565b9250506040620002cf8682870162000266565b9150509250925092565b7f5374616b696e6742616e6b000000000000000000000000000000000000000000815250565b60006020820190506200031560008301620002d9565b919050565b6200032581620001a7565b81146200033157600080fd5b50565b60008151905062000345816200031a565b92915050565b60006020828403121562000364576200036362000182565b5b6000620003748482850162000334565b91505092915050565b60805160a05160c05160e051613593620003e16000396000610a66015260008181610757015281816107ba0152818161082c015261166b01526000818161098f015261184c0152600081816104d40152818161197b0152611b1901526135936000f3fe608060405234801561001057600080fd5b50600436106101285760003560e01c806306433b1b1461012d57806314de7a241461014b57806317c5d7981461017b57806317d7de7c146101ab57806324c89a49146101c957806326559877146101e75780632e0f2625146102035780632e5506931461022157806331d98b3f146102515780633408e47014610281578063385e05da1461029f57806343fa6211146102cf5780635b38adc7146102ff57806360846bc61461032f5780638a1194d31461035f57806390957dd31461039057806395f1cf30146103ae57806396594f66146103ca5780639ac18b19146103fc5780639e551beb1461041a578063a3f4df7e14610436578063c65a53ad14610454578063ccc6fd6914610472578063d45167d0146104a2575b600080fd5b6101356104d2565b6040516101429190611dda565b60405180910390f35b61016560048036038101906101609190611f4f565b6104f6565b6040516101729190612071565b60405180910390f35b610195600480360381019061019091906120c2565b6105f8565b6040516101a29190612071565b60405180910390f35b6101b36106f2565b6040516101c091906120fe565b60405180910390f35b6101d161071a565b6040516101de91906121a1565b60405180910390f35b61020160048036038101906101fc9190612223565b610753565b005b61020b610a64565b6040516102189190612292565b60405180910390f35b61023b60048036038101906102369190612303565b610a88565b6040516102489190612454565b60405180910390f35b61026b600480360381019061026691906120c2565b610c76565b6040516102789190612485565b60405180910390f35b610289610d73565b60405161029691906124b9565b60405180910390f35b6102b960048036038101906102b49190612303565b610d7b565b6040516102c69190612454565b60405180910390f35b6102e960048036038101906102e491906120c2565b610f69565b6040516102f69190612071565b60405180910390f35b6103196004803603810190610314919061252a565b611063565b6040516103269190612071565b60405180910390f35b610349600480360381019061034491906120c2565b61118c565b6040516103569190612071565b60405180910390f35b610379600480360381019061037491906120c2565b611268565b604051610387929190612586565b60405180910390f35b61039861136e565b6040516103a59190612292565b60405180910390f35b6103c860048036038101906103c39190612605565b611373565b005b6103e460048036038101906103df91906120c2565b611559565b6040516103f3939291906126c8565b60405180910390f35b610404611669565b604051610411919061271c565b60405180910390f35b610434600480360381019061042f9190612737565b61168d565b005b61043e611811565b60405161044b919061280d565b60405180910390f35b61045c61184a565b6040516104699190612850565b60405180910390f35b61048c6004803603810190610487919061286b565b61186e565b60405161049991906120fe565b60405180910390f35b6104bc60048036038101906104b79190612918565b6118b2565b6040516104c991906129a0565b60405180910390f35b7f000000000000000000000000000000000000000000000000000000000000000081565b6104fe611d13565b6000808360405160200161051291906129f7565b6040516020818303038152906040528051906020012081526020019081526020016000206040518060800160405290816000820160009054906101000a900460ff1660ff1660ff1681526020016000820160019054906101000a900462ffffff1662ffffff1662ffffff1681526020016000820160049054906101000a900463ffffffff1663ffffffff1663ffffffff1681526020016000820160089054906101000a90046fffffffffffffffffffffffffffffffff166fffffffffffffffffffffffffffffffff166fffffffffffffffffffffffffffffffff16815250509050919050565b610600611d13565b6000808381526020019081526020016000206040518060800160405290816000820160009054906101000a900460ff1660ff1660ff1681526020016000820160019054906101000a900462ffffff1662ffffff1662ffffff1681526020016000820160049054906101000a900463ffffffff1663ffffffff1663ffffffff1681526020016000820160089054906101000a90046fffffffffffffffffffffffffffffffff166fffffffffffffffffffffffffffffffff166fffffffffffffffffffffffffffffffff168152505090506000816040015163ffffffff16036106ed576106ea8261196f565b90505b919050565b60007f556d6272656c6c61466565647300000000000000000000000000000000000000905090565b6040518060400160405280601c81526020017f19457468657265756d205369676e6564204d6573736167653a0a33320000000081525081565b60007f000000000000000000000000000000000000000000000000000000000000000061ffff168383905010156107b6576040517fe246dc6300000000000000000000000000000000000000000000000000000000815260040160405180910390fd5b60007f000000000000000000000000000000000000000000000000000000000000000061ffff1667ffffffffffffffff8111156107f6576107f5611e24565b5b6040519080825280602002602001820160405280156108245781602001602082028036833780820191505090505b50905060005b7f000000000000000000000000000000000000000000000000000000000000000061ffff1681101561098c5760006108c68787878581811061086f5761086e612a0e565b5b90506060020160000160208101906108879190612a3d565b88888681811061089a57610899612a0e565b5b905060600201602001358989878181106108b7576108b6612a0e565b5b905060600201604001356118b2565b90508073ffffffffffffffffffffffffffffffffffffffff168473ffffffffffffffffffffffffffffffffffffffff161061092d576040517f9079f69b00000000000000000000000000000000000000000000000000000000815260040160405180910390fd5b8093508083838151811061094457610943612a0e565b5b602002602001019073ffffffffffffffffffffffffffffffffffffffff16908173ffffffffffffffffffffffffffffffffffffffff168152505081806001019250505061082a565b507f000000000000000000000000000000000000000000000000000000000000000073ffffffffffffffffffffffffffffffffffffffff16631d4f9ce0826040518263ffffffff1660e01b81526004016109e69190612b28565b602060405180830381865afa158015610a03573d6000803e3d6000fd5b505050506040513d601f19601f82011682018060405250810190610a279190612b82565b610a5d576040517f815e1d6400000000000000000000000000000000000000000000000000000000815260040160405180910390fd5b5050505050565b7f000000000000000000000000000000000000000000000000000000000000000081565b60608282905067ffffffffffffffff811115610aa757610aa6611e24565b5b604051908082528060200260200182016040528015610ae057816020015b610acd611d13565b815260200190600190039081610ac55790505b50905060005b83839050811015610c6f57600080858584818110610b0757610b06612a0e565b5b9050602002013581526020019081526020016000206040518060800160405290816000820160009054906101000a900460ff1660ff1660ff1681526020016000820160019054906101000a900462ffffff1662ffffff1662ffffff1681526020016000820160049054906101000a900463ffffffff1663ffffffff1663ffffffff1681526020016000820160089054906101000a90046fffffffffffffffffffffffffffffffff166fffffffffffffffffffffffffffffffff166fffffffffffffffffffffffffffffffff1681525050828281518110610bea57610be9612a0e565b5b60200260200101819052506000828281518110610c0a57610c09612a0e565b5b60200260200101516040015163ffffffff1603610c6257610c43848483818110610c3757610c36612a0e565b5b9050602002013561196f565b828281518110610c5657610c55612a0e565b5b60200260200101819052505b8080600101915050610ae6565b5092915050565b6000806000808481526020019081526020016000206040518060800160405290816000820160009054906101000a900460ff1660ff1660ff1681526020016000820160019054906101000a900462ffffff1662ffffff1662ffffff1681526020016000820160049054906101000a900463ffffffff1663ffffffff1663ffffffff1681526020016000820160089054906101000a90046fffffffffffffffffffffffffffffffff166fffffffffffffffffffffffffffffffff166fffffffffffffffffffffffffffffffff168152505090506000816040015163ffffffff1603610d6657610d6383611b0d565b90505b8060600151915050919050565b600046905090565b60608282905067ffffffffffffffff811115610d9a57610d99611e24565b5b604051908082528060200260200182016040528015610dd357816020015b610dc0611d13565b815260200190600190039081610db85790505b50905060005b83839050811015610f6257600080858584818110610dfa57610df9612a0e565b5b9050602002013581526020019081526020016000206040518060800160405290816000820160009054906101000a900460ff1660ff1660ff1681526020016000820160019054906101000a900462ffffff1662ffffff1662ffffff1681526020016000820160049054906101000a900463ffffffff1663ffffffff1663ffffffff1681526020016000820160089054906101000a90046fffffffffffffffffffffffffffffffff166fffffffffffffffffffffffffffffffff166fffffffffffffffffffffffffffffffff1681525050828281518110610edd57610edc612a0e565b5b60200260200101819052506000828281518110610efd57610efc612a0e565b5b60200260200101516040015163ffffffff1603610f5557610f36848483818110610f2a57610f29612a0e565b5b90506020020135611b0d565b828281518110610f4957610f48612a0e565b5b60200260200101819052505b8080600101915050610dd9565b5092915050565b610f71611d13565b6000808381526020019081526020016000206040518060800160405290816000820160009054906101000a900460ff1660ff1660ff1681526020016000820160019054906101000a900462ffffff1662ffffff1662ffffff1681526020016000820160049054906101000a900463ffffffff1663ffffffff1663ffffffff1681526020016000820160089054906101000a90046fffffffffffffffffffffffffffffffff166fffffffffffffffffffffffffffffffff166fffffffffffffffffffffffffffffffff168152505090506000816040015163ffffffff160361105e5761105b82611b0d565b90505b919050565b61106b611d13565b60008383604051602001611080929190612bd4565b6040516020818303038152906040528051906020012090506000808281526020019081526020016000206040518060800160405290816000820160009054906101000a900460ff1660ff1660ff1681526020016000820160019054906101000a900462ffffff1662ffffff1662ffffff1681526020016000820160049054906101000a900463ffffffff1663ffffffff1663ffffffff1681526020016000820160089054906101000a90046fffffffffffffffffffffffffffffffff166fffffffffffffffffffffffffffffffff166fffffffffffffffffffffffffffffffff168152505091506000826040015163ffffffff1603611185576111828161196f565b91505b5092915050565b611194611d13565b6000808381526020019081526020016000206040518060800160405290816000820160009054906101000a900460ff1660ff1660ff1681526020016000820160019054906101000a900462ffffff1662ffffff1662ffffff1681526020016000820160049054906101000a900463ffffffff1663ffffffff1663ffffffff1681526020016000820160089054906101000a90046fffffffffffffffffffffffffffffffff166fffffffffffffffffffffffffffffffff166fffffffffffffffffffffffffffffffff16815250509050919050565b60008060008060008581526020019081526020016000206040518060800160405290816000820160009054906101000a900460ff1660ff1660ff1681526020016000820160019054906101000a900462ffffff1662ffffff1662ffffff1681526020016000820160049054906101000a900463ffffffff1663ffffffff1663ffffffff1681526020016000820160089054906101000a90046fffffffffffffffffffffffffffffffff166fffffffffffffffffffffffffffffffff166fffffffffffffffffffffffffffffffff168152505090506000816040015163ffffffff160361135a5761135784611b0d565b90505b806060015181604001519250925050915091565b60ff81565b600061137d610d73565b308888888860405160200161139796959493929190612e4b565b6040516020818303038152906040528051906020012090506113ba818484610753565b60005b8585905081101561154f578585828181106113db576113da612a0e565b5b90506080020160400160208101906113f39190612ea2565b63ffffffff166000808a8a8581811061140f5761140e612a0e565b5b90506020020135815260200190815260200160002060000160049054906101000a900463ffffffff1663ffffffff1610611475576040517f1251b2f300000000000000000000000000000000000000000000000000000000815260040160405180910390fd5b60ff80166000808a8a8581811061148f5761148e612a0e565b5b90506020020135815260200190815260200160002060000160009054906101000a900460ff1660ff16036114ef576040517f4070f90200000000000000000000000000000000000000000000000000000000815260040160405180910390fd5b85858281811061150257611501612a0e565b5b9050608002016000808a8a8581811061151e5761151d612a0e565b5b905060200201358152602001908152602001600020818161153f91906131cc565b90505080806001019150506113bd565b5050505050505050565b6000806000806000808681526020019081526020016000206040518060800160405290816000820160009054906101000a900460ff1660ff1660ff1681526020016000820160019054906101000a900462ffffff1662ffffff1662ffffff1681526020016000820160049054906101000a900463ffffffff1663ffffffff1663ffffffff1681526020016000820160089054906101000a90046fffffffffffffffffffffffffffffffff166fffffffffffffffffffffffffffffffff166fffffffffffffffffffffffffffffffff168152505090506000816040015163ffffffff160361164c5761164985611b0d565b90505b806060015181604001518260200151935093509350509193909250565b7f000000000000000000000000000000000000000000000000000000000000000081565b6000611697610d73565b3086866040516020016116ad94939291906132f6565b6040516020818303038152906040528051906020012090506116d0818484610753565b60005b8585905081101561180957604051806080016040528060ff80168152602001600062ffffff168152602001600063ffffffff16815260200160006fffffffffffffffffffffffffffffffff1681525060008088888581811061173857611737612a0e565b5b90506020020135815260200190815260200160002060008201518160000160006101000a81548160ff021916908360ff16021790555060208201518160000160016101000a81548162ffffff021916908362ffffff16021790555060408201518160000160046101000a81548163ffffffff021916908363ffffffff16021790555060608201518160000160086101000a8154816fffffffffffffffffffffffffffffffff02191690836fffffffffffffffffffffffffffffffff16021790555090505080806001019150506116d3565b505050505050565b6040518060400160405280600d81526020017f556d6272656c6c6146656564730000000000000000000000000000000000000081525081565b7f000000000000000000000000000000000000000000000000000000000000000081565b6000611878610d73565b308686868660405160200161189296959493929190612e4b565b604051602081830303815290604052805190602001209050949350505050565b6000806040518060400160405280601c81526020017f19457468657265756d205369676e6564204d6573736167653a0a333200000000815250866040516020016118fd929190613399565b6040516020818303038152906040528051906020012090506001818686866040516000815260200160405260405161193894939291906133c1565b6020604051602081039080840390855afa15801561195a573d6000803e3d6000fd5b50505060206040510351915050949350505050565b611977611d13565b60007f000000000000000000000000000000000000000000000000000000000000000073ffffffffffffffffffffffffffffffffffffffff166321f8a7216119bd6106f2565b6040518263ffffffff1660e01b81526004016119d991906120fe565b602060405180830381865afa1580156119f6573d6000803e3d6000fd5b505050506040513d601f19601f82011682018060405250810190611a1a9190613432565b90503073ffffffffffffffffffffffffffffffffffffffff168173ffffffffffffffffffffffffffffffffffffffff1614158015611a855750600073ffffffffffffffffffffffffffffffffffffffff168173ffffffffffffffffffffffffffffffffffffffff1614155b15611b07578073ffffffffffffffffffffffffffffffffffffffff166360846bc6846040518263ffffffff1660e01b8152600401611ac391906120fe565b608060405180830381865afa158015611ae0573d6000803e3d6000fd5b505050506040513d601f19601f82011682018060405250810190611b049190613530565b91505b50919050565b611b15611d13565b60007f000000000000000000000000000000000000000000000000000000000000000073ffffffffffffffffffffffffffffffffffffffff1663e8f98f886040518060400160405280600d81526020017f556d6272656c6c614665656473000000000000000000000000000000000000008152506040518263ffffffff1660e01b8152600401611ba5919061280d565b602060405180830381865afa158015611bc2573d6000803e3d6000fd5b505050506040513d601f19601f82011682018060405250810190611be69190613432565b90503073ffffffffffffffffffffffffffffffffffffffff168173ffffffffffffffffffffffffffffffffffffffff1603611c4d576040517f15647ae900000000000000000000000000000000000000000000000000000000815260040160405180910390fd5b8073ffffffffffffffffffffffffffffffffffffffff166360846bc6846040518263ffffffff1660e01b8152600401611c8691906120fe565b608060405180830381865afa158015611ca3573d6000803e3d6000fd5b505050506040513d601f19601f82011682018060405250810190611cc79190613530565b91506000826040015163ffffffff1603611d0d576040517f15647ae900000000000000000000000000000000000000000000000000000000815260040160405180910390fd5b50919050565b6040518060800160405280600060ff168152602001600062ffffff168152602001600063ffffffff16815260200160006fffffffffffffffffffffffffffffffff1681525090565b600073ffffffffffffffffffffffffffffffffffffffff82169050919050565b6000819050919050565b6000611da0611d9b611d9684611d5b565b611d7b565b611d5b565b9050919050565b6000611db282611d85565b9050919050565b6000611dc482611da7565b9050919050565b611dd481611db9565b82525050565b6000602082019050611def6000830184611dcb565b92915050565b6000604051905090565b600080fd5b600080fd5b600080fd5b600080fd5b6000601f19601f8301169050919050565b7f4e487b7100000000000000000000000000000000000000000000000000000000600052604160045260246000fd5b611e5c82611e13565b810181811067ffffffffffffffff82111715611e7b57611e7a611e24565b5b80604052505050565b6000611e8e611df5565b9050611e9a8282611e53565b919050565b600067ffffffffffffffff821115611eba57611eb9611e24565b5b611ec382611e13565b9050602081019050919050565b82818337600083830152505050565b6000611ef2611eed84611e9f565b611e84565b905082815260208101848484011115611f0e57611f0d611e0e565b5b611f19848285611ed0565b509392505050565b600082601f830112611f3657611f35611e09565b5b8135611f46848260208601611edf565b91505092915050565b600060208284031215611f6557611f64611dff565b5b600082013567ffffffffffffffff811115611f8357611f82611e04565b5b611f8f84828501611f21565b91505092915050565b600060ff82169050919050565b611fae81611f98565b82525050565b600062ffffff82169050919050565b611fcc81611fb4565b82525050565b600063ffffffff82169050919050565b611feb81611fd2565b82525050565b60006fffffffffffffffffffffffffffffffff82169050919050565b61201681611ff1565b82525050565b6080820160008201516120326000850182611fa5565b5060208201516120456020850182611fc3565b5060408201516120586040850182611fe2565b50606082015161206b606085018261200d565b50505050565b6000608082019050612086600083018461201c565b92915050565b6000819050919050565b61209f8161208c565b81146120aa57600080fd5b50565b6000813590506120bc81612096565b92915050565b6000602082840312156120d8576120d7611dff565b5b60006120e6848285016120ad565b91505092915050565b6120f88161208c565b82525050565b600060208201905061211360008301846120ef565b92915050565b600081519050919050565b600082825260208201905092915050565b60005b83811015612153578082015181840152602081019050612138565b83811115612162576000848401525b50505050565b600061217382612119565b61217d8185612124565b935061218d818560208601612135565b61219681611e13565b840191505092915050565b600060208201905081810360008301526121bb8184612168565b905092915050565b600080fd5b600080fd5b60008083601f8401126121e3576121e2611e09565b5b8235905067ffffffffffffffff811115612200576121ff6121c3565b5b60208301915083606082028301111561221c5761221b6121c8565b5b9250929050565b60008060006040848603121561223c5761223b611dff565b5b600061224a868287016120ad565b935050602084013567ffffffffffffffff81111561226b5761226a611e04565b5b612277868287016121cd565b92509250509250925092565b61228c81611f98565b82525050565b60006020820190506122a76000830184612283565b92915050565b60008083601f8401126122c3576122c2611e09565b5b8235905067ffffffffffffffff8111156122e0576122df6121c3565b5b6020830191508360208202830111156122fc576122fb6121c8565b5b9250929050565b6000806020838503121561231a57612319611dff565b5b600083013567ffffffffffffffff81111561233857612337611e04565b5b612344858286016122ad565b92509250509250929050565b600081519050919050565b600082825260208201905092915050565b6000819050602082019050919050565b6080820160008201516123926000850182611fa5565b5060208201516123a56020850182611fc3565b5060408201516123b86040850182611fe2565b5060608201516123cb606085018261200d565b50505050565b60006123dd838361237c565b60808301905092915050565b6000602082019050919050565b600061240182612350565b61240b818561235b565b93506124168361236c565b8060005b8381101561244757815161242e88826123d1565b9750612439836123e9565b92505060018101905061241a565b5085935050505092915050565b6000602082019050818103600083015261246e81846123f6565b905092915050565b61247f81611ff1565b82525050565b600060208201905061249a6000830184612476565b92915050565b6000819050919050565b6124b3816124a0565b82525050565b60006020820190506124ce60008301846124aa565b92915050565b60008083601f8401126124ea576124e9611e09565b5b8235905067ffffffffffffffff811115612507576125066121c3565b5b602083019150836001820283011115612523576125226121c8565b5b9250929050565b6000806020838503121561254157612540611dff565b5b600083013567ffffffffffffffff81111561255f5761255e611e04565b5b61256b858286016124d4565b92509250509250929050565b61258081611fd2565b82525050565b600060408201905061259b6000830185612476565b6125a86020830184612577565b9392505050565b60008083601f8401126125c5576125c4611e09565b5b8235905067ffffffffffffffff8111156125e2576125e16121c3565b5b6020830191508360808202830111156125fe576125fd6121c8565b5b9250929050565b6000806000806000806060878903121561262257612621611dff565b5b600087013567ffffffffffffffff8111156126405761263f611e04565b5b61264c89828a016122ad565b9650965050602087013567ffffffffffffffff81111561266f5761266e611e04565b5b61267b89828a016125af565b9450945050604087013567ffffffffffffffff81111561269e5761269d611e04565b5b6126aa89828a016121cd565b92509250509295509295509295565b6126c281611fb4565b82525050565b60006060820190506126dd6000830186612476565b6126ea6020830185612577565b6126f760408301846126b9565b949350505050565b600061ffff82169050919050565b612716816126ff565b82525050565b6000602082019050612731600083018461270d565b92915050565b6000806000806040858703121561275157612750611dff565b5b600085013567ffffffffffffffff81111561276f5761276e611e04565b5b61277b878288016122ad565b9450945050602085013567ffffffffffffffff81111561279e5761279d611e04565b5b6127aa878288016121cd565b925092505092959194509250565b600081519050919050565b600082825260208201905092915050565b60006127df826127b8565b6127e981856127c3565b93506127f9818560208601612135565b61280281611e13565b840191505092915050565b6000602082019050818103600083015261282781846127d4565b905092915050565b600061283a82611da7565b9050919050565b61284a8161282f565b82525050565b60006020820190506128656000830184612841565b92915050565b6000806000806040858703121561288557612884611dff565b5b600085013567ffffffffffffffff8111156128a3576128a2611e04565b5b6128af878288016122ad565b9450945050602085013567ffffffffffffffff8111156128d2576128d1611e04565b5b6128de878288016125af565b925092505092959194509250565b6128f581611f98565b811461290057600080fd5b50565b600081359050612912816128ec565b92915050565b6000806000806080858703121561293257612931611dff565b5b6000612940878288016120ad565b945050602061295187828801612903565b9350506040612962878288016120ad565b9250506060612973878288016120ad565b91505092959194509250565b600061298a82611d5b565b9050919050565b61299a8161297f565b82525050565b60006020820190506129b56000830184612991565b92915050565b600081905092915050565b60006129d1826127b8565b6129db81856129bb565b93506129eb818560208601612135565b80840191505092915050565b6000612a0382846129c6565b915081905092915050565b7f4e487b7100000000000000000000000000000000000000000000000000000000600052603260045260246000fd5b600060208284031215612a5357612a52611dff565b5b6000612a6184828501612903565b91505092915050565b600081519050919050565b600082825260208201905092915050565b6000819050602082019050919050565b612a9f8161297f565b82525050565b6000612ab18383612a96565b60208301905092915050565b6000602082019050919050565b6000612ad582612a6a565b612adf8185612a75565b9350612aea83612a86565b8060005b83811015612b1b578151612b028882612aa5565b9750612b0d83612abd565b925050600181019050612aee565b5085935050505092915050565b60006020820190508181036000830152612b428184612aca565b905092915050565b60008115159050919050565b612b5f81612b4a565b8114612b6a57600080fd5b50565b600081519050612b7c81612b56565b92915050565b600060208284031215612b9857612b97611dff565b5b6000612ba684828501612b6d565b91505092915050565b6000612bbb83856129bb565b9350612bc8838584611ed0565b82840190509392505050565b6000612be1828486612baf565b91508190509392505050565b600082825260208201905092915050565b600080fd5b6000612c0f8385612bed565b93507f07ffffffffffffffffffffffffffffffffffffffffffffffffffffffffffffff831115612c4257612c41612bfe565b5b602083029250612c53838584611ed0565b82840190509392505050565b6000819050919050565b6000612c786020840184612903565b905092915050565b612c8981611fb4565b8114612c9457600080fd5b50565b600081359050612ca681612c80565b92915050565b6000612cbb6020840184612c97565b905092915050565b612ccc81611fd2565b8114612cd757600080fd5b50565b600081359050612ce981612cc3565b92915050565b6000612cfe6020840184612cda565b905092915050565b612d0f81611ff1565b8114612d1a57600080fd5b50565b600081359050612d2c81612d06565b92915050565b6000612d416020840184612d1d565b905092915050565b60808201612d5a6000830183612c69565b612d676000850182611fa5565b50612d756020830183612cac565b612d826020850182611fc3565b50612d906040830183612cef565b612d9d6040850182611fe2565b50612dab6060830183612d32565b612db8606085018261200d565b50505050565b6000612dca8383612d49565b60808301905092915050565b600082905092915050565b6000608082019050919050565b6000612dfa838561235b565b9350612e0582612c5f565b8060005b85811015612e3e57612e1b8284612dd6565b612e258882612dbe565b9750612e3083612de1565b925050600181019050612e09565b5085925050509392505050565b6000608082019050612e6060008301896124aa565b612e6d6020830188612991565b8181036040830152612e80818688612c03565b90508181036060830152612e95818486612dee565b9050979650505050505050565b600060208284031215612eb857612eb7611dff565b5b6000612ec684828501612cda565b91505092915050565b60008135612edc816128ec565b80915050919050565b60008160001b9050919050565b600060ff612eff84612ee5565b9350801983169250808416831791505092915050565b6000612f30612f2b612f2684611f98565b611d7b565b611f98565b9050919050565b6000819050919050565b612f4a82612f15565b612f5d612f5682612f37565b8354612ef2565b8255505050565b60008135612f7181612c80565b80915050919050565b60008160081b9050919050565b600063ffffff00612f9784612f7a565b9350801983169250808416831791505092915050565b6000612fc8612fc3612fbe84611fb4565b611d7b565b611fb4565b9050919050565b6000819050919050565b612fe282612fad565b612ff5612fee82612fcf565b8354612f87565b8255505050565b6000813561300981612cc3565b80915050919050565b60008160201b9050919050565b600067ffffffff0000000061303384613012565b9350801983169250808416831791505092915050565b600061306461305f61305a84611fd2565b611d7b565b611fd2565b9050919050565b6000819050919050565b61307e82613049565b61309161308a8261306b565b835461301f565b8255505050565b600081356130a581612d06565b80915050919050565b60008160401b9050919050565b600077ffffffffffffffffffffffffffffffff00000000000000006130df846130ae565b9350801983169250808416831791505092915050565b600061311061310b61310684611ff1565b611d7b565b611ff1565b9050919050565b6000819050919050565b61312a826130f5565b61313d61313682613117565b83546130bb565b8255505050565b60008101600083018061315681612ecf565b90506131628184612f41565b50505060008101602083018061317781612f64565b90506131838184612fd9565b50505060008101604083018061319881612ffc565b90506131a48184613075565b5050506000810160608301806131b981613098565b90506131c58184613121565b5050505050565b6131d68282613144565b5050565b6000819050919050565b6131f56131f0826124a0565b6131da565b82525050565b60008160601b9050919050565b6000613213826131fb565b9050919050565b600061322582613208565b9050919050565b61323d6132388261297f565b61321a565b82525050565b600081905092915050565b600061325a8385613243565b93507f07ffffffffffffffffffffffffffffffffffffffffffffffffffffffffffffff83111561328d5761328c612bfe565b5b60208302925061329e838584611ed0565b82840190509392505050565b7f5245534554000000000000000000000000000000000000000000000000000000600082015250565b60006132e06005836129bb565b91506132eb826132aa565b600582019050919050565b600061330282876131e4565b602082019150613312828661322c565b60148201915061332382848661324e565b915061332e826132d3565b915081905095945050505050565b600081905092915050565b600061335282612119565b61335c818561333c565b935061336c818560208601612135565b80840191505092915050565b6000819050919050565b61339361338e8261208c565b613378565b82525050565b60006133a58285613347565b91506133b18284613382565b6020820191508190509392505050565b60006080820190506133d660008301876120ef565b6133e36020830186612283565b6133f060408301856120ef565b6133fd60608301846120ef565b95945050505050565b61340f8161297f565b811461341a57600080fd5b50565b60008151905061342c81613406565b92915050565b60006020828403121561344857613447611dff565b5b60006134568482850161341d565b91505092915050565b600080fd5b600081519050613473816128ec565b92915050565b60008151905061348881612c80565b92915050565b60008151905061349d81612cc3565b92915050565b6000815190506134b281612d06565b92915050565b6000608082840312156134ce576134cd61345f565b5b6134d86080611e84565b905060006134e884828501613464565b60008301525060206134fc84828501613479565b60208301525060406135108482850161348e565b6040830152506060613524848285016134a3565b60608301525092915050565b60006080828403121561354657613545611dff565b5b6000613554848285016134b8565b9150509291505056fea26469706673582212200050aac74481667ce918e2d216b207caea658c6eefceb53f0f352343423860a864736f6c634300080d0033",
  "devdoc": {
    "kind": "dev",
    "methods": {
      "constructor": {
        "params": {
          "_contractRegistry": "Registry address",
          "_decimals": "decimals for prices stored in this contract",
          "_requiredSignatures": "number of required signatures for accepting consensus submission"
        }
      },
      "getManyPriceData(bytes32[])": {
        "details": "it will return array of price datas for provided `_keys` In case ony of feed does not exist, fallback call will be executed for that feed.",
        "params": {
          "_keys": "array of feed keys"
        },
        "returns": {
          "data": "PriceData array"
        }
      },
      "getManyPriceDataRaw(bytes32[])": {
        "details": "same as getManyPriceData() but does not revert on empty data."
      },
      "getName()": {
        "details": "to follow Registrable interface"
      },
      "getPrice(bytes32)": {
        "params": {
          "_key": "hash of feed name"
        },
        "returns": {
          "price": "price"
        }
      },
      "getPriceData(bytes32)": {
        "details": "this is main endpoint for reading feeds. In case timestamp is empty (that means there is no data), contract will execute fallback call. Check main contract description for fallback details. If you do not need whole data from `PriceData` struct, you can save some gas by using other view methods that returns just what you need.",
        "params": {
          "_key": "hash of feed name"
        },
        "returns": {
          "data": "full PriceData struct"
        }
      },
      "getPriceDataByName(string)": {
        "details": "This method should be used only for Layer2 as it is more gas consuming than others views.",
        "params": {
          "_name": "string feed name"
        },
        "returns": {
          "data": "PriceData"
        }
      },
      "getPriceDataRaw(bytes32)": {
        "params": {
          "_key": "hash of feed name"
        },
        "returns": {
          "data": "full PriceData struct"
        }
      },
      "getPriceTimestamp(bytes32)": {
        "params": {
          "_key": "hash of feed name"
        },
        "returns": {
          "price": "price",
          "timestamp": "timestamp"
        }
      },
      "getPriceTimestampHeartbeat(bytes32)": {
        "params": {
          "_key": "hash of feed name"
        },
        "returns": {
          "heartbeat": "heartbeat",
          "price": "price",
          "timestamp": "timestamp"
        }
      },
      "hashData(bytes32[],(uint8,uint24,uint32,uint128)[])": {
        "details": "helper method for QA purposes",
        "returns": {
          "_0": "hash of data that are signed by validators (keys and priced data)"
        }
      },
      "priceData(string)": {
        "details": "this is helper method for UI"
      },
      "prices(bytes32)": {
        "params": {
          "_key": "hash of feed name"
        },
        "returns": {
          "data": "full PriceData struct"
        }
      },
      "recoverSigner(bytes32,uint8,bytes32,bytes32)": {
        "params": {
          "_hash": "hashed of data",
          "_r": "part of signature",
          "_s": "part of signature",
          "_v": "part of signature"
        },
        "returns": {
          "_0": "signer address"
        }
      },
      "reset(bytes32[],(uint8,bytes32,bytes32)[])": {
        "details": "method for resetting data",
        "params": {
          "_priceKeys": "array of keys for `_priceDatas`",
          "_signatures": "validators signatures"
        }
      },
      "update(bytes32[],(uint8,uint24,uint32,uint128)[],(uint8,bytes32,bytes32)[])": {
        "details": "method for submitting consensus data",
        "params": {
          "_priceDatas": "PriceData signed by validators",
          "_priceKeys": "array of keys for `_priceDatas`",
          "_signatures": "validators signatures"
        }
      },
      "verifySignatures(bytes32,(uint8,bytes32,bytes32)[])": {
        "params": {
          "_hash": "hash of signed data",
          "_signatures": "array of validators signatures"
        }
      }
    },
    "stateVariables": {
      "DATA_RESET": {
        "details": "marker that will tell us, that price data was reset"
      },
      "DECIMALS": {
        "details": "decimals for prices stored in this contract"
      },
      "REGISTRY": {
        "details": "Registry contract where list of all addresses is stored. Fallback feature uses this registry to resolve newest `UmbrellaFeeds` address"
      },
      "REQUIRED_SIGNATURES": {
        "details": "minimal number of signatures required for accepting price submission (PoA)"
      },
      "STAKING_BANK": {
        "details": "StakingBank contract where list of validators is stored"
      }
    },
    "version": 1
  },
  "userdoc": {
    "kind": "user",
    "methods": {
      "getManyPriceData(bytes32[])": {
        "notice": "If data for any key not exists, function will revert. Use `getManyPriceDataRaw` method if you don't want revert."
      },
      "getManyPriceDataRaw(bytes32[])": {
        "notice": "This method does no revert if some data does not exists. Check `data.timestamp` to see if price exist, if it is 0, then it does not exist."
      },
      "getPrice(bytes32)": {
        "notice": "method will revert if data for `_key` not exists."
      },
      "getPriceData(bytes32)": {
        "notice": "method will revert if data for `_key` not exists."
      },
      "getPriceDataByName(string)": {
        "notice": "It does not revert on empty data."
      },
      "getPriceDataRaw(bytes32)": {
        "notice": "same as `getPriceData` but does not revert when no data"
      },
      "getPriceTimestamp(bytes32)": {
        "notice": "method will revert if data for `_key` not exists."
      },
      "getPriceTimestampHeartbeat(bytes32)": {
        "notice": "method will revert if data for `_key` not exists."
      },
      "prices(bytes32)": {
        "notice": "reader for mapping"
      }
    },
    "notice": "Main contract for all on-chain data. This contract has build in fallback feature in case, it will be replaced by newer contract. Fallback is transparent for the user, no additional setup is needed. How fallback feature works? If data for provided key is empty, contract will execute following procedure: 1. When new contract is deployed, data from ols one are erased 2. if data is empty, contract will check if there is new contract with requested data 3. if data is found in new contract it will be returned 4. if there is no data or there is no new contract tx will revert. After new deployment, it is recommended to update address to avoid fallback and reduce gas cost to minimum. In long run this is most efficient solution, better than any proxy.",
    "version": 1
  },
  "storageLayout": {
    "storage": [
      {
        "astId": 5954,
        "contract": "contracts/onChainFeeds/UmbrellaFeeds.sol:UmbrellaFeeds",
        "label": "_prices",
        "offset": 0,
        "slot": "0",
        "type": "t_mapping(t_bytes32,t_struct(PriceData)5055_storage)"
      }
    ],
    "types": {
      "t_bytes32": {
        "encoding": "inplace",
        "label": "bytes32",
        "numberOfBytes": "32"
      },
      "t_mapping(t_bytes32,t_struct(PriceData)5055_storage)": {
        "encoding": "mapping",
        "key": "t_bytes32",
        "label": "mapping(bytes32 => struct IUmbrellaFeeds.PriceData)",
        "numberOfBytes": "32",
        "value": "t_struct(PriceData)5055_storage"
      },
      "t_struct(PriceData)5055_storage": {
        "encoding": "inplace",
        "label": "struct IUmbrellaFeeds.PriceData",
        "members": [
          {
            "astId": 5045,
            "contract": "contracts/onChainFeeds/UmbrellaFeeds.sol:UmbrellaFeeds",
            "label": "data",
            "offset": 0,
            "slot": "0",
            "type": "t_uint8"
          },
          {
            "astId": 5048,
            "contract": "contracts/onChainFeeds/UmbrellaFeeds.sol:UmbrellaFeeds",
            "label": "heartbeat",
            "offset": 1,
            "slot": "0",
            "type": "t_uint24"
          },
          {
            "astId": 5051,
            "contract": "contracts/onChainFeeds/UmbrellaFeeds.sol:UmbrellaFeeds",
            "label": "timestamp",
            "offset": 4,
            "slot": "0",
            "type": "t_uint32"
          },
          {
            "astId": 5054,
            "contract": "contracts/onChainFeeds/UmbrellaFeeds.sol:UmbrellaFeeds",
            "label": "price",
            "offset": 8,
            "slot": "0",
            "type": "t_uint128"
          }
        ],
        "numberOfBytes": "32"
      },
      "t_uint128": {
        "encoding": "inplace",
        "label": "uint128",
        "numberOfBytes": "16"
      },
      "t_uint24": {
        "encoding": "inplace",
        "label": "uint24",
        "numberOfBytes": "3"
      },
      "t_uint32": {
        "encoding": "inplace",
        "label": "uint32",
        "numberOfBytes": "4"
      },
      "t_uint8": {
        "encoding": "inplace",
        "label": "uint8",
        "numberOfBytes": "1"
      }
    }
  }
}