{
  "address": "0x51eFAbE1718be9940c5f4D10F1983a46d99EC4D9",
  "abi": [
    {
      "inputs": [],
      "name": "ArraysDataDoNotMatch",
      "type": "error"
    },
    {
      "inputs": [],
      "name": "NameNotRegistered",
      "type": "error"
    },
    {
      "anonymous": false,
      "inputs": [
        {
          "indexed": true,
          "internalType": "address",
          "name": "destination",
          "type": "address"
        },
        {
          "indexed": false,
          "internalType": "bytes32",
          "name": "name",
          "type": "bytes32"
        }
      ],
      "name": "LogRegistered",
      "type": "event"
    },
    {
      "anonymous": false,
      "inputs": [
        {
          "indexed": true,
          "internalType": "address",
          "name": "previousOwner",
          "type": "address"
        },
        {
          "indexed": true,
          "internalType": "address",
          "name": "newOwner",
          "type": "address"
        }
      ],
      "name": "OwnershipTransferred",
      "type": "event"
    },
    {
      "inputs": [
        {
          "internalType": "address",
          "name": "_newContract",
          "type": "address"
        }
      ],
      "name": "atomicUpdate",
      "outputs": [],
      "stateMutability": "nonpayable",
      "type": "function"
    },
    {
      "inputs": [
        {
          "internalType": "bytes32",
          "name": "_bytes",
          "type": "bytes32"
        }
      ],
      "name": "getAddress",
      "outputs": [
        {
          "internalType": "address",
          "name": "",
          "type": "address"
        }
      ],
      "stateMutability": "view",
      "type": "function"
    },
    {
      "inputs": [
        {
          "internalType": "string",
          "name": "_name",
          "type": "string"
        }
      ],
      "name": "getAddressByString",
      "outputs": [
        {
          "internalType": "address",
          "name": "",
          "type": "address"
        }
      ],
      "stateMutability": "view",
      "type": "function"
    },
    {
      "inputs": [
        {
          "internalType": "bytes32[]",
          "name": "_names",
          "type": "bytes32[]"
        },
        {
          "internalType": "address[]",
          "name": "_destinations",
          "type": "address[]"
        }
      ],
      "name": "importAddresses",
      "outputs": [],
      "stateMutability": "nonpayable",
      "type": "function"
    },
    {
      "inputs": [
        {
          "internalType": "address[]",
          "name": "_destinations",
          "type": "address[]"
        }
      ],
      "name": "importContracts",
      "outputs": [],
      "stateMutability": "nonpayable",
      "type": "function"
    },
    {
      "inputs": [],
      "name": "owner",
      "outputs": [
        {
          "internalType": "address",
          "name": "",
          "type": "address"
        }
      ],
      "stateMutability": "view",
      "type": "function"
    },
    {
      "inputs": [
        {
          "internalType": "bytes32",
          "name": "",
          "type": "bytes32"
        }
      ],
      "name": "registry",
      "outputs": [
        {
          "internalType": "address",
          "name": "",
          "type": "address"
        }
      ],
      "stateMutability": "view",
      "type": "function"
    },
    {
      "inputs": [],
      "name": "renounceOwnership",
      "outputs": [],
      "stateMutability": "nonpayable",
      "type": "function"
    },
    {
      "inputs": [
        {
          "internalType": "bytes32",
          "name": "name",
          "type": "bytes32"
        }
      ],
      "name": "requireAndGetAddress",
      "outputs": [
        {
          "internalType": "address",
          "name": "",
          "type": "address"
        }
      ],
      "stateMutability": "view",
      "type": "function"
    },
    {
      "inputs": [
        {
          "internalType": "string",
          "name": "_string",
          "type": "string"
        }
      ],
      "name": "stringToBytes32",
      "outputs": [
        {
          "internalType": "bytes32",
          "name": "result",
          "type": "bytes32"
        }
      ],
      "stateMutability": "pure",
      "type": "function"
    },
    {
      "inputs": [
        {
          "internalType": "address",
          "name": "newOwner",
          "type": "address"
        }
      ],
      "name": "transferOwnership",
      "outputs": [],
      "stateMutability": "nonpayable",
      "type": "function"
    }
  ],
  "transactionHash": "0x1a06bea8066b43fa8c7e369c37b679a93725eedbc99af11c91549da0909afc5b",
  "args": [],
  "numDeployments": 1,
  "solcInputHash": "4db3e1d3dd51dbe508dc0a6a04352df6",
  "bytecode": "0x608060405234801561001057600080fd5b5061002d61002261003260201b60201c565b61003a60201b60201c565b6100fe565b600033905090565b60008060009054906101000a900473ffffffffffffffffffffffffffffffffffffffff169050816000806101000a81548173ffffffffffffffffffffffffffffffffffffffff021916908373ffffffffffffffffffffffffffffffffffffffff1602179055508173ffffffffffffffffffffffffffffffffffffffff168173ffffffffffffffffffffffffffffffffffffffff167f8be0079c531659141344cd1fd0a4f28419497f9722a3daafe3b4186f6b6457e060405160405180910390a35050565b6112ed8061010d6000396000f3fe608060405234801561001057600080fd5b50600436106100995760003560e01c806310b689011461009e57806321f8a721146100ba57806346bcb49d146100ea578063648642e91461011a578063715018a6146101365780637ef50298146101405780638da5cb5b14610170578063ab0b8f771461018e578063cfb51928146101aa578063e8f98f88146101da578063f2fde38b1461020a575b600080fd5b6100b860048036038101906100b39190610d47565b610226565b005b6100d460048036038101906100cf9190610dca565b61044b565b6040516100e19190610e38565b60405180910390f35b61010460048036038101906100ff9190610dca565b610488565b6040516101119190610e38565b60405180910390f35b610134600480360381019061012f9190610e7f565b610530565b005b61013e6107bc565b005b61015a60048036038101906101559190610dca565b610844565b6040516101679190610e38565b60405180910390f35b610178610877565b6040516101859190610e38565b60405180910390f35b6101a860048036038101906101a39190610f02565b6108a0565b005b6101c460048036038101906101bf91906110c4565b610a9d565b6040516101d1919061111c565b60405180910390f35b6101f460048036038101906101ef91906110c4565b610ac6565b6040516102019190610e38565b60405180910390f35b610224600480360381019061021f9190610e7f565b610b0b565b005b61022e610c02565b73ffffffffffffffffffffffffffffffffffffffff1661024c610877565b73ffffffffffffffffffffffffffffffffffffffff16146102a2576040517f08c379a000000000000000000000000000000000000000000000000000000000815260040161029990611194565b60405180910390fd5b60005b828290508110156104465760008383838181106102c5576102c46111b4565b5b90506020020160208101906102da9190610e7f565b73ffffffffffffffffffffffffffffffffffffffff166317d7de7c6040518163ffffffff1660e01b8152600401602060405180830381865afa158015610324573d6000803e3d6000fd5b505050506040513d601f19601f8201168201806040525081019061034891906111f8565b905083838381811061035d5761035c6111b4565b5b90506020020160208101906103729190610e7f565b6001600083815260200190815260200160002060006101000a81548173ffffffffffffffffffffffffffffffffffffffff021916908373ffffffffffffffffffffffffffffffffffffffff1602179055508383838181106103d6576103d56111b4565b5b90506020020160208101906103eb9190610e7f565b73ffffffffffffffffffffffffffffffffffffffff167f528ecde2b2a965b3d69f80eb4775d121bf5fe485f9bfc184b5b789a90065bb0482604051610430919061111c565b60405180910390a28180600101925050506102a5565b505050565b60006001600083815260200190815260200160002060009054906101000a900473ffffffffffffffffffffffffffffffffffffffff169050919050565b6000806001600084815260200190815260200160002060009054906101000a900473ffffffffffffffffffffffffffffffffffffffff169050600073ffffffffffffffffffffffffffffffffffffffff168173ffffffffffffffffffffffffffffffffffffffff1603610527576040517f31aef0e500000000000000000000000000000000000000000000000000000000815260040160405180910390fd5b80915050919050565b610538610c02565b73ffffffffffffffffffffffffffffffffffffffff16610556610877565b73ffffffffffffffffffffffffffffffffffffffff16146105ac576040517f08c379a00000000000000000000000000000000000000000000000000000000081526004016105a390611194565b60405180910390fd5b8073ffffffffffffffffffffffffffffffffffffffff16631aa3a0086040518163ffffffff1660e01b8152600401600060405180830381600087803b1580156105f457600080fd5b505af1158015610608573d6000803e3d6000fd5b5050505060008173ffffffffffffffffffffffffffffffffffffffff166317d7de7c6040518163ffffffff1660e01b8152600401602060405180830381865afa158015610659573d6000803e3d6000fd5b505050506040513d601f19601f8201168201806040525081019061067d91906111f8565b905060006001600083815260200190815260200160002060009054906101000a900473ffffffffffffffffffffffffffffffffffffffff169050826001600084815260200190815260200160002060006101000a81548173ffffffffffffffffffffffffffffffffffffffff021916908373ffffffffffffffffffffffffffffffffffffffff1602179055508073ffffffffffffffffffffffffffffffffffffffff1663e79a198f6040518163ffffffff1660e01b8152600401600060405180830381600087803b15801561075157600080fd5b505af1158015610765573d6000803e3d6000fd5b505050508273ffffffffffffffffffffffffffffffffffffffff167f528ecde2b2a965b3d69f80eb4775d121bf5fe485f9bfc184b5b789a90065bb04836040516107af919061111c565b60405180910390a2505050565b6107c4610c02565b73ffffffffffffffffffffffffffffffffffffffff166107e2610877565b73ffffffffffffffffffffffffffffffffffffffff1614610838576040517f08c379a000000000000000000000000000000000000000000000000000000000815260040161082f90611194565b60405180910390fd5b6108426000610c0a565b565b60016020528060005260406000206000915054906101000a900473ffffffffffffffffffffffffffffffffffffffff1681565b60008060009054906101000a900473ffffffffffffffffffffffffffffffffffffffff16905090565b6108a8610c02565b73ffffffffffffffffffffffffffffffffffffffff166108c6610877565b73ffffffffffffffffffffffffffffffffffffffff161461091c576040517f08c379a000000000000000000000000000000000000000000000000000000000815260040161091390611194565b60405180910390fd5b81819050848490501461095b576040517f0cf7902300000000000000000000000000000000000000000000000000000000815260040160405180910390fd5b60005b84849050811015610a965782828281811061097c5761097b6111b4565b5b90506020020160208101906109919190610e7f565b600160008787858181106109a8576109a76111b4565b5b90506020020135815260200190815260200160002060006101000a81548173ffffffffffffffffffffffffffffffffffffffff021916908373ffffffffffffffffffffffffffffffffffffffff160217905550828282818110610a0e57610a0d6111b4565b5b9050602002016020810190610a239190610e7f565b73ffffffffffffffffffffffffffffffffffffffff167f528ecde2b2a965b3d69f80eb4775d121bf5fe485f9bfc184b5b789a90065bb04868684818110610a6d57610a6c6111b4565b5b90506020020135604051610a81919061111c565b60405180910390a2808060010191505061095e565b5050505050565b6000808290506000815103610ab8576000801b915050610ac1565b60208301519150505b919050565b600060016000610ad584610a9d565b815260200190815260200160002060009054906101000a900473ffffffffffffffffffffffffffffffffffffffff169050919050565b610b13610c02565b73ffffffffffffffffffffffffffffffffffffffff16610b31610877565b73ffffffffffffffffffffffffffffffffffffffff1614610b87576040517f08c379a0000000000000000000000000000000000000000000000000000000008152600401610b7e90611194565b60405180910390fd5b600073ffffffffffffffffffffffffffffffffffffffff168173ffffffffffffffffffffffffffffffffffffffff1603610bf6576040517f08c379a0000000000000000000000000000000000000000000000000000000008152600401610bed90611297565b60405180910390fd5b610bff81610c0a565b50565b600033905090565b60008060009054906101000a900473ffffffffffffffffffffffffffffffffffffffff169050816000806101000a81548173ffffffffffffffffffffffffffffffffffffffff021916908373ffffffffffffffffffffffffffffffffffffffff1602179055508173ffffffffffffffffffffffffffffffffffffffff168173ffffffffffffffffffffffffffffffffffffffff167f8be0079c531659141344cd1fd0a4f28419497f9722a3daafe3b4186f6b6457e060405160405180910390a35050565b6000604051905090565b600080fd5b600080fd5b600080fd5b600080fd5b600080fd5b60008083601f840112610d0757610d06610ce2565b5b8235905067ffffffffffffffff811115610d2457610d23610ce7565b5b602083019150836020820283011115610d4057610d3f610cec565b5b9250929050565b60008060208385031215610d5e57610d5d610cd8565b5b600083013567ffffffffffffffff811115610d7c57610d7b610cdd565b5b610d8885828601610cf1565b92509250509250929050565b6000819050919050565b610da781610d94565b8114610db257600080fd5b50565b600081359050610dc481610d9e565b92915050565b600060208284031215610de057610ddf610cd8565b5b6000610dee84828501610db5565b91505092915050565b600073ffffffffffffffffffffffffffffffffffffffff82169050919050565b6000610e2282610df7565b9050919050565b610e3281610e17565b82525050565b6000602082019050610e4d6000830184610e29565b92915050565b610e5c81610e17565b8114610e6757600080fd5b50565b600081359050610e7981610e53565b92915050565b600060208284031215610e9557610e94610cd8565b5b6000610ea384828501610e6a565b91505092915050565b60008083601f840112610ec257610ec1610ce2565b5b8235905067ffffffffffffffff811115610edf57610ede610ce7565b5b602083019150836020820283011115610efb57610efa610cec565b5b9250929050565b60008060008060408587031215610f1c57610f1b610cd8565b5b600085013567ffffffffffffffff811115610f3a57610f39610cdd565b5b610f4687828801610eac565b9450945050602085013567ffffffffffffffff811115610f6957610f68610cdd565b5b610f7587828801610cf1565b925092505092959194509250565b600080fd5b6000601f19601f8301169050919050565b7f4e487b7100000000000000000000000000000000000000000000000000000000600052604160045260246000fd5b610fd182610f88565b810181811067ffffffffffffffff82111715610ff057610fef610f99565b5b80604052505050565b6000611003610cce565b905061100f8282610fc8565b919050565b600067ffffffffffffffff82111561102f5761102e610f99565b5b61103882610f88565b9050602081019050919050565b82818337600083830152505050565b600061106761106284611014565b610ff9565b90508281526020810184848401111561108357611082610f83565b5b61108e848285611045565b509392505050565b600082601f8301126110ab576110aa610ce2565b5b81356110bb848260208601611054565b91505092915050565b6000602082840312156110da576110d9610cd8565b5b600082013567ffffffffffffffff8111156110f8576110f7610cdd565b5b61110484828501611096565b91505092915050565b61111681610d94565b82525050565b6000602082019050611131600083018461110d565b92915050565b600082825260208201905092915050565b7f4f776e61626c653a2063616c6c6572206973206e6f7420746865206f776e6572600082015250565b600061117e602083611137565b915061118982611148565b602082019050919050565b600060208201905081810360008301526111ad81611171565b9050919050565b7f4e487b7100000000000000000000000000000000000000000000000000000000600052603260045260246000fd5b6000815190506111f281610d9e565b92915050565b60006020828403121561120e5761120d610cd8565b5b600061121c848285016111e3565b91505092915050565b7f4f776e61626c653a206e6577206f776e657220697320746865207a65726f206160008201527f6464726573730000000000000000000000000000000000000000000000000000602082015250565b6000611281602683611137565b915061128c82611225565b604082019050919050565b600060208201905081810360008301526112b081611274565b905091905056fea264697066735822122009a8c52588ce3f4b7f085944c80e84a74a2841020cdae529f53f14ecb1c8003064736f6c634300080d0033",
  "devdoc": {
    "details": "contracts registry protocol uses this registry to fetch current contract addresses",
    "kind": "dev",
    "methods": {
      "atomicUpdate(address)": {
        "details": "this method ensure, that old and new contract is aware of it state in registry Note: BSC registry does not have this method. This method was introduced in later stage.",
        "params": {
          "_newContract": "address of contract that will replace old one"
        }
      },
      "getAddress(bytes32)": {
        "params": {
          "name": "contract name in a form of bytes32"
        },
        "returns": {
          "_0": "contract address registered under provided name"
        }
      },
      "getAddressByString(string)": {
        "params": {
          "_name": "contract name"
        },
        "returns": {
          "_0": "contract address assigned to the name or address(0) if not exists"
        }
      },
      "importAddresses(bytes32[],address[])": {
        "details": "imports new contract addresses and override old addresses, if they exist under provided name This method can be used for contracts that for some reason do not have `getName` method",
        "params": {
          "_destinations": "array of contract addresses",
          "_names": "array of contract names that we want to register"
        }
      },
      "importContracts(address[])": {
        "details": "imports new contracts and override old addresses, if they exist. Names of contracts are fetched directly from each contract by calling `getName`",
        "params": {
          "_destinations": "array of contract addresses"
        }
      },
      "owner()": {
        "details": "Returns the address of the current owner."
      },
      "renounceOwnership()": {
        "details": "Leaves the contract without owner. It will not be possible to call `onlyOwner` functions anymore. Can only be called by the current owner. NOTE: Renouncing ownership will leave the contract without an owner, thereby removing any functionality that is only available to the owner."
      },
      "requireAndGetAddress(bytes32)": {
        "details": "similar to `getAddress` but throws when contract name not exists",
        "params": {
          "name": "contract name"
        },
        "returns": {
          "_0": "contract address registered under provided name or throws, if does not exists"
        }
      },
      "stringToBytes32(string)": {
        "details": "helper method that converts string to bytes32, you can use to to generate contract name"
      },
      "transferOwnership(address)": {
        "details": "Transfers ownership of the contract to a new account (`newOwner`). Can only be called by the current owner."
      }
    },
    "version": 1
  },
  "userdoc": {
    "kind": "user",
    "methods": {
      "registry(bytes32)": {
        "notice": "name => contract address"
      }
    },
    "version": 1
  },
  "storageLayout": {
    "storage": [
      {
        "astId": 7,
        "contract": "contracts/Registry.sol:Registry",
        "label": "_owner",
        "offset": 0,
        "slot": "0",
        "type": "t_address"
      },
      {
        "astId": 2767,
        "contract": "contracts/Registry.sol:Registry",
        "label": "registry",
        "offset": 0,
        "slot": "1",
        "type": "t_mapping(t_bytes32,t_address)"
      }
    ],
    "types": {
      "t_address": {
        "encoding": "inplace",
        "label": "address",
        "numberOfBytes": "20"
      },
      "t_bytes32": {
        "encoding": "inplace",
        "label": "bytes32",
        "numberOfBytes": "32"
      },
      "t_mapping(t_bytes32,t_address)": {
        "encoding": "mapping",
        "key": "t_bytes32",
        "label": "mapping(bytes32 => address)",
        "numberOfBytes": "32",
        "value": "t_address"
      }
    }
  }
}