{
  "address": "0xd12EcDd4D29262CE21155C970ed8B145c8Bf92E0",
  "abi": [
    {
      "inputs": [
        {
          "internalType": "uint256",
          "name": "_validatorsCount",
          "type": "uint256"
        }
      ],
      "stateMutability": "nonpayable",
      "type": "constructor"
    },
    {
      "inputs": [],
      "name": "NotSupported",
      "type": "error"
    },
    {
      "anonymous": false,
      "inputs": [
        {
          "indexed": true,
          "internalType": "address",
          "name": "owner",
          "type": "address"
        },
        {
          "indexed": true,
          "internalType": "address",
          "name": "spender",
          "type": "address"
        },
        {
          "indexed": false,
          "internalType": "uint256",
          "name": "value",
          "type": "uint256"
        }
      ],
      "name": "Approval",
      "type": "event"
    },
    {
      "anonymous": false,
      "inputs": [
        {
          "indexed": false,
          "internalType": "uint256",
          "name": "minAmountForStake",
          "type": "uint256"
        }
      ],
      "name": "LogMinAmountForStake",
      "type": "event"
    },
    {
      "anonymous": false,
      "inputs": [
        {
          "indexed": true,
          "internalType": "address",
          "name": "id",
          "type": "address"
        }
      ],
      "name": "LogValidatorRegistered",
      "type": "event"
    },
    {
      "anonymous": false,
      "inputs": [
        {
          "indexed": true,
          "internalType": "address",
          "name": "id",
          "type": "address"
        }
      ],
      "name": "LogValidatorRemoved",
      "type": "event"
    },
    {
      "anonymous": false,
      "inputs": [
        {
          "indexed": true,
          "internalType": "address",
          "name": "id",
          "type": "address"
        }
      ],
      "name": "LogValidatorUpdated",
      "type": "event"
    },
    {
      "anonymous": false,
      "inputs": [
        {
          "indexed": true,
          "internalType": "address",
          "name": "from",
          "type": "address"
        },
        {
          "indexed": true,
          "internalType": "address",
          "name": "to",
          "type": "address"
        },
        {
          "indexed": false,
          "internalType": "uint256",
          "name": "value",
          "type": "uint256"
        }
      ],
      "name": "Transfer",
      "type": "event"
    },
    {
      "inputs": [],
      "name": "NUMBER_OF_VALIDATORS",
      "outputs": [
        {
          "internalType": "uint256",
          "name": "",
          "type": "uint256"
        }
      ],
      "stateMutability": "view",
      "type": "function"
    },
    {
      "inputs": [],
      "name": "ONE",
      "outputs": [
        {
          "internalType": "uint256",
          "name": "",
          "type": "uint256"
        }
      ],
      "stateMutability": "view",
      "type": "function"
    },
    {
      "inputs": [],
      "name": "TOTAL_SUPPLY",
      "outputs": [
        {
          "internalType": "uint256",
          "name": "",
          "type": "uint256"
        }
      ],
      "stateMutability": "view",
      "type": "function"
    },
    {
      "inputs": [],
      "name": "VALIDATOR_0",
      "outputs": [
        {
          "internalType": "address",
          "name": "",
          "type": "address"
        }
      ],
      "stateMutability": "view",
      "type": "function"
    },
    {
      "inputs": [],
      "name": "VALIDATOR_1",
      "outputs": [
        {
          "internalType": "address",
          "name": "",
          "type": "address"
        }
      ],
      "stateMutability": "view",
      "type": "function"
    },
    {
      "inputs": [
        {
          "internalType": "uint256",
          "name": "_ix",
          "type": "uint256"
        }
      ],
      "name": "addresses",
      "outputs": [
        {
          "internalType": "address",
          "name": "",
          "type": "address"
        }
      ],
      "stateMutability": "view",
      "type": "function"
    },
    {
      "inputs": [
        {
          "internalType": "address",
          "name": "",
          "type": "address"
        },
        {
          "internalType": "address",
          "name": "",
          "type": "address"
        }
      ],
      "name": "allowance",
      "outputs": [
        {
          "internalType": "uint256",
          "name": "",
          "type": "uint256"
        }
      ],
      "stateMutability": "pure",
      "type": "function"
    },
    {
      "inputs": [
        {
          "internalType": "address",
          "name": "",
          "type": "address"
        },
        {
          "internalType": "uint256",
          "name": "",
          "type": "uint256"
        }
      ],
      "name": "approve",
      "outputs": [
        {
          "internalType": "bool",
          "name": "",
          "type": "bool"
        }
      ],
      "stateMutability": "pure",
      "type": "function"
    },
    {
      "inputs": [
        {
          "internalType": "address",
          "name": "_account",
          "type": "address"
        }
      ],
      "name": "balanceOf",
      "outputs": [
        {
          "internalType": "uint256",
          "name": "",
          "type": "uint256"
        }
      ],
      "stateMutability": "view",
      "type": "function"
    },
    {
      "inputs": [
        {
          "internalType": "address",
          "name": "_validator",
          "type": "address"
        }
      ],
      "name": "balances",
      "outputs": [
        {
          "internalType": "uint256",
          "name": "",
          "type": "uint256"
        }
      ],
      "stateMutability": "view",
      "type": "function"
    },
    {
      "inputs": [
        {
          "internalType": "address",
          "name": "",
          "type": "address"
        },
        {
          "internalType": "string",
          "name": "",
          "type": "string"
        }
      ],
      "name": "create",
      "outputs": [],
      "stateMutability": "pure",
      "type": "function"
    },
    {
      "inputs": [],
      "name": "exit",
      "outputs": [
        {
          "internalType": "bool",
          "name": "",
          "type": "bool"
        }
      ],
      "stateMutability": "pure",
      "type": "function"
    },
    {
      "inputs": [],
      "name": "getAddresses",
      "outputs": [
        {
          "internalType": "address[]",
          "name": "",
          "type": "address[]"
        }
      ],
      "stateMutability": "view",
      "type": "function"
    },
    {
      "inputs": [],
      "name": "getBalances",
      "outputs": [
        {
          "internalType": "uint256[]",
          "name": "allBalances",
          "type": "uint256[]"
        }
      ],
      "stateMutability": "view",
      "type": "function"
    },
    {
      "inputs": [],
      "name": "getName",
      "outputs": [
        {
          "internalType": "bytes32",
          "name": "",
          "type": "bytes32"
        }
      ],
      "stateMutability": "pure",
      "type": "function"
    },
    {
      "inputs": [],
      "name": "getNumberOfValidators",
      "outputs": [
        {
          "internalType": "uint256",
          "name": "",
          "type": "uint256"
        }
      ],
      "stateMutability": "view",
      "type": "function"
    },
    {
      "inputs": [
        {
          "internalType": "address",
          "name": "",
          "type": "address"
        }
      ],
      "name": "receiveApproval",
      "outputs": [
        {
          "internalType": "bool",
          "name": "",
          "type": "bool"
        }
      ],
      "stateMutability": "pure",
      "type": "function"
    },
    {
      "inputs": [],
      "name": "register",
      "outputs": [],
      "stateMutability": "pure",
      "type": "function"
    },
    {
      "inputs": [
        {
          "internalType": "address",
          "name": "",
          "type": "address"
        }
      ],
      "name": "remove",
      "outputs": [],
      "stateMutability": "pure",
      "type": "function"
    },
    {
      "inputs": [
        {
          "internalType": "uint256",
          "name": "",
          "type": "uint256"
        }
      ],
      "name": "setMinAmountForStake",
      "outputs": [],
      "stateMutability": "pure",
      "type": "function"
    },
    {
      "inputs": [
        {
          "internalType": "uint256",
          "name": "",
          "type": "uint256"
        }
      ],
      "name": "stake",
      "outputs": [],
      "stateMutability": "pure",
      "type": "function"
    },
    {
      "inputs": [],
      "name": "totalSupply",
      "outputs": [
        {
          "internalType": "uint256",
          "name": "",
          "type": "uint256"
        }
      ],
      "stateMutability": "view",
      "type": "function"
    },
    {
      "inputs": [
        {
          "internalType": "address",
          "name": "",
          "type": "address"
        },
        {
          "internalType": "uint256",
          "name": "",
          "type": "uint256"
        }
      ],
      "name": "transfer",
      "outputs": [
        {
          "internalType": "bool",
          "name": "",
          "type": "bool"
        }
      ],
      "stateMutability": "pure",
      "type": "function"
    },
    {
      "inputs": [
        {
          "internalType": "address",
          "name": "",
          "type": "address"
        },
        {
          "internalType": "address",
          "name": "",
          "type": "address"
        },
        {
          "internalType": "uint256",
          "name": "",
          "type": "uint256"
        }
      ],
      "name": "transferFrom",
      "outputs": [
        {
          "internalType": "bool",
          "name": "",
          "type": "bool"
        }
      ],
      "stateMutability": "pure",
      "type": "function"
    },
    {
      "inputs": [],
      "name": "unregister",
      "outputs": [],
      "stateMutability": "pure",
      "type": "function"
    },
    {
      "inputs": [
        {
          "internalType": "address",
          "name": "",
          "type": "address"
        },
        {
          "internalType": "string",
          "name": "",
          "type": "string"
        }
      ],
      "name": "update",
      "outputs": [],
      "stateMutability": "pure",
      "type": "function"
    },
    {
      "inputs": [
        {
          "internalType": "address",
          "name": "_id",
          "type": "address"
        }
      ],
      "name": "validators",
      "outputs": [
        {
          "internalType": "address",
          "name": "id",
          "type": "address"
        },
        {
          "internalType": "string",
          "name": "location",
          "type": "string"
        }
      ],
      "stateMutability": "pure",
      "type": "function"
    },
    {
      "inputs": [
        {
          "internalType": "uint256",
          "name": "",
          "type": "uint256"
        }
      ],
      "name": "withdraw",
      "outputs": [
        {
          "internalType": "bool",
          "name": "",
          "type": "bool"
        }
      ],
      "stateMutability": "pure",
      "type": "function"
    }
  ],
  "transactionHash": "0xa3f4731840342c3721dcb9a7c370721ca8883f8fffb4a29be782395622c636ea",
  "args": [
    2
  ],
  "numDeployments": 1,
  "solcInputHash": "038b206f4639a9df079fd826f92c3687",
  "bytecode": "0x60c06040523480156200001157600080fd5b5060405162001576380380620015768339818101604052810190620000379190620000a5565b808060808181525050670de0b6b3a76400008162000056919062000106565b60a08181525050505062000167565b600080fd5b6000819050919050565b6200007f816200006a565b81146200008b57600080fd5b50565b6000815190506200009f8162000074565b92915050565b600060208284031215620000be57620000bd62000065565b5b6000620000ce848285016200008e565b91505092915050565b7f4e487b7100000000000000000000000000000000000000000000000000000000600052601160045260246000fd5b600062000113826200006a565b915062000120836200006a565b9250817fffffffffffffffffffffffffffffffffffffffffffffffffffffffffffffffff04831182151516156200015c576200015b620000d7565b5b828202905092915050565b60805160a0516113c6620001b0600039600081816106f8015261088401526000818161059701528181610605015281816108aa0152818161099b0152610be201526113c66000f3fe608060405234801561001057600080fd5b50600436106101c35760003560e01c8063902d55a5116100f9578063c2ee3a0811610097578063e79a198f11610071578063e79a198f1461050a578063e9fad8ee14610514578063edf26d9b14610532578063fa52c7d814610562576101c3565b8063c2ee3a081461049e578063db731777146104bc578063dd62ed3e146104da576101c3565b8063a15ab08d116100d3578063a15ab08d14610418578063a39fac1214610434578063a694fc3a14610452578063a9059cbb1461046e576101c3565b8063902d55a5146103be5780639031d913146103dc5780639f0e9484146103fa576101c3565b806327e235e311610166578063411ff49711610140578063411ff4971461033857806352b41e351461035657806370a0823114610372578063838e7c3a146103a2576101c3565b806327e235e3146102bc57806329092d0e146102ec5780632e1a7d4d14610308576101c3565b806317d7de7c116101a257806317d7de7c1461024657806318160ddd146102645780631aa3a0081461028257806323b872dd1461028c576101c3565b8062113e08146101c8578063095ea7b3146101e65780630db18e3714610216575b600080fd5b6101d0610593565b6040516101dd9190610de0565b60405180910390f35b61020060048036038101906101fb9190610e96565b610664565b60405161020d9190610ef1565b60405180910390f35b610230600480360381019061022b9190610f0c565b610698565b60405161023d9190610ef1565b60405180910390f35b61024e6106cc565b60405161025b9190610f52565b60405180910390f35b61026c6106f4565b6040516102799190610f7c565b60405180910390f35b61028a61071c565b005b6102a660048036038101906102a19190610f97565b61071e565b6040516102b39190610ef1565b60405180910390f35b6102d660048036038101906102d19190610f0c565b610752565b6040516102e39190610f7c565b60405180910390f35b61030660048036038101906103019190610f0c565b610779565b005b610322600480360381019061031d9190610fea565b6107ab565b60405161032f9190610ef1565b60405180910390f35b6103406107df565b60405161034d9190611026565b60405180910390f35b610370600480360381019061036b9190610fea565b6107f7565b005b61038c60048036038101906103879190610f0c565b610829565b6040516103999190610f7c565b60405180910390f35b6103bc60048036038101906103b791906110a6565b610850565b005b6103c6610882565b6040516103d39190610f7c565b60405180910390f35b6103e46108a6565b6040516103f19190610f7c565b60405180910390f35b6104026108ce565b60405161040f9190611026565b60405180910390f35b610432600480360381019061042d91906110a6565b6108e6565b005b61043c610918565b60405161044991906111c4565b60405180910390f35b61046c60048036038101906104679190610fea565b610927565b005b61048860048036038101906104839190610e96565b610959565b6040516104959190610ef1565b60405180910390f35b6104a661098d565b6040516104b39190610f7c565b60405180910390f35b6104c4610999565b6040516104d19190610f7c565b60405180910390f35b6104f460048036038101906104ef91906111e6565b6109bd565b6040516105019190610f7c565b60405180910390f35b6105126109f1565b005b61051c6109f3565b6040516105299190610ef1565b60405180910390f35b61054c60048036038101906105479190610fea565b610a27565b6040516105599190611026565b60405180910390f35b61057c60048036038101906105779190610f0c565b610a52565b60405161058a9291906112bf565b60405180910390f35b60607f000000000000000000000000000000000000000000000000000000000000000067ffffffffffffffff8111156105cf576105ce6112ef565b5b6040519080825280602002602001820160405280156105fd5781602001602082028036833780820191505090505b50905060005b7f000000000000000000000000000000000000000000000000000000000000000081101561066057670de0b6b3a76400008282815181106106475761064661131e565b5b6020026020010181815250508080600101915050610603565b5090565b60006040517fa038794000000000000000000000000000000000000000000000000000000000815260040160405180910390fd5b60006040517fa038794000000000000000000000000000000000000000000000000000000000815260040160405180910390fd5b60007f5374616b696e6742616e6b000000000000000000000000000000000000000000905090565b60007f0000000000000000000000000000000000000000000000000000000000000000905090565b565b60006040517fa038794000000000000000000000000000000000000000000000000000000000815260040160405180910390fd5b600061075d82610b46565b610768576000610772565b670de0b6b3a76400005b9050919050565b6040517fa038794000000000000000000000000000000000000000000000000000000000815260040160405180910390fd5b60006040517fa038794000000000000000000000000000000000000000000000000000000000815260040160405180910390fd5b73998cb7821e605cc16b6174e7c50e19adb2dd2fb081565b6040517fa038794000000000000000000000000000000000000000000000000000000000815260040160405180910390fd5b600061083482610b46565b61083f576000610849565b670de0b6b3a76400005b9050919050565b6040517fa038794000000000000000000000000000000000000000000000000000000000815260040160405180910390fd5b7f000000000000000000000000000000000000000000000000000000000000000081565b60007f0000000000000000000000000000000000000000000000000000000000000000905090565b73dc3ebc37da53a644d67e5e3b5ba4eef88d969d5c81565b6040517fa038794000000000000000000000000000000000000000000000000000000000815260040160405180910390fd5b6060610922610bdc565b905090565b6040517fa038794000000000000000000000000000000000000000000000000000000000815260040160405180910390fd5b60006040517fa038794000000000000000000000000000000000000000000000000000000000815260040160405180910390fd5b670de0b6b3a764000081565b7f000000000000000000000000000000000000000000000000000000000000000081565b60006040517fa038794000000000000000000000000000000000000000000000000000000000815260040160405180910390fd5b565b60006040517fa038794000000000000000000000000000000000000000000000000000000000815260040160405180910390fd5b6000610a31610bdc565b8281518110610a4357610a4261131e565b5b60200260200101519050919050565b6000606073dc3ebc37da53a644d67e5e3b5ba4eef88d969d5c73ffffffffffffffffffffffffffffffffffffffff168373ffffffffffffffffffffffffffffffffffffffff1603610ac0578260405180606001604052806021815260200161134e6021913991509150610b41565b73998cb7821e605cc16b6174e7c50e19adb2dd2fb073ffffffffffffffffffffffffffffffffffffffff168373ffffffffffffffffffffffffffffffffffffffff1603610b2a578260405180606001604052806022815260200161136f6022913991509150610b41565b600060405180602001604052806000815250915091505b915091565b600073dc3ebc37da53a644d67e5e3b5ba4eef88d969d5c73ffffffffffffffffffffffffffffffffffffffff168273ffffffffffffffffffffffffffffffffffffffff161480610bd5575073998cb7821e605cc16b6174e7c50e19adb2dd2fb073ffffffffffffffffffffffffffffffffffffffff168273ffffffffffffffffffffffffffffffffffffffff16145b9050919050565b606060007f000000000000000000000000000000000000000000000000000000000000000067ffffffffffffffff811115610c1a57610c196112ef565b5b604051908082528060200260200182016040528015610c485781602001602082028036833780820191505090505b50905073dc3ebc37da53a644d67e5e3b5ba4eef88d969d5c81600081518110610c7457610c7361131e565b5b602002602001019073ffffffffffffffffffffffffffffffffffffffff16908173ffffffffffffffffffffffffffffffffffffffff168152505073998cb7821e605cc16b6174e7c50e19adb2dd2fb081600181518110610cd757610cd661131e565b5b602002602001019073ffffffffffffffffffffffffffffffffffffffff16908173ffffffffffffffffffffffffffffffffffffffff16815250508091505090565b600081519050919050565b600082825260208201905092915050565b6000819050602082019050919050565b6000819050919050565b610d5781610d44565b82525050565b6000610d698383610d4e565b60208301905092915050565b6000602082019050919050565b6000610d8d82610d18565b610d978185610d23565b9350610da283610d34565b8060005b83811015610dd3578151610dba8882610d5d565b9750610dc583610d75565b925050600181019050610da6565b5085935050505092915050565b60006020820190508181036000830152610dfa8184610d82565b905092915050565b600080fd5b600080fd5b600073ffffffffffffffffffffffffffffffffffffffff82169050919050565b6000610e3782610e0c565b9050919050565b610e4781610e2c565b8114610e5257600080fd5b50565b600081359050610e6481610e3e565b92915050565b610e7381610d44565b8114610e7e57600080fd5b50565b600081359050610e9081610e6a565b92915050565b60008060408385031215610ead57610eac610e02565b5b6000610ebb85828601610e55565b9250506020610ecc85828601610e81565b9150509250929050565b60008115159050919050565b610eeb81610ed6565b82525050565b6000602082019050610f066000830184610ee2565b92915050565b600060208284031215610f2257610f21610e02565b5b6000610f3084828501610e55565b91505092915050565b6000819050919050565b610f4c81610f39565b82525050565b6000602082019050610f676000830184610f43565b92915050565b610f7681610d44565b82525050565b6000602082019050610f916000830184610f6d565b92915050565b600080600060608486031215610fb057610faf610e02565b5b6000610fbe86828701610e55565b9350506020610fcf86828701610e55565b9250506040610fe086828701610e81565b9150509250925092565b60006020828403121561100057610fff610e02565b5b600061100e84828501610e81565b91505092915050565b61102081610e2c565b82525050565b600060208201905061103b6000830184611017565b92915050565b600080fd5b600080fd5b600080fd5b60008083601f84011261106657611065611041565b5b8235905067ffffffffffffffff81111561108357611082611046565b5b60208301915083600182028301111561109f5761109e61104b565b5b9250929050565b6000806000604084860312156110bf576110be610e02565b5b60006110cd86828701610e55565b935050602084013567ffffffffffffffff8111156110ee576110ed610e07565b5b6110fa86828701611050565b92509250509250925092565b600081519050919050565b600082825260208201905092915050565b6000819050602082019050919050565b61113b81610e2c565b82525050565b600061114d8383611132565b60208301905092915050565b6000602082019050919050565b600061117182611106565b61117b8185611111565b935061118683611122565b8060005b838110156111b757815161119e8882611141565b97506111a983611159565b92505060018101905061118a565b5085935050505092915050565b600060208201905081810360008301526111de8184611166565b905092915050565b600080604083850312156111fd576111fc610e02565b5b600061120b85828601610e55565b925050602061121c85828601610e55565b9150509250929050565b600081519050919050565b600082825260208201905092915050565b60005b83811015611260578082015181840152602081019050611245565b8381111561126f576000848401525b50505050565b6000601f19601f8301169050919050565b600061129182611226565b61129b8185611231565b93506112ab818560208601611242565b6112b481611275565b840191505092915050565b60006040820190506112d46000830185611017565b81810360208301526112e68184611286565b90509392505050565b7f4e487b7100000000000000000000000000000000000000000000000000000000600052604160045260246000fd5b7f4e487b7100000000000000000000000000000000000000000000000000000000600052603260045260246000fdfe68747470733a2f2f76616c696461746f722e6465762e756d622e6e6574776f726b68747470733a2f2f76616c696461746f72322e6465762e756d622e6e6574776f726ba26469706673582212200a34475fb796fa1ee6daf2b3fe71623e9d553493af8a7a7476a33d4293aac34264736f6c634300080d0033",
  "devdoc": {
    "kind": "dev",
    "methods": {
      "addresses(uint256)": {
        "details": "gets validator address for provided index",
        "params": {
          "_ix": "index in array of list of all validators wallets"
        }
      },
      "balanceOf(address)": {
        "details": "to follow ERC20 interface"
      },
      "exit()": {
        "details": "unstake and withdraw all tokens"
      },
      "getName()": {
        "details": "to follow Registrable interface"
      },
      "getNumberOfValidators()": {
        "returns": {
          "_0": "total number of registered validators (with and without balance)"
        }
      },
      "register()": {
        "details": "to follow Registrable interface"
      },
      "totalSupply()": {
        "details": "to follow ERC20 interface"
      },
      "unregister()": {
        "details": "to follow Registrable interface"
      },
      "validators(address)": {
        "params": {
          "_id": "address of validator"
        },
        "returns": {
          "id": "address of validator",
          "location": "URL of validator"
        }
      }
    },
    "version": 1
  },
  "userdoc": {
    "kind": "user",
    "methods": {},
    "version": 1
  },
  "storageLayout": {
    "storage": [],
    "types": null
  }
}