{
  "address": "0x76c9741c1368008Cf2D1957359701E0C75a9224E",
  "abi": [
    {
      "inputs": [
        {
          "internalType": "contract IRegistry",
          "name": "_contractRegistry",
          "type": "address"
        },
        {
          "internalType": "uint16",
          "name": "_requiredSignatures",
          "type": "uint16"
        },
        {
          "internalType": "uint8",
          "name": "_decimals",
          "type": "uint8"
        }
      ],
      "stateMutability": "nonpayable",
      "type": "constructor"
    },
    {
      "inputs": [],
      "name": "ArraysDataDoNotMatch",
      "type": "error"
    },
    {
      "inputs": [],
      "name": "FallbackFeedNotExist",
      "type": "error"
    },
    {
      "inputs": [],
      "name": "FeedNotExist",
      "type": "error"
    },
    {
      "inputs": [],
      "name": "InvalidRequiredSignatures",
      "type": "error"
    },
    {
      "inputs": [],
      "name": "NotEnoughSignatures",
      "type": "error"
    },
    {
      "inputs": [],
      "name": "OldData",
      "type": "error"
    },
    {
      "inputs": [],
      "name": "SignaturesOutOfOrder",
      "type": "error"
    },
    {
      "inputs": [],
      "name": "DECIMALS",
      "outputs": [
        {
          "internalType": "uint8",
          "name": "",
          "type": "uint8"
        }
      ],
      "stateMutability": "view",
      "type": "function"
    },
    {
      "inputs": [],
      "name": "ETH_PREFIX",
      "outputs": [
        {
          "internalType": "bytes",
          "name": "",
          "type": "bytes"
        }
      ],
      "stateMutability": "view",
      "type": "function"
    },
    {
      "inputs": [],
      "name": "NAME",
      "outputs": [
        {
          "internalType": "string",
          "name": "",
          "type": "string"
        }
      ],
      "stateMutability": "view",
      "type": "function"
    },
    {
      "inputs": [],
      "name": "REGISTRY",
      "outputs": [
        {
          "internalType": "contract IRegistry",
          "name": "",
          "type": "address"
        }
      ],
      "stateMutability": "view",
      "type": "function"
    },
    {
      "inputs": [],
      "name": "REQUIRED_SIGNATURES",
      "outputs": [
        {
          "internalType": "uint16",
          "name": "",
          "type": "uint16"
        }
      ],
      "stateMutability": "view",
      "type": "function"
    },
    {
      "inputs": [],
      "name": "STAKING_BANK",
      "outputs": [
        {
          "internalType": "contract IStakingBank",
          "name": "",
          "type": "address"
        }
      ],
      "stateMutability": "view",
      "type": "function"
    },
    {
      "inputs": [
        {
          "internalType": "bytes32[]",
          "name": "_keys",
          "type": "bytes32[]"
        }
      ],
      "name": "getManyPriceData",
      "outputs": [
        {
          "components": [
            {
              "internalType": "uint8",
              "name": "data",
              "type": "uint8"
            },
            {
              "internalType": "uint24",
              "name": "heartbeat",
              "type": "uint24"
            },
            {
              "internalType": "uint32",
              "name": "timestamp",
              "type": "uint32"
            },
            {
              "internalType": "uint128",
              "name": "price",
              "type": "uint128"
            }
          ],
          "internalType": "struct IUmbrellaFeeds.PriceData[]",
          "name": "data",
          "type": "tuple[]"
        }
      ],
      "stateMutability": "view",
      "type": "function"
    },
    {
      "inputs": [
        {
          "internalType": "bytes32[]",
          "name": "_keys",
          "type": "bytes32[]"
        }
      ],
      "name": "getManyPriceDataRaw",
      "outputs": [
        {
          "components": [
            {
              "internalType": "uint8",
              "name": "data",
              "type": "uint8"
            },
            {
              "internalType": "uint24",
              "name": "heartbeat",
              "type": "uint24"
            },
            {
              "internalType": "uint32",
              "name": "timestamp",
              "type": "uint32"
            },
            {
              "internalType": "uint128",
              "name": "price",
              "type": "uint128"
            }
          ],
          "internalType": "struct IUmbrellaFeeds.PriceData[]",
          "name": "data",
          "type": "tuple[]"
        }
      ],
      "stateMutability": "view",
      "type": "function"
    },
    {
      "inputs": [],
      "name": "getName",
      "outputs": [
        {
          "internalType": "bytes32",
          "name": "",
          "type": "bytes32"
        }
      ],
      "stateMutability": "pure",
      "type": "function"
    },
    {
      "inputs": [
        {
          "internalType": "bytes32",
          "name": "_key",
          "type": "bytes32"
        }
      ],
      "name": "getPrice",
      "outputs": [
        {
          "internalType": "uint128",
          "name": "price",
          "type": "uint128"
        }
      ],
      "stateMutability": "view",
      "type": "function"
    },
    {
      "inputs": [
        {
          "internalType": "bytes32",
          "name": "_key",
          "type": "bytes32"
        }
      ],
      "name": "getPriceData",
      "outputs": [
        {
          "components": [
            {
              "internalType": "uint8",
              "name": "data",
              "type": "uint8"
            },
            {
              "internalType": "uint24",
              "name": "heartbeat",
              "type": "uint24"
            },
            {
              "internalType": "uint32",
              "name": "timestamp",
              "type": "uint32"
            },
            {
              "internalType": "uint128",
              "name": "price",
              "type": "uint128"
            }
          ],
          "internalType": "struct IUmbrellaFeeds.PriceData",
          "name": "data",
          "type": "tuple"
        }
      ],
      "stateMutability": "view",
      "type": "function"
    },
    {
      "inputs": [
        {
          "internalType": "string",
          "name": "_name",
          "type": "string"
        }
      ],
      "name": "getPriceDataByName",
      "outputs": [
        {
          "components": [
            {
              "internalType": "uint8",
              "name": "data",
              "type": "uint8"
            },
            {
              "internalType": "uint24",
              "name": "heartbeat",
              "type": "uint24"
            },
            {
              "internalType": "uint32",
              "name": "timestamp",
              "type": "uint32"
            },
            {
              "internalType": "uint128",
              "name": "price",
              "type": "uint128"
            }
          ],
          "internalType": "struct IUmbrellaFeeds.PriceData",
          "name": "data",
          "type": "tuple"
        }
      ],
      "stateMutability": "view",
      "type": "function"
    },
    {
      "inputs": [
        {
          "internalType": "bytes32",
          "name": "_key",
          "type": "bytes32"
        }
      ],
      "name": "getPriceDataRaw",
      "outputs": [
        {
          "components": [
            {
              "internalType": "uint8",
              "name": "data",
              "type": "uint8"
            },
            {
              "internalType": "uint24",
              "name": "heartbeat",
              "type": "uint24"
            },
            {
              "internalType": "uint32",
              "name": "timestamp",
              "type": "uint32"
            },
            {
              "internalType": "uint128",
              "name": "price",
              "type": "uint128"
            }
          ],
          "internalType": "struct IUmbrellaFeeds.PriceData",
          "name": "data",
          "type": "tuple"
        }
      ],
      "stateMutability": "view",
      "type": "function"
    },
    {
      "inputs": [
        {
          "internalType": "bytes32",
          "name": "_key",
          "type": "bytes32"
        }
      ],
      "name": "getPriceTimestamp",
      "outputs": [
        {
          "internalType": "uint128",
          "name": "price",
          "type": "uint128"
        },
        {
          "internalType": "uint32",
          "name": "timestamp",
          "type": "uint32"
        }
      ],
      "stateMutability": "view",
      "type": "function"
    },
    {
      "inputs": [
        {
          "internalType": "bytes32",
          "name": "_key",
          "type": "bytes32"
        }
      ],
      "name": "getPriceTimestampHeartbeat",
      "outputs": [
        {
          "internalType": "uint128",
          "name": "price",
          "type": "uint128"
        },
        {
          "internalType": "uint32",
          "name": "timestamp",
          "type": "uint32"
        },
        {
          "internalType": "uint24",
          "name": "heartbeat",
          "type": "uint24"
        }
      ],
      "stateMutability": "view",
      "type": "function"
    },
    {
      "inputs": [
        {
          "internalType": "bytes32[]",
          "name": "_priceKeys",
          "type": "bytes32[]"
        },
        {
          "components": [
            {
              "internalType": "uint8",
              "name": "data",
              "type": "uint8"
            },
            {
              "internalType": "uint24",
              "name": "heartbeat",
              "type": "uint24"
            },
            {
              "internalType": "uint32",
              "name": "timestamp",
              "type": "uint32"
            },
            {
              "internalType": "uint128",
              "name": "price",
              "type": "uint128"
            }
          ],
          "internalType": "struct IUmbrellaFeeds.PriceData[]",
          "name": "_priceDatas",
          "type": "tuple[]"
        }
      ],
      "name": "hashData",
      "outputs": [
        {
          "internalType": "bytes32",
          "name": "",
          "type": "bytes32"
        }
      ],
      "stateMutability": "pure",
      "type": "function"
    },
    {
      "inputs": [
        {
          "internalType": "string",
          "name": "_key",
          "type": "string"
        }
      ],
      "name": "priceData",
      "outputs": [
        {
          "components": [
            {
              "internalType": "uint8",
              "name": "data",
              "type": "uint8"
            },
            {
              "internalType": "uint24",
              "name": "heartbeat",
              "type": "uint24"
            },
            {
              "internalType": "uint32",
              "name": "timestamp",
              "type": "uint32"
            },
            {
              "internalType": "uint128",
              "name": "price",
              "type": "uint128"
            }
          ],
          "internalType": "struct IUmbrellaFeeds.PriceData",
          "name": "",
          "type": "tuple"
        }
      ],
      "stateMutability": "view",
      "type": "function"
    },
    {
      "inputs": [
        {
          "internalType": "bytes32",
          "name": "_key",
          "type": "bytes32"
        }
      ],
      "name": "prices",
      "outputs": [
        {
          "components": [
            {
              "internalType": "uint8",
              "name": "data",
              "type": "uint8"
            },
            {
              "internalType": "uint24",
              "name": "heartbeat",
              "type": "uint24"
            },
            {
              "internalType": "uint32",
              "name": "timestamp",
              "type": "uint32"
            },
            {
              "internalType": "uint128",
              "name": "price",
              "type": "uint128"
            }
          ],
          "internalType": "struct IUmbrellaFeeds.PriceData",
          "name": "data",
          "type": "tuple"
        }
      ],
      "stateMutability": "view",
      "type": "function"
    },
    {
      "inputs": [
        {
          "internalType": "bytes32",
          "name": "_hash",
          "type": "bytes32"
        },
        {
          "internalType": "uint8",
          "name": "_v",
          "type": "uint8"
        },
        {
          "internalType": "bytes32",
          "name": "_r",
          "type": "bytes32"
        },
        {
          "internalType": "bytes32",
          "name": "_s",
          "type": "bytes32"
        }
      ],
      "name": "recoverSigner",
      "outputs": [
        {
          "internalType": "address",
          "name": "",
          "type": "address"
        }
      ],
      "stateMutability": "pure",
      "type": "function"
    },
    {
      "inputs": [
        {
          "internalType": "bytes32[]",
          "name": "_priceKeys",
          "type": "bytes32[]"
        },
        {
          "components": [
            {
              "internalType": "uint8",
              "name": "v",
              "type": "uint8"
            },
            {
              "internalType": "bytes32",
              "name": "r",
              "type": "bytes32"
            },
            {
              "internalType": "bytes32",
              "name": "s",
              "type": "bytes32"
            }
          ],
          "internalType": "struct IUmbrellaFeeds.Signature[]",
          "name": "_signatures",
          "type": "tuple[]"
        }
      ],
      "name": "reset",
      "outputs": [],
      "stateMutability": "nonpayable",
      "type": "function"
    },
    {
      "inputs": [
        {
          "internalType": "bytes32[]",
          "name": "_priceKeys",
          "type": "bytes32[]"
        },
        {
          "components": [
            {
              "internalType": "uint8",
              "name": "data",
              "type": "uint8"
            },
            {
              "internalType": "uint24",
              "name": "heartbeat",
              "type": "uint24"
            },
            {
              "internalType": "uint32",
              "name": "timestamp",
              "type": "uint32"
            },
            {
              "internalType": "uint128",
              "name": "price",
              "type": "uint128"
            }
          ],
          "internalType": "struct IUmbrellaFeeds.PriceData[]",
          "name": "_priceDatas",
          "type": "tuple[]"
        },
        {
          "components": [
            {
              "internalType": "uint8",
              "name": "v",
              "type": "uint8"
            },
            {
              "internalType": "bytes32",
              "name": "r",
              "type": "bytes32"
            },
            {
              "internalType": "bytes32",
              "name": "s",
              "type": "bytes32"
            }
          ],
          "internalType": "struct IUmbrellaFeeds.Signature[]",
          "name": "_signatures",
          "type": "tuple[]"
        }
      ],
      "name": "update",
      "outputs": [],
      "stateMutability": "nonpayable",
      "type": "function"
    },
    {
      "inputs": [
        {
          "internalType": "bytes32",
          "name": "_hash",
          "type": "bytes32"
        },
        {
          "components": [
            {
              "internalType": "uint8",
              "name": "v",
              "type": "uint8"
            },
            {
              "internalType": "bytes32",
              "name": "r",
              "type": "bytes32"
            },
            {
              "internalType": "bytes32",
              "name": "s",
              "type": "bytes32"
            }
          ],
          "internalType": "struct IUmbrellaFeeds.Signature[]",
          "name": "_signatures",
          "type": "tuple[]"
        }
      ],
      "name": "verifySignatures",
      "outputs": [],
      "stateMutability": "view",
      "type": "function"
    }
  ],
  "transactionHash": "0x5155fec35295e39c8f4bce1cfdd8ec67ebd90c86b975de3054fe8dcee7096bcf",
  "args": [
    "0x3fBdba5E516611e2E9C1aA6cdFB8376c7cA7d7CE",
    2,
    8
  ],
  "numDeployments": 2,
  "solcInputHash": "a246efc5f60efc56523b38829fb53167",
  "bytecode": "0x6101006040523480156200001257600080fd5b506040516200356d3803806200356d83398181016040528101906200003891906200027d565b60008261ffff160362000077576040517f458bb42100000000000000000000000000000000000000000000000000000000815260040160405180910390fd5b8273ffffffffffffffffffffffffffffffffffffffff1660808173ffffffffffffffffffffffffffffffffffffffff16815250508161ffff1660c08161ffff16815250508273ffffffffffffffffffffffffffffffffffffffff166346bcb49d6040518163ffffffff1660e01b8152600401620000f490620002ff565b602060405180830381865afa15801562000112573d6000803e3d6000fd5b505050506040513d601f19601f820116820180604052508101906200013891906200034b565b73ffffffffffffffffffffffffffffffffffffffff1660a08173ffffffffffffffffffffffffffffffffffffffff16815250508060ff1660e08160ff16815250505050506200037d565b600080fd5b600073ffffffffffffffffffffffffffffffffffffffff82169050919050565b6000620001b48262000187565b9050919050565b6000620001c882620001a7565b9050919050565b620001da81620001bb565b8114620001e657600080fd5b50565b600081519050620001fa81620001cf565b92915050565b600061ffff82169050919050565b620002198162000200565b81146200022557600080fd5b50565b60008151905062000239816200020e565b92915050565b600060ff82169050919050565b62000257816200023f565b81146200026357600080fd5b50565b60008151905062000277816200024c565b92915050565b60008060006060848603121562000299576200029862000182565b5b6000620002a986828701620001e9565b9350506020620002bc8682870162000228565b9250506040620002cf8682870162000266565b9150509250925092565b7f5374616b696e6742616e6b000000000000000000000000000000000000000000815250565b60006020820190506200031560008301620002d9565b919050565b6200032581620001a7565b81146200033157600080fd5b50565b60008151905062000345816200031a565b92915050565b60006020828403121562000364576200036362000182565b5b6000620003748482850162000334565b91505092915050565b60805160a05160c05160e051613193620003da60003960006109570152600081816107050152818161076901526114ca01526000818161086e01526116140152600081816104820152818161173801526118d601526131936000f3fe608060405234801561001057600080fd5b50600436106101125760003560e01c806306433b1b1461011757806314de7a241461013557806317c5d7981461016557806317d7de7c1461019557806324c89a49146101b357806326559877146101d15780632e0f2625146101ed5780632e5506931461020b57806331d98b3f1461023b578063385e05da1461026b57806343fa62111461029b5780635b38adc7146102cb57806360846bc6146102fb5780638a1194d31461032b57806395f1cf301461035c57806396594f66146103785780639ac18b19146103aa5780639e551beb146103c8578063a3f4df7e146103e4578063c65a53ad14610402578063ccc6fd6914610420578063d45167d014610450575b600080fd5b61011f610480565b60405161012c9190611b97565b60405180910390f35b61014f600480360381019061014a9190611d0c565b6104a4565b60405161015c9190611e2e565b60405180910390f35b61017f600480360381019061017a9190611e7f565b6105a6565b60405161018c9190611e2e565b60405180910390f35b61019d6106a0565b6040516101aa9190611ebb565b60405180910390f35b6101bb6106c8565b6040516101c89190611f5e565b60405180910390f35b6101eb60048036038101906101e69190611fe0565b610701565b005b6101f5610955565b604051610202919061204f565b60405180910390f35b610225600480360381019061022091906120c0565b610979565b6040516102329190612211565b60405180910390f35b61025560048036038101906102509190611e7f565b610b67565b6040516102629190612242565b60405180910390f35b610285600480360381019061028091906120c0565b610c64565b6040516102929190612211565b60405180910390f35b6102b560048036038101906102b09190611e7f565b610e52565b6040516102c29190611e2e565b60405180910390f35b6102e560048036038101906102e091906122b3565b610f4c565b6040516102f29190611e2e565b60405180910390f35b61031560048036038101906103109190611e7f565b611075565b6040516103229190611e2e565b60405180910390f35b61034560048036038101906103409190611e7f565b611151565b60405161035392919061230f565b60405180910390f35b6103766004803603810190610371919061238e565b611257565b005b610392600480360381019061038d9190611e7f565b6113b8565b6040516103a193929190612451565b60405180910390f35b6103b26114c8565b6040516103bf91906124a5565b60405180910390f35b6103e260048036038101906103dd91906124c0565b6114ec565b005b6103ec6115d9565b6040516103f99190612596565b60405180910390f35b61040a611612565b60405161041791906125d9565b60405180910390f35b61043a600480360381019061043591906125f4565b611636565b6040516104479190611ebb565b60405180910390f35b61046a600480360381019061046591906126a1565b61166f565b6040516104779190612729565b60405180910390f35b7f000000000000000000000000000000000000000000000000000000000000000081565b6104ac611ad0565b600080836040516020016104c09190612780565b6040516020818303038152906040528051906020012081526020019081526020016000206040518060800160405290816000820160009054906101000a900460ff1660ff1660ff1681526020016000820160019054906101000a900462ffffff1662ffffff1662ffffff1681526020016000820160049054906101000a900463ffffffff1663ffffffff1663ffffffff1681526020016000820160089054906101000a90046fffffffffffffffffffffffffffffffff166fffffffffffffffffffffffffffffffff166fffffffffffffffffffffffffffffffff16815250509050919050565b6105ae611ad0565b6000808381526020019081526020016000206040518060800160405290816000820160009054906101000a900460ff1660ff1660ff1681526020016000820160019054906101000a900462ffffff1662ffffff1662ffffff1681526020016000820160049054906101000a900463ffffffff1663ffffffff1663ffffffff1681526020016000820160089054906101000a90046fffffffffffffffffffffffffffffffff166fffffffffffffffffffffffffffffffff166fffffffffffffffffffffffffffffffff168152505090506000816040015163ffffffff160361069b576106988261172c565b90505b919050565b60007f556d6272656c6c61466565647300000000000000000000000000000000000000905090565b6040518060400160405280601c81526020017f19457468657265756d205369676e6564204d6573736167653a0a33320000000081525081565b60007f000000000000000000000000000000000000000000000000000000000000000061ffff16838390501015610764576040517fe246dc6300000000000000000000000000000000000000000000000000000000815260040160405180910390fd5b60005b7f000000000000000000000000000000000000000000000000000000000000000061ffff1681101561094e576000610803868686858181106107ac576107ab612797565b5b90506060020160000160208101906107c491906127c6565b8787868181106107d7576107d6612797565b5b905060600201602001358888878181106107f4576107f3612797565b5b9050606002016040013561166f565b90508073ffffffffffffffffffffffffffffffffffffffff168373ffffffffffffffffffffffffffffffffffffffff161061086a576040517f9079f69b00000000000000000000000000000000000000000000000000000000815260040160405180910390fd5b60007f000000000000000000000000000000000000000000000000000000000000000073ffffffffffffffffffffffffffffffffffffffff166370a08231836040518263ffffffff1660e01b81526004016108c59190612729565b602060405180830381865afa1580156108e2573d6000803e3d6000fd5b505050506040513d601f19601f820116820180604052508101906109069190612829565b0361093d576040517fe246dc6300000000000000000000000000000000000000000000000000000000815260040160405180910390fd5b809250818060010192505050610767565b5050505050565b7f000000000000000000000000000000000000000000000000000000000000000081565b60608282905067ffffffffffffffff81111561099857610997611be1565b5b6040519080825280602002602001820160405280156109d157816020015b6109be611ad0565b8152602001906001900390816109b65790505b50905060005b83839050811015610b60576000808585848181106109f8576109f7612797565b5b9050602002013581526020019081526020016000206040518060800160405290816000820160009054906101000a900460ff1660ff1660ff1681526020016000820160019054906101000a900462ffffff1662ffffff1662ffffff1681526020016000820160049054906101000a900463ffffffff1663ffffffff1663ffffffff1681526020016000820160089054906101000a90046fffffffffffffffffffffffffffffffff166fffffffffffffffffffffffffffffffff166fffffffffffffffffffffffffffffffff1681525050828281518110610adb57610ada612797565b5b60200260200101819052506000828281518110610afb57610afa612797565b5b60200260200101516040015163ffffffff1603610b5357610b34848483818110610b2857610b27612797565b5b9050602002013561172c565b828281518110610b4757610b46612797565b5b60200260200101819052505b80806001019150506109d7565b5092915050565b6000806000808481526020019081526020016000206040518060800160405290816000820160009054906101000a900460ff1660ff1660ff1681526020016000820160019054906101000a900462ffffff1662ffffff1662ffffff1681526020016000820160049054906101000a900463ffffffff1663ffffffff1663ffffffff1681526020016000820160089054906101000a90046fffffffffffffffffffffffffffffffff166fffffffffffffffffffffffffffffffff166fffffffffffffffffffffffffffffffff168152505090506000816040015163ffffffff1603610c5757610c54836118ca565b90505b8060600151915050919050565b60608282905067ffffffffffffffff811115610c8357610c82611be1565b5b604051908082528060200260200182016040528015610cbc57816020015b610ca9611ad0565b815260200190600190039081610ca15790505b50905060005b83839050811015610e4b57600080858584818110610ce357610ce2612797565b5b9050602002013581526020019081526020016000206040518060800160405290816000820160009054906101000a900460ff1660ff1660ff1681526020016000820160019054906101000a900462ffffff1662ffffff1662ffffff1681526020016000820160049054906101000a900463ffffffff1663ffffffff1663ffffffff1681526020016000820160089054906101000a90046fffffffffffffffffffffffffffffffff166fffffffffffffffffffffffffffffffff166fffffffffffffffffffffffffffffffff1681525050828281518110610dc657610dc5612797565b5b60200260200101819052506000828281518110610de657610de5612797565b5b60200260200101516040015163ffffffff1603610e3e57610e1f848483818110610e1357610e12612797565b5b905060200201356118ca565b828281518110610e3257610e31612797565b5b60200260200101819052505b8080600101915050610cc2565b5092915050565b610e5a611ad0565b6000808381526020019081526020016000206040518060800160405290816000820160009054906101000a900460ff1660ff1660ff1681526020016000820160019054906101000a900462ffffff1662ffffff1662ffffff1681526020016000820160049054906101000a900463ffffffff1663ffffffff1663ffffffff1681526020016000820160089054906101000a90046fffffffffffffffffffffffffffffffff166fffffffffffffffffffffffffffffffff166fffffffffffffffffffffffffffffffff168152505090506000816040015163ffffffff1603610f4757610f44826118ca565b90505b919050565b610f54611ad0565b60008383604051602001610f6992919061287b565b6040516020818303038152906040528051906020012090506000808281526020019081526020016000206040518060800160405290816000820160009054906101000a900460ff1660ff1660ff1681526020016000820160019054906101000a900462ffffff1662ffffff1662ffffff1681526020016000820160049054906101000a900463ffffffff1663ffffffff1663ffffffff1681526020016000820160089054906101000a90046fffffffffffffffffffffffffffffffff166fffffffffffffffffffffffffffffffff166fffffffffffffffffffffffffffffffff168152505091506000826040015163ffffffff160361106e5761106b8161172c565b91505b5092915050565b61107d611ad0565b6000808381526020019081526020016000206040518060800160405290816000820160009054906101000a900460ff1660ff1660ff1681526020016000820160019054906101000a900462ffffff1662ffffff1662ffffff1681526020016000820160049054906101000a900463ffffffff1663ffffffff1663ffffffff1681526020016000820160089054906101000a90046fffffffffffffffffffffffffffffffff166fffffffffffffffffffffffffffffffff166fffffffffffffffffffffffffffffffff16815250509050919050565b60008060008060008581526020019081526020016000206040518060800160405290816000820160009054906101000a900460ff1660ff1660ff1681526020016000820160019054906101000a900462ffffff1662ffffff1662ffffff1681526020016000820160049054906101000a900463ffffffff1663ffffffff1663ffffffff1681526020016000820160089054906101000a90046fffffffffffffffffffffffffffffffff166fffffffffffffffffffffffffffffffff166fffffffffffffffffffffffffffffffff168152505090506000816040015163ffffffff160361124357611240846118ca565b90505b806060015181604001519250925050915091565b6000868686866040516020016112709493929190612af2565b604051602081830303815290604052805190602001209050611293818484610701565b60005b858590508110156113ae578585828181106112b4576112b3612797565b5b90506080020160400160208101906112cc9190612b2d565b63ffffffff166000808a8a858181106112e8576112e7612797565b5b90506020020135815260200190815260200160002060000160049054906101000a900463ffffffff1663ffffffff161061134e576040517f1251b2f300000000000000000000000000000000000000000000000000000000815260040160405180910390fd5b85858281811061136157611360612797565b5b9050608002016000808a8a8581811061137d5761137c612797565b5b905060200201358152602001908152602001600020818161139e9190612e57565b9050508080600101915050611296565b5050505050505050565b6000806000806000808681526020019081526020016000206040518060800160405290816000820160009054906101000a900460ff1660ff1660ff1681526020016000820160019054906101000a900462ffffff1662ffffff1662ffffff1681526020016000820160049054906101000a900463ffffffff1663ffffffff1663ffffffff1681526020016000820160089054906101000a90046fffffffffffffffffffffffffffffffff166fffffffffffffffffffffffffffffffff166fffffffffffffffffffffffffffffffff168152505090506000816040015163ffffffff16036114ab576114a8856118ca565b90505b806060015181604001518260200151935093509350509193909250565b7f000000000000000000000000000000000000000000000000000000000000000081565b60008484604051602001611501929190612f18565b604051602081830303815290604052805190602001209050611524818484610701565b60005b858590508110156115d15760008087878481811061154857611547612797565b5b905060200201358152602001908152602001600020600080820160006101000a81549060ff02191690556000820160016101000a81549062ffffff02191690556000820160046101000a81549063ffffffff02191690556000820160086101000a8154906fffffffffffffffffffffffffffffffff021916905550508080600101915050611527565b505050505050565b6040518060400160405280600d81526020017f556d6272656c6c6146656564730000000000000000000000000000000000000081525081565b7f000000000000000000000000000000000000000000000000000000000000000081565b60008484848460405160200161164f9493929190612af2565b604051602081830303815290604052805190602001209050949350505050565b6000806040518060400160405280601c81526020017f19457468657265756d205369676e6564204d6573736167653a0a333200000000815250866040516020016116ba929190612f99565b604051602081830303815290604052805190602001209050600181868686604051600081526020016040526040516116f59493929190612fc1565b6020604051602081039080840390855afa158015611717573d6000803e3d6000fd5b50505060206040510351915050949350505050565b611734611ad0565b60007f000000000000000000000000000000000000000000000000000000000000000073ffffffffffffffffffffffffffffffffffffffff166321f8a72161177a6106a0565b6040518263ffffffff1660e01b81526004016117969190611ebb565b602060405180830381865afa1580156117b3573d6000803e3d6000fd5b505050506040513d601f19601f820116820180604052508101906117d79190613032565b90503073ffffffffffffffffffffffffffffffffffffffff168173ffffffffffffffffffffffffffffffffffffffff16141580156118425750600073ffffffffffffffffffffffffffffffffffffffff168173ffffffffffffffffffffffffffffffffffffffff1614155b156118c4578073ffffffffffffffffffffffffffffffffffffffff166360846bc6846040518263ffffffff1660e01b81526004016118809190611ebb565b608060405180830381865afa15801561189d573d6000803e3d6000fd5b505050506040513d601f19601f820116820180604052508101906118c19190613130565b91505b50919050565b6118d2611ad0565b60007f000000000000000000000000000000000000000000000000000000000000000073ffffffffffffffffffffffffffffffffffffffff1663e8f98f886040518060400160405280600d81526020017f556d6272656c6c614665656473000000000000000000000000000000000000008152506040518263ffffffff1660e01b81526004016119629190612596565b602060405180830381865afa15801561197f573d6000803e3d6000fd5b505050506040513d601f19601f820116820180604052508101906119a39190613032565b90503073ffffffffffffffffffffffffffffffffffffffff168173ffffffffffffffffffffffffffffffffffffffff1603611a0a576040517f15647ae900000000000000000000000000000000000000000000000000000000815260040160405180910390fd5b8073ffffffffffffffffffffffffffffffffffffffff166360846bc6846040518263ffffffff1660e01b8152600401611a439190611ebb565b608060405180830381865afa158015611a60573d6000803e3d6000fd5b505050506040513d601f19601f82011682018060405250810190611a849190613130565b91506000826040015163ffffffff1603611aca576040517f15647ae900000000000000000000000000000000000000000000000000000000815260040160405180910390fd5b50919050565b6040518060800160405280600060ff168152602001600062ffffff168152602001600063ffffffff16815260200160006fffffffffffffffffffffffffffffffff1681525090565b600073ffffffffffffffffffffffffffffffffffffffff82169050919050565b6000819050919050565b6000611b5d611b58611b5384611b18565b611b38565b611b18565b9050919050565b6000611b6f82611b42565b9050919050565b6000611b8182611b64565b9050919050565b611b9181611b76565b82525050565b6000602082019050611bac6000830184611b88565b92915050565b6000604051905090565b600080fd5b600080fd5b600080fd5b600080fd5b6000601f19601f8301169050919050565b7f4e487b7100000000000000000000000000000000000000000000000000000000600052604160045260246000fd5b611c1982611bd0565b810181811067ffffffffffffffff82111715611c3857611c37611be1565b5b80604052505050565b6000611c4b611bb2565b9050611c578282611c10565b919050565b600067ffffffffffffffff821115611c7757611c76611be1565b5b611c8082611bd0565b9050602081019050919050565b82818337600083830152505050565b6000611caf611caa84611c5c565b611c41565b905082815260208101848484011115611ccb57611cca611bcb565b5b611cd6848285611c8d565b509392505050565b600082601f830112611cf357611cf2611bc6565b5b8135611d03848260208601611c9c565b91505092915050565b600060208284031215611d2257611d21611bbc565b5b600082013567ffffffffffffffff811115611d4057611d3f611bc1565b5b611d4c84828501611cde565b91505092915050565b600060ff82169050919050565b611d6b81611d55565b82525050565b600062ffffff82169050919050565b611d8981611d71565b82525050565b600063ffffffff82169050919050565b611da881611d8f565b82525050565b60006fffffffffffffffffffffffffffffffff82169050919050565b611dd381611dae565b82525050565b608082016000820151611def6000850182611d62565b506020820151611e026020850182611d80565b506040820151611e156040850182611d9f565b506060820151611e286060850182611dca565b50505050565b6000608082019050611e436000830184611dd9565b92915050565b6000819050919050565b611e5c81611e49565b8114611e6757600080fd5b50565b600081359050611e7981611e53565b92915050565b600060208284031215611e9557611e94611bbc565b5b6000611ea384828501611e6a565b91505092915050565b611eb581611e49565b82525050565b6000602082019050611ed06000830184611eac565b92915050565b600081519050919050565b600082825260208201905092915050565b60005b83811015611f10578082015181840152602081019050611ef5565b83811115611f1f576000848401525b50505050565b6000611f3082611ed6565b611f3a8185611ee1565b9350611f4a818560208601611ef2565b611f5381611bd0565b840191505092915050565b60006020820190508181036000830152611f788184611f25565b905092915050565b600080fd5b600080fd5b60008083601f840112611fa057611f9f611bc6565b5b8235905067ffffffffffffffff811115611fbd57611fbc611f80565b5b602083019150836060820283011115611fd957611fd8611f85565b5b9250929050565b600080600060408486031215611ff957611ff8611bbc565b5b600061200786828701611e6a565b935050602084013567ffffffffffffffff81111561202857612027611bc1565b5b61203486828701611f8a565b92509250509250925092565b61204981611d55565b82525050565b60006020820190506120646000830184612040565b92915050565b60008083601f8401126120805761207f611bc6565b5b8235905067ffffffffffffffff81111561209d5761209c611f80565b5b6020830191508360208202830111156120b9576120b8611f85565b5b9250929050565b600080602083850312156120d7576120d6611bbc565b5b600083013567ffffffffffffffff8111156120f5576120f4611bc1565b5b6121018582860161206a565b92509250509250929050565b600081519050919050565b600082825260208201905092915050565b6000819050602082019050919050565b60808201600082015161214f6000850182611d62565b5060208201516121626020850182611d80565b5060408201516121756040850182611d9f565b5060608201516121886060850182611dca565b50505050565b600061219a8383612139565b60808301905092915050565b6000602082019050919050565b60006121be8261210d565b6121c88185612118565b93506121d383612129565b8060005b838110156122045781516121eb888261218e565b97506121f6836121a6565b9250506001810190506121d7565b5085935050505092915050565b6000602082019050818103600083015261222b81846121b3565b905092915050565b61223c81611dae565b82525050565b60006020820190506122576000830184612233565b92915050565b60008083601f84011261227357612272611bc6565b5b8235905067ffffffffffffffff8111156122905761228f611f80565b5b6020830191508360018202830111156122ac576122ab611f85565b5b9250929050565b600080602083850312156122ca576122c9611bbc565b5b600083013567ffffffffffffffff8111156122e8576122e7611bc1565b5b6122f48582860161225d565b92509250509250929050565b61230981611d8f565b82525050565b60006040820190506123246000830185612233565b6123316020830184612300565b9392505050565b60008083601f84011261234e5761234d611bc6565b5b8235905067ffffffffffffffff81111561236b5761236a611f80565b5b60208301915083608082028301111561238757612386611f85565b5b9250929050565b600080600080600080606087890312156123ab576123aa611bbc565b5b600087013567ffffffffffffffff8111156123c9576123c8611bc1565b5b6123d589828a0161206a565b9650965050602087013567ffffffffffffffff8111156123f8576123f7611bc1565b5b61240489828a01612338565b9450945050604087013567ffffffffffffffff81111561242757612426611bc1565b5b61243389828a01611f8a565b92509250509295509295509295565b61244b81611d71565b82525050565b60006060820190506124666000830186612233565b6124736020830185612300565b6124806040830184612442565b949350505050565b600061ffff82169050919050565b61249f81612488565b82525050565b60006020820190506124ba6000830184612496565b92915050565b600080600080604085870312156124da576124d9611bbc565b5b600085013567ffffffffffffffff8111156124f8576124f7611bc1565b5b6125048782880161206a565b9450945050602085013567ffffffffffffffff81111561252757612526611bc1565b5b61253387828801611f8a565b925092505092959194509250565b600081519050919050565b600082825260208201905092915050565b600061256882612541565b612572818561254c565b9350612582818560208601611ef2565b61258b81611bd0565b840191505092915050565b600060208201905081810360008301526125b0818461255d565b905092915050565b60006125c382611b64565b9050919050565b6125d3816125b8565b82525050565b60006020820190506125ee60008301846125ca565b92915050565b6000806000806040858703121561260e5761260d611bbc565b5b600085013567ffffffffffffffff81111561262c5761262b611bc1565b5b6126388782880161206a565b9450945050602085013567ffffffffffffffff81111561265b5761265a611bc1565b5b61266787828801612338565b925092505092959194509250565b61267e81611d55565b811461268957600080fd5b50565b60008135905061269b81612675565b92915050565b600080600080608085870312156126bb576126ba611bbc565b5b60006126c987828801611e6a565b94505060206126da8782880161268c565b93505060406126eb87828801611e6a565b92505060606126fc87828801611e6a565b91505092959194509250565b600061271382611b18565b9050919050565b61272381612708565b82525050565b600060208201905061273e600083018461271a565b92915050565b600081905092915050565b600061275a82612541565b6127648185612744565b9350612774818560208601611ef2565b80840191505092915050565b600061278c828461274f565b915081905092915050565b7f4e487b7100000000000000000000000000000000000000000000000000000000600052603260045260246000fd5b6000602082840312156127dc576127db611bbc565b5b60006127ea8482850161268c565b91505092915050565b6000819050919050565b612806816127f3565b811461281157600080fd5b50565b600081519050612823816127fd565b92915050565b60006020828403121561283f5761283e611bbc565b5b600061284d84828501612814565b91505092915050565b60006128628385612744565b935061286f838584611c8d565b82840190509392505050565b6000612888828486612856565b91508190509392505050565b600082825260208201905092915050565b600080fd5b60006128b68385612894565b93507f07ffffffffffffffffffffffffffffffffffffffffffffffffffffffffffffff8311156128e9576128e86128a5565b5b6020830292506128fa838584611c8d565b82840190509392505050565b6000819050919050565b600061291f602084018461268c565b905092915050565b61293081611d71565b811461293b57600080fd5b50565b60008135905061294d81612927565b92915050565b6000612962602084018461293e565b905092915050565b61297381611d8f565b811461297e57600080fd5b50565b6000813590506129908161296a565b92915050565b60006129a56020840184612981565b905092915050565b6129b681611dae565b81146129c157600080fd5b50565b6000813590506129d3816129ad565b92915050565b60006129e860208401846129c4565b905092915050565b60808201612a016000830183612910565b612a0e6000850182611d62565b50612a1c6020830183612953565b612a296020850182611d80565b50612a376040830183612996565b612a446040850182611d9f565b50612a5260608301836129d9565b612a5f6060850182611dca565b50505050565b6000612a7183836129f0565b60808301905092915050565b600082905092915050565b6000608082019050919050565b6000612aa18385612118565b9350612aac82612906565b8060005b85811015612ae557612ac28284612a7d565b612acc8882612a65565b9750612ad783612a88565b925050600181019050612ab0565b5085925050509392505050565b60006040820190508181036000830152612b0d8186886128aa565b90508181036020830152612b22818486612a95565b905095945050505050565b600060208284031215612b4357612b42611bbc565b5b6000612b5184828501612981565b91505092915050565b60008135612b6781612675565b80915050919050565b60008160001b9050919050565b600060ff612b8a84612b70565b9350801983169250808416831791505092915050565b6000612bbb612bb6612bb184611d55565b611b38565b611d55565b9050919050565b6000819050919050565b612bd582612ba0565b612be8612be182612bc2565b8354612b7d565b8255505050565b60008135612bfc81612927565b80915050919050565b60008160081b9050919050565b600063ffffff00612c2284612c05565b9350801983169250808416831791505092915050565b6000612c53612c4e612c4984611d71565b611b38565b611d71565b9050919050565b6000819050919050565b612c6d82612c38565b612c80612c7982612c5a565b8354612c12565b8255505050565b60008135612c948161296a565b80915050919050565b60008160201b9050919050565b600067ffffffff00000000612cbe84612c9d565b9350801983169250808416831791505092915050565b6000612cef612cea612ce584611d8f565b611b38565b611d8f565b9050919050565b6000819050919050565b612d0982612cd4565b612d1c612d1582612cf6565b8354612caa565b8255505050565b60008135612d30816129ad565b80915050919050565b60008160401b9050919050565b600077ffffffffffffffffffffffffffffffff0000000000000000612d6a84612d39565b9350801983169250808416831791505092915050565b6000612d9b612d96612d9184611dae565b611b38565b611dae565b9050919050565b6000819050919050565b612db582612d80565b612dc8612dc182612da2565b8354612d46565b8255505050565b600081016000830180612de181612b5a565b9050612ded8184612bcc565b505050600081016020830180612e0281612bef565b9050612e0e8184612c64565b505050600081016040830180612e2381612c87565b9050612e2f8184612d00565b505050600081016060830180612e4481612d23565b9050612e508184612dac565b5050505050565b612e618282612dcf565b5050565b600081905092915050565b6000612e7c8385612e65565b93507f07ffffffffffffffffffffffffffffffffffffffffffffffffffffffffffffff831115612eaf57612eae6128a5565b5b602083029250612ec0838584611c8d565b82840190509392505050565b7f5245534554000000000000000000000000000000000000000000000000000000600082015250565b6000612f02600583612744565b9150612f0d82612ecc565b600582019050919050565b6000612f25828486612e70565b9150612f3082612ef5565b91508190509392505050565b600081905092915050565b6000612f5282611ed6565b612f5c8185612f3c565b9350612f6c818560208601611ef2565b80840191505092915050565b6000819050919050565b612f93612f8e82611e49565b612f78565b82525050565b6000612fa58285612f47565b9150612fb18284612f82565b6020820191508190509392505050565b6000608082019050612fd66000830187611eac565b612fe36020830186612040565b612ff06040830185611eac565b612ffd6060830184611eac565b95945050505050565b61300f81612708565b811461301a57600080fd5b50565b60008151905061302c81613006565b92915050565b60006020828403121561304857613047611bbc565b5b60006130568482850161301d565b91505092915050565b600080fd5b60008151905061307381612675565b92915050565b60008151905061308881612927565b92915050565b60008151905061309d8161296a565b92915050565b6000815190506130b2816129ad565b92915050565b6000608082840312156130ce576130cd61305f565b5b6130d86080611c41565b905060006130e884828501613064565b60008301525060206130fc84828501613079565b60208301525060406131108482850161308e565b6040830152506060613124848285016130a3565b60608301525092915050565b60006080828403121561314657613145611bbc565b5b6000613154848285016130b8565b9150509291505056fea2646970667358221220093857ceebdae04ea84424279c92faecbd40b636d37bd9927d5ebb0375744ee764736f6c634300080d0033",
  "devdoc": {
    "kind": "dev",
    "methods": {
      "constructor": {
        "params": {
          "_contractRegistry": "Registry address",
          "_decimals": "decimals for prices stored in this contract",
          "_requiredSignatures": "number of required signatures for accepting consensus submission"
        }
      },
      "getManyPriceData(bytes32[])": {
        "details": "it will return array of price datas for provided `_keys` In case ony of feed does not exist, fallback call will be executed for that feed.",
        "params": {
          "_keys": "array of feed keys"
        },
        "returns": {
          "data": "PriceData array"
        }
      },
      "getManyPriceDataRaw(bytes32[])": {
        "details": "same as getManyPriceData() but does not revert on empty data."
      },
      "getName()": {
        "details": "to follow Registrable interface"
      },
      "getPrice(bytes32)": {
        "params": {
          "_key": "hash of feed name"
        },
        "returns": {
          "price": "price"
        }
      },
      "getPriceData(bytes32)": {
        "details": "this is main endpoint for reading feeds. In case timestamp is empty (that means there is no data), contract will execute fallback call. Check main contract description for fallback details. If you do not need whole data from `PriceData` struct, you can save some gas by using other view methods that returns just what you need.",
        "params": {
          "_key": "hash of feed name"
        },
        "returns": {
          "data": "full PriceData struct"
        }
      },
      "getPriceDataByName(string)": {
        "details": "This method should be used only for Layer2 as it is more gas consuming than others views.",
        "params": {
          "_name": "string feed name"
        },
        "returns": {
          "data": "PriceData"
        }
      },
      "getPriceDataRaw(bytes32)": {
        "params": {
          "_key": "hash of feed name"
        },
        "returns": {
          "data": "full PriceData struct"
        }
      },
      "getPriceTimestamp(bytes32)": {
        "params": {
          "_key": "hash of feed name"
        },
        "returns": {
          "price": "price",
          "timestamp": "timestamp"
        }
      },
      "getPriceTimestampHeartbeat(bytes32)": {
        "params": {
          "_key": "hash of feed name"
        },
        "returns": {
          "heartbeat": "heartbeat",
          "price": "price",
          "timestamp": "timestamp"
        }
      },
      "hashData(bytes32[],(uint8,uint24,uint32,uint128)[])": {
        "details": "helper method for QA purposes",
        "returns": {
          "_0": "hash of data that are signed by validators (keys and priced data)"
        }
      },
      "priceData(string)": {
        "details": "this is helper method for UI"
      },
      "prices(bytes32)": {
        "params": {
          "_key": "hash of feed name"
        },
        "returns": {
          "data": "full PriceData struct"
        }
      },
      "recoverSigner(bytes32,uint8,bytes32,bytes32)": {
        "params": {
          "_hash": "hashed of data",
          "_r": "part of signature",
          "_s": "part of signature",
          "_v": "part of signature"
        },
        "returns": {
          "_0": "signer address"
        }
      },
      "reset(bytes32[],(uint8,bytes32,bytes32)[])": {
        "details": "method for resetting data",
        "params": {
          "_priceKeys": "array of keys for `_priceDatas`",
          "_signatures": "validators signatures"
        }
      },
      "update(bytes32[],(uint8,uint24,uint32,uint128)[],(uint8,bytes32,bytes32)[])": {
        "details": "method for submitting consensus data",
        "params": {
          "_priceDatas": "PriceData signed by validators",
          "_priceKeys": "array of keys for `_priceDatas`",
          "_signatures": "validators signatures"
        }
      },
      "verifySignatures(bytes32,(uint8,bytes32,bytes32)[])": {
        "params": {
          "_hash": "hash of signed data",
          "_signatures": "array of validators signatures"
        }
      }
    },
    "stateVariables": {
      "DECIMALS": {
        "details": "decimals for prices stored in this contract"
      },
      "REGISTRY": {
        "details": "Registry contract where list of all addresses is stored. Fallback feature uses this registry to resolve newest `UmbrellaFeeds` address"
      },
      "REQUIRED_SIGNATURES": {
        "details": "minimal number of signatures required for accepting price submission (PoA)"
      },
      "STAKING_BANK": {
        "details": "StakingBank contract where list of validators is stored"
      }
    },
    "version": 1
  },
  "userdoc": {
    "kind": "user",
    "methods": {
      "getManyPriceData(bytes32[])": {
        "notice": "If data for any key not exists, function will revert. Use `getManyPriceDataRaw` method if you don't want revert."
      },
      "getManyPriceDataRaw(bytes32[])": {
        "notice": "This method does no revert if some data does not exists. Check `data.timestamp` to see if price exist, if it is 0, then it does not exist."
      },
      "getPrice(bytes32)": {
        "notice": "method will revert if data for `_key` not exists."
      },
      "getPriceData(bytes32)": {
        "notice": "method will revert if data for `_key` not exists."
      },
      "getPriceDataByName(string)": {
        "notice": "It does not revert on empty data."
      },
      "getPriceDataRaw(bytes32)": {
        "notice": "same as `getPriceData` but does not revert when no data"
      },
      "getPriceTimestamp(bytes32)": {
        "notice": "method will revert if data for `_key` not exists."
      },
      "getPriceTimestampHeartbeat(bytes32)": {
        "notice": "method will revert if data for `_key` not exists."
      },
      "prices(bytes32)": {
        "notice": "reader for mapping"
      }
    },
    "notice": "Main contract for all on-chain data. This contract has build in fallback feature in case, it will be replaced by newer contract. Fallback is transparent for the user, no additional setup is needed. How fallback feature works? If data for provided key is empty, contract will execute following procedure: 1. When new contract is deployed, data from ols one are erased 2. if data is empty, contract will check if there is new contract with requested data 3. if data is found in new contract it will be returned 4. if there is no data or there is no new contract tx will revert. After new deployment, it is recommended to update address to avoid fallback and reduce gas cost to minimum. In long run this is most efficient solution, better than any proxy.",
    "version": 1
  },
  "storageLayout": {
    "storage": [
      {
        "astId": 5931,
        "contract": "contracts/onChainFeeds/UmbrellaFeeds.sol:UmbrellaFeeds",
        "label": "_prices",
        "offset": 0,
        "slot": "0",
        "type": "t_mapping(t_bytes32,t_struct(PriceData)5040_storage)"
      }
    ],
    "types": {
      "t_bytes32": {
        "encoding": "inplace",
        "label": "bytes32",
        "numberOfBytes": "32"
      },
      "t_mapping(t_bytes32,t_struct(PriceData)5040_storage)": {
        "encoding": "mapping",
        "key": "t_bytes32",
        "label": "mapping(bytes32 => struct IUmbrellaFeeds.PriceData)",
        "numberOfBytes": "32",
        "value": "t_struct(PriceData)5040_storage"
      },
      "t_struct(PriceData)5040_storage": {
        "encoding": "inplace",
        "label": "struct IUmbrellaFeeds.PriceData",
        "members": [
          {
            "astId": 5030,
            "contract": "contracts/onChainFeeds/UmbrellaFeeds.sol:UmbrellaFeeds",
            "label": "data",
            "offset": 0,
            "slot": "0",
            "type": "t_uint8"
          },
          {
            "astId": 5033,
            "contract": "contracts/onChainFeeds/UmbrellaFeeds.sol:UmbrellaFeeds",
            "label": "heartbeat",
            "offset": 1,
            "slot": "0",
            "type": "t_uint24"
          },
          {
            "astId": 5036,
            "contract": "contracts/onChainFeeds/UmbrellaFeeds.sol:UmbrellaFeeds",
            "label": "timestamp",
            "offset": 4,
            "slot": "0",
            "type": "t_uint32"
          },
          {
            "astId": 5039,
            "contract": "contracts/onChainFeeds/UmbrellaFeeds.sol:UmbrellaFeeds",
            "label": "price",
            "offset": 8,
            "slot": "0",
            "type": "t_uint128"
          }
        ],
        "numberOfBytes": "32"
      },
      "t_uint128": {
        "encoding": "inplace",
        "label": "uint128",
        "numberOfBytes": "16"
      },
      "t_uint24": {
        "encoding": "inplace",
        "label": "uint24",
        "numberOfBytes": "3"
      },
      "t_uint32": {
        "encoding": "inplace",
        "label": "uint32",
        "numberOfBytes": "4"
      },
      "t_uint8": {
        "encoding": "inplace",
        "label": "uint8",
        "numberOfBytes": "1"
      }
    }
  }
}