{
  "address": "0xFEA1E5EfdF31B73DA3B2072Ac17799010B15B940",
  "abi": [
    {
      "inputs": [
        {
          "internalType": "contract IUniswapV3Factory",
          "name": "_factory",
          "type": "address"
        },
        {
          "internalType": "contract IQuoterV2",
          "name": "_quoter",
          "type": "address"
        }
      ],
      "stateMutability": "nonpayable",
      "type": "constructor"
    },
    {
      "inputs": [
        {
          "components": [
            {
              "internalType": "contract IUniswapV3Pool",
              "name": "pool",
              "type": "address"
            },
            {
              "internalType": "address",
              "name": "base",
              "type": "address"
            },
            {
              "internalType": "address",
              "name": "quote",
              "type": "address"
            },
            {
              "internalType": "uint8",
              "name": "amountInDecimals",
              "type": "uint8"
            }
          ],
          "internalType": "struct UniswapV3FetcherHelper.InputData[]",
          "name": "_data",
          "type": "tuple[]"
        }
      ],
      "name": "getPrices",
      "outputs": [
        {
          "components": [
            {
              "internalType": "uint256",
              "name": "price",
              "type": "uint256"
            },
            {
              "internalType": "bool",
              "name": "success",
              "type": "bool"
            }
          ],
          "internalType": "struct UniswapV3FetcherHelper.Price[]",
          "name": "prices",
          "type": "tuple[]"
        },
        {
          "internalType": "uint256",
          "name": "timestamp",
          "type": "uint256"
        }
      ],
      "stateMutability": "nonpayable",
      "type": "function"
    },
    {
      "inputs": [
        {
          "internalType": "contract IUniswapV3Pool[]",
          "name": "_pools",
          "type": "address[]"
        }
      ],
      "name": "liquidityData",
      "outputs": [
        {
          "components": [
            {
              "internalType": "uint160",
              "name": "sqrtPriceX96",
              "type": "uint160"
            },
            {
              "internalType": "int24",
              "name": "tick",
              "type": "int24"
            },
            {
              "internalType": "uint256",
              "name": "liquidity",
              "type": "uint256"
            }
          ],
          "internalType": "struct UniswapV3FetcherHelper.LiquidityData[]",
          "name": "data",
          "type": "tuple[]"
        }
      ],
      "stateMutability": "view",
      "type": "function"
    },
    {
      "inputs": [
        {
          "internalType": "address[]",
          "name": "_tokens",
          "type": "address[]"
        }
      ],
      "name": "tokensSymbols",
      "outputs": [
        {
          "internalType": "string[]",
          "name": "symbols",
          "type": "string[]"
        }
      ],
      "stateMutability": "view",
      "type": "function"
    },
    {
      "inputs": [],
      "name": "uniswapV3Factory",
      "outputs": [
        {
          "internalType": "contract IUniswapV3Factory",
          "name": "",
          "type": "address"
        }
      ],
      "stateMutability": "view",
      "type": "function"
    },
    {
      "inputs": [],
      "name": "uniswapV3Quoter",
      "outputs": [
        {
          "internalType": "contract IQuoterV2",
          "name": "",
          "type": "address"
        }
      ],
      "stateMutability": "view",
      "type": "function"
    }
  ],
  "transactionHash": "0xf6a29a1f6a1050b1675f28097d443f38e1e0d73794b61779cc9ece1a57cce881",
  "args": [
    "0x1F98431c8aD98523631AE4a59f267346ea31F984",
    "0xFf86762915c0F1904234DB475b53E4ef904C3626"
  ],
  "numDeployments": 3,
  "solcInputHash": "95c5c63d5bf478d174b8a78c3c500ebc",
  "bytecode": "0x60c06040523480156200001157600080fd5b50604051620021d3380380620021d383398181016040528101906200003791906200016a565b8173ffffffffffffffffffffffffffffffffffffffff1660808173ffffffffffffffffffffffffffffffffffffffff16815250508073ffffffffffffffffffffffffffffffffffffffff1660a08173ffffffffffffffffffffffffffffffffffffffff16815250505050620001b1565b600080fd5b600073ffffffffffffffffffffffffffffffffffffffff82169050919050565b6000620000d982620000ac565b9050919050565b6000620000ed82620000cc565b9050919050565b620000ff81620000e0565b81146200010b57600080fd5b50565b6000815190506200011f81620000f4565b92915050565b60006200013282620000cc565b9050919050565b620001448162000125565b81146200015057600080fd5b50565b600081519050620001648162000139565b92915050565b60008060408385031215620001845762000183620000a7565b5b600062000194858286016200010e565b9250506020620001a78582860162000153565b9150509250929050565b60805160a051611fee620001e56000396000818161053d01526107e80152600081816105610152610afc0152611fee6000f3fe608060405234801561001057600080fd5b50600436106100575760003560e01c80631d20d10a1461005c5780634757efc11461008c5780634d20d0f8146100bc5780635b549182146100da578063ff514fa3146100f8575b600080fd5b61007660048036038101906100719190610dc9565b610129565b6040516100839190610f6b565b60405180910390f35b6100a660048036038101906100a19190610fe3565b610370565b6040516100b39190611182565b60405180910390f35b6100c461053b565b6040516100d19190611203565b60405180910390f35b6100e261055f565b6040516100ef919061123f565b60405180910390f35b610112600480360381019061010d91906112b0565b610583565b604051610120929190611405565b60405180910390f35b606060008383905090508067ffffffffffffffff81111561014d5761014c611435565b5b60405190808252806020026020018201604052801561018657816020015b610173610cfa565b81526020019060019003908161016b5790505b50915060005b818110156103685760008585838181106101a9576101a8611464565b5b90506020020160208101906101be91906114e3565b90508073ffffffffffffffffffffffffffffffffffffffff16633850c7bd6040518163ffffffff1660e01b815260040160e060405180830381865afa15801561020b573d6000803e3d6000fd5b505050506040513d601f19601f8201168201806040525081019061022f9190611607565b90919293509091925090915090505085848151811061025157610250611464565b5b602002602001015160000186858151811061026f5761026e611464565b5b60200260200101516020018260020b60020b8152508273ffffffffffffffffffffffffffffffffffffffff1673ffffffffffffffffffffffffffffffffffffffff1681525050508073ffffffffffffffffffffffffffffffffffffffff16631a6865026040518163ffffffff1660e01b8152600401602060405180830381865afa158015610301573d6000803e3d6000fd5b505050506040513d601f19601f8201168201806040525081019061032591906116f1565b6fffffffffffffffffffffffffffffffff1684838151811061034a57610349611464565b5b6020026020010151604001818152505050808060010191505061018c565b505092915050565b606060008383905090508067ffffffffffffffff81111561039457610393611435565b5b6040519080825280602002602001820160405280156103c757816020015b60608152602001906001900390816103b25790505b50915060005b81811015610533576000808686848181106103eb576103ea611464565b5b9050602002016020810190610400919061174a565b73ffffffffffffffffffffffffffffffffffffffff167f95d89b41e2f5f391a79ec54e9d87c79d6e777c63e32c28da95b4e9e4a79250ec60405160200161044791906117b2565b6040516020818303038152906040526040516104639190611814565b600060405180830381855afa9150503d806000811461049e576040519150601f19603f3d011682016040523d82523d6000602084013e6104a3565b606091505b5091509150816104c25760405180602001604052806000815250610506565b60208151146104e457808060200190518101906104df919061191d565b610505565b806040516020016104f59190611814565b6040516020818303038152906040525b5b85848151811061051957610518611464565b5b6020026020010181905250505080806001019150506103cd565b505092915050565b7f000000000000000000000000000000000000000000000000000000000000000081565b7f000000000000000000000000000000000000000000000000000000000000000081565b6060600042905060008484905090508067ffffffffffffffff8111156105ac576105ab611435565b5b6040519080825280602002602001820160405280156105e557816020015b6105d2610d34565b8152602001906001900390816105ca5790505b50925060005b8181101561064f5761062486868381811061060957610608611464565b5b90506080020180360381019061061f91906119f8565b610658565b84828151811061063757610636611464565b5b602002602001018190525080806001019150506105eb565b50509250929050565b610660610d34565b60008061067084602001516108f6565b91509150806106805750506108f1565b60008061069086604001516108f6565b91509150806106a257505050506108f1565b600073ffffffffffffffffffffffffffffffffffffffff16866000015173ffffffffffffffffffffffffffffffffffffffff16036106e357505050506108f1565b6000806106f388600001516109e2565b9150915080610707575050505050506108f1565b61071a8860200151896040015184610af5565b73ffffffffffffffffffffffffffffffffffffffff16886000015173ffffffffffffffffffffffffffffffffffffffff161461075b575050505050506108f1565b60006040518060a001604052808a6020015173ffffffffffffffffffffffffffffffffffffffff1681526020018a6040015173ffffffffffffffffffffffffffffffffffffffff1681526020018a60600151600a6107b99190611b87565b81526020018462ffffff168152602001600073ffffffffffffffffffffffffffffffffffffffff1681525090507f000000000000000000000000000000000000000000000000000000000000000073ffffffffffffffffffffffffffffffffffffffff1663c6a5026a826040518263ffffffff1660e01b815260040161083f9190611c67565b6080604051808303816000875af192505050801561087b57506040513d601f19601f820116820180604052508101906108789190611cea565b60015b6108b7573d80600081146108ab576040519150601f19603f3d011682016040523d82523d6000602084013e6108b0565b606091505b50506108e9565b6108ca8d6060015160ff168c8b87610c23565b8c600001818152505060018c6020019015159081151581525050505050505b505050505050505b919050565b60008060608373ffffffffffffffffffffffffffffffffffffffff167f313ce567add4d438edf58b94ff345d7d38c45b17dfc0f947988d7819dca364f960405160200161094391906117b2565b60405160208183030381529060405260405161095f9190611814565b600060405180830381855afa9150503d806000811461099a576040519150601f19603f3d011682016040523d82523d6000602084013e61099f565b606091505b5080925081935050508180156109b757506000815114155b156109d757808060200190518101906109d09190611d51565b92506109dc565b600091505b50915091565b60008060608373ffffffffffffffffffffffffffffffffffffffff1663ddca3f4360e01b604051602401604051602081830303815290604052907bffffffffffffffffffffffffffffffffffffffffffffffffffffffff19166020820180517bffffffffffffffffffffffffffffffffffffffffffffffffffffffff8381831617835250505050604051610a769190611814565b600060405180830381855afa9150503d8060008114610ab1576040519150601f19603f3d011682016040523d82523d6000602084013e610ab6565b606091505b5080925081935050506000815103610ad15760009150610aef565b8115610aee5780806020019051810190610aeb9190611daa565b92505b5b50915091565b60008060007f000000000000000000000000000000000000000000000000000000000000000073ffffffffffffffffffffffffffffffffffffffff16631698ee8260e01b878787604051602401610b4e93929190611df5565b604051602081830303815290604052907bffffffffffffffffffffffffffffffffffffffffffffffffffffffff19166020820180517bffffffffffffffffffffffffffffffffffffffffffffffffffffffff8381831617835250505050604051610bb89190611814565b600060405180830381855afa9150503d8060008114610bf3576040519150601f19603f3d011682016040523d82523d6000602084013e610bf8565b606091505b50915091508115610c1a5780806020019051810190610c179190611e6a565b92505b50509392505050565b6000838503610c3457819050610c8d565b83851015610c66578484610c489190611e97565b600a610c549190611ecb565b82610c5f9190611f16565b9050610c8c565b8385610c729190611e97565b600a610c7e9190611ecb565b82610c899190611f87565b90505b5b6012830315610cf2576012831115610cca57601283610cac9190611e97565b600a610cb89190611ecb565b81610cc39190611f87565b9050610cf1565b826012610cd79190611e97565b600a610ce39190611ecb565b81610cee9190611f16565b90505b5b949350505050565b6040518060600160405280600073ffffffffffffffffffffffffffffffffffffffff168152602001600060020b8152602001600081525090565b6040518060400160405280600081526020016000151581525090565b6000604051905090565b600080fd5b600080fd5b600080fd5b600080fd5b600080fd5b60008083601f840112610d8957610d88610d64565b5b8235905067ffffffffffffffff811115610da657610da5610d69565b5b602083019150836020820283011115610dc257610dc1610d6e565b5b9250929050565b60008060208385031215610de057610ddf610d5a565b5b600083013567ffffffffffffffff811115610dfe57610dfd610d5f565b5b610e0a85828601610d73565b92509250509250929050565b600081519050919050565b600082825260208201905092915050565b6000819050602082019050919050565b600073ffffffffffffffffffffffffffffffffffffffff82169050919050565b610e6b81610e42565b82525050565b60008160020b9050919050565b610e8781610e71565b82525050565b6000819050919050565b610ea081610e8d565b82525050565b606082016000820151610ebc6000850182610e62565b506020820151610ecf6020850182610e7e565b506040820151610ee26040850182610e97565b50505050565b6000610ef48383610ea6565b60608301905092915050565b6000602082019050919050565b6000610f1882610e16565b610f228185610e21565b9350610f2d83610e32565b8060005b83811015610f5e578151610f458882610ee8565b9750610f5083610f00565b925050600181019050610f31565b5085935050505092915050565b60006020820190508181036000830152610f858184610f0d565b905092915050565b60008083601f840112610fa357610fa2610d64565b5b8235905067ffffffffffffffff811115610fc057610fbf610d69565b5b602083019150836020820283011115610fdc57610fdb610d6e565b5b9250929050565b60008060208385031215610ffa57610ff9610d5a565b5b600083013567ffffffffffffffff81111561101857611017610d5f565b5b61102485828601610f8d565b92509250509250929050565b600081519050919050565b600082825260208201905092915050565b6000819050602082019050919050565b600081519050919050565b600082825260208201905092915050565b60005b8381101561109657808201518184015260208101905061107b565b60008484015250505050565b6000601f19601f8301169050919050565b60006110be8261105c565b6110c88185611067565b93506110d8818560208601611078565b6110e1816110a2565b840191505092915050565b60006110f883836110b3565b905092915050565b6000602082019050919050565b600061111882611030565b611122818561103b565b9350836020820285016111348561104c565b8060005b85811015611170578484038952815161115185826110ec565b945061115c83611100565b925060208a01995050600181019050611138565b50829750879550505050505092915050565b6000602082019050818103600083015261119c818461110d565b905092915050565b6000819050919050565b60006111c96111c46111bf84610e42565b6111a4565b610e42565b9050919050565b60006111db826111ae565b9050919050565b60006111ed826111d0565b9050919050565b6111fd816111e2565b82525050565b600060208201905061121860008301846111f4565b92915050565b6000611229826111d0565b9050919050565b6112398161121e565b82525050565b60006020820190506112546000830184611230565b92915050565b60008083601f8401126112705761126f610d64565b5b8235905067ffffffffffffffff81111561128d5761128c610d69565b5b6020830191508360808202830111156112a9576112a8610d6e565b5b9250929050565b600080602083850312156112c7576112c6610d5a565b5b600083013567ffffffffffffffff8111156112e5576112e4610d5f565b5b6112f18582860161125a565b92509250509250929050565b600081519050919050565b600082825260208201905092915050565b6000819050602082019050919050565b60008115159050919050565b61133e81611329565b82525050565b60408201600082015161135a6000850182610e97565b50602082015161136d6020850182611335565b50505050565b600061137f8383611344565b60408301905092915050565b6000602082019050919050565b60006113a3826112fd565b6113ad8185611308565b93506113b883611319565b8060005b838110156113e95781516113d08882611373565b97506113db8361138b565b9250506001810190506113bc565b5085935050505092915050565b6113ff81610e8d565b82525050565b6000604082019050818103600083015261141f8185611398565b905061142e60208301846113f6565b9392505050565b7f4e487b7100000000000000000000000000000000000000000000000000000000600052604160045260246000fd5b7f4e487b7100000000000000000000000000000000000000000000000000000000600052603260045260246000fd5b600061149e82610e42565b9050919050565b60006114b082611493565b9050919050565b6114c0816114a5565b81146114cb57600080fd5b50565b6000813590506114dd816114b7565b92915050565b6000602082840312156114f9576114f8610d5a565b5b6000611507848285016114ce565b91505092915050565b61151981610e42565b811461152457600080fd5b50565b60008151905061153681611510565b92915050565b61154581610e71565b811461155057600080fd5b50565b6000815190506115628161153c565b92915050565b600061ffff82169050919050565b61157f81611568565b811461158a57600080fd5b50565b60008151905061159c81611576565b92915050565b600060ff82169050919050565b6115b8816115a2565b81146115c357600080fd5b50565b6000815190506115d5816115af565b92915050565b6115e481611329565b81146115ef57600080fd5b50565b600081519050611601816115db565b92915050565b600080600080600080600060e0888a03121561162657611625610d5a565b5b60006116348a828b01611527565b97505060206116458a828b01611553565b96505060406116568a828b0161158d565b95505060606116678a828b0161158d565b94505060806116788a828b0161158d565b93505060a06116898a828b016115c6565b92505060c061169a8a828b016115f2565b91505092959891949750929550565b60006fffffffffffffffffffffffffffffffff82169050919050565b6116ce816116a9565b81146116d957600080fd5b50565b6000815190506116eb816116c5565b92915050565b60006020828403121561170757611706610d5a565b5b6000611715848285016116dc565b91505092915050565b61172781611493565b811461173257600080fd5b50565b6000813590506117448161171e565b92915050565b6000602082840312156117605761175f610d5a565b5b600061176e84828501611735565b91505092915050565b60007fffffffff0000000000000000000000000000000000000000000000000000000082169050919050565b6117ac81611777565b82525050565b60006020820190506117c760008301846117a3565b92915050565b600081519050919050565b600081905092915050565b60006117ee826117cd565b6117f881856117d8565b9350611808818560208601611078565b80840191505092915050565b600061182082846117e3565b915081905092915050565b600080fd5b611839826110a2565b810181811067ffffffffffffffff8211171561185857611857611435565b5b80604052505050565b600061186b610d50565b90506118778282611830565b919050565b600067ffffffffffffffff82111561189757611896611435565b5b6118a0826110a2565b9050602081019050919050565b60006118c06118bb8461187c565b611861565b9050828152602081018484840111156118dc576118db61182b565b5b6118e7848285611078565b509392505050565b600082601f83011261190457611903610d64565b5b81516119148482602086016118ad565b91505092915050565b60006020828403121561193357611932610d5a565b5b600082015167ffffffffffffffff81111561195157611950610d5f565b5b61195d848285016118ef565b91505092915050565b600080fd5b60008135905061197a816115af565b92915050565b60006080828403121561199657611995611966565b5b6119a06080611861565b905060006119b0848285016114ce565b60008301525060206119c484828501611735565b60208301525060406119d884828501611735565b60408301525060606119ec8482850161196b565b60608301525092915050565b600060808284031215611a0e57611a0d610d5a565b5b6000611a1c84828501611980565b91505092915050565b7f4e487b7100000000000000000000000000000000000000000000000000000000600052601160045260246000fd5b60008160011c9050919050565b6000808291508390505b6001851115611aab57808604811115611a8757611a86611a25565b5b6001851615611a965780820291505b8081029050611aa485611a54565b9450611a6b565b94509492505050565b600082611ac45760019050611b80565b81611ad25760009050611b80565b8160018114611ae85760028114611af257611b21565b6001915050611b80565b60ff841115611b0457611b03611a25565b5b8360020a915084821115611b1b57611b1a611a25565b5b50611b80565b5060208310610133831016604e8410600b8410161715611b565782820a905083811115611b5157611b50611a25565b5b611b80565b611b638484846001611a61565b92509050818404811115611b7a57611b79611a25565b5b81810290505b9392505050565b6000611b9282610e8d565b9150611b9d836115a2565b9250611bca7fffffffffffffffffffffffffffffffffffffffffffffffffffffffffffffffff8484611ab4565b905092915050565b611bdb81611493565b82525050565b600062ffffff82169050919050565b611bf981611be1565b82525050565b60a082016000820151611c156000850182611bd2565b506020820151611c286020850182611bd2565b506040820151611c3b6040850182610e97565b506060820151611c4e6060850182611bf0565b506080820151611c616080850182610e62565b50505050565b600060a082019050611c7c6000830184611bff565b92915050565b611c8b81610e8d565b8114611c9657600080fd5b50565b600081519050611ca881611c82565b92915050565b600063ffffffff82169050919050565b611cc781611cae565b8114611cd257600080fd5b50565b600081519050611ce481611cbe565b92915050565b60008060008060808587031215611d0457611d03610d5a565b5b6000611d1287828801611c99565b9450506020611d2387828801611527565b9350506040611d3487828801611cd5565b9250506060611d4587828801611c99565b91505092959194509250565b600060208284031215611d6757611d66610d5a565b5b6000611d7584828501611c99565b91505092915050565b611d8781611be1565b8114611d9257600080fd5b50565b600081519050611da481611d7e565b92915050565b600060208284031215611dc057611dbf610d5a565b5b6000611dce84828501611d95565b91505092915050565b611de081611493565b82525050565b611def81611be1565b82525050565b6000606082019050611e0a6000830186611dd7565b611e176020830185611dd7565b611e246040830184611de6565b949350505050565b6000611e3782610e42565b9050919050565b611e4781611e2c565b8114611e5257600080fd5b50565b600081519050611e6481611e3e565b92915050565b600060208284031215611e8057611e7f610d5a565b5b6000611e8e84828501611e55565b91505092915050565b6000611ea282610e8d565b9150611ead83610e8d565b9250828203905081811115611ec557611ec4611a25565b5b92915050565b6000611ed682610e8d565b9150611ee183610e8d565b9250611f0e7fffffffffffffffffffffffffffffffffffffffffffffffffffffffffffffffff8484611ab4565b905092915050565b6000611f2182610e8d565b9150611f2c83610e8d565b9250828202611f3a81610e8d565b91508282048414831517611f5157611f50611a25565b5b5092915050565b7f4e487b7100000000000000000000000000000000000000000000000000000000600052601260045260246000fd5b6000611f9282610e8d565b9150611f9d83610e8d565b925082611fad57611fac611f58565b5b82820490509291505056fea2646970667358221220d8b96c068c43f2d96b2b745c57189244d3c23b76c76c71618274b8cb58f1ef9264736f6c63430008160033",
  "devdoc": {
    "kind": "dev",
    "methods": {
      "getPrices((address,address,address,uint8)[])": {
        "details": "this method will return estimations for swap for one base token it can not be view, but to get estimation you have to call it in a static way Tokens that do not have `.decimals()` are not supported",
        "params": {
          "_data": "array of PriceData, each PriceData can accept multiple pools per one price, price is fetched from pool, that has biggest liquidity (quote.balanceOf(pool))"
        },
        "returns": {
          "prices": "prices normalized from input amount (10 ** prices[n].amountInDecimals) to one token price"
        }
      }
    },
    "version": 1
  },
  "userdoc": {
    "kind": "user",
    "methods": {},
    "version": 1
  },
  "storageLayout": {
    "storage": [],
    "types": null
  }
}