{
  "address": "0xBb57A6e58E999b1020723e86F9ba23d73F094320",
  "abi": [
    {
      "inputs": [
        {
          "internalType": "uint256",
          "name": "_validatorsCount",
          "type": "uint256"
        }
      ],
      "stateMutability": "nonpayable",
      "type": "constructor"
    },
    {
      "inputs": [],
      "name": "NotSupported",
      "type": "error"
    },
    {
      "anonymous": false,
      "inputs": [
        {
          "indexed": true,
          "internalType": "address",
          "name": "owner",
          "type": "address"
        },
        {
          "indexed": true,
          "internalType": "address",
          "name": "spender",
          "type": "address"
        },
        {
          "indexed": false,
          "internalType": "uint256",
          "name": "value",
          "type": "uint256"
        }
      ],
      "name": "Approval",
      "type": "event"
    },
    {
      "anonymous": false,
      "inputs": [
        {
          "indexed": false,
          "internalType": "uint256",
          "name": "minAmountForStake",
          "type": "uint256"
        }
      ],
      "name": "LogMinAmountForStake",
      "type": "event"
    },
    {
      "anonymous": false,
      "inputs": [
        {
          "indexed": true,
          "internalType": "address",
          "name": "id",
          "type": "address"
        }
      ],
      "name": "LogValidatorRegistered",
      "type": "event"
    },
    {
      "anonymous": false,
      "inputs": [
        {
          "indexed": true,
          "internalType": "address",
          "name": "id",
          "type": "address"
        }
      ],
      "name": "LogValidatorRemoved",
      "type": "event"
    },
    {
      "anonymous": false,
      "inputs": [
        {
          "indexed": true,
          "internalType": "address",
          "name": "id",
          "type": "address"
        }
      ],
      "name": "LogValidatorUpdated",
      "type": "event"
    },
    {
      "anonymous": false,
      "inputs": [
        {
          "indexed": true,
          "internalType": "address",
          "name": "from",
          "type": "address"
        },
        {
          "indexed": true,
          "internalType": "address",
          "name": "to",
          "type": "address"
        },
        {
          "indexed": false,
          "internalType": "uint256",
          "name": "value",
          "type": "uint256"
        }
      ],
      "name": "Transfer",
      "type": "event"
    },
    {
      "inputs": [],
      "name": "NUMBER_OF_VALIDATORS",
      "outputs": [
        {
          "internalType": "uint256",
          "name": "",
          "type": "uint256"
        }
      ],
      "stateMutability": "view",
      "type": "function"
    },
    {
      "inputs": [],
      "name": "ONE",
      "outputs": [
        {
          "internalType": "uint256",
          "name": "",
          "type": "uint256"
        }
      ],
      "stateMutability": "view",
      "type": "function"
    },
    {
      "inputs": [],
      "name": "TOTAL_SUPPLY",
      "outputs": [
        {
          "internalType": "uint256",
          "name": "",
          "type": "uint256"
        }
      ],
      "stateMutability": "view",
      "type": "function"
    },
    {
      "inputs": [],
      "name": "VALIDATOR_0",
      "outputs": [
        {
          "internalType": "address",
          "name": "",
          "type": "address"
        }
      ],
      "stateMutability": "view",
      "type": "function"
    },
    {
      "inputs": [],
      "name": "VALIDATOR_1",
      "outputs": [
        {
          "internalType": "address",
          "name": "",
          "type": "address"
        }
      ],
      "stateMutability": "view",
      "type": "function"
    },
    {
      "inputs": [
        {
          "internalType": "uint256",
          "name": "_ix",
          "type": "uint256"
        }
      ],
      "name": "addresses",
      "outputs": [
        {
          "internalType": "address",
          "name": "",
          "type": "address"
        }
      ],
      "stateMutability": "view",
      "type": "function"
    },
    {
      "inputs": [
        {
          "internalType": "address",
          "name": "",
          "type": "address"
        },
        {
          "internalType": "address",
          "name": "",
          "type": "address"
        }
      ],
      "name": "allowance",
      "outputs": [
        {
          "internalType": "uint256",
          "name": "",
          "type": "uint256"
        }
      ],
      "stateMutability": "pure",
      "type": "function"
    },
    {
      "inputs": [
        {
          "internalType": "address",
          "name": "",
          "type": "address"
        },
        {
          "internalType": "uint256",
          "name": "",
          "type": "uint256"
        }
      ],
      "name": "approve",
      "outputs": [
        {
          "internalType": "bool",
          "name": "",
          "type": "bool"
        }
      ],
      "stateMutability": "pure",
      "type": "function"
    },
    {
      "inputs": [
        {
          "internalType": "address",
          "name": "_account",
          "type": "address"
        }
      ],
      "name": "balanceOf",
      "outputs": [
        {
          "internalType": "uint256",
          "name": "",
          "type": "uint256"
        }
      ],
      "stateMutability": "view",
      "type": "function"
    },
    {
      "inputs": [
        {
          "internalType": "address",
          "name": "_validator",
          "type": "address"
        }
      ],
      "name": "balances",
      "outputs": [
        {
          "internalType": "uint256",
          "name": "",
          "type": "uint256"
        }
      ],
      "stateMutability": "view",
      "type": "function"
    },
    {
      "inputs": [
        {
          "internalType": "address",
          "name": "",
          "type": "address"
        },
        {
          "internalType": "string",
          "name": "",
          "type": "string"
        }
      ],
      "name": "create",
      "outputs": [],
      "stateMutability": "pure",
      "type": "function"
    },
    {
      "inputs": [],
      "name": "exit",
      "outputs": [
        {
          "internalType": "bool",
          "name": "",
          "type": "bool"
        }
      ],
      "stateMutability": "pure",
      "type": "function"
    },
    {
      "inputs": [],
      "name": "getAddresses",
      "outputs": [
        {
          "internalType": "address[]",
          "name": "",
          "type": "address[]"
        }
      ],
      "stateMutability": "view",
      "type": "function"
    },
    {
      "inputs": [],
      "name": "getBalances",
      "outputs": [
        {
          "internalType": "uint256[]",
          "name": "allBalances",
          "type": "uint256[]"
        }
      ],
      "stateMutability": "view",
      "type": "function"
    },
    {
      "inputs": [],
      "name": "getName",
      "outputs": [
        {
          "internalType": "bytes32",
          "name": "",
          "type": "bytes32"
        }
      ],
      "stateMutability": "pure",
      "type": "function"
    },
    {
      "inputs": [],
      "name": "getNumberOfValidators",
      "outputs": [
        {
          "internalType": "uint256",
          "name": "",
          "type": "uint256"
        }
      ],
      "stateMutability": "view",
      "type": "function"
    },
    {
      "inputs": [
        {
          "internalType": "address",
          "name": "",
          "type": "address"
        }
      ],
      "name": "receiveApproval",
      "outputs": [
        {
          "internalType": "bool",
          "name": "",
          "type": "bool"
        }
      ],
      "stateMutability": "pure",
      "type": "function"
    },
    {
      "inputs": [],
      "name": "register",
      "outputs": [],
      "stateMutability": "pure",
      "type": "function"
    },
    {
      "inputs": [
        {
          "internalType": "address",
          "name": "",
          "type": "address"
        }
      ],
      "name": "remove",
      "outputs": [],
      "stateMutability": "pure",
      "type": "function"
    },
    {
      "inputs": [
        {
          "internalType": "uint256",
          "name": "",
          "type": "uint256"
        }
      ],
      "name": "setMinAmountForStake",
      "outputs": [],
      "stateMutability": "pure",
      "type": "function"
    },
    {
      "inputs": [
        {
          "internalType": "uint256",
          "name": "",
          "type": "uint256"
        }
      ],
      "name": "stake",
      "outputs": [],
      "stateMutability": "pure",
      "type": "function"
    },
    {
      "inputs": [],
      "name": "totalSupply",
      "outputs": [
        {
          "internalType": "uint256",
          "name": "",
          "type": "uint256"
        }
      ],
      "stateMutability": "view",
      "type": "function"
    },
    {
      "inputs": [
        {
          "internalType": "address",
          "name": "",
          "type": "address"
        },
        {
          "internalType": "uint256",
          "name": "",
          "type": "uint256"
        }
      ],
      "name": "transfer",
      "outputs": [
        {
          "internalType": "bool",
          "name": "",
          "type": "bool"
        }
      ],
      "stateMutability": "pure",
      "type": "function"
    },
    {
      "inputs": [
        {
          "internalType": "address",
          "name": "",
          "type": "address"
        },
        {
          "internalType": "address",
          "name": "",
          "type": "address"
        },
        {
          "internalType": "uint256",
          "name": "",
          "type": "uint256"
        }
      ],
      "name": "transferFrom",
      "outputs": [
        {
          "internalType": "bool",
          "name": "",
          "type": "bool"
        }
      ],
      "stateMutability": "pure",
      "type": "function"
    },
    {
      "inputs": [],
      "name": "unregister",
      "outputs": [],
      "stateMutability": "pure",
      "type": "function"
    },
    {
      "inputs": [
        {
          "internalType": "address",
          "name": "",
          "type": "address"
        },
        {
          "internalType": "string",
          "name": "",
          "type": "string"
        }
      ],
      "name": "update",
      "outputs": [],
      "stateMutability": "pure",
      "type": "function"
    },
    {
      "inputs": [
        {
          "internalType": "address",
          "name": "_id",
          "type": "address"
        }
      ],
      "name": "validators",
      "outputs": [
        {
          "internalType": "address",
          "name": "id",
          "type": "address"
        },
        {
          "internalType": "string",
          "name": "location",
          "type": "string"
        }
      ],
      "stateMutability": "pure",
      "type": "function"
    },
    {
      "inputs": [
        {
          "internalType": "uint256",
          "name": "",
          "type": "uint256"
        }
      ],
      "name": "withdraw",
      "outputs": [
        {
          "internalType": "bool",
          "name": "",
          "type": "bool"
        }
      ],
      "stateMutability": "pure",
      "type": "function"
    }
  ],
  "transactionHash": "0x2e103c7b9ea0130148ab23e1cc58176d1b47b6f0b14034b8c59b08bd35a5a3b5",
  "args": [
    2
  ],
  "numDeployments": 3,
  "solcInputHash": "fddd9696c3883594e53d8bdef5d80642",
  "bytecode": "0x60c06040523480156200001157600080fd5b5060405162001506380380620015068339818101604052810190620000379190620000a5565b808060808181525050670de0b6b3a76400008162000056919062000106565b60a08181525050505062000167565b600080fd5b6000819050919050565b6200007f816200006a565b81146200008b57600080fd5b50565b6000815190506200009f8162000074565b92915050565b600060208284031215620000be57620000bd62000065565b5b6000620000ce848285016200008e565b91505092915050565b7f4e487b7100000000000000000000000000000000000000000000000000000000600052601160045260246000fd5b600062000113826200006a565b915062000120836200006a565b9250817fffffffffffffffffffffffffffffffffffffffffffffffffffffffffffffffff04831182151516156200015c576200015b620000d7565b5b828202905092915050565b60805160a051611356620001b0600039600081816106880152610814015260008181610527015281816105950152818161083a0152818161092b0152610b7201526113566000f3fe608060405234801561001057600080fd5b50600436106101535760003560e01c8062113e0814610158578063095ea7b3146101765780630db18e37146101a657806317d7de7c146101d657806318160ddd146101f45780631aa3a0081461021257806323b872dd1461021c57806327e235e31461024c57806329092d0e1461027c5780632e1a7d4d14610298578063411ff497146102c857806352b41e35146102e657806370a0823114610302578063838e7c3a14610332578063902d55a51461034e5780639031d9131461036c5780639f0e94841461038a578063a15ab08d146103a8578063a39fac12146103c4578063a694fc3a146103e2578063a9059cbb146103fe578063c2ee3a081461042e578063db7317771461044c578063dd62ed3e1461046a578063e79a198f1461049a578063e9fad8ee146104a4578063edf26d9b146104c2578063fa52c7d8146104f2575b600080fd5b610160610523565b60405161016d9190610d70565b60405180910390f35b610190600480360381019061018b9190610e26565b6105f4565b60405161019d9190610e81565b60405180910390f35b6101c060048036038101906101bb9190610e9c565b610628565b6040516101cd9190610e81565b60405180910390f35b6101de61065c565b6040516101eb9190610ee2565b60405180910390f35b6101fc610684565b6040516102099190610f0c565b60405180910390f35b61021a6106ac565b005b61023660048036038101906102319190610f27565b6106ae565b6040516102439190610e81565b60405180910390f35b61026660048036038101906102619190610e9c565b6106e2565b6040516102739190610f0c565b60405180910390f35b61029660048036038101906102919190610e9c565b610709565b005b6102b260048036038101906102ad9190610f7a565b61073b565b6040516102bf9190610e81565b60405180910390f35b6102d061076f565b6040516102dd9190610fb6565b60405180910390f35b61030060048036038101906102fb9190610f7a565b610787565b005b61031c60048036038101906103179190610e9c565b6107b9565b6040516103299190610f0c565b60405180910390f35b61034c60048036038101906103479190611036565b6107e0565b005b610356610812565b6040516103639190610f0c565b60405180910390f35b610374610836565b6040516103819190610f0c565b60405180910390f35b61039261085e565b60405161039f9190610fb6565b60405180910390f35b6103c260048036038101906103bd9190611036565b610876565b005b6103cc6108a8565b6040516103d99190611154565b60405180910390f35b6103fc60048036038101906103f79190610f7a565b6108b7565b005b61041860048036038101906104139190610e26565b6108e9565b6040516104259190610e81565b60405180910390f35b61043661091d565b6040516104439190610f0c565b60405180910390f35b610454610929565b6040516104619190610f0c565b60405180910390f35b610484600480360381019061047f9190611176565b61094d565b6040516104919190610f0c565b60405180910390f35b6104a2610981565b005b6104ac610983565b6040516104b99190610e81565b60405180910390f35b6104dc60048036038101906104d79190610f7a565b6109b7565b6040516104e99190610fb6565b60405180910390f35b61050c60048036038101906105079190610e9c565b6109e2565b60405161051a92919061124f565b60405180910390f35b60607f000000000000000000000000000000000000000000000000000000000000000067ffffffffffffffff81111561055f5761055e61127f565b5b60405190808252806020026020018201604052801561058d5781602001602082028036833780820191505090505b50905060005b7f00000000000000000000000000000000000000000000000000000000000000008110156105f057670de0b6b3a76400008282815181106105d7576105d66112ae565b5b6020026020010181815250508080600101915050610593565b5090565b60006040517fa038794000000000000000000000000000000000000000000000000000000000815260040160405180910390fd5b60006040517fa038794000000000000000000000000000000000000000000000000000000000815260040160405180910390fd5b60007f5374616b696e6742616e6b000000000000000000000000000000000000000000905090565b60007f0000000000000000000000000000000000000000000000000000000000000000905090565b565b60006040517fa038794000000000000000000000000000000000000000000000000000000000815260040160405180910390fd5b60006106ed82610ad6565b6106f8576000610702565b670de0b6b3a76400005b9050919050565b6040517fa038794000000000000000000000000000000000000000000000000000000000815260040160405180910390fd5b60006040517fa038794000000000000000000000000000000000000000000000000000000000815260040160405180910390fd5b73998cb7821e605cc16b6174e7c50e19adb2dd2fb081565b6040517fa038794000000000000000000000000000000000000000000000000000000000815260040160405180910390fd5b60006107c482610ad6565b6107cf5760006107d9565b670de0b6b3a76400005b9050919050565b6040517fa038794000000000000000000000000000000000000000000000000000000000815260040160405180910390fd5b7f000000000000000000000000000000000000000000000000000000000000000081565b60007f0000000000000000000000000000000000000000000000000000000000000000905090565b73dc3ebc37da53a644d67e5e3b5ba4eef88d969d5c81565b6040517fa038794000000000000000000000000000000000000000000000000000000000815260040160405180910390fd5b60606108b2610b6c565b905090565b6040517fa038794000000000000000000000000000000000000000000000000000000000815260040160405180910390fd5b60006040517fa038794000000000000000000000000000000000000000000000000000000000815260040160405180910390fd5b670de0b6b3a764000081565b7f000000000000000000000000000000000000000000000000000000000000000081565b60006040517fa038794000000000000000000000000000000000000000000000000000000000815260040160405180910390fd5b565b60006040517fa038794000000000000000000000000000000000000000000000000000000000815260040160405180910390fd5b60006109c1610b6c565b82815181106109d3576109d26112ae565b5b60200260200101519050919050565b6000606073dc3ebc37da53a644d67e5e3b5ba4eef88d969d5c73ffffffffffffffffffffffffffffffffffffffff168373ffffffffffffffffffffffffffffffffffffffff1603610a5057826040518060600160405280602181526020016112de6021913991509150610ad1565b73998cb7821e605cc16b6174e7c50e19adb2dd2fb073ffffffffffffffffffffffffffffffffffffffff168373ffffffffffffffffffffffffffffffffffffffff1603610aba57826040518060600160405280602281526020016112ff6022913991509150610ad1565b600060405180602001604052806000815250915091505b915091565b600073dc3ebc37da53a644d67e5e3b5ba4eef88d969d5c73ffffffffffffffffffffffffffffffffffffffff168273ffffffffffffffffffffffffffffffffffffffff161480610b65575073998cb7821e605cc16b6174e7c50e19adb2dd2fb073ffffffffffffffffffffffffffffffffffffffff168273ffffffffffffffffffffffffffffffffffffffff16145b9050919050565b606060007f000000000000000000000000000000000000000000000000000000000000000067ffffffffffffffff811115610baa57610ba961127f565b5b604051908082528060200260200182016040528015610bd85781602001602082028036833780820191505090505b50905073dc3ebc37da53a644d67e5e3b5ba4eef88d969d5c81600081518110610c0457610c036112ae565b5b602002602001019073ffffffffffffffffffffffffffffffffffffffff16908173ffffffffffffffffffffffffffffffffffffffff168152505073998cb7821e605cc16b6174e7c50e19adb2dd2fb081600181518110610c6757610c666112ae565b5b602002602001019073ffffffffffffffffffffffffffffffffffffffff16908173ffffffffffffffffffffffffffffffffffffffff16815250508091505090565b600081519050919050565b600082825260208201905092915050565b6000819050602082019050919050565b6000819050919050565b610ce781610cd4565b82525050565b6000610cf98383610cde565b60208301905092915050565b6000602082019050919050565b6000610d1d82610ca8565b610d278185610cb3565b9350610d3283610cc4565b8060005b83811015610d63578151610d4a8882610ced565b9750610d5583610d05565b925050600181019050610d36565b5085935050505092915050565b60006020820190508181036000830152610d8a8184610d12565b905092915050565b600080fd5b600080fd5b600073ffffffffffffffffffffffffffffffffffffffff82169050919050565b6000610dc782610d9c565b9050919050565b610dd781610dbc565b8114610de257600080fd5b50565b600081359050610df481610dce565b92915050565b610e0381610cd4565b8114610e0e57600080fd5b50565b600081359050610e2081610dfa565b92915050565b60008060408385031215610e3d57610e3c610d92565b5b6000610e4b85828601610de5565b9250506020610e5c85828601610e11565b9150509250929050565b60008115159050919050565b610e7b81610e66565b82525050565b6000602082019050610e966000830184610e72565b92915050565b600060208284031215610eb257610eb1610d92565b5b6000610ec084828501610de5565b91505092915050565b6000819050919050565b610edc81610ec9565b82525050565b6000602082019050610ef76000830184610ed3565b92915050565b610f0681610cd4565b82525050565b6000602082019050610f216000830184610efd565b92915050565b600080600060608486031215610f4057610f3f610d92565b5b6000610f4e86828701610de5565b9350506020610f5f86828701610de5565b9250506040610f7086828701610e11565b9150509250925092565b600060208284031215610f9057610f8f610d92565b5b6000610f9e84828501610e11565b91505092915050565b610fb081610dbc565b82525050565b6000602082019050610fcb6000830184610fa7565b92915050565b600080fd5b600080fd5b600080fd5b60008083601f840112610ff657610ff5610fd1565b5b8235905067ffffffffffffffff81111561101357611012610fd6565b5b60208301915083600182028301111561102f5761102e610fdb565b5b9250929050565b60008060006040848603121561104f5761104e610d92565b5b600061105d86828701610de5565b935050602084013567ffffffffffffffff81111561107e5761107d610d97565b5b61108a86828701610fe0565b92509250509250925092565b600081519050919050565b600082825260208201905092915050565b6000819050602082019050919050565b6110cb81610dbc565b82525050565b60006110dd83836110c2565b60208301905092915050565b6000602082019050919050565b600061110182611096565b61110b81856110a1565b9350611116836110b2565b8060005b8381101561114757815161112e88826110d1565b9750611139836110e9565b92505060018101905061111a565b5085935050505092915050565b6000602082019050818103600083015261116e81846110f6565b905092915050565b6000806040838503121561118d5761118c610d92565b5b600061119b85828601610de5565b92505060206111ac85828601610de5565b9150509250929050565b600081519050919050565b600082825260208201905092915050565b60005b838110156111f05780820151818401526020810190506111d5565b838111156111ff576000848401525b50505050565b6000601f19601f8301169050919050565b6000611221826111b6565b61122b81856111c1565b935061123b8185602086016111d2565b61124481611205565b840191505092915050565b60006040820190506112646000830185610fa7565b81810360208301526112768184611216565b90509392505050565b7f4e487b7100000000000000000000000000000000000000000000000000000000600052604160045260246000fd5b7f4e487b7100000000000000000000000000000000000000000000000000000000600052603260045260246000fdfe68747470733a2f2f76616c696461746f722e6465762e756d622e6e6574776f726b68747470733a2f2f76616c696461746f72322e6465762e756d622e6e6574776f726ba264697066735822122011378827bc5dbe92d05625fc72cd1b6002949e8f6ad627e26d5f187db0d7a9b564736f6c634300080d0033",
  "devdoc": {
    "kind": "dev",
    "methods": {
      "addresses(uint256)": {
        "details": "gets validator address for provided index",
        "params": {
          "_ix": "index in array of list of all validators wallets"
        }
      },
      "balanceOf(address)": {
        "details": "to follow ERC20 interface"
      },
      "exit()": {
        "details": "unstake and withdraw all tokens"
      },
      "getName()": {
        "details": "to follow Registrable interface"
      },
      "getNumberOfValidators()": {
        "returns": {
          "_0": "total number of registered validators (with and without balance)"
        }
      },
      "register()": {
        "details": "to follow Registrable interface"
      },
      "totalSupply()": {
        "details": "to follow ERC20 interface"
      },
      "unregister()": {
        "details": "to follow Registrable interface"
      },
      "validators(address)": {
        "params": {
          "_id": "address of validator"
        },
        "returns": {
          "id": "address of validator",
          "location": "URL of validator"
        }
      }
    },
    "version": 1
  },
  "userdoc": {
    "kind": "user",
    "methods": {},
    "version": 1
  },
  "storageLayout": {
    "storage": [],
    "types": null
  }
}