{
  "address": "0x49326280AcEeCE10009E02e358Ee829b14D890Fc",
  "abi": [
    {
      "inputs": [
        {
          "internalType": "contract IRegistry",
          "name": "_contractRegistry",
          "type": "address"
        },
        {
          "internalType": "uint16",
          "name": "_requiredSignatures",
          "type": "uint16"
        },
        {
          "internalType": "uint8",
          "name": "_decimals",
          "type": "uint8"
        }
      ],
      "stateMutability": "nonpayable",
      "type": "constructor"
    },
    {
      "inputs": [],
      "name": "ArraysDataDoNotMatch",
      "type": "error"
    },
    {
      "inputs": [],
      "name": "FallbackFeedNotExist",
      "type": "error"
    },
    {
      "inputs": [],
      "name": "FeedNotExist",
      "type": "error"
    },
    {
      "inputs": [],
      "name": "InvalidRequiredSignatures",
      "type": "error"
    },
    {
      "inputs": [],
      "name": "NotEnoughSignatures",
      "type": "error"
    },
    {
      "inputs": [],
      "name": "OldData",
      "type": "error"
    },
    {
      "inputs": [],
      "name": "SignaturesOutOfOrder",
      "type": "error"
    },
    {
      "inputs": [],
      "name": "DECIMALS",
      "outputs": [
        {
          "internalType": "uint8",
          "name": "",
          "type": "uint8"
        }
      ],
      "stateMutability": "view",
      "type": "function"
    },
    {
      "inputs": [],
      "name": "ETH_PREFIX",
      "outputs": [
        {
          "internalType": "bytes",
          "name": "",
          "type": "bytes"
        }
      ],
      "stateMutability": "view",
      "type": "function"
    },
    {
      "inputs": [],
      "name": "NAME",
      "outputs": [
        {
          "internalType": "string",
          "name": "",
          "type": "string"
        }
      ],
      "stateMutability": "view",
      "type": "function"
    },
    {
      "inputs": [],
      "name": "REGISTRY",
      "outputs": [
        {
          "internalType": "contract IRegistry",
          "name": "",
          "type": "address"
        }
      ],
      "stateMutability": "view",
      "type": "function"
    },
    {
      "inputs": [],
      "name": "REQUIRED_SIGNATURES",
      "outputs": [
        {
          "internalType": "uint16",
          "name": "",
          "type": "uint16"
        }
      ],
      "stateMutability": "view",
      "type": "function"
    },
    {
      "inputs": [],
      "name": "STAKING_BANK",
      "outputs": [
        {
          "internalType": "contract IStakingBank",
          "name": "",
          "type": "address"
        }
      ],
      "stateMutability": "view",
      "type": "function"
    },
    {
      "inputs": [],
      "name": "getName",
      "outputs": [
        {
          "internalType": "bytes32",
          "name": "",
          "type": "bytes32"
        }
      ],
      "stateMutability": "pure",
      "type": "function"
    },
    {
      "inputs": [
        {
          "internalType": "bytes32",
          "name": "_key",
          "type": "bytes32"
        }
      ],
      "name": "getPriceData",
      "outputs": [
        {
          "components": [
            {
              "internalType": "uint8",
              "name": "data",
              "type": "uint8"
            },
            {
              "internalType": "uint24",
              "name": "heartbeat",
              "type": "uint24"
            },
            {
              "internalType": "uint32",
              "name": "timestamp",
              "type": "uint32"
            },
            {
              "internalType": "uint128",
              "name": "price",
              "type": "uint128"
            }
          ],
          "internalType": "struct UmbrellaFeeds.PriceData",
          "name": "data",
          "type": "tuple"
        }
      ],
      "stateMutability": "view",
      "type": "function"
    },
    {
      "inputs": [
        {
          "internalType": "bytes32",
          "name": "_key",
          "type": "bytes32"
        }
      ],
      "name": "getPriceDataRaw",
      "outputs": [
        {
          "components": [
            {
              "internalType": "uint8",
              "name": "data",
              "type": "uint8"
            },
            {
              "internalType": "uint24",
              "name": "heartbeat",
              "type": "uint24"
            },
            {
              "internalType": "uint32",
              "name": "timestamp",
              "type": "uint32"
            },
            {
              "internalType": "uint128",
              "name": "price",
              "type": "uint128"
            }
          ],
          "internalType": "struct UmbrellaFeeds.PriceData",
          "name": "data",
          "type": "tuple"
        }
      ],
      "stateMutability": "view",
      "type": "function"
    },
    {
      "inputs": [
        {
          "internalType": "bytes32[]",
          "name": "_keys",
          "type": "bytes32[]"
        }
      ],
      "name": "getPricesData",
      "outputs": [
        {
          "components": [
            {
              "internalType": "uint8",
              "name": "data",
              "type": "uint8"
            },
            {
              "internalType": "uint24",
              "name": "heartbeat",
              "type": "uint24"
            },
            {
              "internalType": "uint32",
              "name": "timestamp",
              "type": "uint32"
            },
            {
              "internalType": "uint128",
              "name": "price",
              "type": "uint128"
            }
          ],
          "internalType": "struct UmbrellaFeeds.PriceData[]",
          "name": "data",
          "type": "tuple[]"
        }
      ],
      "stateMutability": "view",
      "type": "function"
    },
    {
      "inputs": [
        {
          "internalType": "bytes32[]",
          "name": "_keys",
          "type": "bytes32[]"
        }
      ],
      "name": "getPricesDataRaw",
      "outputs": [
        {
          "components": [
            {
              "internalType": "uint8",
              "name": "data",
              "type": "uint8"
            },
            {
              "internalType": "uint24",
              "name": "heartbeat",
              "type": "uint24"
            },
            {
              "internalType": "uint32",
              "name": "timestamp",
              "type": "uint32"
            },
            {
              "internalType": "uint128",
              "name": "price",
              "type": "uint128"
            }
          ],
          "internalType": "struct UmbrellaFeeds.PriceData[]",
          "name": "data",
          "type": "tuple[]"
        }
      ],
      "stateMutability": "view",
      "type": "function"
    },
    {
      "inputs": [
        {
          "internalType": "bytes32[]",
          "name": "_priceKeys",
          "type": "bytes32[]"
        },
        {
          "components": [
            {
              "internalType": "uint8",
              "name": "data",
              "type": "uint8"
            },
            {
              "internalType": "uint24",
              "name": "heartbeat",
              "type": "uint24"
            },
            {
              "internalType": "uint32",
              "name": "timestamp",
              "type": "uint32"
            },
            {
              "internalType": "uint128",
              "name": "price",
              "type": "uint128"
            }
          ],
          "internalType": "struct UmbrellaFeeds.PriceData[]",
          "name": "_priceDatas",
          "type": "tuple[]"
        }
      ],
      "name": "hashSubmitData",
      "outputs": [
        {
          "internalType": "bytes32",
          "name": "",
          "type": "bytes32"
        }
      ],
      "stateMutability": "pure",
      "type": "function"
    },
    {
      "inputs": [
        {
          "internalType": "bytes32",
          "name": "",
          "type": "bytes32"
        }
      ],
      "name": "prices",
      "outputs": [
        {
          "internalType": "uint8",
          "name": "data",
          "type": "uint8"
        },
        {
          "internalType": "uint24",
          "name": "heartbeat",
          "type": "uint24"
        },
        {
          "internalType": "uint32",
          "name": "timestamp",
          "type": "uint32"
        },
        {
          "internalType": "uint128",
          "name": "price",
          "type": "uint128"
        }
      ],
      "stateMutability": "view",
      "type": "function"
    },
    {
      "inputs": [
        {
          "internalType": "bytes32",
          "name": "_hash",
          "type": "bytes32"
        },
        {
          "internalType": "uint8",
          "name": "_v",
          "type": "uint8"
        },
        {
          "internalType": "bytes32",
          "name": "_r",
          "type": "bytes32"
        },
        {
          "internalType": "bytes32",
          "name": "_s",
          "type": "bytes32"
        }
      ],
      "name": "recoverSigner",
      "outputs": [
        {
          "internalType": "address",
          "name": "",
          "type": "address"
        }
      ],
      "stateMutability": "pure",
      "type": "function"
    },
    {
      "inputs": [],
      "name": "register",
      "outputs": [],
      "stateMutability": "pure",
      "type": "function"
    },
    {
      "inputs": [
        {
          "internalType": "bytes32[]",
          "name": "_priceKeys",
          "type": "bytes32[]"
        },
        {
          "components": [
            {
              "internalType": "uint8",
              "name": "v",
              "type": "uint8"
            },
            {
              "internalType": "bytes32",
              "name": "r",
              "type": "bytes32"
            },
            {
              "internalType": "bytes32",
              "name": "s",
              "type": "bytes32"
            }
          ],
          "internalType": "struct UmbrellaFeeds.Signature[]",
          "name": "_signatures",
          "type": "tuple[]"
        }
      ],
      "name": "reset",
      "outputs": [],
      "stateMutability": "nonpayable",
      "type": "function"
    },
    {
      "inputs": [],
      "name": "unregister",
      "outputs": [],
      "stateMutability": "pure",
      "type": "function"
    },
    {
      "inputs": [
        {
          "internalType": "bytes32[]",
          "name": "_priceKeys",
          "type": "bytes32[]"
        },
        {
          "components": [
            {
              "internalType": "uint8",
              "name": "data",
              "type": "uint8"
            },
            {
              "internalType": "uint24",
              "name": "heartbeat",
              "type": "uint24"
            },
            {
              "internalType": "uint32",
              "name": "timestamp",
              "type": "uint32"
            },
            {
              "internalType": "uint128",
              "name": "price",
              "type": "uint128"
            }
          ],
          "internalType": "struct UmbrellaFeeds.PriceData[]",
          "name": "_priceDatas",
          "type": "tuple[]"
        },
        {
          "components": [
            {
              "internalType": "uint8",
              "name": "v",
              "type": "uint8"
            },
            {
              "internalType": "bytes32",
              "name": "r",
              "type": "bytes32"
            },
            {
              "internalType": "bytes32",
              "name": "s",
              "type": "bytes32"
            }
          ],
          "internalType": "struct UmbrellaFeeds.Signature[]",
          "name": "_signatures",
          "type": "tuple[]"
        }
      ],
      "name": "update",
      "outputs": [],
      "stateMutability": "nonpayable",
      "type": "function"
    },
    {
      "inputs": [
        {
          "internalType": "bytes32",
          "name": "_hash",
          "type": "bytes32"
        },
        {
          "components": [
            {
              "internalType": "uint8",
              "name": "v",
              "type": "uint8"
            },
            {
              "internalType": "bytes32",
              "name": "r",
              "type": "bytes32"
            },
            {
              "internalType": "bytes32",
              "name": "s",
              "type": "bytes32"
            }
          ],
          "internalType": "struct UmbrellaFeeds.Signature[]",
          "name": "_signatures",
          "type": "tuple[]"
        }
      ],
      "name": "verifySignatures",
      "outputs": [],
      "stateMutability": "view",
      "type": "function"
    }
  ],
  "transactionHash": "0x2bd2ec212d6ae32be96d8920423a937936fca7b9d6fad58a2c2cecf9f59cfb5d",
  "args": [
    "0xc94A585C1bC804C03A864Ee766Dd1B432f73f9A8",
    2,
    8
  ],
  "numDeployments": 7,
  "solcInputHash": "3e79c1f833c0354e39a486da92e8ac31",
  "bytecode": "0x6101006040523480156200001257600080fd5b5060405162002c7638038062002c7683398181016040528101906200003891906200027d565b60008261ffff160362000077576040517f458bb42100000000000000000000000000000000000000000000000000000000815260040160405180910390fd5b8273ffffffffffffffffffffffffffffffffffffffff1660a08173ffffffffffffffffffffffffffffffffffffffff16815250508161ffff1660c08161ffff16815250508273ffffffffffffffffffffffffffffffffffffffff166346bcb49d6040518163ffffffff1660e01b8152600401620000f490620002ff565b602060405180830381865afa15801562000112573d6000803e3d6000fd5b505050506040513d601f19601f820116820180604052508101906200013891906200034b565b73ffffffffffffffffffffffffffffffffffffffff1660808173ffffffffffffffffffffffffffffffffffffffff16815250508060ff1660e08160ff16815250505050506200037d565b600080fd5b600073ffffffffffffffffffffffffffffffffffffffff82169050919050565b6000620001b48262000187565b9050919050565b6000620001c882620001a7565b9050919050565b620001da81620001bb565b8114620001e657600080fd5b50565b600081519050620001fa81620001cf565b92915050565b600061ffff82169050919050565b620002198162000200565b81146200022557600080fd5b50565b60008151905062000239816200020e565b92915050565b600060ff82169050919050565b62000257816200023f565b81146200026357600080fd5b50565b60008151905062000277816200024c565b92915050565b60008060006060848603121562000299576200029862000182565b5b6000620002a986828701620001e9565b9350506020620002bc8682870162000228565b9250506040620002cf8682870162000266565b9150509250925092565b7f5374616b696e6742616e6b000000000000000000000000000000000000000000815250565b60006020820190506200031560008301620002d9565b919050565b6200032581620001a7565b81146200033157600080fd5b50565b60008151905062000345816200031a565b92915050565b60006020828403121562000364576200036362000182565b5b6000620003748482850162000334565b91505092915050565b60805160a05160c05160e05161289c620003da60003960006107c3015260008181610571015281816105d50152610ca80152600081816103b5015281816110cd01526112710152600081816106da0152610fe0015261289c6000f3fe608060405234801561001057600080fd5b50600436106101215760003560e01c806360846bc6116100ad578063a3f4df7e11610071578063a3f4df7e1461030d578063b8479b7c1461032b578063c65a53ad1461035b578063d45167d014610379578063e79a198f146103a957610121565b806360846bc6146102545780636491c82f1461028757806395f1cf30146102b75780639ac18b19146102d35780639e551beb146102f157610121565b80631aa3a008116100f45780631aa3a008146101c257806324c89a49146101cc57806326559877146101ea5780632e0f26251461020657806343fa62111461022457610121565b806306433b1b1461012657806317c5d7981461014457806317d7de7c1461017457806318445a0d14610192575b600080fd5b61012e6103b3565b60405161013b91906114ee565b60405180910390f35b61015e60048036038101906101599190611553565b6103d7565b60405161016b9190611659565b60405180910390f35b61017c6104d1565b6040516101899190611683565b60405180910390f35b6101ac60048036038101906101a79190611759565b6104f9565b6040516101b99190611683565b60405180910390f35b6101ca610532565b005b6101d4610534565b6040516101e19190611873565b60405180910390f35b61020460048036038101906101ff91906118eb565b61056d565b005b61020e6107c1565b60405161021b919061195a565b60405180910390f35b61023e60048036038101906102399190611553565b6107e5565b60405161024b9190611659565b60405180910390f35b61026e60048036038101906102699190611553565b6108df565b60405161027e94939291906119a2565b60405180910390f35b6102a1600480360381019061029c91906119e7565b610957565b6040516102ae9190611b38565b60405180910390f35b6102d160048036038101906102cc9190611b5a565b610b45565b005b6102db610ca6565b6040516102e89190611c2b565b60405180910390f35b61030b60048036038101906103069190611c46565b610cca565b005b610315610db7565b6040516103229190611d1c565b60405180910390f35b610345600480360381019061034091906119e7565b610df0565b6040516103529190611b38565b60405180910390f35b610363610fde565b6040516103709190611d5f565b60405180910390f35b610393600480360381019061038e9190611da6565b611002565b6040516103a09190611e2e565b60405180910390f35b6103b16110bf565b005b7f000000000000000000000000000000000000000000000000000000000000000081565b6103df611427565b6000808381526020019081526020016000206040518060800160405290816000820160009054906101000a900460ff1660ff1660ff1681526020016000820160019054906101000a900462ffffff1662ffffff1662ffffff1681526020016000820160049054906101000a900463ffffffff1663ffffffff1663ffffffff1681526020016000820160089054906101000a90046fffffffffffffffffffffffffffffffff166fffffffffffffffffffffffffffffffff166fffffffffffffffffffffffffffffffff168152505090506000816040015163ffffffff16036104cc576104c9826110c1565b90505b919050565b60007f556d6272656c6c61466565647300000000000000000000000000000000000000905090565b60008484848460405160200161051294939291906120b6565b604051602081830303815290604052805190602001209050949350505050565b565b6040518060400160405280601c81526020017f19457468657265756d205369676e6564204d6573736167653a0a33320000000081525081565b60007f000000000000000000000000000000000000000000000000000000000000000061ffff168383905010156105d0576040517fe246dc6300000000000000000000000000000000000000000000000000000000815260040160405180910390fd5b60005b7f000000000000000000000000000000000000000000000000000000000000000061ffff168110156107ba57600061066f86868685818110610618576106176120f1565b5b90506060020160000160208101906106309190612120565b878786818110610643576106426120f1565b5b905060600201602001358888878181106106605761065f6120f1565b5b90506060020160400135611002565b90508073ffffffffffffffffffffffffffffffffffffffff168373ffffffffffffffffffffffffffffffffffffffff16106106d6576040517f9079f69b00000000000000000000000000000000000000000000000000000000815260040160405180910390fd5b60007f000000000000000000000000000000000000000000000000000000000000000073ffffffffffffffffffffffffffffffffffffffff166370a08231836040518263ffffffff1660e01b81526004016107319190611e2e565b602060405180830381865afa15801561074e573d6000803e3d6000fd5b505050506040513d601f19601f820116820180604052508101906107729190612183565b036107a9576040517fe246dc6300000000000000000000000000000000000000000000000000000000815260040160405180910390fd5b8092508180600101925050506105d3565b5050505050565b7f000000000000000000000000000000000000000000000000000000000000000081565b6107ed611427565b6000808381526020019081526020016000206040518060800160405290816000820160009054906101000a900460ff1660ff1660ff1681526020016000820160019054906101000a900462ffffff1662ffffff1662ffffff1681526020016000820160049054906101000a900463ffffffff1663ffffffff1663ffffffff1681526020016000820160089054906101000a90046fffffffffffffffffffffffffffffffff166fffffffffffffffffffffffffffffffff166fffffffffffffffffffffffffffffffff168152505090506000816040015163ffffffff16036108da576108d782611265565b90505b919050565b60006020528060005260406000206000915090508060000160009054906101000a900460ff16908060000160019054906101000a900462ffffff16908060000160049054906101000a900463ffffffff16908060000160089054906101000a90046fffffffffffffffffffffffffffffffff16905084565b60608282905067ffffffffffffffff811115610976576109756121b0565b5b6040519080825280602002602001820160405280156109af57816020015b61099c611427565b8152602001906001900390816109945790505b50905060005b83839050811015610b3e576000808585848181106109d6576109d56120f1565b5b9050602002013581526020019081526020016000206040518060800160405290816000820160009054906101000a900460ff1660ff1660ff1681526020016000820160019054906101000a900462ffffff1662ffffff1662ffffff1681526020016000820160049054906101000a900463ffffffff1663ffffffff1663ffffffff1681526020016000820160089054906101000a90046fffffffffffffffffffffffffffffffff166fffffffffffffffffffffffffffffffff166fffffffffffffffffffffffffffffffff1681525050828281518110610ab957610ab86120f1565b5b60200260200101819052506000828281518110610ad957610ad86120f1565b5b60200260200101516040015163ffffffff1603610b3157610b12848483818110610b0657610b056120f1565b5b905060200201356110c1565b828281518110610b2557610b246120f1565b5b60200260200101819052505b80806001019150506109b5565b5092915050565b600086868686604051602001610b5e94939291906120b6565b604051602081830303815290604052805190602001209050610b8181848461056d565b60005b85859050811015610c9c57858582818110610ba257610ba16120f1565b5b9050608002016040016020810190610bba91906121df565b63ffffffff166000808a8a85818110610bd657610bd56120f1565b5b90506020020135815260200190815260200160002060000160049054906101000a900463ffffffff1663ffffffff1610610c3c576040517f1251b2f300000000000000000000000000000000000000000000000000000000815260040160405180910390fd5b858582818110610c4f57610c4e6120f1565b5b9050608002016000808a8a85818110610c6b57610c6a6120f1565b5b9050602002013581526020019081526020016000208181610c8c9190612509565b9050508080600101915050610b84565b5050505050505050565b7f000000000000000000000000000000000000000000000000000000000000000081565b60008484604051602001610cdf9291906125d5565b604051602081830303815290604052805190602001209050610d0281848461056d565b60005b85859050811015610daf57600080878784818110610d2657610d256120f1565b5b905060200201358152602001908152602001600020600080820160006101000a81549060ff02191690556000820160016101000a81549062ffffff02191690556000820160046101000a81549063ffffffff02191690556000820160086101000a8154906fffffffffffffffffffffffffffffffff021916905550508080600101915050610d05565b505050505050565b6040518060400160405280600d81526020017f556d6272656c6c6146656564730000000000000000000000000000000000000081525081565b60608282905067ffffffffffffffff811115610e0f57610e0e6121b0565b5b604051908082528060200260200182016040528015610e4857816020015b610e35611427565b815260200190600190039081610e2d5790505b50905060005b83839050811015610fd757600080858584818110610e6f57610e6e6120f1565b5b9050602002013581526020019081526020016000206040518060800160405290816000820160009054906101000a900460ff1660ff1660ff1681526020016000820160019054906101000a900462ffffff1662ffffff1662ffffff1681526020016000820160049054906101000a900463ffffffff1663ffffffff1663ffffffff1681526020016000820160089054906101000a90046fffffffffffffffffffffffffffffffff166fffffffffffffffffffffffffffffffff166fffffffffffffffffffffffffffffffff1681525050828281518110610f5257610f516120f1565b5b60200260200101819052506000828281518110610f7257610f716120f1565b5b60200260200101516040015163ffffffff1603610fca57610fab848483818110610f9f57610f9e6120f1565b5b90506020020135611265565b828281518110610fbe57610fbd6120f1565b5b60200260200101819052505b8080600101915050610e4e565b5092915050565b7f000000000000000000000000000000000000000000000000000000000000000081565b6000806040518060400160405280601c81526020017f19457468657265756d205369676e6564204d6573736167653a0a3332000000008152508660405160200161104d929190612656565b60405160208183030381529060405280519060200120905060018186868660405160008152602001604052604051611088949392919061267e565b6020604051602081039080840390855afa1580156110aa573d6000803e3d6000fd5b50505060206040510351915050949350505050565b565b6110c9611427565b60007f000000000000000000000000000000000000000000000000000000000000000073ffffffffffffffffffffffffffffffffffffffff166321f8a72161110f6104d1565b6040518263ffffffff1660e01b815260040161112b9190611683565b602060405180830381865afa158015611148573d6000803e3d6000fd5b505050506040513d601f19601f8201168201806040525081019061116c91906126ef565b90503073ffffffffffffffffffffffffffffffffffffffff168173ffffffffffffffffffffffffffffffffffffffff16141580156111d75750600073ffffffffffffffffffffffffffffffffffffffff168173ffffffffffffffffffffffffffffffffffffffff1614155b1561125e578073ffffffffffffffffffffffffffffffffffffffff166317c5d798846040518263ffffffff1660e01b81526004016112159190611683565b608060405180830381865afa158015611232573d6000803e3d6000fd5b505050506040513d601f19601f820116820180604052508101906112569190612839565b915050611260565b505b919050565b61126d611427565b60007f000000000000000000000000000000000000000000000000000000000000000073ffffffffffffffffffffffffffffffffffffffff1663e8f98f886040518060400160405280600d81526020017f556d6272656c6c614665656473000000000000000000000000000000000000008152506040518263ffffffff1660e01b81526004016112fd9190611d1c565b602060405180830381865afa15801561131a573d6000803e3d6000fd5b505050506040513d601f19601f8201168201806040525081019061133e91906126ef565b90503073ffffffffffffffffffffffffffffffffffffffff168173ffffffffffffffffffffffffffffffffffffffff16036113a5576040517f15647ae900000000000000000000000000000000000000000000000000000000815260040160405180910390fd5b8073ffffffffffffffffffffffffffffffffffffffff166317c5d798846040518263ffffffff1660e01b81526004016113de9190611683565b608060405180830381865afa1580156113fb573d6000803e3d6000fd5b505050506040513d601f19601f8201168201806040525081019061141f9190612839565b915050919050565b6040518060800160405280600060ff168152602001600062ffffff168152602001600063ffffffff16815260200160006fffffffffffffffffffffffffffffffff1681525090565b600073ffffffffffffffffffffffffffffffffffffffff82169050919050565b6000819050919050565b60006114b46114af6114aa8461146f565b61148f565b61146f565b9050919050565b60006114c682611499565b9050919050565b60006114d8826114bb565b9050919050565b6114e8816114cd565b82525050565b600060208201905061150360008301846114df565b92915050565b6000604051905090565b600080fd5b600080fd5b6000819050919050565b6115308161151d565b811461153b57600080fd5b50565b60008135905061154d81611527565b92915050565b60006020828403121561156957611568611513565b5b60006115778482850161153e565b91505092915050565b600060ff82169050919050565b61159681611580565b82525050565b600062ffffff82169050919050565b6115b48161159c565b82525050565b600063ffffffff82169050919050565b6115d3816115ba565b82525050565b60006fffffffffffffffffffffffffffffffff82169050919050565b6115fe816115d9565b82525050565b60808201600082015161161a600085018261158d565b50602082015161162d60208501826115ab565b50604082015161164060408501826115ca565b50606082015161165360608501826115f5565b50505050565b600060808201905061166e6000830184611604565b92915050565b61167d8161151d565b82525050565b60006020820190506116986000830184611674565b92915050565b600080fd5b600080fd5b600080fd5b60008083601f8401126116c3576116c261169e565b5b8235905067ffffffffffffffff8111156116e0576116df6116a3565b5b6020830191508360208202830111156116fc576116fb6116a8565b5b9250929050565b60008083601f8401126117195761171861169e565b5b8235905067ffffffffffffffff811115611736576117356116a3565b5b602083019150836080820283011115611752576117516116a8565b5b9250929050565b6000806000806040858703121561177357611772611513565b5b600085013567ffffffffffffffff81111561179157611790611518565b5b61179d878288016116ad565b9450945050602085013567ffffffffffffffff8111156117c0576117bf611518565b5b6117cc87828801611703565b925092505092959194509250565b600081519050919050565b600082825260208201905092915050565b60005b838110156118145780820151818401526020810190506117f9565b83811115611823576000848401525b50505050565b6000601f19601f8301169050919050565b6000611845826117da565b61184f81856117e5565b935061185f8185602086016117f6565b61186881611829565b840191505092915050565b6000602082019050818103600083015261188d818461183a565b905092915050565b60008083601f8401126118ab576118aa61169e565b5b8235905067ffffffffffffffff8111156118c8576118c76116a3565b5b6020830191508360608202830111156118e4576118e36116a8565b5b9250929050565b60008060006040848603121561190457611903611513565b5b60006119128682870161153e565b935050602084013567ffffffffffffffff81111561193357611932611518565b5b61193f86828701611895565b92509250509250925092565b61195481611580565b82525050565b600060208201905061196f600083018461194b565b92915050565b61197e8161159c565b82525050565b61198d816115ba565b82525050565b61199c816115d9565b82525050565b60006080820190506119b7600083018761194b565b6119c46020830186611975565b6119d16040830185611984565b6119de6060830184611993565b95945050505050565b600080602083850312156119fe576119fd611513565b5b600083013567ffffffffffffffff811115611a1c57611a1b611518565b5b611a28858286016116ad565b92509250509250929050565b600081519050919050565b600082825260208201905092915050565b6000819050602082019050919050565b608082016000820151611a76600085018261158d565b506020820151611a8960208501826115ab565b506040820151611a9c60408501826115ca565b506060820151611aaf60608501826115f5565b50505050565b6000611ac18383611a60565b60808301905092915050565b6000602082019050919050565b6000611ae582611a34565b611aef8185611a3f565b9350611afa83611a50565b8060005b83811015611b2b578151611b128882611ab5565b9750611b1d83611acd565b925050600181019050611afe565b5085935050505092915050565b60006020820190508181036000830152611b528184611ada565b905092915050565b60008060008060008060608789031215611b7757611b76611513565b5b600087013567ffffffffffffffff811115611b9557611b94611518565b5b611ba189828a016116ad565b9650965050602087013567ffffffffffffffff811115611bc457611bc3611518565b5b611bd089828a01611703565b9450945050604087013567ffffffffffffffff811115611bf357611bf2611518565b5b611bff89828a01611895565b92509250509295509295509295565b600061ffff82169050919050565b611c2581611c0e565b82525050565b6000602082019050611c406000830184611c1c565b92915050565b60008060008060408587031215611c6057611c5f611513565b5b600085013567ffffffffffffffff811115611c7e57611c7d611518565b5b611c8a878288016116ad565b9450945050602085013567ffffffffffffffff811115611cad57611cac611518565b5b611cb987828801611895565b925092505092959194509250565b600081519050919050565b600082825260208201905092915050565b6000611cee82611cc7565b611cf88185611cd2565b9350611d088185602086016117f6565b611d1181611829565b840191505092915050565b60006020820190508181036000830152611d368184611ce3565b905092915050565b6000611d49826114bb565b9050919050565b611d5981611d3e565b82525050565b6000602082019050611d746000830184611d50565b92915050565b611d8381611580565b8114611d8e57600080fd5b50565b600081359050611da081611d7a565b92915050565b60008060008060808587031215611dc057611dbf611513565b5b6000611dce8782880161153e565b9450506020611ddf87828801611d91565b9350506040611df08782880161153e565b9250506060611e018782880161153e565b91505092959194509250565b6000611e188261146f565b9050919050565b611e2881611e0d565b82525050565b6000602082019050611e436000830184611e1f565b92915050565b600082825260208201905092915050565b600080fd5b82818337600083830152505050565b6000611e7a8385611e49565b93507f07ffffffffffffffffffffffffffffffffffffffffffffffffffffffffffffff831115611ead57611eac611e5a565b5b602083029250611ebe838584611e5f565b82840190509392505050565b6000819050919050565b6000611ee36020840184611d91565b905092915050565b611ef48161159c565b8114611eff57600080fd5b50565b600081359050611f1181611eeb565b92915050565b6000611f266020840184611f02565b905092915050565b611f37816115ba565b8114611f4257600080fd5b50565b600081359050611f5481611f2e565b92915050565b6000611f696020840184611f45565b905092915050565b611f7a816115d9565b8114611f8557600080fd5b50565b600081359050611f9781611f71565b92915050565b6000611fac6020840184611f88565b905092915050565b60808201611fc56000830183611ed4565b611fd2600085018261158d565b50611fe06020830183611f17565b611fed60208501826115ab565b50611ffb6040830183611f5a565b61200860408501826115ca565b506120166060830183611f9d565b61202360608501826115f5565b50505050565b60006120358383611fb4565b60808301905092915050565b600082905092915050565b6000608082019050919050565b60006120658385611a3f565b935061207082611eca565b8060005b858110156120a9576120868284612041565b6120908882612029565b975061209b8361204c565b925050600181019050612074565b5085925050509392505050565b600060408201905081810360008301526120d1818688611e6e565b905081810360208301526120e6818486612059565b905095945050505050565b7f4e487b7100000000000000000000000000000000000000000000000000000000600052603260045260246000fd5b60006020828403121561213657612135611513565b5b600061214484828501611d91565b91505092915050565b6000819050919050565b6121608161214d565b811461216b57600080fd5b50565b60008151905061217d81612157565b92915050565b60006020828403121561219957612198611513565b5b60006121a78482850161216e565b91505092915050565b7f4e487b7100000000000000000000000000000000000000000000000000000000600052604160045260246000fd5b6000602082840312156121f5576121f4611513565b5b600061220384828501611f45565b91505092915050565b6000813561221981611d7a565b80915050919050565b60008160001b9050919050565b600060ff61223c84612222565b9350801983169250808416831791505092915050565b600061226d61226861226384611580565b61148f565b611580565b9050919050565b6000819050919050565b61228782612252565b61229a61229382612274565b835461222f565b8255505050565b600081356122ae81611eeb565b80915050919050565b60008160081b9050919050565b600063ffffff006122d4846122b7565b9350801983169250808416831791505092915050565b60006123056123006122fb8461159c565b61148f565b61159c565b9050919050565b6000819050919050565b61231f826122ea565b61233261232b8261230c565b83546122c4565b8255505050565b6000813561234681611f2e565b80915050919050565b60008160201b9050919050565b600067ffffffff000000006123708461234f565b9350801983169250808416831791505092915050565b60006123a161239c612397846115ba565b61148f565b6115ba565b9050919050565b6000819050919050565b6123bb82612386565b6123ce6123c7826123a8565b835461235c565b8255505050565b600081356123e281611f71565b80915050919050565b60008160401b9050919050565b600077ffffffffffffffffffffffffffffffff000000000000000061241c846123eb565b9350801983169250808416831791505092915050565b600061244d612448612443846115d9565b61148f565b6115d9565b9050919050565b6000819050919050565b61246782612432565b61247a61247382612454565b83546123f8565b8255505050565b6000810160008301806124938161220c565b905061249f818461227e565b5050506000810160208301806124b4816122a1565b90506124c08184612316565b5050506000810160408301806124d581612339565b90506124e181846123b2565b5050506000810160608301806124f6816123d5565b9050612502818461245e565b5050505050565b6125138282612481565b5050565b600081905092915050565b600061252e8385612517565b93507f07ffffffffffffffffffffffffffffffffffffffffffffffffffffffffffffff83111561256157612560611e5a565b5b602083029250612572838584611e5f565b82840190509392505050565b600081905092915050565b7f5245534554000000000000000000000000000000000000000000000000000000600082015250565b60006125bf60058361257e565b91506125ca82612589565b600582019050919050565b60006125e2828486612522565b91506125ed826125b2565b91508190509392505050565b600081905092915050565b600061260f826117da565b61261981856125f9565b93506126298185602086016117f6565b80840191505092915050565b6000819050919050565b61265061264b8261151d565b612635565b82525050565b60006126628285612604565b915061266e828461263f565b6020820191508190509392505050565b60006080820190506126936000830187611674565b6126a0602083018661194b565b6126ad6040830185611674565b6126ba6060830184611674565b95945050505050565b6126cc81611e0d565b81146126d757600080fd5b50565b6000815190506126e9816126c3565b92915050565b60006020828403121561270557612704611513565b5b6000612713848285016126da565b91505092915050565b600080fd5b61272a82611829565b810181811067ffffffffffffffff82111715612749576127486121b0565b5b80604052505050565b600061275c611509565b90506127688282612721565b919050565b60008151905061277c81611d7a565b92915050565b60008151905061279181611eeb565b92915050565b6000815190506127a681611f2e565b92915050565b6000815190506127bb81611f71565b92915050565b6000608082840312156127d7576127d661271c565b5b6127e16080612752565b905060006127f18482850161276d565b600083015250602061280584828501612782565b602083015250604061281984828501612797565b604083015250606061282d848285016127ac565b60608301525092915050565b60006080828403121561284f5761284e611513565b5b600061285d848285016127c1565b9150509291505056fea26469706673582212203c24a41c24f208512d6f5a5ce60612644ff80b47a916a82349216330657ee89164736f6c634300080d0033",
  "devdoc": {
    "details": "Main contract for all deviation triggered fees. This contract has build in fallback feature in case it will be replaced by newer version. Fallback is transparent for the user, no additional setup is needed. How fallback feature works? If data for provided key is empty, contract will execute following procedure: 1. triggered feeds, that needs to be updated will be updated in new contract and erased from this one 2. if data is empty, check, if new deployment of UmbrellaFeeds is done, if not stop. 3. forward the call to that new contract. After new deployment done it is recommended to update address to avoid fallback and reduce gas cost. In long run this is most efficient solution, better than any proxy.",
    "kind": "dev",
    "methods": {
      "constructor": {
        "params": {
          "_contractRegistry": "Registry address",
          "_requiredSignatures": "number of required signatures for accepting consensus submission"
        }
      },
      "getName()": {
        "details": "to follow Registrable interface"
      },
      "getPriceData(bytes32)": {
        "details": "this is main endpoint for reading feeds. In case timestamp is empty (that means there is no data), contract will execute fallback call. Check contract description for fallback details."
      },
      "getPriceDataRaw(bytes32)": {
        "details": "same as `getPriceData` but does not revert when no data"
      },
      "getPricesData(bytes32[])": {
        "details": "it will return array of price datas for provided `_keys` In case ony of feeds timestamp is empty, fallback call will be executed for that feed. If any of feeds fallback calls fail, function will revert.",
        "params": {
          "_keys": "array of feed keys"
        },
        "returns": {
          "data": "PriceData array"
        }
      },
      "getPricesDataRaw(bytes32[])": {
        "details": "same as getPricesData() but does not revert on empty data."
      },
      "hashSubmitData(bytes32[],(uint8,uint24,uint32,uint128)[])": {
        "details": "helper method for QA purposes",
        "returns": {
          "_0": "hash of data that are signed by validators (keys and priced data)"
        }
      },
      "recoverSigner(bytes32,uint8,bytes32,bytes32)": {
        "params": {
          "_hash": "hashed of data",
          "_r": "part of signature",
          "_s": "part of signature",
          "_v": "part of signature"
        },
        "returns": {
          "_0": "signer address"
        }
      },
      "register()": {
        "details": "to follow Registrable interface"
      },
      "reset(bytes32[],(uint8,bytes32,bytes32)[])": {
        "details": "method for resetting data",
        "params": {
          "_priceKeys": "array of keys for `_priceDatas`",
          "_signatures": "validators signatures"
        }
      },
      "unregister()": {
        "details": "to follow Registrable interface"
      },
      "update(bytes32[],(uint8,uint24,uint32,uint128)[],(uint8,bytes32,bytes32)[])": {
        "details": "method for submitting consensus data",
        "params": {
          "_priceDatas": "PriceData signed by validators",
          "_priceKeys": "array of keys for `_priceDatas`",
          "_signatures": "validators signatures"
        }
      },
      "verifySignatures(bytes32,(uint8,bytes32,bytes32)[])": {
        "details": "method for submitting consensus data",
        "params": {
          "_hash": "hash of signed data",
          "_signatures": "array of validators signatures"
        }
      }
    },
    "stateVariables": {
      "REQUIRED_SIGNATURES": {
        "details": "minimal number of signatures required for accepting submission (PoA)"
      }
    },
    "version": 1
  },
  "userdoc": {
    "kind": "user",
    "methods": {},
    "version": 1
  },
  "storageLayout": {
    "storage": [
      {
        "astId": 4704,
        "contract": "contracts/deviations/UmbrellaFeeds.sol:UmbrellaFeeds",
        "label": "prices",
        "offset": 0,
        "slot": "0",
        "type": "t_mapping(t_bytes32,t_struct(PriceData)4692_storage)"
      }
    ],
    "types": {
      "t_bytes32": {
        "encoding": "inplace",
        "label": "bytes32",
        "numberOfBytes": "32"
      },
      "t_mapping(t_bytes32,t_struct(PriceData)4692_storage)": {
        "encoding": "mapping",
        "key": "t_bytes32",
        "label": "mapping(bytes32 => struct UmbrellaFeeds.PriceData)",
        "numberOfBytes": "32",
        "value": "t_struct(PriceData)4692_storage"
      },
      "t_struct(PriceData)4692_storage": {
        "encoding": "inplace",
        "label": "struct UmbrellaFeeds.PriceData",
        "members": [
          {
            "astId": 4685,
            "contract": "contracts/deviations/UmbrellaFeeds.sol:UmbrellaFeeds",
            "label": "data",
            "offset": 0,
            "slot": "0",
            "type": "t_uint8"
          },
          {
            "astId": 4687,
            "contract": "contracts/deviations/UmbrellaFeeds.sol:UmbrellaFeeds",
            "label": "heartbeat",
            "offset": 1,
            "slot": "0",
            "type": "t_uint24"
          },
          {
            "astId": 4689,
            "contract": "contracts/deviations/UmbrellaFeeds.sol:UmbrellaFeeds",
            "label": "timestamp",
            "offset": 4,
            "slot": "0",
            "type": "t_uint32"
          },
          {
            "astId": 4691,
            "contract": "contracts/deviations/UmbrellaFeeds.sol:UmbrellaFeeds",
            "label": "price",
            "offset": 8,
            "slot": "0",
            "type": "t_uint128"
          }
        ],
        "numberOfBytes": "32"
      },
      "t_uint128": {
        "encoding": "inplace",
        "label": "uint128",
        "numberOfBytes": "16"
      },
      "t_uint24": {
        "encoding": "inplace",
        "label": "uint24",
        "numberOfBytes": "3"
      },
      "t_uint32": {
        "encoding": "inplace",
        "label": "uint32",
        "numberOfBytes": "4"
      },
      "t_uint8": {
        "encoding": "inplace",
        "label": "uint8",
        "numberOfBytes": "1"
      }
    }
  }
}