{
  "address": "0x192c3eD013c718a6d9DD31D69974Ee5906CA981F",
  "abi": [
    {
      "inputs": [
        {
          "internalType": "contract IRegistry",
          "name": "_contractRegistry",
          "type": "address"
        },
        {
          "internalType": "uint16",
          "name": "_requiredSignatures",
          "type": "uint16"
        },
        {
          "internalType": "uint8",
          "name": "_decimals",
          "type": "uint8"
        }
      ],
      "stateMutability": "nonpayable",
      "type": "constructor"
    },
    {
      "inputs": [],
      "name": "ArraysDataDoNotMatch",
      "type": "error"
    },
    {
      "inputs": [],
      "name": "DataReset",
      "type": "error"
    },
    {
      "inputs": [],
      "name": "FeedNotExist",
      "type": "error"
    },
    {
      "inputs": [],
      "name": "InvalidRequiredSignatures",
      "type": "error"
    },
    {
      "inputs": [],
      "name": "InvalidSigner",
      "type": "error"
    },
    {
      "inputs": [],
      "name": "NotEnoughSignatures",
      "type": "error"
    },
    {
      "inputs": [],
      "name": "OldData",
      "type": "error"
    },
    {
      "inputs": [],
      "name": "SignaturesOutOfOrder",
      "type": "error"
    },
    {
      "inputs": [],
      "name": "DATA_RESET",
      "outputs": [
        {
          "internalType": "uint8",
          "name": "",
          "type": "uint8"
        }
      ],
      "stateMutability": "view",
      "type": "function"
    },
    {
      "inputs": [],
      "name": "DECIMALS",
      "outputs": [
        {
          "internalType": "uint8",
          "name": "",
          "type": "uint8"
        }
      ],
      "stateMutability": "view",
      "type": "function"
    },
    {
      "inputs": [],
      "name": "ETH_PREFIX",
      "outputs": [
        {
          "internalType": "bytes",
          "name": "",
          "type": "bytes"
        }
      ],
      "stateMutability": "view",
      "type": "function"
    },
    {
      "inputs": [],
      "name": "NAME",
      "outputs": [
        {
          "internalType": "string",
          "name": "",
          "type": "string"
        }
      ],
      "stateMutability": "view",
      "type": "function"
    },
    {
      "inputs": [],
      "name": "REGISTRY",
      "outputs": [
        {
          "internalType": "contract IRegistry",
          "name": "",
          "type": "address"
        }
      ],
      "stateMutability": "view",
      "type": "function"
    },
    {
      "inputs": [],
      "name": "REQUIRED_SIGNATURES",
      "outputs": [
        {
          "internalType": "uint16",
          "name": "",
          "type": "uint16"
        }
      ],
      "stateMutability": "view",
      "type": "function"
    },
    {
      "inputs": [],
      "name": "STAKING_BANK",
      "outputs": [
        {
          "internalType": "contract IStakingBank",
          "name": "",
          "type": "address"
        }
      ],
      "stateMutability": "view",
      "type": "function"
    },
    {
      "inputs": [],
      "name": "getChainId",
      "outputs": [
        {
          "internalType": "uint256",
          "name": "id",
          "type": "uint256"
        }
      ],
      "stateMutability": "view",
      "type": "function"
    },
    {
      "inputs": [
        {
          "internalType": "bytes32[]",
          "name": "_keys",
          "type": "bytes32[]"
        }
      ],
      "name": "getManyPriceData",
      "outputs": [
        {
          "components": [
            {
              "internalType": "uint8",
              "name": "data",
              "type": "uint8"
            },
            {
              "internalType": "uint24",
              "name": "heartbeat",
              "type": "uint24"
            },
            {
              "internalType": "uint32",
              "name": "timestamp",
              "type": "uint32"
            },
            {
              "internalType": "uint128",
              "name": "price",
              "type": "uint128"
            }
          ],
          "internalType": "struct IUmbrellaFeeds.PriceData[]",
          "name": "data",
          "type": "tuple[]"
        }
      ],
      "stateMutability": "view",
      "type": "function"
    },
    {
      "inputs": [
        {
          "internalType": "bytes32[]",
          "name": "_keys",
          "type": "bytes32[]"
        }
      ],
      "name": "getManyPriceDataRaw",
      "outputs": [
        {
          "components": [
            {
              "internalType": "uint8",
              "name": "data",
              "type": "uint8"
            },
            {
              "internalType": "uint24",
              "name": "heartbeat",
              "type": "uint24"
            },
            {
              "internalType": "uint32",
              "name": "timestamp",
              "type": "uint32"
            },
            {
              "internalType": "uint128",
              "name": "price",
              "type": "uint128"
            }
          ],
          "internalType": "struct IUmbrellaFeeds.PriceData[]",
          "name": "data",
          "type": "tuple[]"
        }
      ],
      "stateMutability": "view",
      "type": "function"
    },
    {
      "inputs": [],
      "name": "getName",
      "outputs": [
        {
          "internalType": "bytes32",
          "name": "",
          "type": "bytes32"
        }
      ],
      "stateMutability": "pure",
      "type": "function"
    },
    {
      "inputs": [
        {
          "internalType": "bytes32",
          "name": "_key",
          "type": "bytes32"
        }
      ],
      "name": "getPrice",
      "outputs": [
        {
          "internalType": "uint128",
          "name": "price",
          "type": "uint128"
        }
      ],
      "stateMutability": "view",
      "type": "function"
    },
    {
      "inputs": [
        {
          "internalType": "bytes32",
          "name": "_key",
          "type": "bytes32"
        }
      ],
      "name": "getPriceData",
      "outputs": [
        {
          "components": [
            {
              "internalType": "uint8",
              "name": "data",
              "type": "uint8"
            },
            {
              "internalType": "uint24",
              "name": "heartbeat",
              "type": "uint24"
            },
            {
              "internalType": "uint32",
              "name": "timestamp",
              "type": "uint32"
            },
            {
              "internalType": "uint128",
              "name": "price",
              "type": "uint128"
            }
          ],
          "internalType": "struct IUmbrellaFeeds.PriceData",
          "name": "data",
          "type": "tuple"
        }
      ],
      "stateMutability": "view",
      "type": "function"
    },
    {
      "inputs": [
        {
          "internalType": "string",
          "name": "_name",
          "type": "string"
        }
      ],
      "name": "getPriceDataByName",
      "outputs": [
        {
          "components": [
            {
              "internalType": "uint8",
              "name": "data",
              "type": "uint8"
            },
            {
              "internalType": "uint24",
              "name": "heartbeat",
              "type": "uint24"
            },
            {
              "internalType": "uint32",
              "name": "timestamp",
              "type": "uint32"
            },
            {
              "internalType": "uint128",
              "name": "price",
              "type": "uint128"
            }
          ],
          "internalType": "struct IUmbrellaFeeds.PriceData",
          "name": "data",
          "type": "tuple"
        }
      ],
      "stateMutability": "view",
      "type": "function"
    },
    {
      "inputs": [
        {
          "internalType": "bytes32",
          "name": "_key",
          "type": "bytes32"
        }
      ],
      "name": "getPriceDataRaw",
      "outputs": [
        {
          "components": [
            {
              "internalType": "uint8",
              "name": "data",
              "type": "uint8"
            },
            {
              "internalType": "uint24",
              "name": "heartbeat",
              "type": "uint24"
            },
            {
              "internalType": "uint32",
              "name": "timestamp",
              "type": "uint32"
            },
            {
              "internalType": "uint128",
              "name": "price",
              "type": "uint128"
            }
          ],
          "internalType": "struct IUmbrellaFeeds.PriceData",
          "name": "data",
          "type": "tuple"
        }
      ],
      "stateMutability": "view",
      "type": "function"
    },
    {
      "inputs": [
        {
          "internalType": "bytes32",
          "name": "_key",
          "type": "bytes32"
        }
      ],
      "name": "getPriceTimestamp",
      "outputs": [
        {
          "internalType": "uint128",
          "name": "price",
          "type": "uint128"
        },
        {
          "internalType": "uint32",
          "name": "timestamp",
          "type": "uint32"
        }
      ],
      "stateMutability": "view",
      "type": "function"
    },
    {
      "inputs": [
        {
          "internalType": "bytes32",
          "name": "_key",
          "type": "bytes32"
        }
      ],
      "name": "getPriceTimestampHeartbeat",
      "outputs": [
        {
          "internalType": "uint128",
          "name": "price",
          "type": "uint128"
        },
        {
          "internalType": "uint32",
          "name": "timestamp",
          "type": "uint32"
        },
        {
          "internalType": "uint24",
          "name": "heartbeat",
          "type": "uint24"
        }
      ],
      "stateMutability": "view",
      "type": "function"
    },
    {
      "inputs": [
        {
          "internalType": "bytes32[]",
          "name": "_priceKeys",
          "type": "bytes32[]"
        },
        {
          "components": [
            {
              "internalType": "uint8",
              "name": "data",
              "type": "uint8"
            },
            {
              "internalType": "uint24",
              "name": "heartbeat",
              "type": "uint24"
            },
            {
              "internalType": "uint32",
              "name": "timestamp",
              "type": "uint32"
            },
            {
              "internalType": "uint128",
              "name": "price",
              "type": "uint128"
            }
          ],
          "internalType": "struct IUmbrellaFeeds.PriceData[]",
          "name": "_priceDatas",
          "type": "tuple[]"
        }
      ],
      "name": "hashData",
      "outputs": [
        {
          "internalType": "bytes32",
          "name": "",
          "type": "bytes32"
        }
      ],
      "stateMutability": "view",
      "type": "function"
    },
    {
      "inputs": [
        {
          "internalType": "string",
          "name": "_key",
          "type": "string"
        }
      ],
      "name": "priceData",
      "outputs": [
        {
          "components": [
            {
              "internalType": "uint8",
              "name": "data",
              "type": "uint8"
            },
            {
              "internalType": "uint24",
              "name": "heartbeat",
              "type": "uint24"
            },
            {
              "internalType": "uint32",
              "name": "timestamp",
              "type": "uint32"
            },
            {
              "internalType": "uint128",
              "name": "price",
              "type": "uint128"
            }
          ],
          "internalType": "struct IUmbrellaFeeds.PriceData",
          "name": "",
          "type": "tuple"
        }
      ],
      "stateMutability": "view",
      "type": "function"
    },
    {
      "inputs": [
        {
          "internalType": "bytes32",
          "name": "_key",
          "type": "bytes32"
        }
      ],
      "name": "prices",
      "outputs": [
        {
          "components": [
            {
              "internalType": "uint8",
              "name": "data",
              "type": "uint8"
            },
            {
              "internalType": "uint24",
              "name": "heartbeat",
              "type": "uint24"
            },
            {
              "internalType": "uint32",
              "name": "timestamp",
              "type": "uint32"
            },
            {
              "internalType": "uint128",
              "name": "price",
              "type": "uint128"
            }
          ],
          "internalType": "struct IUmbrellaFeeds.PriceData",
          "name": "data",
          "type": "tuple"
        }
      ],
      "stateMutability": "view",
      "type": "function"
    },
    {
      "inputs": [
        {
          "internalType": "bytes32",
          "name": "_hash",
          "type": "bytes32"
        },
        {
          "internalType": "uint8",
          "name": "_v",
          "type": "uint8"
        },
        {
          "internalType": "bytes32",
          "name": "_r",
          "type": "bytes32"
        },
        {
          "internalType": "bytes32",
          "name": "_s",
          "type": "bytes32"
        }
      ],
      "name": "recoverSigner",
      "outputs": [
        {
          "internalType": "address",
          "name": "",
          "type": "address"
        }
      ],
      "stateMutability": "pure",
      "type": "function"
    },
    {
      "inputs": [
        {
          "internalType": "bytes32[]",
          "name": "_priceKeys",
          "type": "bytes32[]"
        },
        {
          "components": [
            {
              "internalType": "uint8",
              "name": "v",
              "type": "uint8"
            },
            {
              "internalType": "bytes32",
              "name": "r",
              "type": "bytes32"
            },
            {
              "internalType": "bytes32",
              "name": "s",
              "type": "bytes32"
            }
          ],
          "internalType": "struct IUmbrellaFeeds.Signature[]",
          "name": "_signatures",
          "type": "tuple[]"
        }
      ],
      "name": "reset",
      "outputs": [],
      "stateMutability": "nonpayable",
      "type": "function"
    },
    {
      "inputs": [
        {
          "internalType": "bytes32[]",
          "name": "_priceKeys",
          "type": "bytes32[]"
        },
        {
          "components": [
            {
              "internalType": "uint8",
              "name": "data",
              "type": "uint8"
            },
            {
              "internalType": "uint24",
              "name": "heartbeat",
              "type": "uint24"
            },
            {
              "internalType": "uint32",
              "name": "timestamp",
              "type": "uint32"
            },
            {
              "internalType": "uint128",
              "name": "price",
              "type": "uint128"
            }
          ],
          "internalType": "struct IUmbrellaFeeds.PriceData[]",
          "name": "_priceDatas",
          "type": "tuple[]"
        },
        {
          "components": [
            {
              "internalType": "uint8",
              "name": "v",
              "type": "uint8"
            },
            {
              "internalType": "bytes32",
              "name": "r",
              "type": "bytes32"
            },
            {
              "internalType": "bytes32",
              "name": "s",
              "type": "bytes32"
            }
          ],
          "internalType": "struct IUmbrellaFeeds.Signature[]",
          "name": "_signatures",
          "type": "tuple[]"
        }
      ],
      "name": "update",
      "outputs": [],
      "stateMutability": "nonpayable",
      "type": "function"
    },
    {
      "inputs": [
        {
          "internalType": "bytes32",
          "name": "_hash",
          "type": "bytes32"
        },
        {
          "components": [
            {
              "internalType": "uint8",
              "name": "v",
              "type": "uint8"
            },
            {
              "internalType": "bytes32",
              "name": "r",
              "type": "bytes32"
            },
            {
              "internalType": "bytes32",
              "name": "s",
              "type": "bytes32"
            }
          ],
          "internalType": "struct IUmbrellaFeeds.Signature[]",
          "name": "_signatures",
          "type": "tuple[]"
        }
      ],
      "name": "verifySignatures",
      "outputs": [],
      "stateMutability": "view",
      "type": "function"
    }
  ],
  "transactionHash": "0x6fc858584bc74c0cce4308f8889333405292582a80d28e32d13cee5245168f0c",
  "args": [
    "0xc94A585C1bC804C03A864Ee766Dd1B432f73f9A8",
    2,
    8
  ],
  "numDeployments": 12,
  "solcInputHash": "aae96b24e04a7a043d34c86b8e74485e",
  "bytecode": "0x6101006040523480156200001257600080fd5b50604051620037c4380380620037c483398181016040528101906200003891906200027d565b60008261ffff160362000077576040517f458bb42100000000000000000000000000000000000000000000000000000000815260040160405180910390fd5b8273ffffffffffffffffffffffffffffffffffffffff1660808173ffffffffffffffffffffffffffffffffffffffff16815250508161ffff1660c08161ffff16815250508273ffffffffffffffffffffffffffffffffffffffff166346bcb49d6040518163ffffffff1660e01b8152600401620000f490620002ff565b602060405180830381865afa15801562000112573d6000803e3d6000fd5b505050506040513d601f19601f820116820180604052508101906200013891906200034b565b73ffffffffffffffffffffffffffffffffffffffff1660a08173ffffffffffffffffffffffffffffffffffffffff16815250508060ff1660e08160ff16815250505050506200037d565b600080fd5b600073ffffffffffffffffffffffffffffffffffffffff82169050919050565b6000620001b48262000187565b9050919050565b6000620001c882620001a7565b9050919050565b620001da81620001bb565b8114620001e657600080fd5b50565b600081519050620001fa81620001cf565b92915050565b600061ffff82169050919050565b620002198162000200565b81146200022557600080fd5b50565b60008151905062000239816200020e565b92915050565b600060ff82169050919050565b62000257816200023f565b81146200026357600080fd5b50565b60008151905062000277816200024c565b92915050565b60008060006060848603121562000299576200029862000182565b5b6000620002a986828701620001e9565b9350506020620002bc8682870162000228565b9250506040620002cf8682870162000266565b9150509250925092565b7f5374616b696e6742616e6b000000000000000000000000000000000000000000815250565b60006020820190506200031560008301620002d9565b919050565b6200032581620001a7565b81146200033157600080fd5b50565b60008151905062000345816200031a565b92915050565b60006020828403121562000364576200036362000182565b5b6000620003748482850162000334565b91505092915050565b60805160a05160c05160e0516133ea620003da60003960006109a9015260008181610757015281816107bb01526115ae0152600081816108c0015261178f0152600081816104d4015281816118be0152611a5c01526133ea6000f3fe608060405234801561001057600080fd5b50600436106101285760003560e01c806306433b1b1461012d57806314de7a241461014b57806317c5d7981461017b57806317d7de7c146101ab57806324c89a49146101c957806326559877146101e75780632e0f2625146102035780632e5506931461022157806331d98b3f146102515780633408e47014610281578063385e05da1461029f57806343fa6211146102cf5780635b38adc7146102ff57806360846bc61461032f5780638a1194d31461035f57806390957dd31461039057806395f1cf30146103ae57806396594f66146103ca5780639ac18b19146103fc5780639e551beb1461041a578063a3f4df7e14610436578063c65a53ad14610454578063ccc6fd6914610472578063d45167d0146104a2575b600080fd5b6101356104d2565b6040516101429190611d1d565b60405180910390f35b61016560048036038101906101609190611e92565b6104f6565b6040516101729190611fb4565b60405180910390f35b61019560048036038101906101909190612005565b6105f8565b6040516101a29190611fb4565b60405180910390f35b6101b36106f2565b6040516101c09190612041565b60405180910390f35b6101d161071a565b6040516101de91906120e4565b60405180910390f35b61020160048036038101906101fc9190612166565b610753565b005b61020b6109a7565b60405161021891906121d5565b60405180910390f35b61023b60048036038101906102369190612246565b6109cb565b6040516102489190612397565b60405180910390f35b61026b60048036038101906102669190612005565b610bb9565b60405161027891906123c8565b60405180910390f35b610289610cb6565b60405161029691906123fc565b60405180910390f35b6102b960048036038101906102b49190612246565b610cbe565b6040516102c69190612397565b60405180910390f35b6102e960048036038101906102e49190612005565b610eac565b6040516102f69190611fb4565b60405180910390f35b6103196004803603810190610314919061246d565b610fa6565b6040516103269190611fb4565b60405180910390f35b61034960048036038101906103449190612005565b6110cf565b6040516103569190611fb4565b60405180910390f35b61037960048036038101906103749190612005565b6111ab565b6040516103879291906124c9565b60405180910390f35b6103986112b1565b6040516103a591906121d5565b60405180910390f35b6103c860048036038101906103c39190612548565b6112b6565b005b6103e460048036038101906103df9190612005565b61149c565b6040516103f39392919061260b565b60405180910390f35b6104046115ac565b604051610411919061265f565b60405180910390f35b610434600480360381019061042f919061267a565b6115d0565b005b61043e611754565b60405161044b9190612750565b60405180910390f35b61045c61178d565b6040516104699190612793565b60405180910390f35b61048c600480360381019061048791906127ae565b6117b1565b6040516104999190612041565b60405180910390f35b6104bc60048036038101906104b7919061285b565b6117f5565b6040516104c991906128e3565b60405180910390f35b7f000000000000000000000000000000000000000000000000000000000000000081565b6104fe611c56565b60008083604051602001610512919061293a565b6040516020818303038152906040528051906020012081526020019081526020016000206040518060800160405290816000820160009054906101000a900460ff1660ff1660ff1681526020016000820160019054906101000a900462ffffff1662ffffff1662ffffff1681526020016000820160049054906101000a900463ffffffff1663ffffffff1663ffffffff1681526020016000820160089054906101000a90046fffffffffffffffffffffffffffffffff166fffffffffffffffffffffffffffffffff166fffffffffffffffffffffffffffffffff16815250509050919050565b610600611c56565b6000808381526020019081526020016000206040518060800160405290816000820160009054906101000a900460ff1660ff1660ff1681526020016000820160019054906101000a900462ffffff1662ffffff1662ffffff1681526020016000820160049054906101000a900463ffffffff1663ffffffff1663ffffffff1681526020016000820160089054906101000a90046fffffffffffffffffffffffffffffffff166fffffffffffffffffffffffffffffffff166fffffffffffffffffffffffffffffffff168152505090506000816040015163ffffffff16036106ed576106ea826118b2565b90505b919050565b60007f556d6272656c6c61466565647300000000000000000000000000000000000000905090565b6040518060400160405280601c81526020017f19457468657265756d205369676e6564204d6573736167653a0a33320000000081525081565b60007f000000000000000000000000000000000000000000000000000000000000000061ffff168383905010156107b6576040517fe246dc6300000000000000000000000000000000000000000000000000000000815260040160405180910390fd5b60005b7f000000000000000000000000000000000000000000000000000000000000000061ffff168110156109a0576000610855868686858181106107fe576107fd612951565b5b90506060020160000160208101906108169190612980565b87878681811061082957610828612951565b5b9050606002016020013588888781811061084657610845612951565b5b905060600201604001356117f5565b90508073ffffffffffffffffffffffffffffffffffffffff168373ffffffffffffffffffffffffffffffffffffffff16106108bc576040517f9079f69b00000000000000000000000000000000000000000000000000000000815260040160405180910390fd5b60007f000000000000000000000000000000000000000000000000000000000000000073ffffffffffffffffffffffffffffffffffffffff166370a08231836040518263ffffffff1660e01b815260040161091791906128e3565b602060405180830381865afa158015610934573d6000803e3d6000fd5b505050506040513d601f19601f8201168201806040525081019061095891906129d9565b0361098f576040517f815e1d6400000000000000000000000000000000000000000000000000000000815260040160405180910390fd5b8092508180600101925050506107b9565b5050505050565b7f000000000000000000000000000000000000000000000000000000000000000081565b60608282905067ffffffffffffffff8111156109ea576109e9611d67565b5b604051908082528060200260200182016040528015610a2357816020015b610a10611c56565b815260200190600190039081610a085790505b50905060005b83839050811015610bb257600080858584818110610a4a57610a49612951565b5b9050602002013581526020019081526020016000206040518060800160405290816000820160009054906101000a900460ff1660ff1660ff1681526020016000820160019054906101000a900462ffffff1662ffffff1662ffffff1681526020016000820160049054906101000a900463ffffffff1663ffffffff1663ffffffff1681526020016000820160089054906101000a90046fffffffffffffffffffffffffffffffff166fffffffffffffffffffffffffffffffff166fffffffffffffffffffffffffffffffff1681525050828281518110610b2d57610b2c612951565b5b60200260200101819052506000828281518110610b4d57610b4c612951565b5b60200260200101516040015163ffffffff1603610ba557610b86848483818110610b7a57610b79612951565b5b905060200201356118b2565b828281518110610b9957610b98612951565b5b60200260200101819052505b8080600101915050610a29565b5092915050565b6000806000808481526020019081526020016000206040518060800160405290816000820160009054906101000a900460ff1660ff1660ff1681526020016000820160019054906101000a900462ffffff1662ffffff1662ffffff1681526020016000820160049054906101000a900463ffffffff1663ffffffff1663ffffffff1681526020016000820160089054906101000a90046fffffffffffffffffffffffffffffffff166fffffffffffffffffffffffffffffffff166fffffffffffffffffffffffffffffffff168152505090506000816040015163ffffffff1603610ca957610ca683611a50565b90505b8060600151915050919050565b600046905090565b60608282905067ffffffffffffffff811115610cdd57610cdc611d67565b5b604051908082528060200260200182016040528015610d1657816020015b610d03611c56565b815260200190600190039081610cfb5790505b50905060005b83839050811015610ea557600080858584818110610d3d57610d3c612951565b5b9050602002013581526020019081526020016000206040518060800160405290816000820160009054906101000a900460ff1660ff1660ff1681526020016000820160019054906101000a900462ffffff1662ffffff1662ffffff1681526020016000820160049054906101000a900463ffffffff1663ffffffff1663ffffffff1681526020016000820160089054906101000a90046fffffffffffffffffffffffffffffffff166fffffffffffffffffffffffffffffffff166fffffffffffffffffffffffffffffffff1681525050828281518110610e2057610e1f612951565b5b60200260200101819052506000828281518110610e4057610e3f612951565b5b60200260200101516040015163ffffffff1603610e9857610e79848483818110610e6d57610e6c612951565b5b90506020020135611a50565b828281518110610e8c57610e8b612951565b5b60200260200101819052505b8080600101915050610d1c565b5092915050565b610eb4611c56565b6000808381526020019081526020016000206040518060800160405290816000820160009054906101000a900460ff1660ff1660ff1681526020016000820160019054906101000a900462ffffff1662ffffff1662ffffff1681526020016000820160049054906101000a900463ffffffff1663ffffffff1663ffffffff1681526020016000820160089054906101000a90046fffffffffffffffffffffffffffffffff166fffffffffffffffffffffffffffffffff166fffffffffffffffffffffffffffffffff168152505090506000816040015163ffffffff1603610fa157610f9e82611a50565b90505b919050565b610fae611c56565b60008383604051602001610fc3929190612a2b565b6040516020818303038152906040528051906020012090506000808281526020019081526020016000206040518060800160405290816000820160009054906101000a900460ff1660ff1660ff1681526020016000820160019054906101000a900462ffffff1662ffffff1662ffffff1681526020016000820160049054906101000a900463ffffffff1663ffffffff1663ffffffff1681526020016000820160089054906101000a90046fffffffffffffffffffffffffffffffff166fffffffffffffffffffffffffffffffff166fffffffffffffffffffffffffffffffff168152505091506000826040015163ffffffff16036110c8576110c5816118b2565b91505b5092915050565b6110d7611c56565b6000808381526020019081526020016000206040518060800160405290816000820160009054906101000a900460ff1660ff1660ff1681526020016000820160019054906101000a900462ffffff1662ffffff1662ffffff1681526020016000820160049054906101000a900463ffffffff1663ffffffff1663ffffffff1681526020016000820160089054906101000a90046fffffffffffffffffffffffffffffffff166fffffffffffffffffffffffffffffffff166fffffffffffffffffffffffffffffffff16815250509050919050565b60008060008060008581526020019081526020016000206040518060800160405290816000820160009054906101000a900460ff1660ff1660ff1681526020016000820160019054906101000a900462ffffff1662ffffff1662ffffff1681526020016000820160049054906101000a900463ffffffff1663ffffffff1663ffffffff1681526020016000820160089054906101000a90046fffffffffffffffffffffffffffffffff166fffffffffffffffffffffffffffffffff166fffffffffffffffffffffffffffffffff168152505090506000816040015163ffffffff160361129d5761129a84611a50565b90505b806060015181604001519250925050915091565b60ff81565b60006112c0610cb6565b30888888886040516020016112da96959493929190612ca2565b6040516020818303038152906040528051906020012090506112fd818484610753565b60005b858590508110156114925785858281811061131e5761131d612951565b5b90506080020160400160208101906113369190612cf9565b63ffffffff166000808a8a8581811061135257611351612951565b5b90506020020135815260200190815260200160002060000160049054906101000a900463ffffffff1663ffffffff16106113b8576040517f1251b2f300000000000000000000000000000000000000000000000000000000815260040160405180910390fd5b60ff80166000808a8a858181106113d2576113d1612951565b5b90506020020135815260200190815260200160002060000160009054906101000a900460ff1660ff1603611432576040517f4070f90200000000000000000000000000000000000000000000000000000000815260040160405180910390fd5b85858281811061144557611444612951565b5b9050608002016000808a8a8581811061146157611460612951565b5b90506020020135815260200190815260200160002081816114829190613023565b9050508080600101915050611300565b5050505050505050565b6000806000806000808681526020019081526020016000206040518060800160405290816000820160009054906101000a900460ff1660ff1660ff1681526020016000820160019054906101000a900462ffffff1662ffffff1662ffffff1681526020016000820160049054906101000a900463ffffffff1663ffffffff1663ffffffff1681526020016000820160089054906101000a90046fffffffffffffffffffffffffffffffff166fffffffffffffffffffffffffffffffff166fffffffffffffffffffffffffffffffff168152505090506000816040015163ffffffff160361158f5761158c85611a50565b90505b806060015181604001518260200151935093509350509193909250565b7f000000000000000000000000000000000000000000000000000000000000000081565b60006115da610cb6565b3086866040516020016115f0949392919061314d565b604051602081830303815290604052805190602001209050611613818484610753565b60005b8585905081101561174c57604051806080016040528060ff80168152602001600062ffffff168152602001600063ffffffff16815260200160006fffffffffffffffffffffffffffffffff1681525060008088888581811061167b5761167a612951565b5b90506020020135815260200190815260200160002060008201518160000160006101000a81548160ff021916908360ff16021790555060208201518160000160016101000a81548162ffffff021916908362ffffff16021790555060408201518160000160046101000a81548163ffffffff021916908363ffffffff16021790555060608201518160000160086101000a8154816fffffffffffffffffffffffffffffffff02191690836fffffffffffffffffffffffffffffffff1602179055509050508080600101915050611616565b505050505050565b6040518060400160405280600d81526020017f556d6272656c6c6146656564730000000000000000000000000000000000000081525081565b7f000000000000000000000000000000000000000000000000000000000000000081565b60006117bb610cb6565b30868686866040516020016117d596959493929190612ca2565b604051602081830303815290604052805190602001209050949350505050565b6000806040518060400160405280601c81526020017f19457468657265756d205369676e6564204d6573736167653a0a333200000000815250866040516020016118409291906131f0565b6040516020818303038152906040528051906020012090506001818686866040516000815260200160405260405161187b9493929190613218565b6020604051602081039080840390855afa15801561189d573d6000803e3d6000fd5b50505060206040510351915050949350505050565b6118ba611c56565b60007f000000000000000000000000000000000000000000000000000000000000000073ffffffffffffffffffffffffffffffffffffffff166321f8a7216119006106f2565b6040518263ffffffff1660e01b815260040161191c9190612041565b602060405180830381865afa158015611939573d6000803e3d6000fd5b505050506040513d601f19601f8201168201806040525081019061195d9190613289565b90503073ffffffffffffffffffffffffffffffffffffffff168173ffffffffffffffffffffffffffffffffffffffff16141580156119c85750600073ffffffffffffffffffffffffffffffffffffffff168173ffffffffffffffffffffffffffffffffffffffff1614155b15611a4a578073ffffffffffffffffffffffffffffffffffffffff166360846bc6846040518263ffffffff1660e01b8152600401611a069190612041565b608060405180830381865afa158015611a23573d6000803e3d6000fd5b505050506040513d601f19601f82011682018060405250810190611a479190613387565b91505b50919050565b611a58611c56565b60007f000000000000000000000000000000000000000000000000000000000000000073ffffffffffffffffffffffffffffffffffffffff1663e8f98f886040518060400160405280600d81526020017f556d6272656c6c614665656473000000000000000000000000000000000000008152506040518263ffffffff1660e01b8152600401611ae89190612750565b602060405180830381865afa158015611b05573d6000803e3d6000fd5b505050506040513d601f19601f82011682018060405250810190611b299190613289565b90503073ffffffffffffffffffffffffffffffffffffffff168173ffffffffffffffffffffffffffffffffffffffff1603611b90576040517f15647ae900000000000000000000000000000000000000000000000000000000815260040160405180910390fd5b8073ffffffffffffffffffffffffffffffffffffffff166360846bc6846040518263ffffffff1660e01b8152600401611bc99190612041565b608060405180830381865afa158015611be6573d6000803e3d6000fd5b505050506040513d601f19601f82011682018060405250810190611c0a9190613387565b91506000826040015163ffffffff1603611c50576040517f15647ae900000000000000000000000000000000000000000000000000000000815260040160405180910390fd5b50919050565b6040518060800160405280600060ff168152602001600062ffffff168152602001600063ffffffff16815260200160006fffffffffffffffffffffffffffffffff1681525090565b600073ffffffffffffffffffffffffffffffffffffffff82169050919050565b6000819050919050565b6000611ce3611cde611cd984611c9e565b611cbe565b611c9e565b9050919050565b6000611cf582611cc8565b9050919050565b6000611d0782611cea565b9050919050565b611d1781611cfc565b82525050565b6000602082019050611d326000830184611d0e565b92915050565b6000604051905090565b600080fd5b600080fd5b600080fd5b600080fd5b6000601f19601f8301169050919050565b7f4e487b7100000000000000000000000000000000000000000000000000000000600052604160045260246000fd5b611d9f82611d56565b810181811067ffffffffffffffff82111715611dbe57611dbd611d67565b5b80604052505050565b6000611dd1611d38565b9050611ddd8282611d96565b919050565b600067ffffffffffffffff821115611dfd57611dfc611d67565b5b611e0682611d56565b9050602081019050919050565b82818337600083830152505050565b6000611e35611e3084611de2565b611dc7565b905082815260208101848484011115611e5157611e50611d51565b5b611e5c848285611e13565b509392505050565b600082601f830112611e7957611e78611d4c565b5b8135611e89848260208601611e22565b91505092915050565b600060208284031215611ea857611ea7611d42565b5b600082013567ffffffffffffffff811115611ec657611ec5611d47565b5b611ed284828501611e64565b91505092915050565b600060ff82169050919050565b611ef181611edb565b82525050565b600062ffffff82169050919050565b611f0f81611ef7565b82525050565b600063ffffffff82169050919050565b611f2e81611f15565b82525050565b60006fffffffffffffffffffffffffffffffff82169050919050565b611f5981611f34565b82525050565b608082016000820151611f756000850182611ee8565b506020820151611f886020850182611f06565b506040820151611f9b6040850182611f25565b506060820151611fae6060850182611f50565b50505050565b6000608082019050611fc96000830184611f5f565b92915050565b6000819050919050565b611fe281611fcf565b8114611fed57600080fd5b50565b600081359050611fff81611fd9565b92915050565b60006020828403121561201b5761201a611d42565b5b600061202984828501611ff0565b91505092915050565b61203b81611fcf565b82525050565b60006020820190506120566000830184612032565b92915050565b600081519050919050565b600082825260208201905092915050565b60005b8381101561209657808201518184015260208101905061207b565b838111156120a5576000848401525b50505050565b60006120b68261205c565b6120c08185612067565b93506120d0818560208601612078565b6120d981611d56565b840191505092915050565b600060208201905081810360008301526120fe81846120ab565b905092915050565b600080fd5b600080fd5b60008083601f84011261212657612125611d4c565b5b8235905067ffffffffffffffff81111561214357612142612106565b5b60208301915083606082028301111561215f5761215e61210b565b5b9250929050565b60008060006040848603121561217f5761217e611d42565b5b600061218d86828701611ff0565b935050602084013567ffffffffffffffff8111156121ae576121ad611d47565b5b6121ba86828701612110565b92509250509250925092565b6121cf81611edb565b82525050565b60006020820190506121ea60008301846121c6565b92915050565b60008083601f84011261220657612205611d4c565b5b8235905067ffffffffffffffff81111561222357612222612106565b5b60208301915083602082028301111561223f5761223e61210b565b5b9250929050565b6000806020838503121561225d5761225c611d42565b5b600083013567ffffffffffffffff81111561227b5761227a611d47565b5b612287858286016121f0565b92509250509250929050565b600081519050919050565b600082825260208201905092915050565b6000819050602082019050919050565b6080820160008201516122d56000850182611ee8565b5060208201516122e86020850182611f06565b5060408201516122fb6040850182611f25565b50606082015161230e6060850182611f50565b50505050565b600061232083836122bf565b60808301905092915050565b6000602082019050919050565b600061234482612293565b61234e818561229e565b9350612359836122af565b8060005b8381101561238a5781516123718882612314565b975061237c8361232c565b92505060018101905061235d565b5085935050505092915050565b600060208201905081810360008301526123b18184612339565b905092915050565b6123c281611f34565b82525050565b60006020820190506123dd60008301846123b9565b92915050565b6000819050919050565b6123f6816123e3565b82525050565b600060208201905061241160008301846123ed565b92915050565b60008083601f84011261242d5761242c611d4c565b5b8235905067ffffffffffffffff81111561244a57612449612106565b5b6020830191508360018202830111156124665761246561210b565b5b9250929050565b6000806020838503121561248457612483611d42565b5b600083013567ffffffffffffffff8111156124a2576124a1611d47565b5b6124ae85828601612417565b92509250509250929050565b6124c381611f15565b82525050565b60006040820190506124de60008301856123b9565b6124eb60208301846124ba565b9392505050565b60008083601f84011261250857612507611d4c565b5b8235905067ffffffffffffffff81111561252557612524612106565b5b6020830191508360808202830111156125415761254061210b565b5b9250929050565b6000806000806000806060878903121561256557612564611d42565b5b600087013567ffffffffffffffff81111561258357612582611d47565b5b61258f89828a016121f0565b9650965050602087013567ffffffffffffffff8111156125b2576125b1611d47565b5b6125be89828a016124f2565b9450945050604087013567ffffffffffffffff8111156125e1576125e0611d47565b5b6125ed89828a01612110565b92509250509295509295509295565b61260581611ef7565b82525050565b600060608201905061262060008301866123b9565b61262d60208301856124ba565b61263a60408301846125fc565b949350505050565b600061ffff82169050919050565b61265981612642565b82525050565b60006020820190506126746000830184612650565b92915050565b6000806000806040858703121561269457612693611d42565b5b600085013567ffffffffffffffff8111156126b2576126b1611d47565b5b6126be878288016121f0565b9450945050602085013567ffffffffffffffff8111156126e1576126e0611d47565b5b6126ed87828801612110565b925092505092959194509250565b600081519050919050565b600082825260208201905092915050565b6000612722826126fb565b61272c8185612706565b935061273c818560208601612078565b61274581611d56565b840191505092915050565b6000602082019050818103600083015261276a8184612717565b905092915050565b600061277d82611cea565b9050919050565b61278d81612772565b82525050565b60006020820190506127a86000830184612784565b92915050565b600080600080604085870312156127c8576127c7611d42565b5b600085013567ffffffffffffffff8111156127e6576127e5611d47565b5b6127f2878288016121f0565b9450945050602085013567ffffffffffffffff81111561281557612814611d47565b5b612821878288016124f2565b925092505092959194509250565b61283881611edb565b811461284357600080fd5b50565b6000813590506128558161282f565b92915050565b6000806000806080858703121561287557612874611d42565b5b600061288387828801611ff0565b945050602061289487828801612846565b93505060406128a587828801611ff0565b92505060606128b687828801611ff0565b91505092959194509250565b60006128cd82611c9e565b9050919050565b6128dd816128c2565b82525050565b60006020820190506128f860008301846128d4565b92915050565b600081905092915050565b6000612914826126fb565b61291e81856128fe565b935061292e818560208601612078565b80840191505092915050565b60006129468284612909565b915081905092915050565b7f4e487b7100000000000000000000000000000000000000000000000000000000600052603260045260246000fd5b60006020828403121561299657612995611d42565b5b60006129a484828501612846565b91505092915050565b6129b6816123e3565b81146129c157600080fd5b50565b6000815190506129d3816129ad565b92915050565b6000602082840312156129ef576129ee611d42565b5b60006129fd848285016129c4565b91505092915050565b6000612a1283856128fe565b9350612a1f838584611e13565b82840190509392505050565b6000612a38828486612a06565b91508190509392505050565b600082825260208201905092915050565b600080fd5b6000612a668385612a44565b93507f07ffffffffffffffffffffffffffffffffffffffffffffffffffffffffffffff831115612a9957612a98612a55565b5b602083029250612aaa838584611e13565b82840190509392505050565b6000819050919050565b6000612acf6020840184612846565b905092915050565b612ae081611ef7565b8114612aeb57600080fd5b50565b600081359050612afd81612ad7565b92915050565b6000612b126020840184612aee565b905092915050565b612b2381611f15565b8114612b2e57600080fd5b50565b600081359050612b4081612b1a565b92915050565b6000612b556020840184612b31565b905092915050565b612b6681611f34565b8114612b7157600080fd5b50565b600081359050612b8381612b5d565b92915050565b6000612b986020840184612b74565b905092915050565b60808201612bb16000830183612ac0565b612bbe6000850182611ee8565b50612bcc6020830183612b03565b612bd96020850182611f06565b50612be76040830183612b46565b612bf46040850182611f25565b50612c026060830183612b89565b612c0f6060850182611f50565b50505050565b6000612c218383612ba0565b60808301905092915050565b600082905092915050565b6000608082019050919050565b6000612c51838561229e565b9350612c5c82612ab6565b8060005b85811015612c9557612c728284612c2d565b612c7c8882612c15565b9750612c8783612c38565b925050600181019050612c60565b5085925050509392505050565b6000608082019050612cb760008301896123ed565b612cc460208301886128d4565b8181036040830152612cd7818688612a5a565b90508181036060830152612cec818486612c45565b9050979650505050505050565b600060208284031215612d0f57612d0e611d42565b5b6000612d1d84828501612b31565b91505092915050565b60008135612d338161282f565b80915050919050565b60008160001b9050919050565b600060ff612d5684612d3c565b9350801983169250808416831791505092915050565b6000612d87612d82612d7d84611edb565b611cbe565b611edb565b9050919050565b6000819050919050565b612da182612d6c565b612db4612dad82612d8e565b8354612d49565b8255505050565b60008135612dc881612ad7565b80915050919050565b60008160081b9050919050565b600063ffffff00612dee84612dd1565b9350801983169250808416831791505092915050565b6000612e1f612e1a612e1584611ef7565b611cbe565b611ef7565b9050919050565b6000819050919050565b612e3982612e04565b612e4c612e4582612e26565b8354612dde565b8255505050565b60008135612e6081612b1a565b80915050919050565b60008160201b9050919050565b600067ffffffff00000000612e8a84612e69565b9350801983169250808416831791505092915050565b6000612ebb612eb6612eb184611f15565b611cbe565b611f15565b9050919050565b6000819050919050565b612ed582612ea0565b612ee8612ee182612ec2565b8354612e76565b8255505050565b60008135612efc81612b5d565b80915050919050565b60008160401b9050919050565b600077ffffffffffffffffffffffffffffffff0000000000000000612f3684612f05565b9350801983169250808416831791505092915050565b6000612f67612f62612f5d84611f34565b611cbe565b611f34565b9050919050565b6000819050919050565b612f8182612f4c565b612f94612f8d82612f6e565b8354612f12565b8255505050565b600081016000830180612fad81612d26565b9050612fb98184612d98565b505050600081016020830180612fce81612dbb565b9050612fda8184612e30565b505050600081016040830180612fef81612e53565b9050612ffb8184612ecc565b50505060008101606083018061301081612eef565b905061301c8184612f78565b5050505050565b61302d8282612f9b565b5050565b6000819050919050565b61304c613047826123e3565b613031565b82525050565b60008160601b9050919050565b600061306a82613052565b9050919050565b600061307c8261305f565b9050919050565b61309461308f826128c2565b613071565b82525050565b600081905092915050565b60006130b1838561309a565b93507f07ffffffffffffffffffffffffffffffffffffffffffffffffffffffffffffff8311156130e4576130e3612a55565b5b6020830292506130f5838584611e13565b82840190509392505050565b7f5245534554000000000000000000000000000000000000000000000000000000600082015250565b60006131376005836128fe565b915061314282613101565b600582019050919050565b6000613159828761303b565b6020820191506131698286613083565b60148201915061317a8284866130a5565b91506131858261312a565b915081905095945050505050565b600081905092915050565b60006131a98261205c565b6131b38185613193565b93506131c3818560208601612078565b80840191505092915050565b6000819050919050565b6131ea6131e582611fcf565b6131cf565b82525050565b60006131fc828561319e565b915061320882846131d9565b6020820191508190509392505050565b600060808201905061322d6000830187612032565b61323a60208301866121c6565b6132476040830185612032565b6132546060830184612032565b95945050505050565b613266816128c2565b811461327157600080fd5b50565b6000815190506132838161325d565b92915050565b60006020828403121561329f5761329e611d42565b5b60006132ad84828501613274565b91505092915050565b600080fd5b6000815190506132ca8161282f565b92915050565b6000815190506132df81612ad7565b92915050565b6000815190506132f481612b1a565b92915050565b60008151905061330981612b5d565b92915050565b600060808284031215613325576133246132b6565b5b61332f6080611dc7565b9050600061333f848285016132bb565b6000830152506020613353848285016132d0565b6020830152506040613367848285016132e5565b604083015250606061337b848285016132fa565b60608301525092915050565b60006080828403121561339d5761339c611d42565b5b60006133ab8482850161330f565b9150509291505056fea2646970667358221220b6dedbc7499fd5ca8382a34e9569d3fc870c1cd49e3192e931ba994a00c32b3e64736f6c634300080d0033",
  "devdoc": {
    "kind": "dev",
    "methods": {
      "constructor": {
        "params": {
          "_contractRegistry": "Registry address",
          "_decimals": "decimals for prices stored in this contract",
          "_requiredSignatures": "number of required signatures for accepting consensus submission"
        }
      },
      "getManyPriceData(bytes32[])": {
        "details": "it will return array of price datas for provided `_keys` In case ony of feed does not exist, fallback call will be executed for that feed.",
        "params": {
          "_keys": "array of feed keys"
        },
        "returns": {
          "data": "PriceData array"
        }
      },
      "getManyPriceDataRaw(bytes32[])": {
        "details": "same as getManyPriceData() but does not revert on empty data."
      },
      "getName()": {
        "details": "to follow Registrable interface"
      },
      "getPrice(bytes32)": {
        "params": {
          "_key": "hash of feed name"
        },
        "returns": {
          "price": "price"
        }
      },
      "getPriceData(bytes32)": {
        "details": "this is main endpoint for reading feeds. In case timestamp is empty (that means there is no data), contract will execute fallback call. Check main contract description for fallback details. If you do not need whole data from `PriceData` struct, you can save some gas by using other view methods that returns just what you need.",
        "params": {
          "_key": "hash of feed name"
        },
        "returns": {
          "data": "full PriceData struct"
        }
      },
      "getPriceDataByName(string)": {
        "details": "This method should be used only for Layer2 as it is more gas consuming than others views.",
        "params": {
          "_name": "string feed name"
        },
        "returns": {
          "data": "PriceData"
        }
      },
      "getPriceDataRaw(bytes32)": {
        "params": {
          "_key": "hash of feed name"
        },
        "returns": {
          "data": "full PriceData struct"
        }
      },
      "getPriceTimestamp(bytes32)": {
        "params": {
          "_key": "hash of feed name"
        },
        "returns": {
          "price": "price",
          "timestamp": "timestamp"
        }
      },
      "getPriceTimestampHeartbeat(bytes32)": {
        "params": {
          "_key": "hash of feed name"
        },
        "returns": {
          "heartbeat": "heartbeat",
          "price": "price",
          "timestamp": "timestamp"
        }
      },
      "hashData(bytes32[],(uint8,uint24,uint32,uint128)[])": {
        "details": "helper method for QA purposes",
        "returns": {
          "_0": "hash of data that are signed by validators (keys and priced data)"
        }
      },
      "priceData(string)": {
        "details": "this is helper method for UI"
      },
      "prices(bytes32)": {
        "params": {
          "_key": "hash of feed name"
        },
        "returns": {
          "data": "full PriceData struct"
        }
      },
      "recoverSigner(bytes32,uint8,bytes32,bytes32)": {
        "params": {
          "_hash": "hashed of data",
          "_r": "part of signature",
          "_s": "part of signature",
          "_v": "part of signature"
        },
        "returns": {
          "_0": "signer address"
        }
      },
      "reset(bytes32[],(uint8,bytes32,bytes32)[])": {
        "details": "method for resetting data",
        "params": {
          "_priceKeys": "array of keys for `_priceDatas`",
          "_signatures": "validators signatures"
        }
      },
      "update(bytes32[],(uint8,uint24,uint32,uint128)[],(uint8,bytes32,bytes32)[])": {
        "details": "method for submitting consensus data",
        "params": {
          "_priceDatas": "PriceData signed by validators",
          "_priceKeys": "array of keys for `_priceDatas`",
          "_signatures": "validators signatures"
        }
      },
      "verifySignatures(bytes32,(uint8,bytes32,bytes32)[])": {
        "params": {
          "_hash": "hash of signed data",
          "_signatures": "array of validators signatures"
        }
      }
    },
    "stateVariables": {
      "DATA_RESET": {
        "details": "marker that will tell us, that price data was reset"
      },
      "DECIMALS": {
        "details": "decimals for prices stored in this contract"
      },
      "REGISTRY": {
        "details": "Registry contract where list of all addresses is stored. Fallback feature uses this registry to resolve newest `UmbrellaFeeds` address"
      },
      "REQUIRED_SIGNATURES": {
        "details": "minimal number of signatures required for accepting price submission (PoA)"
      },
      "STAKING_BANK": {
        "details": "StakingBank contract where list of validators is stored"
      }
    },
    "version": 1
  },
  "userdoc": {
    "kind": "user",
    "methods": {
      "getManyPriceData(bytes32[])": {
        "notice": "If data for any key not exists, function will revert. Use `getManyPriceDataRaw` method if you don't want revert."
      },
      "getManyPriceDataRaw(bytes32[])": {
        "notice": "This method does no revert if some data does not exists. Check `data.timestamp` to see if price exist, if it is 0, then it does not exist."
      },
      "getPrice(bytes32)": {
        "notice": "method will revert if data for `_key` not exists."
      },
      "getPriceData(bytes32)": {
        "notice": "method will revert if data for `_key` not exists."
      },
      "getPriceDataByName(string)": {
        "notice": "It does not revert on empty data."
      },
      "getPriceDataRaw(bytes32)": {
        "notice": "same as `getPriceData` but does not revert when no data"
      },
      "getPriceTimestamp(bytes32)": {
        "notice": "method will revert if data for `_key` not exists."
      },
      "getPriceTimestampHeartbeat(bytes32)": {
        "notice": "method will revert if data for `_key` not exists."
      },
      "prices(bytes32)": {
        "notice": "reader for mapping"
      }
    },
    "notice": "Main contract for all on-chain data. This contract has build in fallback feature in case, it will be replaced by newer contract. Fallback is transparent for the user, no additional setup is needed. How fallback feature works? If data for provided key is empty, contract will execute following procedure: 1. When new contract is deployed, data from ols one are erased 2. if data is empty, contract will check if there is new contract with requested data 3. if data is found in new contract it will be returned 4. if there is no data or there is no new contract tx will revert. After new deployment, it is recommended to update address to avoid fallback and reduce gas cost to minimum. In long run this is most efficient solution, better than any proxy.",
    "version": 1
  },
  "storageLayout": {
    "storage": [
      {
        "astId": 5939,
        "contract": "contracts/onChainFeeds/UmbrellaFeeds.sol:UmbrellaFeeds",
        "label": "_prices",
        "offset": 0,
        "slot": "0",
        "type": "t_mapping(t_bytes32,t_struct(PriceData)5040_storage)"
      }
    ],
    "types": {
      "t_bytes32": {
        "encoding": "inplace",
        "label": "bytes32",
        "numberOfBytes": "32"
      },
      "t_mapping(t_bytes32,t_struct(PriceData)5040_storage)": {
        "encoding": "mapping",
        "key": "t_bytes32",
        "label": "mapping(bytes32 => struct IUmbrellaFeeds.PriceData)",
        "numberOfBytes": "32",
        "value": "t_struct(PriceData)5040_storage"
      },
      "t_struct(PriceData)5040_storage": {
        "encoding": "inplace",
        "label": "struct IUmbrellaFeeds.PriceData",
        "members": [
          {
            "astId": 5030,
            "contract": "contracts/onChainFeeds/UmbrellaFeeds.sol:UmbrellaFeeds",
            "label": "data",
            "offset": 0,
            "slot": "0",
            "type": "t_uint8"
          },
          {
            "astId": 5033,
            "contract": "contracts/onChainFeeds/UmbrellaFeeds.sol:UmbrellaFeeds",
            "label": "heartbeat",
            "offset": 1,
            "slot": "0",
            "type": "t_uint24"
          },
          {
            "astId": 5036,
            "contract": "contracts/onChainFeeds/UmbrellaFeeds.sol:UmbrellaFeeds",
            "label": "timestamp",
            "offset": 4,
            "slot": "0",
            "type": "t_uint32"
          },
          {
            "astId": 5039,
            "contract": "contracts/onChainFeeds/UmbrellaFeeds.sol:UmbrellaFeeds",
            "label": "price",
            "offset": 8,
            "slot": "0",
            "type": "t_uint128"
          }
        ],
        "numberOfBytes": "32"
      },
      "t_uint128": {
        "encoding": "inplace",
        "label": "uint128",
        "numberOfBytes": "16"
      },
      "t_uint24": {
        "encoding": "inplace",
        "label": "uint24",
        "numberOfBytes": "3"
      },
      "t_uint32": {
        "encoding": "inplace",
        "label": "uint32",
        "numberOfBytes": "4"
      },
      "t_uint8": {
        "encoding": "inplace",
        "label": "uint8",
        "numberOfBytes": "1"
      }
    }
  }
}