{
  "address": "0x252F0d548382FF7DDf897380d499e5a2561fE787",
  "abi": [
    {
      "inputs": [
        {
          "internalType": "contract IRegistry",
          "name": "_registry",
          "type": "address"
        }
      ],
      "stateMutability": "nonpayable",
      "type": "constructor"
    },
    {
      "inputs": [],
      "name": "EmptyAddress",
      "type": "error"
    },
    {
      "anonymous": false,
      "inputs": [
        {
          "indexed": true,
          "internalType": "contract UmbrellaFeedsReader",
          "name": "umbrellaFeedsReader",
          "type": "address"
        },
        {
          "indexed": false,
          "internalType": "string",
          "name": "feedName",
          "type": "string"
        }
      ],
      "name": "NewUmbrellaFeedsReader",
      "type": "event"
    },
    {
      "inputs": [],
      "name": "REGISTRY",
      "outputs": [
        {
          "internalType": "contract IRegistry",
          "name": "",
          "type": "address"
        }
      ],
      "stateMutability": "view",
      "type": "function"
    },
    {
      "inputs": [
        {
          "internalType": "string",
          "name": "_feedName",
          "type": "string"
        }
      ],
      "name": "deploy",
      "outputs": [
        {
          "internalType": "contract UmbrellaFeedsReader",
          "name": "reader",
          "type": "address"
        }
      ],
      "stateMutability": "nonpayable",
      "type": "function"
    },
    {
      "inputs": [
        {
          "internalType": "string",
          "name": "_feedName",
          "type": "string"
        }
      ],
      "name": "deployed",
      "outputs": [
        {
          "internalType": "contract UmbrellaFeedsReader",
          "name": "",
          "type": "address"
        }
      ],
      "stateMutability": "view",
      "type": "function"
    },
    {
      "inputs": [],
      "name": "getName",
      "outputs": [
        {
          "internalType": "bytes32",
          "name": "",
          "type": "bytes32"
        }
      ],
      "stateMutability": "pure",
      "type": "function"
    },
    {
      "inputs": [
        {
          "internalType": "string",
          "name": "_feedName",
          "type": "string"
        }
      ],
      "name": "hash",
      "outputs": [
        {
          "internalType": "bytes32",
          "name": "",
          "type": "bytes32"
        }
      ],
      "stateMutability": "pure",
      "type": "function"
    },
    {
      "inputs": [
        {
          "internalType": "bytes32",
          "name": "",
          "type": "bytes32"
        }
      ],
      "name": "readers",
      "outputs": [
        {
          "internalType": "contract UmbrellaFeedsReader",
          "name": "",
          "type": "address"
        }
      ],
      "stateMutability": "view",
      "type": "function"
    }
  ],
  "transactionHash": "0x015abf981e275491104cd4daac1f49b5f82e077740c3bafa9a48b2da00f7035d",
  "args": [
    "0x29A5f90DBe54A11d37b0b18573fF853c7dc5433B"
  ],
  "numDeployments": 2,
  "solcInputHash": "24714432b8ce0b3d5b9f8057659026c4",
  "bytecode": "0x60a060405234801561001057600080fd5b5060405161258638038061258683398181016040528101906100329190610147565b600073ffffffffffffffffffffffffffffffffffffffff168173ffffffffffffffffffffffffffffffffffffffff1603610098576040517f7138356f00000000000000000000000000000000000000000000000000000000815260040160405180910390fd5b8073ffffffffffffffffffffffffffffffffffffffff1660808173ffffffffffffffffffffffffffffffffffffffff168152505050610174565b600080fd5b600073ffffffffffffffffffffffffffffffffffffffff82169050919050565b6000610102826100d7565b9050919050565b6000610114826100f7565b9050919050565b61012481610109565b811461012f57600080fd5b50565b6000815190506101418161011b565b92915050565b60006020828403121561015d5761015c6100d2565b5b600061016b84828501610132565b91505092915050565b6080516123e961019d6000396000818161018d0152818161026201526103e801526123e96000f3fe60806040523480156200001157600080fd5b50600436106200006a5760003560e01c806306433b1b146200006f5780630d5befc1146200009157806317d7de7c14620000c7578063b411ee9414620000e9578063c7602316146200011f578063c7ee05191462000155575b600080fd5b620000796200018b565b604051620000889190620005c3565b60405180910390f35b620000af6004803603810190620000a9919062000756565b620001af565b604051620000be9190620007cc565b60405180910390f35b620000d1620001f5565b604051620000e0919062000804565b60405180910390f35b62000107600480360381019062000101919062000756565b6200021d565b60405162000116919062000804565b60405180910390f35b6200013d600480360381019062000137919062000756565b6200024f565b6040516200014c9190620007cc565b60405180910390f35b6200017360048036038101906200016d919062000852565b620004f7565b604051620001829190620007cc565b60405180910390f35b7f000000000000000000000000000000000000000000000000000000000000000081565b6000806000620001bf846200021d565b815260200190815260200160002060009054906101000a900473ffffffffffffffffffffffffffffffffffffffff169050919050565b60007f556d6272656c6c614665656473526561646572466163746f7279000000000000905090565b60008160405160200162000232919062000907565b604051602081830303815290604052805190602001209050919050565b60006200025c82620001af565b905060007f000000000000000000000000000000000000000000000000000000000000000073ffffffffffffffffffffffffffffffffffffffff1663e8f98f886040518163ffffffff1660e01b8152600401620002b99062000981565b602060405180830381865afa158015620002d7573d6000803e3d6000fd5b505050506040513d601f19601f82011682018060405250810190620002fd9190620009e8565b9050600073ffffffffffffffffffffffffffffffffffffffff168273ffffffffffffffffffffffffffffffffffffffff1614158015620003d957508073ffffffffffffffffffffffffffffffffffffffff168273ffffffffffffffffffffffffffffffffffffffff1663bb25b1ea6040518163ffffffff1660e01b8152600401602060405180830381865afa1580156200039b573d6000803e3d6000fd5b505050506040513d601f19601f82011682018060405250810190620003c19190620009e8565b73ffffffffffffffffffffffffffffffffffffffff16145b15620003e65750620004f2565b7f0000000000000000000000000000000000000000000000000000000000000000818460405162000417906200052a565b620004259392919062000a80565b604051809103906000f08015801562000442573d6000803e3d6000fd5b5091508160008062000454866200021d565b815260200190815260200160002060006101000a81548173ffffffffffffffffffffffffffffffffffffffff021916908373ffffffffffffffffffffffffffffffffffffffff1602179055508173ffffffffffffffffffffffffffffffffffffffff167f7f5e2d33fdf12b9e483624348a7513ba1c5b0c4ecada4be7c542fc2c7e3fbe3184604051620004e8919062000ac4565b60405180910390a2505b919050565b60006020528060005260406000206000915054906101000a900473ffffffffffffffffffffffffffffffffffffffff1681565b6118cb8062000ae983390190565b600073ffffffffffffffffffffffffffffffffffffffff82169050919050565b6000819050919050565b6000620005836200057d620005778462000538565b62000558565b62000538565b9050919050565b6000620005978262000562565b9050919050565b6000620005ab826200058a565b9050919050565b620005bd816200059e565b82525050565b6000602082019050620005da6000830184620005b2565b92915050565b6000604051905090565b600080fd5b600080fd5b600080fd5b600080fd5b6000601f19601f8301169050919050565b7f4e487b7100000000000000000000000000000000000000000000000000000000600052604160045260246000fd5b6200064982620005fe565b810181811067ffffffffffffffff821117156200066b576200066a6200060f565b5b80604052505050565b600062000680620005e0565b90506200068e82826200063e565b919050565b600067ffffffffffffffff821115620006b157620006b06200060f565b5b620006bc82620005fe565b9050602081019050919050565b82818337600083830152505050565b6000620006ef620006e98462000693565b62000674565b9050828152602081018484840111156200070e576200070d620005f9565b5b6200071b848285620006c9565b509392505050565b600082601f8301126200073b576200073a620005f4565b5b81356200074d848260208601620006d8565b91505092915050565b6000602082840312156200076f576200076e620005ea565b5b600082013567ffffffffffffffff81111562000790576200078f620005ef565b5b6200079e8482850162000723565b91505092915050565b6000620007b4826200058a565b9050919050565b620007c681620007a7565b82525050565b6000602082019050620007e36000830184620007bb565b92915050565b6000819050919050565b620007fe81620007e9565b82525050565b60006020820190506200081b6000830184620007f3565b92915050565b6200082c81620007e9565b81146200083857600080fd5b50565b6000813590506200084c8162000821565b92915050565b6000602082840312156200086b576200086a620005ea565b5b60006200087b848285016200083b565b91505092915050565b600081519050919050565b600081905092915050565b60005b83811015620008ba5780820151818401526020810190506200089d565b83811115620008ca576000848401525b50505050565b6000620008dd8262000884565b620008e981856200088f565b9350620008fb8185602086016200089a565b80840191505092915050565b6000620009158284620008d0565b915081905092915050565b600082825260208201905092915050565b7f556d6272656c6c61466565647300000000000000000000000000000000000000600082015250565b600062000969600d8362000920565b9150620009768262000931565b602082019050919050565b600060208201905081810360008301526200099c816200095a565b9050919050565b6000620009b08262000538565b9050919050565b620009c281620009a3565b8114620009ce57600080fd5b50565b600081519050620009e281620009b7565b92915050565b60006020828403121562000a015762000a00620005ea565b5b600062000a1184828501620009d1565b91505092915050565b600062000a27826200058a565b9050919050565b62000a398162000a1a565b82525050565b600062000a4c8262000884565b62000a58818562000920565b935062000a6a8185602086016200089a565b62000a7581620005fe565b840191505092915050565b600060608201905062000a976000830186620005b2565b62000aa6602083018562000a2e565b818103604083015262000aba818462000a3f565b9050949350505050565b6000602082019050818103600083015262000ae0818462000a3f565b90509291505056fe6101006040523480156200001257600080fd5b50604051620018cb380380620018cb833981810160405281019062000038919062000569565b600073ffffffffffffffffffffffffffffffffffffffff168373ffffffffffffffffffffffffffffffffffffffff16036200009f576040517f7138356f00000000000000000000000000000000000000000000000000000000815260040160405180910390fd5b8273ffffffffffffffffffffffffffffffffffffffff1660808173ffffffffffffffffffffffffffffffffffffffff16815250508173ffffffffffffffffffffffffffffffffffffffff1660a08173ffffffffffffffffffffffffffffffffffffffff168152505080600090805190602001906200011f9291906200025e565b508173ffffffffffffffffffffffffffffffffffffffff16632e0f26256040518163ffffffff1660e01b8152600401602060405180830381865afa1580156200016c573d6000803e3d6000fd5b505050506040513d601f19601f8201168201806040525081019062000192919062000622565b60ff1660e08160ff1681525050600081604051602001620001b49190620006a1565b6040516020818303038152906040528051906020012090508060c081815250508273ffffffffffffffffffffffffffffffffffffffff166343fa6211826040518263ffffffff1660e01b81526004016200020f9190620006d5565b608060405180830381865afa1580156200022d573d6000803e3d6000fd5b505050506040513d601f19601f820116820180604052508101906200025391906200084a565b5050505050620008e0565b8280546200026c90620008ab565b90600052602060002090601f016020900481019282620002905760008555620002dc565b82601f10620002ab57805160ff1916838001178555620002dc565b82800160010185558215620002dc579182015b82811115620002db578251825591602001919060010190620002be565b5b509050620002eb9190620002ef565b5090565b5b808211156200030a576000816000905550600101620002f0565b5090565b6000604051905090565b600080fd5b600080fd5b600073ffffffffffffffffffffffffffffffffffffffff82169050919050565b60006200034f8262000322565b9050919050565b6000620003638262000342565b9050919050565b620003758162000356565b81146200038157600080fd5b50565b60008151905062000395816200036a565b92915050565b6000620003a88262000342565b9050919050565b620003ba816200039b565b8114620003c657600080fd5b50565b600081519050620003da81620003af565b92915050565b600080fd5b600080fd5b6000601f19601f8301169050919050565b7f4e487b7100000000000000000000000000000000000000000000000000000000600052604160045260246000fd5b6200043582620003ea565b810181811067ffffffffffffffff82111715620004575762000456620003fb565b5b80604052505050565b60006200046c6200030e565b90506200047a82826200042a565b919050565b600067ffffffffffffffff8211156200049d576200049c620003fb565b5b620004a882620003ea565b9050602081019050919050565b60005b83811015620004d5578082015181840152602081019050620004b8565b83811115620004e5576000848401525b50505050565b600062000502620004fc846200047f565b62000460565b905082815260208101848484011115620005215762000520620003e5565b5b6200052e848285620004b5565b509392505050565b600082601f8301126200054e576200054d620003e0565b5b815162000560848260208601620004eb565b91505092915050565b60008060006060848603121562000585576200058462000318565b5b6000620005958682870162000384565b9350506020620005a886828701620003c9565b925050604084015167ffffffffffffffff811115620005cc57620005cb6200031d565b5b620005da8682870162000536565b9150509250925092565b600060ff82169050919050565b620005fc81620005e4565b81146200060857600080fd5b50565b6000815190506200061c81620005f1565b92915050565b6000602082840312156200063b576200063a62000318565b5b60006200064b848285016200060b565b91505092915050565b600081519050919050565b600081905092915050565b6000620006778262000654565b6200068381856200065f565b935062000695818560208601620004b5565b80840191505092915050565b6000620006af82846200066a565b915081905092915050565b6000819050919050565b620006cf81620006ba565b82525050565b6000602082019050620006ec6000830184620006c4565b92915050565b600080fd5b600062ffffff82169050919050565b6200071181620006f7565b81146200071d57600080fd5b50565b600081519050620007318162000706565b92915050565b600063ffffffff82169050919050565b620007528162000737565b81146200075e57600080fd5b50565b600081519050620007728162000747565b92915050565b60006fffffffffffffffffffffffffffffffff82169050919050565b6200079f8162000778565b8114620007ab57600080fd5b50565b600081519050620007bf8162000794565b92915050565b600060808284031215620007de57620007dd620006f2565b5b620007ea608062000460565b90506000620007fc848285016200060b565b6000830152506020620008128482850162000720565b6020830152506040620008288482850162000761565b60408301525060606200083e84828501620007ae565b60608301525092915050565b60006080828403121562000863576200086262000318565b5b60006200087384828501620007c5565b91505092915050565b7f4e487b7100000000000000000000000000000000000000000000000000000000600052602260045260246000fd5b60006002820490506001821680620008c457607f821691505b602082108103620008da57620008d96200087c565b5b50919050565b60805160a05160c05160e051610f796200095260003960006101bd01526000818161019701528181610398015281816105bb01526107850152600081816102da015281816103590152818161054c01526106e4015260008181610173015281816104b2015261064a0152610f796000f3fe608060405234801561001057600080fd5b50600436106100785760003560e01c806306433b1b1461007d5780632dc387b31461009b578063313ce567146100b95780637284e416146100d757806376ded135146100f5578063a4a2816814610113578063bb25b1ea14610131578063feaf968c1461014f575b600080fd5b610085610171565b60405161009291906108ce565b60405180910390f35b6100a3610195565b6040516100b09190610902565b60405180910390f35b6100c16101b9565b6040516100ce9190610939565b60405180910390f35b6100df6101e1565b6040516100ec91906109ed565b60405180910390f35b6100fd61026f565b60405161010a9190610adb565b60405180910390f35b61011b6102a6565b6040516101289190610adb565b60405180910390f35b6101396102d8565b6040516101469190610b17565b60405180910390f35b6101576102fc565b604051610168959493929190610b89565b60405180910390f35b7f000000000000000000000000000000000000000000000000000000000000000081565b7f000000000000000000000000000000000000000000000000000000000000000081565b60007f0000000000000000000000000000000000000000000000000000000000000000905090565b600080546101ee90610c0b565b80601f016020809104026020016040519081016040528092919081815260200182805461021a90610c0b565b80156102675780601f1061023c57610100808354040283529160200191610267565b820191906000526020600020905b81548152906001019060200180831161024a57829003601f168201915b505050505081565b610277610807565b61027f61034c565b90506000816040015163ffffffff16036102a25761029b6104a6565b90506102a3565b5b90565b6102ae610807565b6102b661034c565b90506000816040015163ffffffff16036102d5576102d261063e565b90505b90565b7f000000000000000000000000000000000000000000000000000000000000000081565b60008060008060008061030d61034c565b9050600081606001516fffffffffffffffffffffffffffffffff166000836040015160008163ffffffff16915095509550955095509550509091929394565b610354610807565b6000807f000000000000000000000000000000000000000000000000000000000000000073ffffffffffffffffffffffffffffffffffffffff166360846bc660e01b7f00000000000000000000000000000000000000000000000000000000000000006040516024016103c79190610902565b604051602081830303815290604052907bffffffffffffffffffffffffffffffffffffffffffffffffffffffff19166020820180517bffffffffffffffffffffffffffffffffffffffffffffffffffffffff83818316178352505050506040516104319190610c83565b600060405180830381855afa9150503d806000811461046c576040519150601f19603f3d011682016040523d82523d6000602084013e610471565b606091505b509150915081801561048557506000815114155b156104a1578080602001905181019061049e9190610e51565b92505b505090565b6104ae610807565b60007f000000000000000000000000000000000000000000000000000000000000000073ffffffffffffffffffffffffffffffffffffffff1663e8f98f886040518163ffffffff1660e01b815260040161050790610eca565b602060405180830381865afa158015610524573d6000803e3d6000fd5b505050506040513d601f19601f820116820180604052508101906105489190610f16565b90507f000000000000000000000000000000000000000000000000000000000000000073ffffffffffffffffffffffffffffffffffffffff168173ffffffffffffffffffffffffffffffffffffffff161461063a578073ffffffffffffffffffffffffffffffffffffffff166360846bc67f00000000000000000000000000000000000000000000000000000000000000006040518263ffffffff1660e01b81526004016105f69190610902565b608060405180830381865afa158015610613573d6000803e3d6000fd5b505050506040513d601f19601f820116820180604052508101906106379190610e51565b91505b5090565b610646610807565b60007f000000000000000000000000000000000000000000000000000000000000000073ffffffffffffffffffffffffffffffffffffffff1663e8f98f886040518163ffffffff1660e01b815260040161069f90610eca565b602060405180830381865afa1580156106bc573d6000803e3d6000fd5b505050506040513d601f19601f820116820180604052508101906106e09190610f16565b90507f000000000000000000000000000000000000000000000000000000000000000073ffffffffffffffffffffffffffffffffffffffff168173ffffffffffffffffffffffffffffffffffffffff1603610767576040517f15647ae900000000000000000000000000000000000000000000000000000000815260040160405180910390fd5b8073ffffffffffffffffffffffffffffffffffffffff166343fa62117f00000000000000000000000000000000000000000000000000000000000000006040518263ffffffff1660e01b81526004016107c09190610902565b608060405180830381865afa1580156107dd573d6000803e3d6000fd5b505050506040513d601f19601f820116820180604052508101906108019190610e51565b91505090565b6040518060800160405280600060ff168152602001600062ffffff168152602001600063ffffffff16815260200160006fffffffffffffffffffffffffffffffff1681525090565b600073ffffffffffffffffffffffffffffffffffffffff82169050919050565b6000819050919050565b600061089461088f61088a8461084f565b61086f565b61084f565b9050919050565b60006108a682610879565b9050919050565b60006108b88261089b565b9050919050565b6108c8816108ad565b82525050565b60006020820190506108e360008301846108bf565b92915050565b6000819050919050565b6108fc816108e9565b82525050565b600060208201905061091760008301846108f3565b92915050565b600060ff82169050919050565b6109338161091d565b82525050565b600060208201905061094e600083018461092a565b92915050565b600081519050919050565b600082825260208201905092915050565b60005b8381101561098e578082015181840152602081019050610973565b8381111561099d576000848401525b50505050565b6000601f19601f8301169050919050565b60006109bf82610954565b6109c9818561095f565b93506109d9818560208601610970565b6109e2816109a3565b840191505092915050565b60006020820190508181036000830152610a0781846109b4565b905092915050565b610a188161091d565b82525050565b600062ffffff82169050919050565b610a3681610a1e565b82525050565b600063ffffffff82169050919050565b610a5581610a3c565b82525050565b60006fffffffffffffffffffffffffffffffff82169050919050565b610a8081610a5b565b82525050565b608082016000820151610a9c6000850182610a0f565b506020820151610aaf6020850182610a2d565b506040820151610ac26040850182610a4c565b506060820151610ad56060850182610a77565b50505050565b6000608082019050610af06000830184610a86565b92915050565b6000610b018261084f565b9050919050565b610b1181610af6565b82525050565b6000602082019050610b2c6000830184610b08565b92915050565b600069ffffffffffffffffffff82169050919050565b610b5181610b32565b82525050565b6000819050919050565b610b6a81610b57565b82525050565b6000819050919050565b610b8381610b70565b82525050565b600060a082019050610b9e6000830188610b48565b610bab6020830187610b61565b610bb86040830186610b7a565b610bc56060830185610b7a565b610bd26080830184610b48565b9695505050505050565b7f4e487b7100000000000000000000000000000000000000000000000000000000600052602260045260246000fd5b60006002820490506001821680610c2357607f821691505b602082108103610c3657610c35610bdc565b5b50919050565b600081519050919050565b600081905092915050565b6000610c5d82610c3c565b610c678185610c47565b9350610c77818560208601610970565b80840191505092915050565b6000610c8f8284610c52565b915081905092915050565b6000604051905090565b600080fd5b600080fd5b7f4e487b7100000000000000000000000000000000000000000000000000000000600052604160045260246000fd5b610ce6826109a3565b810181811067ffffffffffffffff82111715610d0557610d04610cae565b5b80604052505050565b6000610d18610c9a565b9050610d248282610cdd565b919050565b610d328161091d565b8114610d3d57600080fd5b50565b600081519050610d4f81610d29565b92915050565b610d5e81610a1e565b8114610d6957600080fd5b50565b600081519050610d7b81610d55565b92915050565b610d8a81610a3c565b8114610d9557600080fd5b50565b600081519050610da781610d81565b92915050565b610db681610a5b565b8114610dc157600080fd5b50565b600081519050610dd381610dad565b92915050565b600060808284031215610def57610dee610ca9565b5b610df96080610d0e565b90506000610e0984828501610d40565b6000830152506020610e1d84828501610d6c565b6020830152506040610e3184828501610d98565b6040830152506060610e4584828501610dc4565b60608301525092915050565b600060808284031215610e6757610e66610ca4565b5b6000610e7584828501610dd9565b91505092915050565b7f556d6272656c6c61466565647300000000000000000000000000000000000000600082015250565b6000610eb4600d8361095f565b9150610ebf82610e7e565b602082019050919050565b60006020820190508181036000830152610ee381610ea7565b9050919050565b610ef381610af6565b8114610efe57600080fd5b50565b600081519050610f1081610eea565b92915050565b600060208284031215610f2c57610f2b610ca4565b5b6000610f3a84828501610f01565b9150509291505056fea26469706673582212208f9b61d2210d173618e1944246b4cb4644a559570b7e378f1910835d2c32978f64736f6c634300080d0033a26469706673582212206b97c924a4b98d3b2abc3e7b450e54ead9014ac6862ba2509cb59231e379496d64736f6c634300080d0033",
  "devdoc": {
    "kind": "dev",
    "methods": {
      "deploy(string)": {
        "details": "Method to deploy new UmbrellaFeedsReader for particular key. This deployment is optional and it can be done by anyone who needs it. Reader can be used to simplify migration from Chainlink to Umbrella. Check UmbrellaFeedsReader docs for more details. We not using minimal proxy because it does not allow for immutable variables.",
        "params": {
          "_feedName": "string Feed name that is registered in UmbrellaFeeds"
        },
        "returns": {
          "reader": "UmbrellaFeedsReader contract address, in case anyone wants to use it from Layer1"
        }
      },
      "getName()": {
        "details": "to follow Registrable interface"
      }
    },
    "stateVariables": {
      "REGISTRY": {
        "details": "Registry contract where list of all addresses is stored. Used to resolve newest `UmbrellaFeeds` address"
      },
      "readers": {
        "details": "list of all readers"
      }
    },
    "version": 1
  },
  "userdoc": {
    "kind": "user",
    "methods": {},
    "notice": "Factory to deploy UmbrellaFeedsReader contract",
    "version": 1
  },
  "storageLayout": {
    "storage": [
      {
        "astId": 5244,
        "contract": "contracts/onChainFeeds/UmbrellaFeedsReaderFactory.sol:UmbrellaFeedsReaderFactory",
        "label": "readers",
        "offset": 0,
        "slot": "0",
        "type": "t_mapping(t_bytes32,t_contract(UmbrellaFeedsReader)5228)"
      }
    ],
    "types": {
      "t_bytes32": {
        "encoding": "inplace",
        "label": "bytes32",
        "numberOfBytes": "32"
      },
      "t_contract(UmbrellaFeedsReader)5228": {
        "encoding": "inplace",
        "label": "contract UmbrellaFeedsReader",
        "numberOfBytes": "20"
      },
      "t_mapping(t_bytes32,t_contract(UmbrellaFeedsReader)5228)": {
        "encoding": "mapping",
        "key": "t_bytes32",
        "label": "mapping(bytes32 => contract UmbrellaFeedsReader)",
        "numberOfBytes": "32",
        "value": "t_contract(UmbrellaFeedsReader)5228"
      }
    }
  }
}