{
  "address": "0x76920Bb652b6Cc572e68B0F1F998675278a399Fb",
  "abi": [
    {
      "inputs": [
        {
          "internalType": "uint256",
          "name": "_validatorsCount",
          "type": "uint256"
        }
      ],
      "stateMutability": "nonpayable",
      "type": "constructor"
    },
    {
      "inputs": [],
      "name": "NotSupported",
      "type": "error"
    },
    {
      "anonymous": false,
      "inputs": [
        {
          "indexed": true,
          "internalType": "address",
          "name": "owner",
          "type": "address"
        },
        {
          "indexed": true,
          "internalType": "address",
          "name": "spender",
          "type": "address"
        },
        {
          "indexed": false,
          "internalType": "uint256",
          "name": "value",
          "type": "uint256"
        }
      ],
      "name": "Approval",
      "type": "event"
    },
    {
      "anonymous": false,
      "inputs": [
        {
          "indexed": false,
          "internalType": "uint256",
          "name": "minAmountForStake",
          "type": "uint256"
        }
      ],
      "name": "LogMinAmountForStake",
      "type": "event"
    },
    {
      "anonymous": false,
      "inputs": [
        {
          "indexed": true,
          "internalType": "address",
          "name": "id",
          "type": "address"
        }
      ],
      "name": "LogValidatorRegistered",
      "type": "event"
    },
    {
      "anonymous": false,
      "inputs": [
        {
          "indexed": true,
          "internalType": "address",
          "name": "id",
          "type": "address"
        }
      ],
      "name": "LogValidatorRemoved",
      "type": "event"
    },
    {
      "anonymous": false,
      "inputs": [
        {
          "indexed": true,
          "internalType": "address",
          "name": "id",
          "type": "address"
        }
      ],
      "name": "LogValidatorUpdated",
      "type": "event"
    },
    {
      "anonymous": false,
      "inputs": [
        {
          "indexed": true,
          "internalType": "address",
          "name": "from",
          "type": "address"
        },
        {
          "indexed": true,
          "internalType": "address",
          "name": "to",
          "type": "address"
        },
        {
          "indexed": false,
          "internalType": "uint256",
          "name": "value",
          "type": "uint256"
        }
      ],
      "name": "Transfer",
      "type": "event"
    },
    {
      "inputs": [],
      "name": "NUMBER_OF_VALIDATORS",
      "outputs": [
        {
          "internalType": "uint256",
          "name": "",
          "type": "uint256"
        }
      ],
      "stateMutability": "view",
      "type": "function"
    },
    {
      "inputs": [],
      "name": "ONE",
      "outputs": [
        {
          "internalType": "uint256",
          "name": "",
          "type": "uint256"
        }
      ],
      "stateMutability": "view",
      "type": "function"
    },
    {
      "inputs": [],
      "name": "TOTAL_SUPPLY",
      "outputs": [
        {
          "internalType": "uint256",
          "name": "",
          "type": "uint256"
        }
      ],
      "stateMutability": "view",
      "type": "function"
    },
    {
      "inputs": [],
      "name": "VALIDATOR_0",
      "outputs": [
        {
          "internalType": "address",
          "name": "",
          "type": "address"
        }
      ],
      "stateMutability": "view",
      "type": "function"
    },
    {
      "inputs": [],
      "name": "VALIDATOR_1",
      "outputs": [
        {
          "internalType": "address",
          "name": "",
          "type": "address"
        }
      ],
      "stateMutability": "view",
      "type": "function"
    },
    {
      "inputs": [
        {
          "internalType": "uint256",
          "name": "_ix",
          "type": "uint256"
        }
      ],
      "name": "addresses",
      "outputs": [
        {
          "internalType": "address",
          "name": "",
          "type": "address"
        }
      ],
      "stateMutability": "view",
      "type": "function"
    },
    {
      "inputs": [
        {
          "internalType": "address",
          "name": "",
          "type": "address"
        },
        {
          "internalType": "address",
          "name": "",
          "type": "address"
        }
      ],
      "name": "allowance",
      "outputs": [
        {
          "internalType": "uint256",
          "name": "",
          "type": "uint256"
        }
      ],
      "stateMutability": "pure",
      "type": "function"
    },
    {
      "inputs": [
        {
          "internalType": "address",
          "name": "",
          "type": "address"
        },
        {
          "internalType": "uint256",
          "name": "",
          "type": "uint256"
        }
      ],
      "name": "approve",
      "outputs": [
        {
          "internalType": "bool",
          "name": "",
          "type": "bool"
        }
      ],
      "stateMutability": "pure",
      "type": "function"
    },
    {
      "inputs": [
        {
          "internalType": "address",
          "name": "_account",
          "type": "address"
        }
      ],
      "name": "balanceOf",
      "outputs": [
        {
          "internalType": "uint256",
          "name": "",
          "type": "uint256"
        }
      ],
      "stateMutability": "view",
      "type": "function"
    },
    {
      "inputs": [
        {
          "internalType": "address",
          "name": "_validator",
          "type": "address"
        }
      ],
      "name": "balances",
      "outputs": [
        {
          "internalType": "uint256",
          "name": "",
          "type": "uint256"
        }
      ],
      "stateMutability": "view",
      "type": "function"
    },
    {
      "inputs": [
        {
          "internalType": "address",
          "name": "",
          "type": "address"
        },
        {
          "internalType": "string",
          "name": "",
          "type": "string"
        }
      ],
      "name": "create",
      "outputs": [],
      "stateMutability": "pure",
      "type": "function"
    },
    {
      "inputs": [],
      "name": "exit",
      "outputs": [
        {
          "internalType": "bool",
          "name": "",
          "type": "bool"
        }
      ],
      "stateMutability": "pure",
      "type": "function"
    },
    {
      "inputs": [],
      "name": "getAddresses",
      "outputs": [
        {
          "internalType": "address[]",
          "name": "",
          "type": "address[]"
        }
      ],
      "stateMutability": "view",
      "type": "function"
    },
    {
      "inputs": [],
      "name": "getBalances",
      "outputs": [
        {
          "internalType": "uint256[]",
          "name": "allBalances",
          "type": "uint256[]"
        }
      ],
      "stateMutability": "view",
      "type": "function"
    },
    {
      "inputs": [],
      "name": "getName",
      "outputs": [
        {
          "internalType": "bytes32",
          "name": "",
          "type": "bytes32"
        }
      ],
      "stateMutability": "pure",
      "type": "function"
    },
    {
      "inputs": [],
      "name": "getNumberOfValidators",
      "outputs": [
        {
          "internalType": "uint256",
          "name": "",
          "type": "uint256"
        }
      ],
      "stateMutability": "view",
      "type": "function"
    },
    {
      "inputs": [
        {
          "internalType": "address",
          "name": "",
          "type": "address"
        }
      ],
      "name": "receiveApproval",
      "outputs": [
        {
          "internalType": "bool",
          "name": "",
          "type": "bool"
        }
      ],
      "stateMutability": "pure",
      "type": "function"
    },
    {
      "inputs": [],
      "name": "register",
      "outputs": [],
      "stateMutability": "pure",
      "type": "function"
    },
    {
      "inputs": [
        {
          "internalType": "address",
          "name": "",
          "type": "address"
        }
      ],
      "name": "remove",
      "outputs": [],
      "stateMutability": "pure",
      "type": "function"
    },
    {
      "inputs": [
        {
          "internalType": "uint256",
          "name": "",
          "type": "uint256"
        }
      ],
      "name": "setMinAmountForStake",
      "outputs": [],
      "stateMutability": "pure",
      "type": "function"
    },
    {
      "inputs": [
        {
          "internalType": "uint256",
          "name": "",
          "type": "uint256"
        }
      ],
      "name": "stake",
      "outputs": [],
      "stateMutability": "pure",
      "type": "function"
    },
    {
      "inputs": [],
      "name": "totalSupply",
      "outputs": [
        {
          "internalType": "uint256",
          "name": "",
          "type": "uint256"
        }
      ],
      "stateMutability": "view",
      "type": "function"
    },
    {
      "inputs": [
        {
          "internalType": "address",
          "name": "",
          "type": "address"
        },
        {
          "internalType": "uint256",
          "name": "",
          "type": "uint256"
        }
      ],
      "name": "transfer",
      "outputs": [
        {
          "internalType": "bool",
          "name": "",
          "type": "bool"
        }
      ],
      "stateMutability": "pure",
      "type": "function"
    },
    {
      "inputs": [
        {
          "internalType": "address",
          "name": "",
          "type": "address"
        },
        {
          "internalType": "address",
          "name": "",
          "type": "address"
        },
        {
          "internalType": "uint256",
          "name": "",
          "type": "uint256"
        }
      ],
      "name": "transferFrom",
      "outputs": [
        {
          "internalType": "bool",
          "name": "",
          "type": "bool"
        }
      ],
      "stateMutability": "pure",
      "type": "function"
    },
    {
      "inputs": [],
      "name": "unregister",
      "outputs": [],
      "stateMutability": "pure",
      "type": "function"
    },
    {
      "inputs": [
        {
          "internalType": "address",
          "name": "",
          "type": "address"
        },
        {
          "internalType": "string",
          "name": "",
          "type": "string"
        }
      ],
      "name": "update",
      "outputs": [],
      "stateMutability": "pure",
      "type": "function"
    },
    {
      "inputs": [
        {
          "internalType": "address",
          "name": "_id",
          "type": "address"
        }
      ],
      "name": "validators",
      "outputs": [
        {
          "internalType": "address",
          "name": "id",
          "type": "address"
        },
        {
          "internalType": "string",
          "name": "location",
          "type": "string"
        }
      ],
      "stateMutability": "pure",
      "type": "function"
    },
    {
      "inputs": [
        {
          "internalType": "address[]",
          "name": "_validators",
          "type": "address[]"
        }
      ],
      "name": "verifyValidators",
      "outputs": [
        {
          "internalType": "bool",
          "name": "",
          "type": "bool"
        }
      ],
      "stateMutability": "view",
      "type": "function"
    },
    {
      "inputs": [
        {
          "internalType": "uint256",
          "name": "",
          "type": "uint256"
        }
      ],
      "name": "withdraw",
      "outputs": [
        {
          "internalType": "bool",
          "name": "",
          "type": "bool"
        }
      ],
      "stateMutability": "pure",
      "type": "function"
    }
  ],
  "transactionHash": "0x9265ab2e55823b6a8250bbd126768585b3bd86d896fb9d4fb75dc01eb102cb88",
  "args": [
    2
  ],
  "numDeployments": 1,
  "solcInputHash": "b66b4b9bcc0eef4fd0a8f4cbbdc9a772",
  "bytecode": "0x60c06040523480156200001157600080fd5b50604051620018f1380380620018f18339818101604052810190620000379190620002ee565b808060808181525050670de0b6b3a7640000816200005691906200034f565b60a081815250506200006e816200007660201b60201c565b50506200040e565b600062000088620000ef60201b60201c565b9050818151146200009857600080fd5b60005b82811015620000ea57620000d2828281518110620000be57620000bd620003b0565b5b60200260200101516200021760201b60201c565b620000dc57600080fd5b80806001019150506200009b565b505050565b6060600060805167ffffffffffffffff811115620001125762000111620003df565b5b604051908082528060200260200182016040528015620001415781602001602082028036833780820191505090505b50905073dc3ebc37da53a644d67e5e3b5ba4eef88d969d5c8160008151811062000170576200016f620003b0565b5b602002602001019073ffffffffffffffffffffffffffffffffffffffff16908173ffffffffffffffffffffffffffffffffffffffff168152505073998cb7821e605cc16b6174e7c50e19adb2dd2fb081600181518110620001d657620001d5620003b0565b5b602002602001019073ffffffffffffffffffffffffffffffffffffffff16908173ffffffffffffffffffffffffffffffffffffffff16815250508091505090565b600073dc3ebc37da53a644d67e5e3b5ba4eef88d969d5c73ffffffffffffffffffffffffffffffffffffffff168273ffffffffffffffffffffffffffffffffffffffff161480620002a7575073998cb7821e605cc16b6174e7c50e19adb2dd2fb073ffffffffffffffffffffffffffffffffffffffff168273ffffffffffffffffffffffffffffffffffffffff16145b9050919050565b600080fd5b6000819050919050565b620002c881620002b3565b8114620002d457600080fd5b50565b600081519050620002e881620002bd565b92915050565b600060208284031215620003075762000306620002ae565b5b60006200031784828501620002d7565b91505092915050565b7f4e487b7100000000000000000000000000000000000000000000000000000000600052601160045260246000fd5b60006200035c82620002b3565b91506200036983620002b3565b9250817fffffffffffffffffffffffffffffffffffffffffffffffffffffffffffffffff0483118215151615620003a557620003a462000320565b5b828202905092915050565b7f4e487b7100000000000000000000000000000000000000000000000000000000600052603260045260246000fd5b7f4e487b7100000000000000000000000000000000000000000000000000000000600052604160045260246000fd5b60805160a05161149a62000457600039600081816106c301526108b5015260008181610562015281816105d0015281816108db015281816109cc0152610c13015261149a6000f3fe608060405234801561001057600080fd5b506004361061015e5760003560e01c8062113e0814610163578063095ea7b3146101815780630db18e37146101b157806317d7de7c146101e157806318160ddd146101ff5780631aa3a0081461021d5780631d4f9ce01461022757806323b872dd1461025757806327e235e31461028757806329092d0e146102b75780632e1a7d4d146102d3578063411ff4971461030357806352b41e351461032157806370a082311461033d578063838e7c3a1461036d578063902d55a5146103895780639031d913146103a75780639f0e9484146103c5578063a15ab08d146103e3578063a39fac12146103ff578063a694fc3a1461041d578063a9059cbb14610439578063c2ee3a0814610469578063db73177714610487578063dd62ed3e146104a5578063e79a198f146104d5578063e9fad8ee146104df578063edf26d9b146104fd578063fa52c7d81461052d575b600080fd5b61016b61055e565b6040516101789190610e11565b60405180910390f35b61019b60048036038101906101969190610ec7565b61062f565b6040516101a89190610f22565b60405180910390f35b6101cb60048036038101906101c69190610f3d565b610663565b6040516101d89190610f22565b60405180910390f35b6101e9610697565b6040516101f69190610f83565b60405180910390f35b6102076106bf565b6040516102149190610fad565b60405180910390f35b6102256106e7565b005b610241600480360381019061023c919061102d565b6106e9565b60405161024e9190610f22565b60405180910390f35b610271600480360381019061026c919061107a565b61074f565b60405161027e9190610f22565b60405180910390f35b6102a1600480360381019061029c9190610f3d565b610783565b6040516102ae9190610fad565b60405180910390f35b6102d160048036038101906102cc9190610f3d565b6107aa565b005b6102ed60048036038101906102e891906110cd565b6107dc565b6040516102fa9190610f22565b60405180910390f35b61030b610810565b6040516103189190611109565b60405180910390f35b61033b600480360381019061033691906110cd565b610828565b005b61035760048036038101906103529190610f3d565b61085a565b6040516103649190610fad565b60405180910390f35b6103876004803603810190610382919061117a565b610881565b005b6103916108b3565b60405161039e9190610fad565b60405180910390f35b6103af6108d7565b6040516103bc9190610fad565b60405180910390f35b6103cd6108ff565b6040516103da9190611109565b60405180910390f35b6103fd60048036038101906103f8919061117a565b610917565b005b610407610949565b6040516104149190611298565b60405180910390f35b610437600480360381019061043291906110cd565b610958565b005b610453600480360381019061044e9190610ec7565b61098a565b6040516104609190610f22565b60405180910390f35b6104716109be565b60405161047e9190610fad565b60405180910390f35b61048f6109ca565b60405161049c9190610fad565b60405180910390f35b6104bf60048036038101906104ba91906112ba565b6109ee565b6040516104cc9190610fad565b60405180910390f35b6104dd610a22565b005b6104e7610a24565b6040516104f49190610f22565b60405180910390f35b610517600480360381019061051291906110cd565b610a58565b6040516105249190611109565b60405180910390f35b61054760048036038101906105429190610f3d565b610a83565b604051610555929190611393565b60405180910390f35b60607f000000000000000000000000000000000000000000000000000000000000000067ffffffffffffffff81111561059a576105996113c3565b5b6040519080825280602002602001820160405280156105c85781602001602082028036833780820191505090505b50905060005b7f000000000000000000000000000000000000000000000000000000000000000081101561062b57670de0b6b3a7640000828281518110610612576106116113f2565b5b60200260200101818152505080806001019150506105ce565b5090565b60006040517fa038794000000000000000000000000000000000000000000000000000000000815260040160405180910390fd5b60006040517fa038794000000000000000000000000000000000000000000000000000000000815260040160405180910390fd5b60007f5374616b696e6742616e6b000000000000000000000000000000000000000000905090565b60007f0000000000000000000000000000000000000000000000000000000000000000905090565b565b6000805b838390508110156107435761072884848381811061070e5761070d6113f2565b5b90506020020160208101906107239190610f3d565b610b77565b610736576000915050610749565b80806001019150506106ed565b50600190505b92915050565b60006040517fa038794000000000000000000000000000000000000000000000000000000000815260040160405180910390fd5b600061078e82610b77565b6107995760006107a3565b670de0b6b3a76400005b9050919050565b6040517fa038794000000000000000000000000000000000000000000000000000000000815260040160405180910390fd5b60006040517fa038794000000000000000000000000000000000000000000000000000000000815260040160405180910390fd5b73998cb7821e605cc16b6174e7c50e19adb2dd2fb081565b6040517fa038794000000000000000000000000000000000000000000000000000000000815260040160405180910390fd5b600061086582610b77565b61087057600061087a565b670de0b6b3a76400005b9050919050565b6040517fa038794000000000000000000000000000000000000000000000000000000000815260040160405180910390fd5b7f000000000000000000000000000000000000000000000000000000000000000081565b60007f0000000000000000000000000000000000000000000000000000000000000000905090565b73dc3ebc37da53a644d67e5e3b5ba4eef88d969d5c81565b6040517fa038794000000000000000000000000000000000000000000000000000000000815260040160405180910390fd5b6060610953610c0d565b905090565b6040517fa038794000000000000000000000000000000000000000000000000000000000815260040160405180910390fd5b60006040517fa038794000000000000000000000000000000000000000000000000000000000815260040160405180910390fd5b670de0b6b3a764000081565b7f000000000000000000000000000000000000000000000000000000000000000081565b60006040517fa038794000000000000000000000000000000000000000000000000000000000815260040160405180910390fd5b565b60006040517fa038794000000000000000000000000000000000000000000000000000000000815260040160405180910390fd5b6000610a62610c0d565b8281518110610a7457610a736113f2565b5b60200260200101519050919050565b6000606073dc3ebc37da53a644d67e5e3b5ba4eef88d969d5c73ffffffffffffffffffffffffffffffffffffffff168373ffffffffffffffffffffffffffffffffffffffff1603610af157826040518060600160405280602181526020016114226021913991509150610b72565b73998cb7821e605cc16b6174e7c50e19adb2dd2fb073ffffffffffffffffffffffffffffffffffffffff168373ffffffffffffffffffffffffffffffffffffffff1603610b5b57826040518060600160405280602281526020016114436022913991509150610b72565b600060405180602001604052806000815250915091505b915091565b600073dc3ebc37da53a644d67e5e3b5ba4eef88d969d5c73ffffffffffffffffffffffffffffffffffffffff168273ffffffffffffffffffffffffffffffffffffffff161480610c06575073998cb7821e605cc16b6174e7c50e19adb2dd2fb073ffffffffffffffffffffffffffffffffffffffff168273ffffffffffffffffffffffffffffffffffffffff16145b9050919050565b606060007f000000000000000000000000000000000000000000000000000000000000000067ffffffffffffffff811115610c4b57610c4a6113c3565b5b604051908082528060200260200182016040528015610c795781602001602082028036833780820191505090505b50905073dc3ebc37da53a644d67e5e3b5ba4eef88d969d5c81600081518110610ca557610ca46113f2565b5b602002602001019073ffffffffffffffffffffffffffffffffffffffff16908173ffffffffffffffffffffffffffffffffffffffff168152505073998cb7821e605cc16b6174e7c50e19adb2dd2fb081600181518110610d0857610d076113f2565b5b602002602001019073ffffffffffffffffffffffffffffffffffffffff16908173ffffffffffffffffffffffffffffffffffffffff16815250508091505090565b600081519050919050565b600082825260208201905092915050565b6000819050602082019050919050565b6000819050919050565b610d8881610d75565b82525050565b6000610d9a8383610d7f565b60208301905092915050565b6000602082019050919050565b6000610dbe82610d49565b610dc88185610d54565b9350610dd383610d65565b8060005b83811015610e04578151610deb8882610d8e565b9750610df683610da6565b925050600181019050610dd7565b5085935050505092915050565b60006020820190508181036000830152610e2b8184610db3565b905092915050565b600080fd5b600080fd5b600073ffffffffffffffffffffffffffffffffffffffff82169050919050565b6000610e6882610e3d565b9050919050565b610e7881610e5d565b8114610e8357600080fd5b50565b600081359050610e9581610e6f565b92915050565b610ea481610d75565b8114610eaf57600080fd5b50565b600081359050610ec181610e9b565b92915050565b60008060408385031215610ede57610edd610e33565b5b6000610eec85828601610e86565b9250506020610efd85828601610eb2565b9150509250929050565b60008115159050919050565b610f1c81610f07565b82525050565b6000602082019050610f376000830184610f13565b92915050565b600060208284031215610f5357610f52610e33565b5b6000610f6184828501610e86565b91505092915050565b6000819050919050565b610f7d81610f6a565b82525050565b6000602082019050610f986000830184610f74565b92915050565b610fa781610d75565b82525050565b6000602082019050610fc26000830184610f9e565b92915050565b600080fd5b600080fd5b600080fd5b60008083601f840112610fed57610fec610fc8565b5b8235905067ffffffffffffffff81111561100a57611009610fcd565b5b60208301915083602082028301111561102657611025610fd2565b5b9250929050565b6000806020838503121561104457611043610e33565b5b600083013567ffffffffffffffff81111561106257611061610e38565b5b61106e85828601610fd7565b92509250509250929050565b60008060006060848603121561109357611092610e33565b5b60006110a186828701610e86565b93505060206110b286828701610e86565b92505060406110c386828701610eb2565b9150509250925092565b6000602082840312156110e3576110e2610e33565b5b60006110f184828501610eb2565b91505092915050565b61110381610e5d565b82525050565b600060208201905061111e60008301846110fa565b92915050565b60008083601f84011261113a57611139610fc8565b5b8235905067ffffffffffffffff81111561115757611156610fcd565b5b60208301915083600182028301111561117357611172610fd2565b5b9250929050565b60008060006040848603121561119357611192610e33565b5b60006111a186828701610e86565b935050602084013567ffffffffffffffff8111156111c2576111c1610e38565b5b6111ce86828701611124565b92509250509250925092565b600081519050919050565b600082825260208201905092915050565b6000819050602082019050919050565b61120f81610e5d565b82525050565b60006112218383611206565b60208301905092915050565b6000602082019050919050565b6000611245826111da565b61124f81856111e5565b935061125a836111f6565b8060005b8381101561128b5781516112728882611215565b975061127d8361122d565b92505060018101905061125e565b5085935050505092915050565b600060208201905081810360008301526112b2818461123a565b905092915050565b600080604083850312156112d1576112d0610e33565b5b60006112df85828601610e86565b92505060206112f085828601610e86565b9150509250929050565b600081519050919050565b600082825260208201905092915050565b60005b83811015611334578082015181840152602081019050611319565b83811115611343576000848401525b50505050565b6000601f19601f8301169050919050565b6000611365826112fa565b61136f8185611305565b935061137f818560208601611316565b61138881611349565b840191505092915050565b60006040820190506113a860008301856110fa565b81810360208301526113ba818461135a565b90509392505050565b7f4e487b7100000000000000000000000000000000000000000000000000000000600052604160045260246000fd5b7f4e487b7100000000000000000000000000000000000000000000000000000000600052603260045260246000fdfe68747470733a2f2f76616c696461746f722e6465762e756d622e6e6574776f726b68747470733a2f2f76616c696461746f72322e6465762e756d622e6e6574776f726ba2646970667358221220a252734ced14df2318763ff3d8091c0bc6619cf3589eee33961b91360f3fc96264736f6c634300080d0033",
  "devdoc": {
    "kind": "dev",
    "methods": {
      "addresses(uint256)": {
        "details": "gets validator address for provided index",
        "params": {
          "_ix": "index in array of list of all validators wallets"
        }
      },
      "balanceOf(address)": {
        "details": "to follow ERC20 interface"
      },
      "exit()": {
        "details": "unstake and withdraw all tokens"
      },
      "getName()": {
        "details": "to follow Registrable interface"
      },
      "getNumberOfValidators()": {
        "returns": {
          "_0": "total number of registered validators (with and without balance)"
        }
      },
      "register()": {
        "details": "to follow Registrable interface"
      },
      "totalSupply()": {
        "details": "to follow ERC20 interface"
      },
      "unregister()": {
        "details": "to follow Registrable interface"
      },
      "validators(address)": {
        "params": {
          "_id": "address of validator"
        },
        "returns": {
          "id": "address of validator",
          "location": "URL of validator"
        }
      }
    },
    "version": 1
  },
  "userdoc": {
    "kind": "user",
    "methods": {},
    "version": 1
  },
  "storageLayout": {
    "storage": [],
    "types": null
  }
}