{
  "address": "0xff38197cceF56149976C6D7F6103eB700C086247",
  "abi": [
    {
      "inputs": [
        {
          "internalType": "contract IRegistry",
          "name": "_contractRegistry",
          "type": "address"
        }
      ],
      "stateMutability": "nonpayable",
      "type": "constructor"
    },
    {
      "inputs": [],
      "name": "ArrayLengthError",
      "type": "error"
    },
    {
      "inputs": [],
      "name": "InvalidTotalSupply",
      "type": "error"
    },
    {
      "inputs": [],
      "name": "NoChangeToState",
      "type": "error"
    },
    {
      "inputs": [],
      "name": "NotSupported",
      "type": "error"
    },
    {
      "anonymous": false,
      "inputs": [
        {
          "indexed": true,
          "internalType": "address",
          "name": "owner",
          "type": "address"
        },
        {
          "indexed": true,
          "internalType": "address",
          "name": "spender",
          "type": "address"
        },
        {
          "indexed": false,
          "internalType": "uint256",
          "name": "value",
          "type": "uint256"
        }
      ],
      "name": "Approval",
      "type": "event"
    },
    {
      "anonymous": false,
      "inputs": [
        {
          "indexed": false,
          "internalType": "uint256",
          "name": "minAmountForStake",
          "type": "uint256"
        }
      ],
      "name": "LogMinAmountForStake",
      "type": "event"
    },
    {
      "anonymous": false,
      "inputs": [
        {
          "indexed": true,
          "internalType": "address",
          "name": "id",
          "type": "address"
        }
      ],
      "name": "LogValidatorRegistered",
      "type": "event"
    },
    {
      "anonymous": false,
      "inputs": [
        {
          "indexed": true,
          "internalType": "address",
          "name": "id",
          "type": "address"
        }
      ],
      "name": "LogValidatorRemoved",
      "type": "event"
    },
    {
      "anonymous": false,
      "inputs": [
        {
          "indexed": true,
          "internalType": "address",
          "name": "id",
          "type": "address"
        }
      ],
      "name": "LogValidatorUpdated",
      "type": "event"
    },
    {
      "anonymous": false,
      "inputs": [
        {
          "indexed": true,
          "internalType": "address",
          "name": "previousOwner",
          "type": "address"
        },
        {
          "indexed": true,
          "internalType": "address",
          "name": "newOwner",
          "type": "address"
        }
      ],
      "name": "OwnershipTransferred",
      "type": "event"
    },
    {
      "anonymous": false,
      "inputs": [
        {
          "indexed": false,
          "internalType": "uint256",
          "name": "total",
          "type": "uint256"
        }
      ],
      "name": "TotalSupply",
      "type": "event"
    },
    {
      "anonymous": false,
      "inputs": [
        {
          "indexed": true,
          "internalType": "address",
          "name": "from",
          "type": "address"
        },
        {
          "indexed": true,
          "internalType": "address",
          "name": "to",
          "type": "address"
        },
        {
          "indexed": false,
          "internalType": "uint256",
          "name": "value",
          "type": "uint256"
        }
      ],
      "name": "Transfer",
      "type": "event"
    },
    {
      "anonymous": false,
      "inputs": [
        {
          "indexed": true,
          "internalType": "address",
          "name": "validator",
          "type": "address"
        },
        {
          "indexed": false,
          "internalType": "uint256",
          "name": "balance",
          "type": "uint256"
        }
      ],
      "name": "ValidatorBalanceUpdate",
      "type": "event"
    },
    {
      "inputs": [
        {
          "internalType": "uint256",
          "name": "",
          "type": "uint256"
        }
      ],
      "name": "addresses",
      "outputs": [
        {
          "internalType": "address",
          "name": "",
          "type": "address"
        }
      ],
      "stateMutability": "view",
      "type": "function"
    },
    {
      "inputs": [
        {
          "internalType": "address",
          "name": "",
          "type": "address"
        },
        {
          "internalType": "address",
          "name": "",
          "type": "address"
        }
      ],
      "name": "allowance",
      "outputs": [
        {
          "internalType": "uint256",
          "name": "",
          "type": "uint256"
        }
      ],
      "stateMutability": "pure",
      "type": "function"
    },
    {
      "inputs": [
        {
          "internalType": "address",
          "name": "",
          "type": "address"
        },
        {
          "internalType": "uint256",
          "name": "",
          "type": "uint256"
        }
      ],
      "name": "approve",
      "outputs": [
        {
          "internalType": "bool",
          "name": "",
          "type": "bool"
        }
      ],
      "stateMutability": "pure",
      "type": "function"
    },
    {
      "inputs": [
        {
          "internalType": "address",
          "name": "_account",
          "type": "address"
        }
      ],
      "name": "balanceOf",
      "outputs": [
        {
          "internalType": "uint256",
          "name": "",
          "type": "uint256"
        }
      ],
      "stateMutability": "view",
      "type": "function"
    },
    {
      "inputs": [
        {
          "internalType": "address",
          "name": "",
          "type": "address"
        }
      ],
      "name": "balances",
      "outputs": [
        {
          "internalType": "uint256",
          "name": "",
          "type": "uint256"
        }
      ],
      "stateMutability": "view",
      "type": "function"
    },
    {
      "inputs": [],
      "name": "contractRegistry",
      "outputs": [
        {
          "internalType": "contract IRegistry",
          "name": "",
          "type": "address"
        }
      ],
      "stateMutability": "view",
      "type": "function"
    },
    {
      "inputs": [
        {
          "internalType": "address",
          "name": "",
          "type": "address"
        },
        {
          "internalType": "string",
          "name": "",
          "type": "string"
        }
      ],
      "name": "create",
      "outputs": [],
      "stateMutability": "pure",
      "type": "function"
    },
    {
      "inputs": [],
      "name": "exit",
      "outputs": [
        {
          "internalType": "bool",
          "name": "",
          "type": "bool"
        }
      ],
      "stateMutability": "pure",
      "type": "function"
    },
    {
      "inputs": [],
      "name": "getAddresses",
      "outputs": [
        {
          "internalType": "address[]",
          "name": "",
          "type": "address[]"
        }
      ],
      "stateMutability": "view",
      "type": "function"
    },
    {
      "inputs": [],
      "name": "getBalances",
      "outputs": [
        {
          "internalType": "uint256[]",
          "name": "allBalances",
          "type": "uint256[]"
        }
      ],
      "stateMutability": "view",
      "type": "function"
    },
    {
      "inputs": [],
      "name": "getName",
      "outputs": [
        {
          "internalType": "bytes32",
          "name": "",
          "type": "bytes32"
        }
      ],
      "stateMutability": "pure",
      "type": "function"
    },
    {
      "inputs": [],
      "name": "getNumberOfValidators",
      "outputs": [
        {
          "internalType": "uint256",
          "name": "",
          "type": "uint256"
        }
      ],
      "stateMutability": "view",
      "type": "function"
    },
    {
      "inputs": [],
      "name": "owner",
      "outputs": [
        {
          "internalType": "address",
          "name": "",
          "type": "address"
        }
      ],
      "stateMutability": "view",
      "type": "function"
    },
    {
      "inputs": [
        {
          "internalType": "address",
          "name": "",
          "type": "address"
        }
      ],
      "name": "receiveApproval",
      "outputs": [
        {
          "internalType": "bool",
          "name": "",
          "type": "bool"
        }
      ],
      "stateMutability": "pure",
      "type": "function"
    },
    {
      "inputs": [
        {
          "internalType": "address",
          "name": "",
          "type": "address"
        },
        {
          "internalType": "uint256",
          "name": "",
          "type": "uint256"
        }
      ],
      "name": "receiveApproval",
      "outputs": [
        {
          "internalType": "bool",
          "name": "",
          "type": "bool"
        }
      ],
      "stateMutability": "pure",
      "type": "function"
    },
    {
      "inputs": [],
      "name": "register",
      "outputs": [],
      "stateMutability": "nonpayable",
      "type": "function"
    },
    {
      "inputs": [
        {
          "internalType": "address",
          "name": "",
          "type": "address"
        }
      ],
      "name": "remove",
      "outputs": [],
      "stateMutability": "pure",
      "type": "function"
    },
    {
      "inputs": [],
      "name": "renounceOwnership",
      "outputs": [],
      "stateMutability": "nonpayable",
      "type": "function"
    },
    {
      "inputs": [
        {
          "internalType": "address[]",
          "name": "_validators",
          "type": "address[]"
        },
        {
          "internalType": "uint256[]",
          "name": "_balances",
          "type": "uint256[]"
        },
        {
          "internalType": "uint256",
          "name": "_totalSupply",
          "type": "uint256"
        }
      ],
      "name": "setBalances",
      "outputs": [],
      "stateMutability": "nonpayable",
      "type": "function"
    },
    {
      "inputs": [
        {
          "internalType": "uint256",
          "name": "",
          "type": "uint256"
        }
      ],
      "name": "setMinAmountForStake",
      "outputs": [],
      "stateMutability": "pure",
      "type": "function"
    },
    {
      "inputs": [
        {
          "internalType": "uint256",
          "name": "_totalSupply",
          "type": "uint256"
        }
      ],
      "name": "setTotalSupply",
      "outputs": [],
      "stateMutability": "nonpayable",
      "type": "function"
    },
    {
      "inputs": [
        {
          "internalType": "uint256",
          "name": "",
          "type": "uint256"
        }
      ],
      "name": "stake",
      "outputs": [],
      "stateMutability": "pure",
      "type": "function"
    },
    {
      "inputs": [],
      "name": "stakingBankContract",
      "outputs": [
        {
          "internalType": "contract IStakingBank",
          "name": "",
          "type": "address"
        }
      ],
      "stateMutability": "view",
      "type": "function"
    },
    {
      "inputs": [],
      "name": "tokenContract",
      "outputs": [
        {
          "internalType": "contract ERC20",
          "name": "",
          "type": "address"
        }
      ],
      "stateMutability": "view",
      "type": "function"
    },
    {
      "inputs": [],
      "name": "totalSupply",
      "outputs": [
        {
          "internalType": "uint256",
          "name": "",
          "type": "uint256"
        }
      ],
      "stateMutability": "view",
      "type": "function"
    },
    {
      "inputs": [
        {
          "internalType": "address",
          "name": "",
          "type": "address"
        },
        {
          "internalType": "uint256",
          "name": "",
          "type": "uint256"
        }
      ],
      "name": "transfer",
      "outputs": [
        {
          "internalType": "bool",
          "name": "",
          "type": "bool"
        }
      ],
      "stateMutability": "pure",
      "type": "function"
    },
    {
      "inputs": [
        {
          "internalType": "address",
          "name": "",
          "type": "address"
        },
        {
          "internalType": "address",
          "name": "",
          "type": "address"
        },
        {
          "internalType": "uint256",
          "name": "",
          "type": "uint256"
        }
      ],
      "name": "transferFrom",
      "outputs": [
        {
          "internalType": "bool",
          "name": "",
          "type": "bool"
        }
      ],
      "stateMutability": "pure",
      "type": "function"
    },
    {
      "inputs": [
        {
          "internalType": "address",
          "name": "newOwner",
          "type": "address"
        }
      ],
      "name": "transferOwnership",
      "outputs": [],
      "stateMutability": "nonpayable",
      "type": "function"
    },
    {
      "inputs": [],
      "name": "unregister",
      "outputs": [],
      "stateMutability": "nonpayable",
      "type": "function"
    },
    {
      "inputs": [
        {
          "internalType": "address",
          "name": "",
          "type": "address"
        },
        {
          "internalType": "string",
          "name": "",
          "type": "string"
        }
      ],
      "name": "update",
      "outputs": [],
      "stateMutability": "pure",
      "type": "function"
    },
    {
      "inputs": [
        {
          "internalType": "address",
          "name": "",
          "type": "address"
        }
      ],
      "name": "validators",
      "outputs": [
        {
          "internalType": "address",
          "name": "",
          "type": "address"
        },
        {
          "internalType": "string",
          "name": "",
          "type": "string"
        }
      ],
      "stateMutability": "pure",
      "type": "function"
    },
    {
      "inputs": [
        {
          "internalType": "uint256",
          "name": "",
          "type": "uint256"
        }
      ],
      "name": "withdraw",
      "outputs": [
        {
          "internalType": "bool",
          "name": "",
          "type": "bool"
        }
      ],
      "stateMutability": "pure",
      "type": "function"
    }
  ],
  "transactionHash": "0x05ca3b92467b484d3c9acd27ed52ea5c086fa20d0da3ead01a2533f1cff1554c",
  "args": [
    "0x455acbbC2c15c086978083968a69B2e7E4d38d34"
  ],
  "numDeployments": 1,
  "solcInputHash": "8de513e03c67740dfcba1fe201c8738f",
  "bytecode": "0x60a06040523480156200001157600080fd5b50604051620024ef380380620024ef833981810160405281019062000037919062000250565b80600073ffffffffffffffffffffffffffffffffffffffff168173ffffffffffffffffffffffffffffffffffffffff1603620000aa576040517f08c379a0000000000000000000000000000000000000000000000000000000008152600401620000a190620002e3565b60405180910390fd5b8073ffffffffffffffffffffffffffffffffffffffff1660808173ffffffffffffffffffffffffffffffffffffffff168152505050620000ff620000f36200010660201b60201c565b6200010e60201b60201c565b5062000305565b600033905090565b60008060009054906101000a900473ffffffffffffffffffffffffffffffffffffffff169050816000806101000a81548173ffffffffffffffffffffffffffffffffffffffff021916908373ffffffffffffffffffffffffffffffffffffffff1602179055508173ffffffffffffffffffffffffffffffffffffffff168173ffffffffffffffffffffffffffffffffffffffff167f8be0079c531659141344cd1fd0a4f28419497f9722a3daafe3b4186f6b6457e060405160405180910390a35050565b600080fd5b600073ffffffffffffffffffffffffffffffffffffffff82169050919050565b60006200020482620001d7565b9050919050565b60006200021882620001f7565b9050919050565b6200022a816200020b565b81146200023657600080fd5b50565b6000815190506200024a816200021f565b92915050565b600060208284031215620002695762000268620001d2565b5b6000620002798482850162000239565b91505092915050565b600082825260208201905092915050565b7f5f726567697374727920697320656d7074790000000000000000000000000000600082015250565b6000620002cb60128362000282565b9150620002d88262000293565b602082019050919050565b60006020820190508181036000830152620002fe81620002bc565b9050919050565b6080516121b9620003366000396000818161090b0152818161098201528181610a210152610e9901526121b96000f3fe608060405234801561001057600080fd5b50600436106101ef5760003560e01c8063715018a61161010f578063abf410e5116100a2578063edf26d9b11610071578063edf26d9b14610596578063f2fde38b146105c6578063f7ea7a3d146105e2578063fa52c7d8146105fe576101ef565b8063abf410e514610520578063dd62ed3e1461053e578063e79a198f1461056e578063e9fad8ee14610578576101ef565b8063a15ab08d116100de578063a15ab08d1461049a578063a39fac12146104b6578063a694fc3a146104d4578063a9059cbb146104f0576101ef565b8063715018a614610438578063838e7c3a146104425780638da5cb5b1461045e5780639031d9131461047c576101ef565b806329092d0e1161018757806355a373d61161015657806355a373d6146103b0578063637180a8146103ce578063648b8dc0146103ec57806370a0823114610408576101ef565b806329092d0e146103185780632e1a7d4d146103345780634bdf1b0e1461036457806352b41e3514610394576101ef565b806318160ddd116101c357806318160ddd146102905780631aa3a008146102ae57806323b872dd146102b857806327e235e3146102e8576101ef565b8062113e08146101f4578063095ea7b3146102125780630db18e371461024257806317d7de7c14610272575b600080fd5b6101fc61062f565b60405161020991906116d1565b60405180910390f35b61022c60048036038101906102279190611787565b610740565b60405161023991906117e2565b60405180910390f35b61025c600480360381019061025791906117fd565b610774565b60405161026991906117e2565b60405180910390f35b61027a6107a8565b6040516102879190611843565b60405180910390f35b6102986107d0565b6040516102a5919061186d565b60405180910390f35b6102b66107d6565b005b6102d260048036038101906102cd9190611888565b6107d8565b6040516102df91906117e2565b60405180910390f35b61030260048036038101906102fd91906117fd565b61080c565b60405161030f919061186d565b60405180910390f35b610332600480360381019061032d91906117fd565b610824565b005b61034e600480360381019061034991906118db565b610856565b60405161035b91906117e2565b60405180910390f35b61037e60048036038101906103799190611787565b61088a565b60405161038b91906117e2565b60405180910390f35b6103ae60048036038101906103a991906118db565b6108be565b005b6103b86108f0565b6040516103c59190611967565b60405180910390f35b6103d6610a1d565b6040516103e391906119a3565b60405180910390f35b61040660048036038101906104019190611a79565b610abc565b005b610422600480360381019061041d91906117fd565b610c38565b60405161042f919061186d565b60405180910390f35b610440610c81565b005b61045c60048036038101906104579190611b64565b610d09565b005b610466610d3b565b6040516104739190611bd3565b60405180910390f35b610484610d64565b604051610491919061186d565b60405180910390f35b6104b460048036038101906104af9190611b64565b610d71565b005b6104be610da3565b6040516104cb9190611cac565b60405180910390f35b6104ee60048036038101906104e991906118db565b610e31565b005b61050a60048036038101906105059190611787565b610e63565b60405161051791906117e2565b60405180910390f35b610528610e97565b6040516105359190611cef565b60405180910390f35b61055860048036038101906105539190611d0a565b610ebb565b604051610565919061186d565b60405180910390f35b610576610eef565b005b610580610ef1565b60405161058d91906117e2565b60405180910390f35b6105b060048036038101906105ab91906118db565b610f25565b6040516105bd9190611bd3565b60405180910390f35b6105e060048036038101906105db91906117fd565b610f64565b005b6105fc60048036038101906105f791906118db565b61105b565b005b610618600480360381019061061391906117fd565b61111e565b604051610626929190611de3565b60405180910390f35b6060600060038054905090508067ffffffffffffffff81111561065557610654611e13565b5b6040519080825280602002602001820160405280156106835781602001602082028036833780820191505090505b50915060005b8181101561073b5760026000600383815481106106a9576106a8611e42565b5b9060005260206000200160009054906101000a900473ffffffffffffffffffffffffffffffffffffffff1673ffffffffffffffffffffffffffffffffffffffff1673ffffffffffffffffffffffffffffffffffffffff1681526020019081526020016000205483828151811061072257610721611e42565b5b6020026020010181815250508080600101915050610689565b505090565b60006040517fa038794000000000000000000000000000000000000000000000000000000000815260040160405180910390fd5b60006040517fa038794000000000000000000000000000000000000000000000000000000000815260040160405180910390fd5b60007f5374616b696e6742616e6b000000000000000000000000000000000000000000905090565b60015481565b565b60006040517fa038794000000000000000000000000000000000000000000000000000000000815260040160405180910390fd5b60026020528060005260406000206000915090505481565b6040517fa038794000000000000000000000000000000000000000000000000000000000815260040160405180910390fd5b60006040517fa038794000000000000000000000000000000000000000000000000000000000815260040160405180910390fd5b60006040517fa038794000000000000000000000000000000000000000000000000000000000815260040160405180910390fd5b6040517fa038794000000000000000000000000000000000000000000000000000000000815260040160405180910390fd5b60008073ffffffffffffffffffffffffffffffffffffffff167f000000000000000000000000000000000000000000000000000000000000000073ffffffffffffffffffffffffffffffffffffffff1603610980576040517f08c379a000000000000000000000000000000000000000000000000000000000815260040161097790611ebd565b60405180910390fd5b7f000000000000000000000000000000000000000000000000000000000000000073ffffffffffffffffffffffffffffffffffffffff166346bcb49d6040518163ffffffff1660e01b81526004016109d790611f03565b602060405180830381865afa1580156109f4573d6000803e3d6000fd5b505050506040513d601f19601f82011682018060405250810190610a189190611f31565b905090565b60007f000000000000000000000000000000000000000000000000000000000000000073ffffffffffffffffffffffffffffffffffffffff166346bcb49d6040518163ffffffff1660e01b8152600401610a7690611f84565b602060405180830381865afa158015610a93573d6000803e3d6000fd5b505050506040513d601f19601f82011682018060405250810190610ab79190611f31565b905090565b610ac4611154565b73ffffffffffffffffffffffffffffffffffffffff16610ae2610d3b565b73ffffffffffffffffffffffffffffffffffffffff1614610b38576040517f08c379a0000000000000000000000000000000000000000000000000000000008152600401610b2f90611fe9565b60405180910390fd5b828290508585905014610b77576040517fdf35c77400000000000000000000000000000000000000000000000000000000815260040160405180910390fd5b60005b85859050811015610bdc57610bcf868683818110610b9b57610b9a611e42565b5b9050602002016020810190610bb091906117fd565b858584818110610bc357610bc2611e42565b5b9050602002013561115c565b8080600101915050610b7a565b5080610be66112c3565b1115610c1e576040517f34bbd58500000000000000000000000000000000000000000000000000000000815260040160405180910390fd5b8060015414610c3157610c3081611376565b5b5050505050565b6000600260008373ffffffffffffffffffffffffffffffffffffffff1673ffffffffffffffffffffffffffffffffffffffff168152602001908152602001600020549050919050565b610c89611154565b73ffffffffffffffffffffffffffffffffffffffff16610ca7610d3b565b73ffffffffffffffffffffffffffffffffffffffff1614610cfd576040517f08c379a0000000000000000000000000000000000000000000000000000000008152600401610cf490611fe9565b60405180910390fd5b610d0760006113b7565b565b6040517fa038794000000000000000000000000000000000000000000000000000000000815260040160405180910390fd5b60008060009054906101000a900473ffffffffffffffffffffffffffffffffffffffff16905090565b6000600380549050905090565b6040517fa038794000000000000000000000000000000000000000000000000000000000815260040160405180910390fd5b60606003805480602002602001604051908101604052809291908181526020018280548015610e2757602002820191906000526020600020905b8160009054906101000a900473ffffffffffffffffffffffffffffffffffffffff1673ffffffffffffffffffffffffffffffffffffffff1681526020019060010190808311610ddd575b5050505050905090565b6040517fa038794000000000000000000000000000000000000000000000000000000000815260040160405180910390fd5b60006040517fa038794000000000000000000000000000000000000000000000000000000000815260040160405180910390fd5b7f000000000000000000000000000000000000000000000000000000000000000081565b60006040517fa038794000000000000000000000000000000000000000000000000000000000815260040160405180910390fd5b565b60006040517fa038794000000000000000000000000000000000000000000000000000000000815260040160405180910390fd5b60038181548110610f3557600080fd5b906000526020600020016000915054906101000a900473ffffffffffffffffffffffffffffffffffffffff1681565b610f6c611154565b73ffffffffffffffffffffffffffffffffffffffff16610f8a610d3b565b73ffffffffffffffffffffffffffffffffffffffff1614610fe0576040517f08c379a0000000000000000000000000000000000000000000000000000000008152600401610fd790611fe9565b60405180910390fd5b600073ffffffffffffffffffffffffffffffffffffffff168173ffffffffffffffffffffffffffffffffffffffff160361104f576040517f08c379a00000000000000000000000000000000000000000000000000000000081526004016110469061207b565b60405180910390fd5b611058816113b7565b50565b611063611154565b73ffffffffffffffffffffffffffffffffffffffff16611081610d3b565b73ffffffffffffffffffffffffffffffffffffffff16146110d7576040517f08c379a00000000000000000000000000000000000000000000000000000000081526004016110ce90611fe9565b60405180910390fd5b8060015403611112576040517f96f56f6a00000000000000000000000000000000000000000000000000000000815260040160405180910390fd5b61111b81611376565b50565b600060606040517fa038794000000000000000000000000000000000000000000000000000000000815260040160405180910390fd5b600033905090565b6000600260008473ffffffffffffffffffffffffffffffffffffffff1673ffffffffffffffffffffffffffffffffffffffff168152602001908152602001600020549050600082036111bf57600081146111ba576111b98361147b565b5b61122c565b6000810361122b576003839080600181540180825580915050600190039060005260206000200160009091909190916101000a81548173ffffffffffffffffffffffffffffffffffffffff021916908373ffffffffffffffffffffffffffffffffffffffff1602179055505b5b81600260008573ffffffffffffffffffffffffffffffffffffffff1673ffffffffffffffffffffffffffffffffffffffff168152602001908152602001600020819055508273ffffffffffffffffffffffffffffffffffffffff167fa0906617b0e86c0e6118e9bb4714093a013a5a41105149c908810bece3316ae2836040516112b6919061186d565b60405180910390a2505050565b600080600380549050905060005b818110156113715760026000600383815481106112f1576112f0611e42565b5b9060005260206000200160009054906101000a900473ffffffffffffffffffffffffffffffffffffffff1673ffffffffffffffffffffffffffffffffffffffff1673ffffffffffffffffffffffffffffffffffffffff168152602001908152602001600020548361136291906120ca565b925080806001019150506112d1565b505090565b806001819055507f91cf34a58a9ed220d9b072639106d1d07251e1791426d2560ab2d6c4ca19a183816040516113ac919061186d565b60405180910390a150565b60008060009054906101000a900473ffffffffffffffffffffffffffffffffffffffff169050816000806101000a81548173ffffffffffffffffffffffffffffffffffffffff021916908373ffffffffffffffffffffffffffffffffffffffff1602179055508173ffffffffffffffffffffffffffffffffffffffff168173ffffffffffffffffffffffffffffffffffffffff167f8be0079c531659141344cd1fd0a4f28419497f9722a3daafe3b4186f6b6457e060405160405180910390a35050565b6000600380549050905060005b81811015611603578273ffffffffffffffffffffffffffffffffffffffff16600382815481106114bb576114ba611e42565b5b9060005260206000200160009054906101000a900473ffffffffffffffffffffffffffffffffffffffff1673ffffffffffffffffffffffffffffffffffffffff16036115f65760036001836115109190612120565b8154811061152157611520611e42565b5b9060005260206000200160009054906101000a900473ffffffffffffffffffffffffffffffffffffffff16600382815481106115605761155f611e42565b5b9060005260206000200160006101000a81548173ffffffffffffffffffffffffffffffffffffffff021916908373ffffffffffffffffffffffffffffffffffffffff16021790555060038054806115ba576115b9612154565b5b6001900381819060005260206000200160006101000a81549073ffffffffffffffffffffffffffffffffffffffff021916905590555050611606565b8080600101915050611488565b50505b50565b600081519050919050565b600082825260208201905092915050565b6000819050602082019050919050565b6000819050919050565b61164881611635565b82525050565b600061165a838361163f565b60208301905092915050565b6000602082019050919050565b600061167e82611609565b6116888185611614565b935061169383611625565b8060005b838110156116c45781516116ab888261164e565b97506116b683611666565b925050600181019050611697565b5085935050505092915050565b600060208201905081810360008301526116eb8184611673565b905092915050565b600080fd5b600080fd5b600073ffffffffffffffffffffffffffffffffffffffff82169050919050565b6000611728826116fd565b9050919050565b6117388161171d565b811461174357600080fd5b50565b6000813590506117558161172f565b92915050565b61176481611635565b811461176f57600080fd5b50565b6000813590506117818161175b565b92915050565b6000806040838503121561179e5761179d6116f3565b5b60006117ac85828601611746565b92505060206117bd85828601611772565b9150509250929050565b60008115159050919050565b6117dc816117c7565b82525050565b60006020820190506117f760008301846117d3565b92915050565b600060208284031215611813576118126116f3565b5b600061182184828501611746565b91505092915050565b6000819050919050565b61183d8161182a565b82525050565b60006020820190506118586000830184611834565b92915050565b61186781611635565b82525050565b6000602082019050611882600083018461185e565b92915050565b6000806000606084860312156118a1576118a06116f3565b5b60006118af86828701611746565b93505060206118c086828701611746565b92505060406118d186828701611772565b9150509250925092565b6000602082840312156118f1576118f06116f3565b5b60006118ff84828501611772565b91505092915050565b6000819050919050565b600061192d611928611923846116fd565b611908565b6116fd565b9050919050565b600061193f82611912565b9050919050565b600061195182611934565b9050919050565b61196181611946565b82525050565b600060208201905061197c6000830184611958565b92915050565b600061198d82611934565b9050919050565b61199d81611982565b82525050565b60006020820190506119b86000830184611994565b92915050565b600080fd5b600080fd5b600080fd5b60008083601f8401126119e3576119e26119be565b5b8235905067ffffffffffffffff811115611a00576119ff6119c3565b5b602083019150836020820283011115611a1c57611a1b6119c8565b5b9250929050565b60008083601f840112611a3957611a386119be565b5b8235905067ffffffffffffffff811115611a5657611a556119c3565b5b602083019150836020820283011115611a7257611a716119c8565b5b9250929050565b600080600080600060608688031215611a9557611a946116f3565b5b600086013567ffffffffffffffff811115611ab357611ab26116f8565b5b611abf888289016119cd565b9550955050602086013567ffffffffffffffff811115611ae257611ae16116f8565b5b611aee88828901611a23565b93509350506040611b0188828901611772565b9150509295509295909350565b60008083601f840112611b2457611b236119be565b5b8235905067ffffffffffffffff811115611b4157611b406119c3565b5b602083019150836001820283011115611b5d57611b5c6119c8565b5b9250929050565b600080600060408486031215611b7d57611b7c6116f3565b5b6000611b8b86828701611746565b935050602084013567ffffffffffffffff811115611bac57611bab6116f8565b5b611bb886828701611b0e565b92509250509250925092565b611bcd8161171d565b82525050565b6000602082019050611be86000830184611bc4565b92915050565b600081519050919050565b600082825260208201905092915050565b6000819050602082019050919050565b611c238161171d565b82525050565b6000611c358383611c1a565b60208301905092915050565b6000602082019050919050565b6000611c5982611bee565b611c638185611bf9565b9350611c6e83611c0a565b8060005b83811015611c9f578151611c868882611c29565b9750611c9183611c41565b925050600181019050611c72565b5085935050505092915050565b60006020820190508181036000830152611cc68184611c4e565b905092915050565b6000611cd982611934565b9050919050565b611ce981611cce565b82525050565b6000602082019050611d046000830184611ce0565b92915050565b60008060408385031215611d2157611d206116f3565b5b6000611d2f85828601611746565b9250506020611d4085828601611746565b9150509250929050565b600081519050919050565b600082825260208201905092915050565b60005b83811015611d84578082015181840152602081019050611d69565b83811115611d93576000848401525b50505050565b6000601f19601f8301169050919050565b6000611db582611d4a565b611dbf8185611d55565b9350611dcf818560208601611d66565b611dd881611d99565b840191505092915050565b6000604082019050611df86000830185611bc4565b8181036020830152611e0a8184611daa565b90509392505050565b7f4e487b7100000000000000000000000000000000000000000000000000000000600052604160045260246000fd5b7f4e487b7100000000000000000000000000000000000000000000000000000000600052603260045260246000fd5b7f5f726567697374727920697320656d7074790000000000000000000000000000600082015250565b6000611ea7601283611d55565b9150611eb282611e71565b602082019050919050565b60006020820190508181036000830152611ed681611e9a565b9050919050565b7f554d420000000000000000000000000000000000000000000000000000000000815250565b6000602082019050611f1760008301611edd565b919050565b600081519050611f2b8161172f565b92915050565b600060208284031215611f4757611f466116f3565b5b6000611f5584828501611f1c565b91505092915050565b7f5374616b696e6742616e6b000000000000000000000000000000000000000000815250565b6000602082019050611f9860008301611f5e565b919050565b7f4f776e61626c653a2063616c6c6572206973206e6f7420746865206f776e6572600082015250565b6000611fd3602083611d55565b9150611fde82611f9d565b602082019050919050565b6000602082019050818103600083015261200281611fc6565b9050919050565b7f4f776e61626c653a206e6577206f776e657220697320746865207a65726f206160008201527f6464726573730000000000000000000000000000000000000000000000000000602082015250565b6000612065602683611d55565b915061207082612009565b604082019050919050565b6000602082019050818103600083015261209481612058565b9050919050565b7f4e487b7100000000000000000000000000000000000000000000000000000000600052601160045260246000fd5b60006120d582611635565b91506120e083611635565b9250827fffffffffffffffffffffffffffffffffffffffffffffffffffffffffffffffff038211156121155761211461209b565b5b828201905092915050565b600061212b82611635565b915061213683611635565b9250828210156121495761214861209b565b5b828203905092915050565b7f4e487b7100000000000000000000000000000000000000000000000000000000600052603160045260246000fdfea2646970667358221220fe342eb2f9fa63717f688c45583592ba51aa68ac4d0d86b780a901433f0c637564736f6c634300080d0033",
  "devdoc": {
    "kind": "dev",
    "methods": {
      "balanceOf(address)": {
        "details": "Returns the amount of tokens owned by `account`."
      },
      "exit()": {
        "details": "unstake and withdraw all tokens"
      },
      "getName()": {
        "returns": {
          "_0": "contract name as bytes32"
        }
      },
      "getNumberOfValidators()": {
        "returns": {
          "_0": "total number of registered validators (with and without balance)"
        }
      },
      "owner()": {
        "details": "Returns the address of the current owner."
      },
      "register()": {
        "details": "this method will be called as a first method in registration process when old contract will be replaced when called, old contract address is still in registry"
      },
      "renounceOwnership()": {
        "details": "Leaves the contract without owner. It will not be possible to call `onlyOwner` functions anymore. Can only be called by the current owner. NOTE: Renouncing ownership will leave the contract without an owner, thereby removing any functionality that is only available to the owner."
      },
      "setBalances(address[],uint256[],uint256)": {
        "params": {
          "_balances": "array of validator _balances that will be set (can be 0s)",
          "_totalSupply": "cloned value of total staked amount from master chain, it can be 0",
          "_validators": "array of validator addresses that needs to be updated"
        }
      },
      "setTotalSupply(uint256)": {
        "params": {
          "_totalSupply": "cloned value from master chain, it can be 0"
        }
      },
      "stakingBankContract()": {
        "details": "helper method for fetching StakingBank address"
      },
      "tokenContract()": {
        "details": "helper method for fetching UMB address"
      },
      "transferOwnership(address)": {
        "details": "Transfers ownership of the contract to a new account (`newOwner`). Can only be called by the current owner."
      },
      "unregister()": {
        "details": "this method will be called as a last method in registration process when old contract will be replaced when called, new contract address is already in registry"
      }
    },
    "stateVariables": {
      "totalSupply": {
        "details": "Returns the amount of tokens in existence."
      }
    },
    "version": 1
  },
  "userdoc": {
    "kind": "user",
    "methods": {
      "addresses(uint256)": {
        "notice": "list of all validators wallets"
      },
      "balances(address)": {
        "notice": "validator address => validator balance"
      },
      "setBalances(address[],uint256[],uint256)": {
        "notice": "use it to clone validators balances from master chain"
      },
      "setTotalSupply(uint256)": {
        "notice": "use it to clone validators balances from master chain"
      }
    },
    "version": 1
  },
  "storageLayout": {
    "storage": [
      {
        "astId": 7,
        "contract": "contracts/StakingBankState.sol:StakingBankState",
        "label": "_owner",
        "offset": 0,
        "slot": "0",
        "type": "t_address"
      },
      {
        "astId": 4139,
        "contract": "contracts/StakingBankState.sol:StakingBankState",
        "label": "totalSupply",
        "offset": 0,
        "slot": "1",
        "type": "t_uint256"
      },
      {
        "astId": 4144,
        "contract": "contracts/StakingBankState.sol:StakingBankState",
        "label": "balances",
        "offset": 0,
        "slot": "2",
        "type": "t_mapping(t_address,t_uint256)"
      },
      {
        "astId": 4148,
        "contract": "contracts/StakingBankState.sol:StakingBankState",
        "label": "addresses",
        "offset": 0,
        "slot": "3",
        "type": "t_array(t_address)dyn_storage"
      }
    ],
    "types": {
      "t_address": {
        "encoding": "inplace",
        "label": "address",
        "numberOfBytes": "20"
      },
      "t_array(t_address)dyn_storage": {
        "base": "t_address",
        "encoding": "dynamic_array",
        "label": "address[]",
        "numberOfBytes": "32"
      },
      "t_mapping(t_address,t_uint256)": {
        "encoding": "mapping",
        "key": "t_address",
        "label": "mapping(address => uint256)",
        "numberOfBytes": "32",
        "value": "t_uint256"
      },
      "t_uint256": {
        "encoding": "inplace",
        "label": "uint256",
        "numberOfBytes": "32"
      }
    }
  }
}